{"contracts/AcceleraPreDepositVault.sol":{"AcceleraPreDepositVault":{"abi":[{"inputs":[{"internalType":"address","name":"initialOwner_","type":"address"},{"internalType":"contract IERC20","name":"asset_","type":"address"},{"internalType":"string","name":"name_","type":"string"},{"internalType":"string","name":"symbol_","type":"string"}],"stateMutability":"nonpayable","type":"constructor"},{"inputs":[],"name":"AddressAlreadyHasReferralCode","type":"error"},{"inputs":[],"name":"CantReferYourself","type":"error"},{"inputs":[],"name":"DepositsDisabled","type":"error"},{"inputs":[{"internalType":"address","name":"spender","type":"address"},{"internalType":"uint256","name":"allowance","type":"uint256"},{"internalType":"uint256","name":"needed","type":"uint256"}],"name":"ERC20InsufficientAllowance","type":"error"},{"inputs":[{"internalType":"address","name":"sender","type":"address"},{"internalType":"uint256","name":"balance","type":"uint256"},{"internalType":"uint256","name":"needed","type":"uint256"}],"name":"ERC20InsufficientBalance","type":"error"},{"inputs":[{"internalType":"address","name":"approver","type":"address"}],"name":"ERC20InvalidApprover","type":"error"},{"inputs":[{"internalType":"address","name":"receiver","type":"address"}],"name":"ERC20InvalidReceiver","type":"error"},{"inputs":[{"internalType":"address","name":"sender","type":"address"}],"name":"ERC20InvalidSender","type":"error"},{"inputs":[{"internalType":"address","name":"spender","type":"address"}],"name":"ERC20InvalidSpender","type":"error"},{"inputs":[{"internalType":"address","name":"receiver","type":"address"},{"internalType":"uint256","name":"assets","type":"uint256"},{"internalType":"uint256","name":"max","type":"uint256"}],"name":"ERC4626ExceededMaxDeposit","type":"error"},{"inputs":[{"internalType":"address","name":"receiver","type":"address"},{"internalType":"uint256","name":"shares","type":"uint256"},{"internalType":"uint256","name":"max","type":"uint256"}],"name":"ERC4626ExceededMaxMint","type":"error"},{"inputs":[{"internalType":"address","name":"owner","type":"address"},{"internalType":"uint256","name":"shares","type":"uint256"},{"internalType":"uint256","name":"max","type":"uint256"}],"name":"ERC4626ExceededMaxRedeem","type":"error"},{"inputs":[{"internalType":"address","name":"owner","type":"address"},{"internalType":"uint256","name":"assets","type":"uint256"},{"internalType":"uint256","name":"max","type":"uint256"}],"name":"ERC4626ExceededMaxWithdraw","type":"error"},{"inputs":[],"name":"NotEnoughXUSDEToGenerateCode","type":"error"},{"inputs":[{"internalType":"address","name":"owner","type":"address"}],"name":"OwnableInvalidOwner","type":"error"},{"inputs":[{"internalType":"address","name":"account","type":"address"}],"name":"OwnableUnauthorizedAccount","type":"error"},{"inputs":[],"name":"ReferralCodeAlreadyUsed","type":"error"},{"inputs":[],"name":"ReferralCodeCreationDisabled","type":"error"},{"inputs":[],"name":"ReferralCodeDoesNotExist","type":"error"},{"inputs":[],"name":"ReferralCodeMandatory","type":"error"},{"inputs":[{"internalType":"address","name":"token","type":"address"}],"name":"SafeERC20FailedOperation","type":"error"},{"inputs":[],"name":"WithdrawalsDisabled","type":"error"},{"anonymous":false,"inputs":[{"indexed":true,"internalType":"address","name":"owner","type":"address"},{"indexed":true,"internalType":"address","name":"spender","type":"address"},{"indexed":false,"internalType":"uint256","name":"value","type":"uint256"}],"name":"Approval","type":"event"},{"anonymous":false,"inputs":[{"indexed":true,"internalType":"address","name":"sender","type":"address"},{"indexed":true,"internalType":"address","name":"owner","type":"address"},{"indexed":false,"internalType":"uint256","name":"assets","type":"uint256"},{"indexed":false,"internalType":"uint256","name":"shares","type":"uint256"}],"name":"Deposit","type":"event"},{"anonymous":false,"inputs":[{"indexed":false,"internalType":"bool","name":"enabled","type":"bool"}],"name":"DepositsEnabled","type":"event"},{"anonymous":false,"inputs":[{"indexed":true,"internalType":"address","name":"previousOwner","type":"address"},{"indexed":true,"internalType":"address","name":"newOwner","type":"address"}],"name":"OwnershipTransferred","type":"event"},{"anonymous":false,"inputs":[{"indexed":false,"internalType":"address","name":"user","type":"address"},{"indexed":false,"internalType":"string","name":"code","type":"string"}],"name":"ReferralCodeCreated","type":"event"},{"anonymous":false,"inputs":[{"indexed":false,"internalType":"bool","name":"enabled","type":"bool"}],"name":"ReferralCodeCreationEnabled","type":"event"},{"anonymous":false,"inputs":[{"indexed":false,"internalType":"bool","name":"enabled","type":"bool"}],"name":"ReferralCodeMandatoryEnabled","type":"event"},{"anonymous":false,"inputs":[{"indexed":false,"internalType":"address","name":"user","type":"address"},{"indexed":false,"internalType":"string","name":"code","type":"string"}],"name":"ReferralCodeUsed","type":"event"},{"anonymous":false,"inputs":[{"indexed":false,"internalType":"uint256","name":"minimum","type":"uint256"}],"name":"SetMinimumBalanceToGenerateCode","type":"event"},{"anonymous":false,"inputs":[{"indexed":true,"internalType":"address","name":"from","type":"address"},{"indexed":true,"internalType":"address","name":"to","type":"address"},{"indexed":false,"internalType":"uint256","name":"value","type":"uint256"}],"name":"Transfer","type":"event"},{"anonymous":false,"inputs":[{"indexed":false,"internalType":"bool","name":"enable","type":"bool"}],"name":"UseReferralOnlyInDepositsEnabled","type":"event"},{"anonymous":false,"inputs":[{"indexed":true,"internalType":"address","name":"sender","type":"address"},{"indexed":true,"internalType":"address","name":"receiver","type":"address"},{"indexed":true,"internalType":"address","name":"owner","type":"address"},{"indexed":false,"internalType":"uint256","name":"assets","type":"uint256"},{"indexed":false,"internalType":"uint256","name":"shares","type":"uint256"}],"name":"Withdraw","type":"event"},{"anonymous":false,"inputs":[{"indexed":false,"internalType":"bool","name":"enabled","type":"bool"}],"name":"WithdrawalsEnabled","type":"event"},{"inputs":[{"internalType":"address","name":"owner","type":"address"},{"internalType":"address","name":"spender","type":"address"}],"name":"allowance","outputs":[{"internalType":"uint256","name":"","type":"uint256"}],"stateMutability":"view","type":"function"},{"inputs":[{"internalType":"address","name":"spender","type":"address"},{"internalType":"uint256","name":"value","type":"uint256"}],"name":"approve","outputs":[{"internalType":"bool","name":"","type":"bool"}],"stateMutability":"nonpayable","type":"function"},{"inputs":[],"name":"asset","outputs":[{"internalType":"address","name":"","type":"address"}],"stateMutability":"view","type":"function"},{"inputs":[{"internalType":"address","name":"account","type":"address"}],"name":"balanceOf","outputs":[{"internalType":"uint256","name":"","type":"uint256"}],"stateMutability":"view","type":"function"},{"inputs":[{"internalType":"uint256","name":"shares","type":"uint256"}],"name":"convertToAssets","outputs":[{"internalType":"uint256","name":"","type":"uint256"}],"stateMutability":"view","type":"function"},{"inputs":[{"internalType":"uint256","name":"assets","type":"uint256"}],"name":"convertToShares","outputs":[{"internalType":"uint256","name":"","type":"uint256"}],"stateMutability":"view","type":"function"},{"inputs":[],"name":"createReferralCode","outputs":[],"stateMutability":"nonpayable","type":"function"},{"inputs":[{"internalType":"address","name":"user_","type":"address"},{"internalType":"string","name":"code_","type":"string"}],"name":"createReferralCodeOwner","outputs":[],"stateMutability":"nonpayable","type":"function"},{"inputs":[],"name":"decimals","outputs":[{"internalType":"uint8","name":"","type":"uint8"}],"stateMutability":"view","type":"function"},{"inputs":[{"internalType":"uint256","name":"assets","type":"uint256"},{"internalType":"address","name":"receiver","type":"address"}],"name":"deposit","outputs":[{"internalType":"uint256","name":"","type":"uint256"}],"stateMutability":"nonpayable","type":"function"},{"inputs":[{"internalType":"uint256","name":"assets","type":"uint256"},{"internalType":"address","name":"receiver","type":"address"},{"internalType":"string","name":"code_","type":"string"}],"name":"depositWithReferral","outputs":[{"internalType":"uint256","name":"","type":"uint256"}],"stateMutability":"nonpayable","type":"function"},{"inputs":[],"name":"depositsEnabled","outputs":[{"internalType":"bool","name":"","type":"bool"}],"stateMutability":"view","type":"function"},{"inputs":[{"internalType":"address","name":"","type":"address"}],"name":"maxDeposit","outputs":[{"internalType":"uint256","name":"","type":"uint256"}],"stateMutability":"view","type":"function"},{"inputs":[{"internalType":"address","name":"","type":"address"}],"name":"maxMint","outputs":[{"internalType":"uint256","name":"","type":"uint256"}],"stateMutability":"view","type":"function"},{"inputs":[{"internalType":"address","name":"owner","type":"address"}],"name":"maxRedeem","outputs":[{"internalType":"uint256","name":"","type":"uint256"}],"stateMutability":"view","type":"function"},{"inputs":[{"internalType":"address","name":"owner","type":"address"}],"name":"maxWithdraw","outputs":[{"internalType":"uint256","name":"","type":"uint256"}],"stateMutability":"view","type":"function"},{"inputs":[],"name":"minimumBalanceToGenerateCode","outputs":[{"internalType":"uint256","name":"","type":"uint256"}],"stateMutability":"view","type":"function"},{"inputs":[{"internalType":"uint256","name":"shares","type":"uint256"},{"internalType":"address","name":"receiver","type":"address"}],"name":"mint","outputs":[{"internalType":"uint256","name":"","type":"uint256"}],"stateMutability":"nonpayable","type":"function"},{"inputs":[],"name":"name","outputs":[{"internalType":"string","name":"","type":"string"}],"stateMutability":"view","type":"function"},{"inputs":[],"name":"owner","outputs":[{"internalType":"address","name":"","type":"address"}],"stateMutability":"view","type":"function"},{"inputs":[{"internalType":"address","name":"","type":"address"}],"name":"ownerToReferralCode","outputs":[{"internalType":"string","name":"","type":"string"}],"stateMutability":"view","type":"function"},{"inputs":[{"internalType":"uint256","name":"assets","type":"uint256"}],"name":"previewDeposit","outputs":[{"internalType":"uint256","name":"","type":"uint256"}],"stateMutability":"view","type":"function"},{"inputs":[{"internalType":"uint256","name":"shares","type":"uint256"}],"name":"previewMint","outputs":[{"internalType":"uint256","name":"","type":"uint256"}],"stateMutability":"view","type":"function"},{"inputs":[{"internalType":"uint256","name":"shares","type":"uint256"}],"name":"previewRedeem","outputs":[{"internalType":"uint256","name":"","type":"uint256"}],"stateMutability":"view","type":"function"},{"inputs":[{"internalType":"uint256","name":"assets","type":"uint256"}],"name":"previewWithdraw","outputs":[{"internalType":"uint256","name":"","type":"uint256"}],"stateMutability":"view","type":"function"},{"inputs":[{"internalType":"uint256","name":"shares","type":"uint256"},{"internalType":"address","name":"receiver","type":"address"},{"internalType":"address","name":"owner","type":"address"}],"name":"redeem","outputs":[{"internalType":"uint256","name":"","type":"uint256"}],"stateMutability":"nonpayable","type":"function"},{"inputs":[],"name":"referralCodeCreationEnabled","outputs":[{"internalType":"bool","name":"","type":"bool"}],"stateMutability":"view","type":"function"},{"inputs":[],"name":"referralCodeMandatory","outputs":[{"internalType":"bool","name":"","type":"bool"}],"stateMutability":"view","type":"function"},{"inputs":[{"internalType":"string","name":"","type":"string"}],"name":"referralCodeToOwner","outputs":[{"internalType":"address","name":"","type":"address"}],"stateMutability":"view","type":"function"},{"inputs":[],"name":"renounceOwnership","outputs":[],"stateMutability":"nonpayable","type":"function"},{"inputs":[{"internalType":"bool","name":"depositsEnabled_","type":"bool"}],"name":"setDepositsEnabled","outputs":[],"stateMutability":"nonpayable","type":"function"},{"inputs":[{"internalType":"uint256","name":"minimumBalanceToGenerateCode_","type":"uint256"}],"name":"setMinimumBalanceToGenerateCode","outputs":[],"stateMutability":"nonpayable","type":"function"},{"inputs":[{"internalType":"bool","name":"referralCodeCreationEnabled_","type":"bool"}],"name":"setReferralCodeCreationEnabled","outputs":[],"stateMutability":"nonpayable","type":"function"},{"inputs":[{"internalType":"bool","name":"referralCodeMandatory_","type":"bool"}],"name":"setReferralCodeMandatory","outputs":[],"stateMutability":"nonpayable","type":"function"},{"inputs":[{"internalType":"bool","name":"useReferralOnlyInDeposits_","type":"bool"}],"name":"setUseReferralOnlyInDeposits","outputs":[],"stateMutability":"nonpayable","type":"function"},{"inputs":[{"internalType":"bool","name":"withdrawalsEnabled_","type":"bool"}],"name":"setWithdrawalsEnabled","outputs":[],"stateMutability":"nonpayable","type":"function"},{"inputs":[],"name":"symbol","outputs":[{"internalType":"string","name":"","type":"string"}],"stateMutability":"view","type":"function"},{"inputs":[],"name":"totalAssets","outputs":[{"internalType":"uint256","name":"","type":"uint256"}],"stateMutability":"view","type":"function"},{"inputs":[],"name":"totalSupply","outputs":[{"internalType":"uint256","name":"","type":"uint256"}],"stateMutability":"view","type":"function"},{"inputs":[{"internalType":"address","name":"to","type":"address"},{"internalType":"uint256","name":"value","type":"uint256"}],"name":"transfer","outputs":[{"internalType":"bool","name":"","type":"bool"}],"stateMutability":"nonpayable","type":"function"},{"inputs":[{"internalType":"address","name":"from","type":"address"},{"internalType":"address","name":"to","type":"address"},{"internalType":"uint256","name":"value","type":"uint256"}],"name":"transferFrom","outputs":[{"internalType":"bool","name":"","type":"bool"}],"stateMutability":"nonpayable","type":"function"},{"inputs":[{"internalType":"address","name":"newOwner","type":"address"}],"name":"transferOwnership","outputs":[],"stateMutability":"nonpayable","type":"function"},{"inputs":[{"internalType":"string","name":"code_","type":"string"}],"name":"useReferralCode","outputs":[],"stateMutability":"nonpayable","type":"function"},{"inputs":[],"name":"useReferralOnlyInDeposits","outputs":[{"internalType":"bool","name":"","type":"bool"}],"stateMutability":"view","type":"function"},{"inputs":[{"internalType":"uint256","name":"assets","type":"uint256"},{"internalType":"address","name":"receiver","type":"address"},{"internalType":"address","name":"owner","type":"address"}],"name":"withdraw","outputs":[{"internalType":"uint256","name":"","type":"uint256"}],"stateMutability":"nonpayable","type":"function"},{"inputs":[],"name":"withdrawalsEnabled","outputs":[{"internalType":"bool","name":"","type":"bool"}],"stateMutability":"view","type":"function"}],"evm":{"bytecode":{"linkReferences":{},"object":"60c060405234801561001057600080fd5b50604051612a9c380380612a9c83398101604081905261002f916102e7565b83838383600361003f8382610400565b50600461004c8282610400565b505050600080610061836100de60201b60201c565b9150915081610071576012610073565b805b60ff1660a05250506001600160a01b0390811660805281166100af57604051631e4fbdf760e01b81526000600482015260240160405180910390fd5b6100b8816101ba565b50506005805464ff00ffffff60a01b191664010001010160a01b179055506104f3915050565b60408051600481526024810182526020810180516001600160e01b031663313ce56760e01b17905290516000918291829182916001600160a01b03871691610125916104be565b600060405180830381855afa9150503d8060008114610160576040519150601f19603f3d011682016040523d82523d6000602084013e610165565b606091505b509150915081801561017957506020815110155b156101ad5760008180602001905181019061019491906104da565b905060ff81116101ab576001969095509350505050565b505b5060009485945092505050565b600580546001600160a01b038381166001600160a01b0319831681179093556040519116919082907f8be0079c531659141344cd1fd0a4f28419497f9722a3daafe3b4186f6b6457e090600090a35050565b6001600160a01b038116811461022157600080fd5b50565b634e487b7160e01b600052604160045260246000fd5b60005b8381101561025557818101518382015260200161023d565b50506000910152565b600082601f83011261026f57600080fd5b81516001600160401b0381111561028857610288610224565b604051601f8201601f19908116603f011681016001600160401b03811182821017156102b6576102b6610224565b6040528181528382016020018510156102ce57600080fd5b6102df82602083016020870161023a565b949350505050565b600080600080608085870312156102fd57600080fd5b84516103088161020c565b60208601519094506103198161020c565b60408601519093506001600160401b0381111561033557600080fd5b6103418782880161025e565b606087015190935090506001600160401b0381111561035f57600080fd5b61036b8782880161025e565b91505092959194509250565b600181811c9082168061038b57607f821691505b6020821081036103ab57634e487b7160e01b600052602260045260246000fd5b50919050565b601f8211156103fb57806000526020600020601f840160051c810160208510156103d85750805b601f840160051c820191505b818110156103f857600081556001016103e4565b50505b505050565b81516001600160401b0381111561041957610419610224565b61042d816104278454610377565b846103b1565b6020601f82116001811461046157600083156104495750848201515b600019600385901b1c1916600184901b1784556103f8565b600084815260208120601f198516915b828110156104915787850151825560209485019460019092019101610471565b50848210156104af5786840151600019600387901b60f8161c191681555b50505050600190811b01905550565b600082516104d081846020870161023a565b9190910192915050565b6000602082840312156104ec57600080fd5b5051919050565b60805160a05161256f61052d6000396000610bcb015260008181610402015281816107310152818161190b01526119bd015261256f6000f3fe608060405234801561001057600080fd5b506004361061030a5760003560e01c80638da5cb5b1161019c578063b460af94116100ee578063d0dbcd2411610097578063ddc117ec11610071578063ddc117ec146106da578063ef8b30f714610642578063f2fde38b146106ed57600080fd5b8063d0dbcd2414610668578063d905777e1461068e578063dd62ed3e146106a157600080fd5b8063c63d75b6116100c8578063c63d75b61461044e578063c6e6f59214610642578063ce96cb771461065557600080fd5b8063b460af94146105e8578063ba087652146105fb578063bb33bd6c1461060e57600080fd5b806395d89b41116101505780639f68b5751161012a5780639f68b575146105af578063a9059cbb146105c2578063b3d7f6b9146105d557600080fd5b806395d89b411461058b5780639e96e6d2146105935780639f04586c1461059c57600080fd5b80639090785811610181578063909078581461055257806394bf804d1461056557806394eaf06a1461057857600080fd5b80638da5cb5b146105195780638edf96471461052a57600080fd5b806333a8433a116102605780635392fd1c1161020957806370a08231116101e357806370a08231146104d5578063715018a6146104fe57806374a5b0e11461050657600080fd5b80635392fd1c1461047657806363a096631461049b5780636e553f65146104c257600080fd5b8063402d267d1161023a578063402d267d1461044e57806345b96500146104635780634cdad5061461033f57600080fd5b806333a8433a146103ed57806338d52e0f146104005780633cc5634b1461043a57600080fd5b80630a28a477116102c257806323b872dd1161029c57806323b872dd146103b85780632e108d1c146103cb578063313ce567146103d357600080fd5b80630a28a4771461038a5780630f65ba1e1461039d57806318160ddd146103b057600080fd5b806307a2d13a116102f357806307a2d13a1461033f578063095ea7b3146103525780630a1793271461037557600080fd5b806301e1d1141461030f57806306fdde031461032a575b600080fd5b610317610700565b6040519081526020015b60405180910390f35b6103326107a9565b6040516103219190611eac565b61031761034d366004611ebf565b61083b565b610365610360366004611ef4565b61084e565b6040519015158152602001610321565b610388610383366004611f1e565b610866565b005b610317610398366004611ebf565b6108f3565b6103886103ab366004611f1e565b610900565b600254610317565b6103656103c6366004611f40565b610983565b6103886109a9565b6103db610bc3565b60405160ff9091168152602001610321565b6103886103fb366004612023565b610bef565b7f00000000000000000000000000000000000000000000000000000000000000005b6040516001600160a01b039091168152602001610321565b60055461036590600160c01b900460ff1681565b61031761045c366004612058565b5060001990565b610388610471366004612073565b610c40565b6005546103659074010000000000000000000000000000000000000000900460ff1681565b60055461036590760100000000000000000000000000000000000000000000900460ff1681565b6103176104d03660046120c1565b610c76565b6103176104e3366004612058565b6001600160a01b031660009081526020819052604090205490565b610388610caa565b610388610514366004611f1e565b610cbe565b6005546001600160a01b0316610422565b6005546103659077010000000000000000000000000000000000000000000000900460ff1681565b610388610560366004611ebf565b610d2e565b6103176105733660046120c1565b610d6b565b610388610586366004611f1e565b610d89565b610332610e0d565b61031760065481565b6103886105aa366004611f1e565b610e1c565b6103176105bd3660046120ed565b610e9d565b6103656105d0366004611ef4565b610ebe565b6103176105e3366004611ebf565b610ecc565b6103176105f6366004612144565b610ed9565b610317610609366004612144565b610f54565b61042261061c366004612023565b80516020818301810180516008825292820191909301209152546001600160a01b031681565b610317610650366004611ebf565b610fcf565b610317610663366004612058565b610fdc565b600554610365907501000000000000000000000000000000000000000000900460ff1681565b61031761069c366004612058565b611000565b6103176106af366004612180565b6001600160a01b03918216600090815260016020908152604080832093909416825291909152205490565b6103326106e8366004612058565b61101e565b6103886106fb366004612058565b6110b8565b6040517f70a082310000000000000000000000000000000000000000000000000000000081523060048201526000907f00000000000000000000000000000000000000000000000000000000000000006001600160a01b0316906370a0823190602401602060405180830381865afa158015610780573d6000803e3d6000fd5b505050506040513d601f19601f820116820180604052508101906107a491906121aa565b905090565b6060600380546107b8906121c3565b80601f01602080910402602001604051908101604052809291908181526020018280546107e4906121c3565b80156108315780601f1061080657610100808354040283529160200191610831565b820191906000526020600020905b81548152906001019060200180831161081457829003601f168201915b5050505050905090565b600061084882600061110c565b92915050565b60003361085c818585611146565b5060019392505050565b61086e611158565b600580548215157501000000000000000000000000000000000000000000027fffffffffffffffffffff00ffffffffffffffffffffffffffffffffffffffffff9091161790556040517f45e7e6146471a396eb58b618e88efd46f5c95bd1815b282ed75c5220a559ab10906108e890831515815260200190565b60405180910390a150565b600061084882600161119e565b610908611158565b60058054821515760100000000000000000000000000000000000000000000027fffffffffffffffffff00ffffffffffffffffffffffffffffffffffffffffffff9091161790556040517f39d1e046657e0b945c1a67c1a65d784065b825ee87b8d5186c4b2de8dece1732906108e890831515815260200190565b6000336109918582856111ce565b61099c858585611266565b60019150505b9392505050565b600554760100000000000000000000000000000000000000000000900460ff166109ff576040517fd96a9b5d00000000000000000000000000000000000000000000000000000000815260040160405180910390fd5b600654610a0b336104e3565b1015610a43576040517f988c15d800000000000000000000000000000000000000000000000000000000815260040160405180910390fd5b336000610a5060066112f7565b905060006001600160a01b0316600882604051610a6d91906121fd565b908152604051908190036020019020546001600160a01b031614610abd576040517fe3ba090400000000000000000000000000000000000000000000000000000000815260040160405180910390fd5b6001600160a01b03821660009081526009602052604090208054610ae0906121c3565b159050610b19576040517f61b8b41d00000000000000000000000000000000000000000000000000000000815260040160405180910390fd5b81600882604051610b2a91906121fd565b908152604080516020928190038301902080547fffffffffffffffffffffffff0000000000000000000000000000000000000000166001600160a01b039485161790559184166000908152600990915220610b858282612260565b507fbbba1cab2093e26ee6b388fefb2109576871f9236f9c1f22779dad4b82093b7b8282604051610bb792919061231f565b60405180910390a15050565b60006107a4817f0000000000000000000000000000000000000000000000000000000000000000612357565b600554600160c01b900460ff1615610c33576040517fd96a9b5d00000000000000000000000000000000000000000000000000000000815260040160405180910390fd5b610c3d3382611409565b50565b610c48611158565b8051600003610c5b57610a5060066112f7565b60006001600160a01b0316600882604051610a6d91906121fd565b6000600019610c89565b60405180910390fd5b6000610c9485610fcf565b9050610ca233858784611569565b949350505050565b610cb2611158565b610cbc60006115c9565b565b610cc6611158565b60058054821515600160c01b027fffffffffffffff00ffffffffffffffffffffffffffffffffffffffffffffffff9091161790556040517f266a8da3664fe5a757627c032b4b18eec9246787872eaf6e98fda792d9df5791906108e890831515815260200190565b610d36611158565b60068190556040518181527fff564c1beece133c0c8035cf64ecd45cc945e0761d70dd34b96a7cfd13282360906020016108e8565b60006000196000610d7b85610ecc565b9050610ca233858388611569565b610d91611158565b6005805482151577010000000000000000000000000000000000000000000000027fffffffffffffffff00ffffffffffffffffffffffffffffffffffffffffffffff9091161790556040517f02b87843702214172db05525009563411bd7a39a34f5a9bd7060558862b8b1a0906108e890831515815260200190565b6060600480546107b8906121c3565b610e24611158565b6005805482151574010000000000000000000000000000000000000000027fffffffffffffffffffffff00ffffffffffffffffffffffffffffffffffffffff9091161790556040517f7b014ed3854e7f5cb0218d58b3c6ae7d53a68bb0af2f67bfb029ea42c38a7e85906108e890831515815260200190565b6000610ea93383611409565b6000610eb58585610c76565b95945050505050565b60003361085c818585611266565b600061084882600161110c565b600080610ee583610fdc565b905080851115610f3a576040517ffe9cceec0000000000000000000000000000000000000000000000000000000081526001600160a01b03841660048201526024810186905260448101829052606401610c80565b6000610f45866108f3565b9050610eb53386868985611633565b600080610f6083611000565b905080851115610fb5576040517fb94abeec0000000000000000000000000000000000000000000000000000000081526001600160a01b03841660048201526024810186905260448101829052606401610c80565b6000610fc08661083b565b9050610eb5338686848a611633565b600061084882600061119e565b6001600160a01b03811660009081526020819052604081205461084890600061110c565b6001600160a01b038116600090815260208190526040812054610848565b60096020526000908152604090208054611037906121c3565b80601f0160208091040260200160405190810160405280929190818152602001828054611063906121c3565b80156110b05780601f10611085576101008083540402835291602001916110b0565b820191906000526020600020905b81548152906001019060200180831161109357829003601f168201915b505050505081565b6110c0611158565b6001600160a01b038116611103576040517f1e4fbdf700000000000000000000000000000000000000000000000000000000815260006004820152602401610c80565b610c3d816115c9565b60006109a2611119610700565b611124906001612370565b6111306000600a61246a565b60025461113d9190612370565b8591908561169c565b61115383838360016116e0565b505050565b6005546001600160a01b03163314610cbc576040517f118cdaa7000000000000000000000000000000000000000000000000000000008152336004820152602401610c80565b60006109a26111ae82600a61246a565b6002546111bb9190612370565b6111c3610700565b61113d906001612370565b6001600160a01b038381166000908152600160209081526040808320938616835292905220546000198110156112605781811015611251576040517ffb8f41b20000000000000000000000000000000000000000000000000000000081526001600160a01b03841660048201526024810182905260448101839052606401610c80565b611260848484840360006116e0565b50505050565b6001600160a01b0383166112a9576040517f96c6fd1e00000000000000000000000000000000000000000000000000000000815260006004820152602401610c80565b6001600160a01b0382166112ec576040517fec442f0500000000000000000000000000000000000000000000000000000000815260006004820152602401610c80565b6111538383836117e7565b606060008267ffffffffffffffff81111561131457611314611f7d565b6040519080825280601f01601f19166020018201604052801561133e576020820181803683370190505b5060408051602e80825260608201909252919250600091906020820181803683370190505090506040518060600160405280602e815260200161250c602e9139905060005b84811015611400576000611397602e611878565b90508281815181106113ab576113ab612479565b602001015160f81c60f81b8483815181106113c8576113c8612479565b60200101907effffffffffffffffffffffffffffffffffffffffffffffffffffffffffffff1916908160001a90535050600101611383565b50909392505050565b805115611565576001600160a01b0382166000908152600a602052604090208054611433906121c3565b90506000036115655760006001600160a01b031660088260405161145791906121fd565b908152604051908190036020019020546001600160a01b03161461153357816001600160a01b031660088260405161148f91906121fd565b908152604051908190036020019020546001600160a01b0316036114df576040517fe59f799b00000000000000000000000000000000000000000000000000000000815260040160405180910390fd5b6001600160a01b0382166000908152600a602052604090206115018282612260565b507fb3d2df42f150b9969069bbcb6cfe047d4255ba353ac2949608e81cea5790aa1a8282604051610bb792919061231f565b6040517f8214902100000000000000000000000000000000000000000000000000000000815260040160405180910390fd5b5050565b60055474010000000000000000000000000000000000000000900460ff166115bd576040517f717a164800000000000000000000000000000000000000000000000000000000815260040160405180910390fd5b61126084848484611906565b600580546001600160a01b038381167fffffffffffffffffffffffff0000000000000000000000000000000000000000831681179093556040519116919082907f8be0079c531659141344cd1fd0a4f28419497f9722a3daafe3b4186f6b6457e090600090a35050565b6005547501000000000000000000000000000000000000000000900460ff16611688576040517f46ee9e3500000000000000000000000000000000000000000000000000000000815260040160405180910390fd5b611695858585858561198a565b5050505050565b60006116cb6116aa83611a4a565b80156116c65750600084806116c1576116c161248f565b868809115b151590565b6116d6868686611a77565b610eb59190612370565b6001600160a01b038416611723576040517fe602df0500000000000000000000000000000000000000000000000000000000815260006004820152602401610c80565b6001600160a01b038316611766576040517f94280d6200000000000000000000000000000000000000000000000000000000815260006004820152602401610c80565b6001600160a01b038085166000908152600160209081526040808320938716835292905220829055801561126057826001600160a01b0316846001600160a01b03167f8c5be1e5ebec7d5bd14f71427d1e84f3dd0314c0f7b2291e5b200ac8c7c3b925846040516117d991815260200190565b60405180910390a350505050565b60055477010000000000000000000000000000000000000000000000900460ff16801561183657506001600160a01b0382166000908152600a602052604090208054611832906121c3565b1590505b1561186d576040517f9c591a2800000000000000000000000000000000000000000000000000000000815260040160405180910390fd5b611153838383611b32565b6007805460009182611889836124a5565b9190505550814244336007546040516020016118e39493929190938452602084019290925260601b7fffffffffffffffffffffffffffffffffffffffff000000000000000000000000166040830152605482015260740190565b6040516020818303038152906040528051906020012060001c61084891906124bf565b6119327f0000000000000000000000000000000000000000000000000000000000000000853085611c75565b61193c8382611cf1565b826001600160a01b0316846001600160a01b03167fdcbc1c05240f31ff3ad067ef1ee35ce4997762752e3a095284754544f4c709d784846040516117d9929190918252602082015260400190565b826001600160a01b0316856001600160a01b0316146119ae576119ae8386836111ce565b6119b88382611d40565b6119e37f00000000000000000000000000000000000000000000000000000000000000008584611d8f565b826001600160a01b0316846001600160a01b0316866001600160a01b03167ffbde797d201c681b91056529119e0b02407c7bb96a4a2c75c01fc9667232c8db8585604051611a3b929190918252602082015260400190565b60405180910390a45050505050565b60006002826003811115611a6057611a606124d3565b611a6a91906124e9565b60ff166001149050919050565b6000838302816000198587098281108382030391505080600003611aae57838281611aa457611aa461248f565b04925050506109a2565b808411611ac557611ac56003851502601118611dc0565b6000848688096000868103871696879004966002600389028118808a02820302808a02820302808a02820302808a02820302808a02820302808a02909103029181900381900460010186841190950394909402919094039290920491909117919091029150509392505050565b6001600160a01b038316611b5d578060026000828254611b529190612370565b90915550611be89050565b6001600160a01b03831660009081526020819052604090205481811015611bc9576040517fe450d38c0000000000000000000000000000000000000000000000000000000081526001600160a01b03851660048201526024810182905260448101839052606401610c80565b6001600160a01b03841660009081526020819052604090209082900390555b6001600160a01b038216611c0457600280548290039055611c23565b6001600160a01b03821660009081526020819052604090208054820190555b816001600160a01b0316836001600160a01b03167fddf252ad1be2c89b69c2b068fc378daa952ba7f163c4a11628f55a4df523b3ef83604051611c6891815260200190565b60405180910390a3505050565b6040516001600160a01b0384811660248301528381166044830152606482018390526112609186918216906323b872dd906084015b604051602081830303815290604052915060e01b6020820180517bffffffffffffffffffffffffffffffffffffffffffffffffffffffff8381831617835250505050611dd2565b6001600160a01b038216611d34576040517fec442f0500000000000000000000000000000000000000000000000000000000815260006004820152602401610c80565b611565600083836117e7565b6001600160a01b038216611d83576040517f96c6fd1e00000000000000000000000000000000000000000000000000000000815260006004820152602401610c80565b611565826000836117e7565b6040516001600160a01b0383811660248301526044820183905261115391859182169063a9059cbb90606401611caa565b634e487b71600052806020526024601cfd5b600080602060008451602086016000885af180611df5576040513d6000823e3d81fd5b50506000513d91508115611e0d578060011415611e1a565b6001600160a01b0384163b155b15611260576040517f5274afe70000000000000000000000000000000000000000000000000000000081526001600160a01b0385166004820152602401610c80565b60005b83811015611e77578181015183820152602001611e5f565b50506000910152565b60008151808452611e98816020860160208601611e5c565b601f01601f19169290920160200192915050565b6020815260006109a26020830184611e80565b600060208284031215611ed157600080fd5b5035919050565b80356001600160a01b0381168114611eef57600080fd5b919050565b60008060408385031215611f0757600080fd5b611f1083611ed8565b946020939093013593505050565b600060208284031215611f3057600080fd5b813580151581146109a257600080fd5b600080600060608486031215611f5557600080fd5b611f5e84611ed8565b9250611f6c60208501611ed8565b929592945050506040919091013590565b634e487b7160e01b600052604160045260246000fd5b600082601f830112611fa457600080fd5b813567ffffffffffffffff811115611fbe57611fbe611f7d565b604051601f19603f601f19601f8501160116810181811067ffffffffffffffff82111715611fee57611fee611f7d565b60405281815283820160200185101561200657600080fd5b816020850160208301376000918101602001919091529392505050565b60006020828403121561203557600080fd5b813567ffffffffffffffff81111561204c57600080fd5b610ca284828501611f93565b60006020828403121561206a57600080fd5b6109a282611ed8565b6000806040838503121561208657600080fd5b61208f83611ed8565b9150602083013567ffffffffffffffff8111156120ab57600080fd5b6120b785828601611f93565b9150509250929050565b600080604083850312156120d457600080fd5b823591506120e460208401611ed8565b90509250929050565b60008060006060848603121561210257600080fd5b8335925061211260208501611ed8565b9150604084013567ffffffffffffffff81111561212e57600080fd5b61213a86828701611f93565b9150509250925092565b60008060006060848603121561215957600080fd5b8335925061216960208501611ed8565b915061217760408501611ed8565b90509250925092565b6000806040838503121561219357600080fd5b61219c83611ed8565b91506120e460208401611ed8565b6000602082840312156121bc57600080fd5b5051919050565b600181811c908216806121d757607f821691505b6020821081036121f757634e487b7160e01b600052602260045260246000fd5b50919050565b6000825161220f818460208701611e5c565b9190910192915050565b601f82111561115357806000526020600020601f840160051c810160208510156122405750805b601f840160051c820191505b81811015611695576000815560010161224c565b815167ffffffffffffffff81111561227a5761227a611f7d565b61228e8161228884546121c3565b84612219565b6020601f8211600181146122c257600083156122aa5750848201515b600019600385901b1c1916600184901b178455611695565b600084815260208120601f198516915b828110156122f257878501518255602094850194600190920191016122d2565b50848210156123105786840151600019600387901b60f8161c191681555b50505050600190811b01905550565b6001600160a01b0383168152604060208201526000610ca26040830184611e80565b634e487b7160e01b600052601160045260246000fd5b60ff818116838216019081111561084857610848612341565b8082018082111561084857610848612341565b6001815b60018411156123be578085048111156123a2576123a2612341565b60018416156123b057908102905b60019390931c928002612387565b935093915050565b6000826123d557506001610848565b816123e257506000610848565b81600181146123f857600281146124025761241e565b6001915050610848565b60ff84111561241357612413612341565b50506001821b610848565b5060208310610133831016604e8410600b8410161715612441575081810a610848565b61244e6000198484612383565b806000190482111561246257612462612341565b029392505050565b60006109a260ff8416836123c6565b634e487b7160e01b600052603260045260246000fd5b634e487b7160e01b600052601260045260246000fd5b600060001982036124b8576124b8612341565b5060010190565b6000826124ce576124ce61248f565b500690565b634e487b7160e01b600052602160045260246000fd5b600060ff8316806124fc576124fc61248f565b8060ff8416069150509291505056fe4142434445464748494a4b4c4d4e4f505152535455565758595a3031323334353637383930313233343536373839a2646970667358221220770c7b1f8f68619269245e2a5d7dd76d730c0ac3106389cb013a82de04a6bb6064736f6c634300081c0033","opcodes":"PUSH1 0xC0 PUSH1 0x40 MSTORE CALLVALUE DUP1 ISZERO PUSH2 0x10 JUMPI PUSH1 0x0 DUP1 REVERT JUMPDEST POP PUSH1 0x40 MLOAD PUSH2 0x2A9C CODESIZE SUB DUP1 PUSH2 0x2A9C DUP4 CODECOPY DUP2 ADD PUSH1 0x40 DUP2 SWAP1 MSTORE PUSH2 0x2F SWAP2 PUSH2 0x2E7 JUMP JUMPDEST DUP4 DUP4 DUP4 DUP4 PUSH1 0x3 PUSH2 0x3F DUP4 DUP3 PUSH2 0x400 JUMP JUMPDEST POP PUSH1 0x4 PUSH2 0x4C DUP3 DUP3 PUSH2 0x400 JUMP JUMPDEST POP POP POP PUSH1 0x0 DUP1 PUSH2 0x61 DUP4 PUSH2 0xDE PUSH1 0x20 SHL PUSH1 0x20 SHR JUMP JUMPDEST SWAP2 POP SWAP2 POP DUP2 PUSH2 0x71 JUMPI PUSH1 0x12 PUSH2 0x73 JUMP JUMPDEST DUP1 JUMPDEST PUSH1 0xFF AND PUSH1 0xA0 MSTORE POP POP PUSH1 0x1 PUSH1 0x1 PUSH1 0xA0 SHL SUB SWAP1 DUP2 AND PUSH1 0x80 MSTORE DUP2 AND PUSH2 0xAF JUMPI PUSH1 0x40 MLOAD PUSH4 0x1E4FBDF7 PUSH1 0xE0 SHL DUP2 MSTORE PUSH1 0x0 PUSH1 0x4 DUP3 ADD MSTORE PUSH1 0x24 ADD PUSH1 0x40 MLOAD DUP1 SWAP2 SUB SWAP1 REVERT JUMPDEST PUSH2 0xB8 DUP2 PUSH2 0x1BA JUMP JUMPDEST POP POP PUSH1 0x5 DUP1 SLOAD PUSH5 0xFF00FFFFFF PUSH1 0xA0 SHL NOT AND PUSH5 0x100010101 PUSH1 0xA0 SHL OR SWAP1 SSTORE POP PUSH2 0x4F3 SWAP2 POP POP JUMP JUMPDEST PUSH1 0x40 DUP1 MLOAD PUSH1 0x4 DUP2 MSTORE PUSH1 0x24 DUP2 ADD DUP3 MSTORE PUSH1 0x20 DUP2 ADD DUP1 MLOAD PUSH1 0x1 PUSH1 0x1 PUSH1 0xE0 SHL SUB AND PUSH4 0x313CE567 PUSH1 0xE0 SHL OR SWAP1 MSTORE SWAP1 MLOAD PUSH1 0x0 SWAP2 DUP3 SWAP2 DUP3 SWAP2 DUP3 SWAP2 PUSH1 0x1 PUSH1 0x1 PUSH1 0xA0 SHL SUB DUP8 AND SWAP2 PUSH2 0x125 SWAP2 PUSH2 0x4BE JUMP JUMPDEST PUSH1 0x0 PUSH1 0x40 MLOAD DUP1 DUP4 SUB DUP2 DUP6 GAS STATICCALL SWAP2 POP POP RETURNDATASIZE DUP1 PUSH1 0x0 DUP2 EQ PUSH2 0x160 JUMPI PUSH1 0x40 MLOAD SWAP2 POP PUSH1 0x1F NOT PUSH1 0x3F RETURNDATASIZE ADD AND DUP3 ADD PUSH1 0x40 MSTORE RETURNDATASIZE DUP3 MSTORE RETURNDATASIZE PUSH1 0x0 PUSH1 0x20 DUP5 ADD RETURNDATACOPY PUSH2 0x165 JUMP JUMPDEST PUSH1 0x60 SWAP2 POP JUMPDEST POP SWAP2 POP SWAP2 POP DUP2 DUP1 ISZERO PUSH2 0x179 JUMPI POP PUSH1 0x20 DUP2 MLOAD LT ISZERO JUMPDEST ISZERO PUSH2 0x1AD JUMPI PUSH1 0x0 DUP2 DUP1 PUSH1 0x20 ADD SWAP1 MLOAD DUP2 ADD SWAP1 PUSH2 0x194 SWAP2 SWAP1 PUSH2 0x4DA JUMP JUMPDEST SWAP1 POP PUSH1 0xFF DUP2 GT PUSH2 0x1AB JUMPI PUSH1 0x1 SWAP7 SWAP1 SWAP6 POP SWAP4 POP POP POP POP JUMP JUMPDEST POP JUMPDEST POP PUSH1 0x0 SWAP5 DUP6 SWAP5 POP SWAP3 POP POP POP JUMP JUMPDEST PUSH1 0x5 DUP1 SLOAD PUSH1 0x1 PUSH1 0x1 PUSH1 0xA0 SHL SUB DUP4 DUP2 AND PUSH1 0x1 PUSH1 0x1 PUSH1 0xA0 SHL SUB NOT DUP4 AND DUP2 OR SWAP1 SWAP4 SSTORE PUSH1 0x40 MLOAD SWAP2 AND SWAP2 SWAP1 DUP3 SWAP1 PUSH32 0x8BE0079C531659141344CD1FD0A4F28419497F9722A3DAAFE3B4186F6B6457E0 SWAP1 PUSH1 0x0 SWAP1 LOG3 POP POP JUMP JUMPDEST PUSH1 0x1 PUSH1 0x1 PUSH1 0xA0 SHL SUB DUP2 AND DUP2 EQ PUSH2 0x221 JUMPI PUSH1 0x0 DUP1 REVERT JUMPDEST POP JUMP JUMPDEST PUSH4 0x4E487B71 PUSH1 0xE0 SHL PUSH1 0x0 MSTORE PUSH1 0x41 PUSH1 0x4 MSTORE PUSH1 0x24 PUSH1 0x0 REVERT JUMPDEST PUSH1 0x0 JUMPDEST DUP4 DUP2 LT ISZERO PUSH2 0x255 JUMPI DUP2 DUP2 ADD MLOAD DUP4 DUP3 ADD MSTORE PUSH1 0x20 ADD PUSH2 0x23D JUMP JUMPDEST POP POP PUSH1 0x0 SWAP2 ADD MSTORE JUMP JUMPDEST PUSH1 0x0 DUP3 PUSH1 0x1F DUP4 ADD SLT PUSH2 0x26F JUMPI PUSH1 0x0 DUP1 REVERT JUMPDEST DUP2 MLOAD PUSH1 0x1 PUSH1 0x1 PUSH1 0x40 SHL SUB DUP2 GT ISZERO PUSH2 0x288 JUMPI PUSH2 0x288 PUSH2 0x224 JUMP JUMPDEST PUSH1 0x40 MLOAD PUSH1 0x1F DUP3 ADD PUSH1 0x1F NOT SWAP1 DUP2 AND PUSH1 0x3F ADD AND DUP2 ADD PUSH1 0x1 PUSH1 0x1 PUSH1 0x40 SHL SUB DUP2 GT DUP3 DUP3 LT OR ISZERO PUSH2 0x2B6 JUMPI PUSH2 0x2B6 PUSH2 0x224 JUMP JUMPDEST PUSH1 0x40 MSTORE DUP2 DUP2 MSTORE DUP4 DUP3 ADD PUSH1 0x20 ADD DUP6 LT ISZERO PUSH2 0x2CE JUMPI PUSH1 0x0 DUP1 REVERT JUMPDEST PUSH2 0x2DF DUP3 PUSH1 0x20 DUP4 ADD PUSH1 0x20 DUP8 ADD PUSH2 0x23A JUMP JUMPDEST SWAP5 SWAP4 POP POP POP POP JUMP JUMPDEST PUSH1 0x0 DUP1 PUSH1 0x0 DUP1 PUSH1 0x80 DUP6 DUP8 SUB SLT ISZERO PUSH2 0x2FD JUMPI PUSH1 0x0 DUP1 REVERT JUMPDEST DUP5 MLOAD PUSH2 0x308 DUP2 PUSH2 0x20C JUMP JUMPDEST PUSH1 0x20 DUP7 ADD MLOAD SWAP1 SWAP5 POP PUSH2 0x319 DUP2 PUSH2 0x20C JUMP JUMPDEST PUSH1 0x40 DUP7 ADD MLOAD SWAP1 SWAP4 POP PUSH1 0x1 PUSH1 0x1 PUSH1 0x40 SHL SUB DUP2 GT ISZERO PUSH2 0x335 JUMPI PUSH1 0x0 DUP1 REVERT JUMPDEST PUSH2 0x341 DUP8 DUP3 DUP9 ADD PUSH2 0x25E JUMP JUMPDEST PUSH1 0x60 DUP8 ADD MLOAD SWAP1 SWAP4 POP SWAP1 POP PUSH1 0x1 PUSH1 0x1 PUSH1 0x40 SHL SUB DUP2 GT ISZERO PUSH2 0x35F JUMPI PUSH1 0x0 DUP1 REVERT JUMPDEST PUSH2 0x36B DUP8 DUP3 DUP9 ADD PUSH2 0x25E JUMP JUMPDEST SWAP2 POP POP SWAP3 SWAP6 SWAP2 SWAP5 POP SWAP3 POP JUMP JUMPDEST PUSH1 0x1 DUP2 DUP2 SHR SWAP1 DUP3 AND DUP1 PUSH2 0x38B JUMPI PUSH1 0x7F DUP3 AND SWAP2 POP JUMPDEST PUSH1 0x20 DUP3 LT DUP2 SUB PUSH2 0x3AB JUMPI PUSH4 0x4E487B71 PUSH1 0xE0 SHL PUSH1 0x0 MSTORE PUSH1 0x22 PUSH1 0x4 MSTORE PUSH1 0x24 PUSH1 0x0 REVERT JUMPDEST POP SWAP2 SWAP1 POP JUMP JUMPDEST PUSH1 0x1F DUP3 GT ISZERO PUSH2 0x3FB JUMPI DUP1 PUSH1 0x0 MSTORE PUSH1 0x20 PUSH1 0x0 KECCAK256 PUSH1 0x1F DUP5 ADD PUSH1 0x5 SHR DUP2 ADD PUSH1 0x20 DUP6 LT ISZERO PUSH2 0x3D8 JUMPI POP DUP1 JUMPDEST PUSH1 0x1F DUP5 ADD PUSH1 0x5 SHR DUP3 ADD SWAP2 POP JUMPDEST DUP2 DUP2 LT ISZERO PUSH2 0x3F8 JUMPI PUSH1 0x0 DUP2 SSTORE PUSH1 0x1 ADD PUSH2 0x3E4 JUMP JUMPDEST POP POP JUMPDEST POP POP POP JUMP JUMPDEST DUP2 MLOAD PUSH1 0x1 PUSH1 0x1 PUSH1 0x40 SHL SUB DUP2 GT ISZERO PUSH2 0x419 JUMPI PUSH2 0x419 PUSH2 0x224 JUMP JUMPDEST PUSH2 0x42D DUP2 PUSH2 0x427 DUP5 SLOAD PUSH2 0x377 JUMP JUMPDEST DUP5 PUSH2 0x3B1 JUMP JUMPDEST PUSH1 0x20 PUSH1 0x1F DUP3 GT PUSH1 0x1 DUP2 EQ PUSH2 0x461 JUMPI PUSH1 0x0 DUP4 ISZERO PUSH2 0x449 JUMPI POP DUP5 DUP3 ADD MLOAD JUMPDEST PUSH1 0x0 NOT PUSH1 0x3 DUP6 SWAP1 SHL SHR NOT AND PUSH1 0x1 DUP5 SWAP1 SHL OR DUP5 SSTORE PUSH2 0x3F8 JUMP JUMPDEST PUSH1 0x0 DUP5 DUP2 MSTORE PUSH1 0x20 DUP2 KECCAK256 PUSH1 0x1F NOT DUP6 AND SWAP2 JUMPDEST DUP3 DUP2 LT ISZERO PUSH2 0x491 JUMPI DUP8 DUP6 ADD MLOAD DUP3 SSTORE PUSH1 0x20 SWAP5 DUP6 ADD SWAP5 PUSH1 0x1 SWAP1 SWAP3 ADD SWAP2 ADD PUSH2 0x471 JUMP JUMPDEST POP DUP5 DUP3 LT ISZERO PUSH2 0x4AF JUMPI DUP7 DUP5 ADD MLOAD PUSH1 0x0 NOT PUSH1 0x3 DUP8 SWAP1 SHL PUSH1 0xF8 AND SHR NOT AND DUP2 SSTORE JUMPDEST POP POP POP POP PUSH1 0x1 SWAP1 DUP2 SHL ADD SWAP1 SSTORE POP JUMP JUMPDEST PUSH1 0x0 DUP3 MLOAD PUSH2 0x4D0 DUP2 DUP5 PUSH1 0x20 DUP8 ADD PUSH2 0x23A JUMP JUMPDEST SWAP2 SWAP1 SWAP2 ADD SWAP3 SWAP2 POP POP JUMP JUMPDEST PUSH1 0x0 PUSH1 0x20 DUP3 DUP5 SUB SLT ISZERO PUSH2 0x4EC JUMPI PUSH1 0x0 DUP1 REVERT JUMPDEST POP MLOAD SWAP2 SWAP1 POP JUMP JUMPDEST PUSH1 0x80 MLOAD PUSH1 0xA0 MLOAD PUSH2 0x256F PUSH2 0x52D PUSH1 0x0 CODECOPY PUSH1 0x0 PUSH2 0xBCB ADD MSTORE PUSH1 0x0 DUP2 DUP2 PUSH2 0x402 ADD MSTORE DUP2 DUP2 PUSH2 0x731 ADD MSTORE DUP2 DUP2 PUSH2 0x190B ADD MSTORE PUSH2 0x19BD ADD MSTORE PUSH2 0x256F PUSH1 0x0 RETURN INVALID PUSH1 0x80 PUSH1 0x40 MSTORE CALLVALUE DUP1 ISZERO PUSH2 0x10 JUMPI PUSH1 0x0 DUP1 REVERT JUMPDEST POP PUSH1 0x4 CALLDATASIZE LT PUSH2 0x30A JUMPI PUSH1 0x0 CALLDATALOAD PUSH1 0xE0 SHR DUP1 PUSH4 0x8DA5CB5B GT PUSH2 0x19C JUMPI DUP1 PUSH4 0xB460AF94 GT PUSH2 0xEE JUMPI DUP1 PUSH4 0xD0DBCD24 GT PUSH2 0x97 JUMPI DUP1 PUSH4 0xDDC117EC GT PUSH2 0x71 JUMPI DUP1 PUSH4 0xDDC117EC EQ PUSH2 0x6DA JUMPI DUP1 PUSH4 0xEF8B30F7 EQ PUSH2 0x642 JUMPI DUP1 PUSH4 0xF2FDE38B EQ PUSH2 0x6ED JUMPI PUSH1 0x0 DUP1 REVERT JUMPDEST DUP1 PUSH4 0xD0DBCD24 EQ PUSH2 0x668 JUMPI DUP1 PUSH4 0xD905777E EQ PUSH2 0x68E JUMPI DUP1 PUSH4 0xDD62ED3E EQ PUSH2 0x6A1 JUMPI PUSH1 0x0 DUP1 REVERT JUMPDEST DUP1 PUSH4 0xC63D75B6 GT PUSH2 0xC8 JUMPI DUP1 PUSH4 0xC63D75B6 EQ PUSH2 0x44E JUMPI DUP1 PUSH4 0xC6E6F592 EQ PUSH2 0x642 JUMPI DUP1 PUSH4 0xCE96CB77 EQ PUSH2 0x655 JUMPI PUSH1 0x0 DUP1 REVERT JUMPDEST DUP1 PUSH4 0xB460AF94 EQ PUSH2 0x5E8 JUMPI DUP1 PUSH4 0xBA087652 EQ PUSH2 0x5FB JUMPI DUP1 PUSH4 0xBB33BD6C EQ PUSH2 0x60E JUMPI PUSH1 0x0 DUP1 REVERT JUMPDEST DUP1 PUSH4 0x95D89B41 GT PUSH2 0x150 JUMPI DUP1 PUSH4 0x9F68B575 GT PUSH2 0x12A JUMPI DUP1 PUSH4 0x9F68B575 EQ PUSH2 0x5AF JUMPI DUP1 PUSH4 0xA9059CBB EQ PUSH2 0x5C2 JUMPI DUP1 PUSH4 0xB3D7F6B9 EQ PUSH2 0x5D5 JUMPI PUSH1 0x0 DUP1 REVERT JUMPDEST DUP1 PUSH4 0x95D89B41 EQ PUSH2 0x58B JUMPI DUP1 PUSH4 0x9E96E6D2 EQ PUSH2 0x593 JUMPI DUP1 PUSH4 0x9F04586C EQ PUSH2 0x59C JUMPI PUSH1 0x0 DUP1 REVERT JUMPDEST DUP1 PUSH4 0x90907858 GT PUSH2 0x181 JUMPI DUP1 PUSH4 0x90907858 EQ PUSH2 0x552 JUMPI DUP1 PUSH4 0x94BF804D EQ PUSH2 0x565 JUMPI DUP1 PUSH4 0x94EAF06A EQ PUSH2 0x578 JUMPI PUSH1 0x0 DUP1 REVERT JUMPDEST DUP1 PUSH4 0x8DA5CB5B EQ PUSH2 0x519 JUMPI DUP1 PUSH4 0x8EDF9647 EQ PUSH2 0x52A JUMPI PUSH1 0x0 DUP1 REVERT JUMPDEST DUP1 PUSH4 0x33A8433A GT PUSH2 0x260 JUMPI DUP1 PUSH4 0x5392FD1C GT PUSH2 0x209 JUMPI DUP1 PUSH4 0x70A08231 GT PUSH2 0x1E3 JUMPI DUP1 PUSH4 0x70A08231 EQ PUSH2 0x4D5 JUMPI DUP1 PUSH4 0x715018A6 EQ PUSH2 0x4FE JUMPI DUP1 PUSH4 0x74A5B0E1 EQ PUSH2 0x506 JUMPI PUSH1 0x0 DUP1 REVERT JUMPDEST DUP1 PUSH4 0x5392FD1C EQ PUSH2 0x476 JUMPI DUP1 PUSH4 0x63A09663 EQ PUSH2 0x49B JUMPI DUP1 PUSH4 0x6E553F65 EQ PUSH2 0x4C2 JUMPI PUSH1 0x0 DUP1 REVERT JUMPDEST DUP1 PUSH4 0x402D267D GT PUSH2 0x23A JUMPI DUP1 PUSH4 0x402D267D EQ PUSH2 0x44E JUMPI DUP1 PUSH4 0x45B96500 EQ PUSH2 0x463 JUMPI DUP1 PUSH4 0x4CDAD506 EQ PUSH2 0x33F JUMPI PUSH1 0x0 DUP1 REVERT JUMPDEST DUP1 PUSH4 0x33A8433A EQ PUSH2 0x3ED JUMPI DUP1 PUSH4 0x38D52E0F EQ PUSH2 0x400 JUMPI DUP1 PUSH4 0x3CC5634B EQ PUSH2 0x43A JUMPI PUSH1 0x0 DUP1 REVERT JUMPDEST DUP1 PUSH4 0xA28A477 GT PUSH2 0x2C2 JUMPI DUP1 PUSH4 0x23B872DD GT PUSH2 0x29C JUMPI DUP1 PUSH4 0x23B872DD EQ PUSH2 0x3B8 JUMPI DUP1 PUSH4 0x2E108D1C EQ PUSH2 0x3CB JUMPI DUP1 PUSH4 0x313CE567 EQ PUSH2 0x3D3 JUMPI PUSH1 0x0 DUP1 REVERT JUMPDEST DUP1 PUSH4 0xA28A477 EQ PUSH2 0x38A JUMPI DUP1 PUSH4 0xF65BA1E EQ PUSH2 0x39D JUMPI DUP1 PUSH4 0x18160DDD EQ PUSH2 0x3B0 JUMPI PUSH1 0x0 DUP1 REVERT JUMPDEST DUP1 PUSH4 0x7A2D13A GT PUSH2 0x2F3 JUMPI DUP1 PUSH4 0x7A2D13A EQ PUSH2 0x33F JUMPI DUP1 PUSH4 0x95EA7B3 EQ PUSH2 0x352 JUMPI DUP1 PUSH4 0xA179327 EQ PUSH2 0x375 JUMPI PUSH1 0x0 DUP1 REVERT JUMPDEST DUP1 PUSH4 0x1E1D114 EQ PUSH2 0x30F JUMPI DUP1 PUSH4 0x6FDDE03 EQ PUSH2 0x32A JUMPI JUMPDEST PUSH1 0x0 DUP1 REVERT JUMPDEST PUSH2 0x317 PUSH2 0x700 JUMP JUMPDEST PUSH1 0x40 MLOAD SWAP1 DUP2 MSTORE PUSH1 0x20 ADD JUMPDEST PUSH1 0x40 MLOAD DUP1 SWAP2 SUB SWAP1 RETURN JUMPDEST PUSH2 0x332 PUSH2 0x7A9 JUMP JUMPDEST PUSH1 0x40 MLOAD PUSH2 0x321 SWAP2 SWAP1 PUSH2 0x1EAC JUMP JUMPDEST PUSH2 0x317 PUSH2 0x34D CALLDATASIZE PUSH1 0x4 PUSH2 0x1EBF JUMP JUMPDEST PUSH2 0x83B JUMP JUMPDEST PUSH2 0x365 PUSH2 0x360 CALLDATASIZE PUSH1 0x4 PUSH2 0x1EF4 JUMP JUMPDEST PUSH2 0x84E JUMP JUMPDEST PUSH1 0x40 MLOAD SWAP1 ISZERO ISZERO DUP2 MSTORE PUSH1 0x20 ADD PUSH2 0x321 JUMP JUMPDEST PUSH2 0x388 PUSH2 0x383 CALLDATASIZE PUSH1 0x4 PUSH2 0x1F1E JUMP JUMPDEST PUSH2 0x866 JUMP JUMPDEST STOP JUMPDEST PUSH2 0x317 PUSH2 0x398 CALLDATASIZE PUSH1 0x4 PUSH2 0x1EBF JUMP JUMPDEST PUSH2 0x8F3 JUMP JUMPDEST PUSH2 0x388 PUSH2 0x3AB CALLDATASIZE PUSH1 0x4 PUSH2 0x1F1E JUMP JUMPDEST PUSH2 0x900 JUMP JUMPDEST PUSH1 0x2 SLOAD PUSH2 0x317 JUMP JUMPDEST PUSH2 0x365 PUSH2 0x3C6 CALLDATASIZE PUSH1 0x4 PUSH2 0x1F40 JUMP JUMPDEST PUSH2 0x983 JUMP JUMPDEST PUSH2 0x388 PUSH2 0x9A9 JUMP JUMPDEST PUSH2 0x3DB PUSH2 0xBC3 JUMP JUMPDEST PUSH1 0x40 MLOAD PUSH1 0xFF SWAP1 SWAP2 AND DUP2 MSTORE PUSH1 0x20 ADD PUSH2 0x321 JUMP JUMPDEST PUSH2 0x388 PUSH2 0x3FB CALLDATASIZE PUSH1 0x4 PUSH2 0x2023 JUMP JUMPDEST PUSH2 0xBEF JUMP JUMPDEST PUSH32 0x0 JUMPDEST PUSH1 0x40 MLOAD PUSH1 0x1 PUSH1 0x1 PUSH1 0xA0 SHL SUB SWAP1 SWAP2 AND DUP2 MSTORE PUSH1 0x20 ADD PUSH2 0x321 JUMP JUMPDEST PUSH1 0x5 SLOAD PUSH2 0x365 SWAP1 PUSH1 0x1 PUSH1 0xC0 SHL SWAP1 DIV PUSH1 0xFF AND DUP2 JUMP JUMPDEST PUSH2 0x317 PUSH2 0x45C CALLDATASIZE PUSH1 0x4 PUSH2 0x2058 JUMP JUMPDEST POP PUSH1 0x0 NOT SWAP1 JUMP JUMPDEST PUSH2 0x388 PUSH2 0x471 CALLDATASIZE PUSH1 0x4 PUSH2 0x2073 JUMP JUMPDEST PUSH2 0xC40 JUMP JUMPDEST PUSH1 0x5 SLOAD PUSH2 0x365 SWAP1 PUSH21 0x10000000000000000000000000000000000000000 SWAP1 DIV PUSH1 0xFF AND DUP2 JUMP JUMPDEST PUSH1 0x5 SLOAD PUSH2 0x365 SWAP1 PUSH23 0x100000000000000000000000000000000000000000000 SWAP1 DIV PUSH1 0xFF AND DUP2 JUMP JUMPDEST PUSH2 0x317 PUSH2 0x4D0 CALLDATASIZE PUSH1 0x4 PUSH2 0x20C1 JUMP JUMPDEST PUSH2 0xC76 JUMP JUMPDEST PUSH2 0x317 PUSH2 0x4E3 CALLDATASIZE PUSH1 0x4 PUSH2 0x2058 JUMP JUMPDEST PUSH1 0x1 PUSH1 0x1 PUSH1 0xA0 SHL SUB AND PUSH1 0x0 SWAP1 DUP2 MSTORE PUSH1 0x20 DUP2 SWAP1 MSTORE PUSH1 0x40 SWAP1 KECCAK256 SLOAD SWAP1 JUMP JUMPDEST PUSH2 0x388 PUSH2 0xCAA JUMP JUMPDEST PUSH2 0x388 PUSH2 0x514 CALLDATASIZE PUSH1 0x4 PUSH2 0x1F1E JUMP JUMPDEST PUSH2 0xCBE JUMP JUMPDEST PUSH1 0x5 SLOAD PUSH1 0x1 PUSH1 0x1 PUSH1 0xA0 SHL SUB AND PUSH2 0x422 JUMP JUMPDEST PUSH1 0x5 SLOAD PUSH2 0x365 SWAP1 PUSH24 0x10000000000000000000000000000000000000000000000 SWAP1 DIV PUSH1 0xFF AND DUP2 JUMP JUMPDEST PUSH2 0x388 PUSH2 0x560 CALLDATASIZE PUSH1 0x4 PUSH2 0x1EBF JUMP JUMPDEST PUSH2 0xD2E JUMP JUMPDEST PUSH2 0x317 PUSH2 0x573 CALLDATASIZE PUSH1 0x4 PUSH2 0x20C1 JUMP JUMPDEST PUSH2 0xD6B JUMP JUMPDEST PUSH2 0x388 PUSH2 0x586 CALLDATASIZE PUSH1 0x4 PUSH2 0x1F1E JUMP JUMPDEST PUSH2 0xD89 JUMP JUMPDEST PUSH2 0x332 PUSH2 0xE0D JUMP JUMPDEST PUSH2 0x317 PUSH1 0x6 SLOAD DUP2 JUMP JUMPDEST PUSH2 0x388 PUSH2 0x5AA CALLDATASIZE PUSH1 0x4 PUSH2 0x1F1E JUMP JUMPDEST PUSH2 0xE1C JUMP JUMPDEST PUSH2 0x317 PUSH2 0x5BD CALLDATASIZE PUSH1 0x4 PUSH2 0x20ED JUMP JUMPDEST PUSH2 0xE9D JUMP JUMPDEST PUSH2 0x365 PUSH2 0x5D0 CALLDATASIZE PUSH1 0x4 PUSH2 0x1EF4 JUMP JUMPDEST PUSH2 0xEBE JUMP JUMPDEST PUSH2 0x317 PUSH2 0x5E3 CALLDATASIZE PUSH1 0x4 PUSH2 0x1EBF JUMP JUMPDEST PUSH2 0xECC JUMP JUMPDEST PUSH2 0x317 PUSH2 0x5F6 CALLDATASIZE PUSH1 0x4 PUSH2 0x2144 JUMP JUMPDEST PUSH2 0xED9 JUMP JUMPDEST PUSH2 0x317 PUSH2 0x609 CALLDATASIZE PUSH1 0x4 PUSH2 0x2144 JUMP JUMPDEST PUSH2 0xF54 JUMP JUMPDEST PUSH2 0x422 PUSH2 0x61C CALLDATASIZE PUSH1 0x4 PUSH2 0x2023 JUMP JUMPDEST DUP1 MLOAD PUSH1 0x20 DUP2 DUP4 ADD DUP2 ADD DUP1 MLOAD PUSH1 0x8 DUP3 MSTORE SWAP3 DUP3 ADD SWAP2 SWAP1 SWAP4 ADD KECCAK256 SWAP2 MSTORE SLOAD PUSH1 0x1 PUSH1 0x1 PUSH1 0xA0 SHL SUB AND DUP2 JUMP JUMPDEST PUSH2 0x317 PUSH2 0x650 CALLDATASIZE PUSH1 0x4 PUSH2 0x1EBF JUMP JUMPDEST PUSH2 0xFCF JUMP JUMPDEST PUSH2 0x317 PUSH2 0x663 CALLDATASIZE PUSH1 0x4 PUSH2 0x2058 JUMP JUMPDEST PUSH2 0xFDC JUMP JUMPDEST PUSH1 0x5 SLOAD PUSH2 0x365 SWAP1 PUSH22 0x1000000000000000000000000000000000000000000 SWAP1 DIV PUSH1 0xFF AND DUP2 JUMP JUMPDEST PUSH2 0x317 PUSH2 0x69C CALLDATASIZE PUSH1 0x4 PUSH2 0x2058 JUMP JUMPDEST PUSH2 0x1000 JUMP JUMPDEST PUSH2 0x317 PUSH2 0x6AF CALLDATASIZE PUSH1 0x4 PUSH2 0x2180 JUMP JUMPDEST PUSH1 0x1 PUSH1 0x1 PUSH1 0xA0 SHL SUB SWAP2 DUP3 AND PUSH1 0x0 SWAP1 DUP2 MSTORE PUSH1 0x1 PUSH1 0x20 SWAP1 DUP2 MSTORE PUSH1 0x40 DUP1 DUP4 KECCAK256 SWAP4 SWAP1 SWAP5 AND DUP3 MSTORE SWAP2 SWAP1 SWAP2 MSTORE KECCAK256 SLOAD SWAP1 JUMP JUMPDEST PUSH2 0x332 PUSH2 0x6E8 CALLDATASIZE PUSH1 0x4 PUSH2 0x2058 JUMP JUMPDEST PUSH2 0x101E JUMP JUMPDEST PUSH2 0x388 PUSH2 0x6FB CALLDATASIZE PUSH1 0x4 PUSH2 0x2058 JUMP JUMPDEST PUSH2 0x10B8 JUMP JUMPDEST PUSH1 0x40 MLOAD PUSH32 0x70A0823100000000000000000000000000000000000000000000000000000000 DUP2 MSTORE ADDRESS PUSH1 0x4 DUP3 ADD MSTORE PUSH1 0x0 SWAP1 PUSH32 0x0 PUSH1 0x1 PUSH1 0x1 PUSH1 0xA0 SHL SUB AND SWAP1 PUSH4 0x70A08231 SWAP1 PUSH1 0x24 ADD PUSH1 0x20 PUSH1 0x40 MLOAD DUP1 DUP4 SUB DUP2 DUP7 GAS STATICCALL ISZERO DUP1 ISZERO PUSH2 0x780 JUMPI RETURNDATASIZE PUSH1 0x0 DUP1 RETURNDATACOPY RETURNDATASIZE PUSH1 0x0 REVERT JUMPDEST POP POP POP POP PUSH1 0x40 MLOAD RETURNDATASIZE PUSH1 0x1F NOT PUSH1 0x1F DUP3 ADD AND DUP3 ADD DUP1 PUSH1 0x40 MSTORE POP DUP2 ADD SWAP1 PUSH2 0x7A4 SWAP2 SWAP1 PUSH2 0x21AA JUMP JUMPDEST SWAP1 POP SWAP1 JUMP JUMPDEST PUSH1 0x60 PUSH1 0x3 DUP1 SLOAD PUSH2 0x7B8 SWAP1 PUSH2 0x21C3 JUMP JUMPDEST DUP1 PUSH1 0x1F ADD PUSH1 0x20 DUP1 SWAP2 DIV MUL PUSH1 0x20 ADD PUSH1 0x40 MLOAD SWAP1 DUP2 ADD PUSH1 0x40 MSTORE DUP1 SWAP3 SWAP2 SWAP1 DUP2 DUP2 MSTORE PUSH1 0x20 ADD DUP3 DUP1 SLOAD PUSH2 0x7E4 SWAP1 PUSH2 0x21C3 JUMP JUMPDEST DUP1 ISZERO PUSH2 0x831 JUMPI DUP1 PUSH1 0x1F LT PUSH2 0x806 JUMPI PUSH2 0x100 DUP1 DUP4 SLOAD DIV MUL DUP4 MSTORE SWAP2 PUSH1 0x20 ADD SWAP2 PUSH2 0x831 JUMP JUMPDEST DUP3 ADD SWAP2 SWAP1 PUSH1 0x0 MSTORE PUSH1 0x20 PUSH1 0x0 KECCAK256 SWAP1 JUMPDEST DUP2 SLOAD DUP2 MSTORE SWAP1 PUSH1 0x1 ADD SWAP1 PUSH1 0x20 ADD DUP1 DUP4 GT PUSH2 0x814 JUMPI DUP3 SWAP1 SUB PUSH1 0x1F AND DUP3 ADD SWAP2 JUMPDEST POP POP POP POP POP SWAP1 POP SWAP1 JUMP JUMPDEST PUSH1 0x0 PUSH2 0x848 DUP3 PUSH1 0x0 PUSH2 0x110C JUMP JUMPDEST SWAP3 SWAP2 POP POP JUMP JUMPDEST PUSH1 0x0 CALLER PUSH2 0x85C DUP2 DUP6 DUP6 PUSH2 0x1146 JUMP JUMPDEST POP PUSH1 0x1 SWAP4 SWAP3 POP POP POP JUMP JUMPDEST PUSH2 0x86E PUSH2 0x1158 JUMP JUMPDEST PUSH1 0x5 DUP1 SLOAD DUP3 ISZERO ISZERO PUSH22 0x1000000000000000000000000000000000000000000 MUL PUSH32 0xFFFFFFFFFFFFFFFFFFFF00FFFFFFFFFFFFFFFFFFFFFFFFFFFFFFFFFFFFFFFFFF SWAP1 SWAP2 AND OR SWAP1 SSTORE PUSH1 0x40 MLOAD PUSH32 0x45E7E6146471A396EB58B618E88EFD46F5C95BD1815B282ED75C5220A559AB10 SWAP1 PUSH2 0x8E8 SWAP1 DUP4 ISZERO ISZERO DUP2 MSTORE PUSH1 0x20 ADD SWAP1 JUMP JUMPDEST PUSH1 0x40 MLOAD DUP1 SWAP2 SUB SWAP1 LOG1 POP JUMP JUMPDEST PUSH1 0x0 PUSH2 0x848 DUP3 PUSH1 0x1 PUSH2 0x119E JUMP JUMPDEST PUSH2 0x908 PUSH2 0x1158 JUMP JUMPDEST PUSH1 0x5 DUP1 SLOAD DUP3 ISZERO ISZERO PUSH23 0x100000000000000000000000000000000000000000000 MUL PUSH32 0xFFFFFFFFFFFFFFFFFF00FFFFFFFFFFFFFFFFFFFFFFFFFFFFFFFFFFFFFFFFFFFF SWAP1 SWAP2 AND OR SWAP1 SSTORE PUSH1 0x40 MLOAD PUSH32 0x39D1E046657E0B945C1A67C1A65D784065B825EE87B8D5186C4B2DE8DECE1732 SWAP1 PUSH2 0x8E8 SWAP1 DUP4 ISZERO ISZERO DUP2 MSTORE PUSH1 0x20 ADD SWAP1 JUMP JUMPDEST PUSH1 0x0 CALLER PUSH2 0x991 DUP6 DUP3 DUP6 PUSH2 0x11CE JUMP JUMPDEST PUSH2 0x99C DUP6 DUP6 DUP6 PUSH2 0x1266 JUMP JUMPDEST PUSH1 0x1 SWAP2 POP POP JUMPDEST SWAP4 SWAP3 POP POP POP JUMP JUMPDEST PUSH1 0x5 SLOAD PUSH23 0x100000000000000000000000000000000000000000000 SWAP1 DIV PUSH1 0xFF AND PUSH2 0x9FF JUMPI PUSH1 0x40 MLOAD PUSH32 0xD96A9B5D00000000000000000000000000000000000000000000000000000000 DUP2 MSTORE PUSH1 0x4 ADD PUSH1 0x40 MLOAD DUP1 SWAP2 SUB SWAP1 REVERT JUMPDEST PUSH1 0x6 SLOAD PUSH2 0xA0B CALLER PUSH2 0x4E3 JUMP JUMPDEST LT ISZERO PUSH2 0xA43 JUMPI PUSH1 0x40 MLOAD PUSH32 0x988C15D800000000000000000000000000000000000000000000000000000000 DUP2 MSTORE PUSH1 0x4 ADD PUSH1 0x40 MLOAD DUP1 SWAP2 SUB SWAP1 REVERT JUMPDEST CALLER PUSH1 0x0 PUSH2 0xA50 PUSH1 0x6 PUSH2 0x12F7 JUMP JUMPDEST SWAP1 POP PUSH1 0x0 PUSH1 0x1 PUSH1 0x1 PUSH1 0xA0 SHL SUB AND PUSH1 0x8 DUP3 PUSH1 0x40 MLOAD PUSH2 0xA6D SWAP2 SWAP1 PUSH2 0x21FD JUMP JUMPDEST SWAP1 DUP2 MSTORE PUSH1 0x40 MLOAD SWAP1 DUP2 SWAP1 SUB PUSH1 0x20 ADD SWAP1 KECCAK256 SLOAD PUSH1 0x1 PUSH1 0x1 PUSH1 0xA0 SHL SUB AND EQ PUSH2 0xABD JUMPI PUSH1 0x40 MLOAD PUSH32 0xE3BA090400000000000000000000000000000000000000000000000000000000 DUP2 MSTORE PUSH1 0x4 ADD PUSH1 0x40 MLOAD DUP1 SWAP2 SUB SWAP1 REVERT JUMPDEST PUSH1 0x1 PUSH1 0x1 PUSH1 0xA0 SHL SUB DUP3 AND PUSH1 0x0 SWAP1 DUP2 MSTORE PUSH1 0x9 PUSH1 0x20 MSTORE PUSH1 0x40 SWAP1 KECCAK256 DUP1 SLOAD PUSH2 0xAE0 SWAP1 PUSH2 0x21C3 JUMP JUMPDEST ISZERO SWAP1 POP PUSH2 0xB19 JUMPI PUSH1 0x40 MLOAD PUSH32 0x61B8B41D00000000000000000000000000000000000000000000000000000000 DUP2 MSTORE PUSH1 0x4 ADD PUSH1 0x40 MLOAD DUP1 SWAP2 SUB SWAP1 REVERT JUMPDEST DUP2 PUSH1 0x8 DUP3 PUSH1 0x40 MLOAD PUSH2 0xB2A SWAP2 SWAP1 PUSH2 0x21FD JUMP JUMPDEST SWAP1 DUP2 MSTORE PUSH1 0x40 DUP1 MLOAD PUSH1 0x20 SWAP3 DUP2 SWAP1 SUB DUP4 ADD SWAP1 KECCAK256 DUP1 SLOAD PUSH32 0xFFFFFFFFFFFFFFFFFFFFFFFF0000000000000000000000000000000000000000 AND PUSH1 0x1 PUSH1 0x1 PUSH1 0xA0 SHL SUB SWAP5 DUP6 AND OR SWAP1 SSTORE SWAP2 DUP5 AND PUSH1 0x0 SWAP1 DUP2 MSTORE PUSH1 0x9 SWAP1 SWAP2 MSTORE KECCAK256 PUSH2 0xB85 DUP3 DUP3 PUSH2 0x2260 JUMP JUMPDEST POP PUSH32 0xBBBA1CAB2093E26EE6B388FEFB2109576871F9236F9C1F22779DAD4B82093B7B DUP3 DUP3 PUSH1 0x40 MLOAD PUSH2 0xBB7 SWAP3 SWAP2 SWAP1 PUSH2 0x231F JUMP JUMPDEST PUSH1 0x40 MLOAD DUP1 SWAP2 SUB SWAP1 LOG1 POP POP JUMP JUMPDEST PUSH1 0x0 PUSH2 0x7A4 DUP2 PUSH32 0x0 PUSH2 0x2357 JUMP JUMPDEST PUSH1 0x5 SLOAD PUSH1 0x1 PUSH1 0xC0 SHL SWAP1 DIV PUSH1 0xFF AND ISZERO PUSH2 0xC33 JUMPI PUSH1 0x40 MLOAD PUSH32 0xD96A9B5D00000000000000000000000000000000000000000000000000000000 DUP2 MSTORE PUSH1 0x4 ADD PUSH1 0x40 MLOAD DUP1 SWAP2 SUB SWAP1 REVERT JUMPDEST PUSH2 0xC3D CALLER DUP3 PUSH2 0x1409 JUMP JUMPDEST POP JUMP JUMPDEST PUSH2 0xC48 PUSH2 0x1158 JUMP JUMPDEST DUP1 MLOAD PUSH1 0x0 SUB PUSH2 0xC5B JUMPI PUSH2 0xA50 PUSH1 0x6 PUSH2 0x12F7 JUMP JUMPDEST PUSH1 0x0 PUSH1 0x1 PUSH1 0x1 PUSH1 0xA0 SHL SUB AND PUSH1 0x8 DUP3 PUSH1 0x40 MLOAD PUSH2 0xA6D SWAP2 SWAP1 PUSH2 0x21FD JUMP JUMPDEST PUSH1 0x0 PUSH1 0x0 NOT PUSH2 0xC89 JUMP JUMPDEST PUSH1 0x40 MLOAD DUP1 SWAP2 SUB SWAP1 REVERT JUMPDEST PUSH1 0x0 PUSH2 0xC94 DUP6 PUSH2 0xFCF JUMP JUMPDEST SWAP1 POP PUSH2 0xCA2 CALLER DUP6 DUP8 DUP5 PUSH2 0x1569 JUMP JUMPDEST SWAP5 SWAP4 POP POP POP POP JUMP JUMPDEST PUSH2 0xCB2 PUSH2 0x1158 JUMP JUMPDEST PUSH2 0xCBC PUSH1 0x0 PUSH2 0x15C9 JUMP JUMPDEST JUMP JUMPDEST PUSH2 0xCC6 PUSH2 0x1158 JUMP JUMPDEST PUSH1 0x5 DUP1 SLOAD DUP3 ISZERO ISZERO PUSH1 0x1 PUSH1 0xC0 SHL MUL PUSH32 0xFFFFFFFFFFFFFF00FFFFFFFFFFFFFFFFFFFFFFFFFFFFFFFFFFFFFFFFFFFFFFFF SWAP1 SWAP2 AND OR SWAP1 SSTORE PUSH1 0x40 MLOAD PUSH32 0x266A8DA3664FE5A757627C032B4B18EEC9246787872EAF6E98FDA792D9DF5791 SWAP1 PUSH2 0x8E8 SWAP1 DUP4 ISZERO ISZERO DUP2 MSTORE PUSH1 0x20 ADD SWAP1 JUMP JUMPDEST PUSH2 0xD36 PUSH2 0x1158 JUMP JUMPDEST PUSH1 0x6 DUP2 SWAP1 SSTORE PUSH1 0x40 MLOAD DUP2 DUP2 MSTORE PUSH32 0xFF564C1BEECE133C0C8035CF64ECD45CC945E0761D70DD34B96A7CFD13282360 SWAP1 PUSH1 0x20 ADD PUSH2 0x8E8 JUMP JUMPDEST PUSH1 0x0 PUSH1 0x0 NOT PUSH1 0x0 PUSH2 0xD7B DUP6 PUSH2 0xECC JUMP JUMPDEST SWAP1 POP PUSH2 0xCA2 CALLER DUP6 DUP4 DUP9 PUSH2 0x1569 JUMP JUMPDEST PUSH2 0xD91 PUSH2 0x1158 JUMP JUMPDEST PUSH1 0x5 DUP1 SLOAD DUP3 ISZERO ISZERO PUSH24 0x10000000000000000000000000000000000000000000000 MUL PUSH32 0xFFFFFFFFFFFFFFFF00FFFFFFFFFFFFFFFFFFFFFFFFFFFFFFFFFFFFFFFFFFFFFF SWAP1 SWAP2 AND OR SWAP1 SSTORE PUSH1 0x40 MLOAD PUSH32 0x2B87843702214172DB05525009563411BD7A39A34F5A9BD7060558862B8B1A0 SWAP1 PUSH2 0x8E8 SWAP1 DUP4 ISZERO ISZERO DUP2 MSTORE PUSH1 0x20 ADD SWAP1 JUMP JUMPDEST PUSH1 0x60 PUSH1 0x4 DUP1 SLOAD PUSH2 0x7B8 SWAP1 PUSH2 0x21C3 JUMP JUMPDEST PUSH2 0xE24 PUSH2 0x1158 JUMP JUMPDEST PUSH1 0x5 DUP1 SLOAD DUP3 ISZERO ISZERO PUSH21 0x10000000000000000000000000000000000000000 MUL PUSH32 0xFFFFFFFFFFFFFFFFFFFFFF00FFFFFFFFFFFFFFFFFFFFFFFFFFFFFFFFFFFFFFFF SWAP1 SWAP2 AND OR SWAP1 SSTORE PUSH1 0x40 MLOAD PUSH32 0x7B014ED3854E7F5CB0218D58B3C6AE7D53A68BB0AF2F67BFB029EA42C38A7E85 SWAP1 PUSH2 0x8E8 SWAP1 DUP4 ISZERO ISZERO DUP2 MSTORE PUSH1 0x20 ADD SWAP1 JUMP JUMPDEST PUSH1 0x0 PUSH2 0xEA9 CALLER DUP4 PUSH2 0x1409 JUMP JUMPDEST PUSH1 0x0 PUSH2 0xEB5 DUP6 DUP6 PUSH2 0xC76 JUMP JUMPDEST SWAP6 SWAP5 POP POP POP POP POP JUMP JUMPDEST PUSH1 0x0 CALLER PUSH2 0x85C DUP2 DUP6 DUP6 PUSH2 0x1266 JUMP JUMPDEST PUSH1 0x0 PUSH2 0x848 DUP3 PUSH1 0x1 PUSH2 0x110C JUMP JUMPDEST PUSH1 0x0 DUP1 PUSH2 0xEE5 DUP4 PUSH2 0xFDC JUMP JUMPDEST SWAP1 POP DUP1 DUP6 GT ISZERO PUSH2 0xF3A JUMPI PUSH1 0x40 MLOAD PUSH32 0xFE9CCEEC00000000000000000000000000000000000000000000000000000000 DUP2 MSTORE PUSH1 0x1 PUSH1 0x1 PUSH1 0xA0 SHL SUB DUP5 AND PUSH1 0x4 DUP3 ADD MSTORE PUSH1 0x24 DUP2 ADD DUP7 SWAP1 MSTORE PUSH1 0x44 DUP2 ADD DUP3 SWAP1 MSTORE PUSH1 0x64 ADD PUSH2 0xC80 JUMP JUMPDEST PUSH1 0x0 PUSH2 0xF45 DUP7 PUSH2 0x8F3 JUMP JUMPDEST SWAP1 POP PUSH2 0xEB5 CALLER DUP7 DUP7 DUP10 DUP6 PUSH2 0x1633 JUMP JUMPDEST PUSH1 0x0 DUP1 PUSH2 0xF60 DUP4 PUSH2 0x1000 JUMP JUMPDEST SWAP1 POP DUP1 DUP6 GT ISZERO PUSH2 0xFB5 JUMPI PUSH1 0x40 MLOAD PUSH32 0xB94ABEEC00000000000000000000000000000000000000000000000000000000 DUP2 MSTORE PUSH1 0x1 PUSH1 0x1 PUSH1 0xA0 SHL SUB DUP5 AND PUSH1 0x4 DUP3 ADD MSTORE PUSH1 0x24 DUP2 ADD DUP7 SWAP1 MSTORE PUSH1 0x44 DUP2 ADD DUP3 SWAP1 MSTORE PUSH1 0x64 ADD PUSH2 0xC80 JUMP JUMPDEST PUSH1 0x0 PUSH2 0xFC0 DUP7 PUSH2 0x83B JUMP JUMPDEST SWAP1 POP PUSH2 0xEB5 CALLER DUP7 DUP7 DUP5 DUP11 PUSH2 0x1633 JUMP JUMPDEST PUSH1 0x0 PUSH2 0x848 DUP3 PUSH1 0x0 PUSH2 0x119E JUMP JUMPDEST PUSH1 0x1 PUSH1 0x1 PUSH1 0xA0 SHL SUB DUP2 AND PUSH1 0x0 SWAP1 DUP2 MSTORE PUSH1 0x20 DUP2 SWAP1 MSTORE PUSH1 0x40 DUP2 KECCAK256 SLOAD PUSH2 0x848 SWAP1 PUSH1 0x0 PUSH2 0x110C JUMP JUMPDEST PUSH1 0x1 PUSH1 0x1 PUSH1 0xA0 SHL SUB DUP2 AND PUSH1 0x0 SWAP1 DUP2 MSTORE PUSH1 0x20 DUP2 SWAP1 MSTORE PUSH1 0x40 DUP2 KECCAK256 SLOAD PUSH2 0x848 JUMP JUMPDEST PUSH1 0x9 PUSH1 0x20 MSTORE PUSH1 0x0 SWAP1 DUP2 MSTORE PUSH1 0x40 SWAP1 KECCAK256 DUP1 SLOAD PUSH2 0x1037 SWAP1 PUSH2 0x21C3 JUMP JUMPDEST DUP1 PUSH1 0x1F ADD PUSH1 0x20 DUP1 SWAP2 DIV MUL PUSH1 0x20 ADD PUSH1 0x40 MLOAD SWAP1 DUP2 ADD PUSH1 0x40 MSTORE DUP1 SWAP3 SWAP2 SWAP1 DUP2 DUP2 MSTORE PUSH1 0x20 ADD DUP3 DUP1 SLOAD PUSH2 0x1063 SWAP1 PUSH2 0x21C3 JUMP JUMPDEST DUP1 ISZERO PUSH2 0x10B0 JUMPI DUP1 PUSH1 0x1F LT PUSH2 0x1085 JUMPI PUSH2 0x100 DUP1 DUP4 SLOAD DIV MUL DUP4 MSTORE SWAP2 PUSH1 0x20 ADD SWAP2 PUSH2 0x10B0 JUMP JUMPDEST DUP3 ADD SWAP2 SWAP1 PUSH1 0x0 MSTORE PUSH1 0x20 PUSH1 0x0 KECCAK256 SWAP1 JUMPDEST DUP2 SLOAD DUP2 MSTORE SWAP1 PUSH1 0x1 ADD SWAP1 PUSH1 0x20 ADD DUP1 DUP4 GT PUSH2 0x1093 JUMPI DUP3 SWAP1 SUB PUSH1 0x1F AND DUP3 ADD SWAP2 JUMPDEST POP POP POP POP POP DUP2 JUMP JUMPDEST PUSH2 0x10C0 PUSH2 0x1158 JUMP JUMPDEST PUSH1 0x1 PUSH1 0x1 PUSH1 0xA0 SHL SUB DUP2 AND PUSH2 0x1103 JUMPI PUSH1 0x40 MLOAD PUSH32 0x1E4FBDF700000000000000000000000000000000000000000000000000000000 DUP2 MSTORE PUSH1 0x0 PUSH1 0x4 DUP3 ADD MSTORE PUSH1 0x24 ADD PUSH2 0xC80 JUMP JUMPDEST PUSH2 0xC3D DUP2 PUSH2 0x15C9 JUMP JUMPDEST PUSH1 0x0 PUSH2 0x9A2 PUSH2 0x1119 PUSH2 0x700 JUMP JUMPDEST PUSH2 0x1124 SWAP1 PUSH1 0x1 PUSH2 0x2370 JUMP JUMPDEST PUSH2 0x1130 PUSH1 0x0 PUSH1 0xA PUSH2 0x246A JUMP JUMPDEST PUSH1 0x2 SLOAD PUSH2 0x113D SWAP2 SWAP1 PUSH2 0x2370 JUMP JUMPDEST DUP6 SWAP2 SWAP1 DUP6 PUSH2 0x169C JUMP JUMPDEST PUSH2 0x1153 DUP4 DUP4 DUP4 PUSH1 0x1 PUSH2 0x16E0 JUMP JUMPDEST POP POP POP JUMP JUMPDEST PUSH1 0x5 SLOAD PUSH1 0x1 PUSH1 0x1 PUSH1 0xA0 SHL SUB AND CALLER EQ PUSH2 0xCBC JUMPI PUSH1 0x40 MLOAD PUSH32 0x118CDAA700000000000000000000000000000000000000000000000000000000 DUP2 MSTORE CALLER PUSH1 0x4 DUP3 ADD MSTORE PUSH1 0x24 ADD PUSH2 0xC80 JUMP JUMPDEST PUSH1 0x0 PUSH2 0x9A2 PUSH2 0x11AE DUP3 PUSH1 0xA PUSH2 0x246A JUMP JUMPDEST PUSH1 0x2 SLOAD PUSH2 0x11BB SWAP2 SWAP1 PUSH2 0x2370 JUMP JUMPDEST PUSH2 0x11C3 PUSH2 0x700 JUMP JUMPDEST PUSH2 0x113D SWAP1 PUSH1 0x1 PUSH2 0x2370 JUMP JUMPDEST PUSH1 0x1 PUSH1 0x1 PUSH1 0xA0 SHL SUB DUP4 DUP2 AND PUSH1 0x0 SWAP1 DUP2 MSTORE PUSH1 0x1 PUSH1 0x20 SWAP1 DUP2 MSTORE PUSH1 0x40 DUP1 DUP4 KECCAK256 SWAP4 DUP7 AND DUP4 MSTORE SWAP3 SWAP1 MSTORE KECCAK256 SLOAD PUSH1 0x0 NOT DUP2 LT ISZERO PUSH2 0x1260 JUMPI DUP2 DUP2 LT ISZERO PUSH2 0x1251 JUMPI PUSH1 0x40 MLOAD PUSH32 0xFB8F41B200000000000000000000000000000000000000000000000000000000 DUP2 MSTORE PUSH1 0x1 PUSH1 0x1 PUSH1 0xA0 SHL SUB DUP5 AND PUSH1 0x4 DUP3 ADD MSTORE PUSH1 0x24 DUP2 ADD DUP3 SWAP1 MSTORE PUSH1 0x44 DUP2 ADD DUP4 SWAP1 MSTORE PUSH1 0x64 ADD PUSH2 0xC80 JUMP JUMPDEST PUSH2 0x1260 DUP5 DUP5 DUP5 DUP5 SUB PUSH1 0x0 PUSH2 0x16E0 JUMP JUMPDEST POP POP POP POP JUMP JUMPDEST PUSH1 0x1 PUSH1 0x1 PUSH1 0xA0 SHL SUB DUP4 AND PUSH2 0x12A9 JUMPI PUSH1 0x40 MLOAD PUSH32 0x96C6FD1E00000000000000000000000000000000000000000000000000000000 DUP2 MSTORE PUSH1 0x0 PUSH1 0x4 DUP3 ADD MSTORE PUSH1 0x24 ADD PUSH2 0xC80 JUMP JUMPDEST PUSH1 0x1 PUSH1 0x1 PUSH1 0xA0 SHL SUB DUP3 AND PUSH2 0x12EC JUMPI PUSH1 0x40 MLOAD PUSH32 0xEC442F0500000000000000000000000000000000000000000000000000000000 DUP2 MSTORE PUSH1 0x0 PUSH1 0x4 DUP3 ADD MSTORE PUSH1 0x24 ADD PUSH2 0xC80 JUMP JUMPDEST PUSH2 0x1153 DUP4 DUP4 DUP4 PUSH2 0x17E7 JUMP JUMPDEST PUSH1 0x60 PUSH1 0x0 DUP3 PUSH8 0xFFFFFFFFFFFFFFFF DUP2 GT ISZERO PUSH2 0x1314 JUMPI PUSH2 0x1314 PUSH2 0x1F7D JUMP JUMPDEST PUSH1 0x40 MLOAD SWAP1 DUP1 DUP3 MSTORE DUP1 PUSH1 0x1F ADD PUSH1 0x1F NOT AND PUSH1 0x20 ADD DUP3 ADD PUSH1 0x40 MSTORE DUP1 ISZERO PUSH2 0x133E JUMPI PUSH1 0x20 DUP3 ADD DUP2 DUP1 CALLDATASIZE DUP4 CALLDATACOPY ADD SWAP1 POP JUMPDEST POP PUSH1 0x40 DUP1 MLOAD PUSH1 0x2E DUP1 DUP3 MSTORE PUSH1 0x60 DUP3 ADD SWAP1 SWAP3 MSTORE SWAP2 SWAP3 POP PUSH1 0x0 SWAP2 SWAP1 PUSH1 0x20 DUP3 ADD DUP2 DUP1 CALLDATASIZE DUP4 CALLDATACOPY ADD SWAP1 POP POP SWAP1 POP PUSH1 0x40 MLOAD DUP1 PUSH1 0x60 ADD PUSH1 0x40 MSTORE DUP1 PUSH1 0x2E DUP2 MSTORE PUSH1 0x20 ADD PUSH2 0x250C PUSH1 0x2E SWAP2 CODECOPY SWAP1 POP PUSH1 0x0 JUMPDEST DUP5 DUP2 LT ISZERO PUSH2 0x1400 JUMPI PUSH1 0x0 PUSH2 0x1397 PUSH1 0x2E PUSH2 0x1878 JUMP JUMPDEST SWAP1 POP DUP3 DUP2 DUP2 MLOAD DUP2 LT PUSH2 0x13AB JUMPI PUSH2 0x13AB PUSH2 0x2479 JUMP JUMPDEST PUSH1 0x20 ADD ADD MLOAD PUSH1 0xF8 SHR PUSH1 0xF8 SHL DUP5 DUP4 DUP2 MLOAD DUP2 LT PUSH2 0x13C8 JUMPI PUSH2 0x13C8 PUSH2 0x2479 JUMP JUMPDEST PUSH1 0x20 ADD ADD SWAP1 PUSH31 0xFFFFFFFFFFFFFFFFFFFFFFFFFFFFFFFFFFFFFFFFFFFFFFFFFFFFFFFFFFFFFF NOT AND SWAP1 DUP2 PUSH1 0x0 BYTE SWAP1 MSTORE8 POP POP PUSH1 0x1 ADD PUSH2 0x1383 JUMP JUMPDEST POP SWAP1 SWAP4 SWAP3 POP POP POP JUMP JUMPDEST DUP1 MLOAD ISZERO PUSH2 0x1565 JUMPI PUSH1 0x1 PUSH1 0x1 PUSH1 0xA0 SHL SUB DUP3 AND PUSH1 0x0 SWAP1 DUP2 MSTORE PUSH1 0xA PUSH1 0x20 MSTORE PUSH1 0x40 SWAP1 KECCAK256 DUP1 SLOAD PUSH2 0x1433 SWAP1 PUSH2 0x21C3 JUMP JUMPDEST SWAP1 POP PUSH1 0x0 SUB PUSH2 0x1565 JUMPI PUSH1 0x0 PUSH1 0x1 PUSH1 0x1 PUSH1 0xA0 SHL SUB AND PUSH1 0x8 DUP3 PUSH1 0x40 MLOAD PUSH2 0x1457 SWAP2 SWAP1 PUSH2 0x21FD JUMP JUMPDEST SWAP1 DUP2 MSTORE PUSH1 0x40 MLOAD SWAP1 DUP2 SWAP1 SUB PUSH1 0x20 ADD SWAP1 KECCAK256 SLOAD PUSH1 0x1 PUSH1 0x1 PUSH1 0xA0 SHL SUB AND EQ PUSH2 0x1533 JUMPI DUP2 PUSH1 0x1 PUSH1 0x1 PUSH1 0xA0 SHL SUB AND PUSH1 0x8 DUP3 PUSH1 0x40 MLOAD PUSH2 0x148F SWAP2 SWAP1 PUSH2 0x21FD JUMP JUMPDEST SWAP1 DUP2 MSTORE PUSH1 0x40 MLOAD SWAP1 DUP2 SWAP1 SUB PUSH1 0x20 ADD SWAP1 KECCAK256 SLOAD PUSH1 0x1 PUSH1 0x1 PUSH1 0xA0 SHL SUB AND SUB PUSH2 0x14DF JUMPI PUSH1 0x40 MLOAD PUSH32 0xE59F799B00000000000000000000000000000000000000000000000000000000 DUP2 MSTORE PUSH1 0x4 ADD PUSH1 0x40 MLOAD DUP1 SWAP2 SUB SWAP1 REVERT JUMPDEST PUSH1 0x1 PUSH1 0x1 PUSH1 0xA0 SHL SUB DUP3 AND PUSH1 0x0 SWAP1 DUP2 MSTORE PUSH1 0xA PUSH1 0x20 MSTORE PUSH1 0x40 SWAP1 KECCAK256 PUSH2 0x1501 DUP3 DUP3 PUSH2 0x2260 JUMP JUMPDEST POP PUSH32 0xB3D2DF42F150B9969069BBCB6CFE047D4255BA353AC2949608E81CEA5790AA1A DUP3 DUP3 PUSH1 0x40 MLOAD PUSH2 0xBB7 SWAP3 SWAP2 SWAP1 PUSH2 0x231F JUMP JUMPDEST PUSH1 0x40 MLOAD PUSH32 0x8214902100000000000000000000000000000000000000000000000000000000 DUP2 MSTORE PUSH1 0x4 ADD PUSH1 0x40 MLOAD DUP1 SWAP2 SUB SWAP1 REVERT JUMPDEST POP POP JUMP JUMPDEST PUSH1 0x5 SLOAD PUSH21 0x10000000000000000000000000000000000000000 SWAP1 DIV PUSH1 0xFF AND PUSH2 0x15BD JUMPI PUSH1 0x40 MLOAD PUSH32 0x717A164800000000000000000000000000000000000000000000000000000000 DUP2 MSTORE PUSH1 0x4 ADD PUSH1 0x40 MLOAD DUP1 SWAP2 SUB SWAP1 REVERT JUMPDEST PUSH2 0x1260 DUP5 DUP5 DUP5 DUP5 PUSH2 0x1906 JUMP JUMPDEST PUSH1 0x5 DUP1 SLOAD PUSH1 0x1 PUSH1 0x1 PUSH1 0xA0 SHL SUB DUP4 DUP2 AND PUSH32 0xFFFFFFFFFFFFFFFFFFFFFFFF0000000000000000000000000000000000000000 DUP4 AND DUP2 OR SWAP1 SWAP4 SSTORE PUSH1 0x40 MLOAD SWAP2 AND SWAP2 SWAP1 DUP3 SWAP1 PUSH32 0x8BE0079C531659141344CD1FD0A4F28419497F9722A3DAAFE3B4186F6B6457E0 SWAP1 PUSH1 0x0 SWAP1 LOG3 POP POP JUMP JUMPDEST PUSH1 0x5 SLOAD PUSH22 0x1000000000000000000000000000000000000000000 SWAP1 DIV PUSH1 0xFF AND PUSH2 0x1688 JUMPI PUSH1 0x40 MLOAD PUSH32 0x46EE9E3500000000000000000000000000000000000000000000000000000000 DUP2 MSTORE PUSH1 0x4 ADD PUSH1 0x40 MLOAD DUP1 SWAP2 SUB SWAP1 REVERT JUMPDEST PUSH2 0x1695 DUP6 DUP6 DUP6 DUP6 DUP6 PUSH2 0x198A JUMP JUMPDEST POP POP POP POP POP JUMP JUMPDEST PUSH1 0x0 PUSH2 0x16CB PUSH2 0x16AA DUP4 PUSH2 0x1A4A JUMP JUMPDEST DUP1 ISZERO PUSH2 0x16C6 JUMPI POP PUSH1 0x0 DUP5 DUP1 PUSH2 0x16C1 JUMPI PUSH2 0x16C1 PUSH2 0x248F JUMP JUMPDEST DUP7 DUP9 MULMOD GT JUMPDEST ISZERO ISZERO SWAP1 JUMP JUMPDEST PUSH2 0x16D6 DUP7 DUP7 DUP7 PUSH2 0x1A77 JUMP JUMPDEST PUSH2 0xEB5 SWAP2 SWAP1 PUSH2 0x2370 JUMP JUMPDEST PUSH1 0x1 PUSH1 0x1 PUSH1 0xA0 SHL SUB DUP5 AND PUSH2 0x1723 JUMPI PUSH1 0x40 MLOAD PUSH32 0xE602DF0500000000000000000000000000000000000000000000000000000000 DUP2 MSTORE PUSH1 0x0 PUSH1 0x4 DUP3 ADD MSTORE PUSH1 0x24 ADD PUSH2 0xC80 JUMP JUMPDEST PUSH1 0x1 PUSH1 0x1 PUSH1 0xA0 SHL SUB DUP4 AND PUSH2 0x1766 JUMPI PUSH1 0x40 MLOAD PUSH32 0x94280D6200000000000000000000000000000000000000000000000000000000 DUP2 MSTORE PUSH1 0x0 PUSH1 0x4 DUP3 ADD MSTORE PUSH1 0x24 ADD PUSH2 0xC80 JUMP JUMPDEST PUSH1 0x1 PUSH1 0x1 PUSH1 0xA0 SHL SUB DUP1 DUP6 AND PUSH1 0x0 SWAP1 DUP2 MSTORE PUSH1 0x1 PUSH1 0x20 SWAP1 DUP2 MSTORE PUSH1 0x40 DUP1 DUP4 KECCAK256 SWAP4 DUP8 AND DUP4 MSTORE SWAP3 SWAP1 MSTORE KECCAK256 DUP3 SWAP1 SSTORE DUP1 ISZERO PUSH2 0x1260 JUMPI DUP3 PUSH1 0x1 PUSH1 0x1 PUSH1 0xA0 SHL SUB AND DUP5 PUSH1 0x1 PUSH1 0x1 PUSH1 0xA0 SHL SUB AND PUSH32 0x8C5BE1E5EBEC7D5BD14F71427D1E84F3DD0314C0F7B2291E5B200AC8C7C3B925 DUP5 PUSH1 0x40 MLOAD PUSH2 0x17D9 SWAP2 DUP2 MSTORE PUSH1 0x20 ADD SWAP1 JUMP JUMPDEST PUSH1 0x40 MLOAD DUP1 SWAP2 SUB SWAP1 LOG3 POP POP POP POP JUMP JUMPDEST PUSH1 0x5 SLOAD PUSH24 0x10000000000000000000000000000000000000000000000 SWAP1 DIV PUSH1 0xFF AND DUP1 ISZERO PUSH2 0x1836 JUMPI POP PUSH1 0x1 PUSH1 0x1 PUSH1 0xA0 SHL SUB DUP3 AND PUSH1 0x0 SWAP1 DUP2 MSTORE PUSH1 0xA PUSH1 0x20 MSTORE PUSH1 0x40 SWAP1 KECCAK256 DUP1 SLOAD PUSH2 0x1832 SWAP1 PUSH2 0x21C3 JUMP JUMPDEST ISZERO SWAP1 POP JUMPDEST ISZERO PUSH2 0x186D JUMPI PUSH1 0x40 MLOAD PUSH32 0x9C591A2800000000000000000000000000000000000000000000000000000000 DUP2 MSTORE PUSH1 0x4 ADD PUSH1 0x40 MLOAD DUP1 SWAP2 SUB SWAP1 REVERT JUMPDEST PUSH2 0x1153 DUP4 DUP4 DUP4 PUSH2 0x1B32 JUMP JUMPDEST PUSH1 0x7 DUP1 SLOAD PUSH1 0x0 SWAP2 DUP3 PUSH2 0x1889 DUP4 PUSH2 0x24A5 JUMP JUMPDEST SWAP2 SWAP1 POP SSTORE POP DUP2 TIMESTAMP PREVRANDAO CALLER PUSH1 0x7 SLOAD PUSH1 0x40 MLOAD PUSH1 0x20 ADD PUSH2 0x18E3 SWAP5 SWAP4 SWAP3 SWAP2 SWAP1 SWAP4 DUP5 MSTORE PUSH1 0x20 DUP5 ADD SWAP3 SWAP1 SWAP3 MSTORE PUSH1 0x60 SHL PUSH32 0xFFFFFFFFFFFFFFFFFFFFFFFFFFFFFFFFFFFFFFFF000000000000000000000000 AND PUSH1 0x40 DUP4 ADD MSTORE PUSH1 0x54 DUP3 ADD MSTORE PUSH1 0x74 ADD SWAP1 JUMP JUMPDEST PUSH1 0x40 MLOAD PUSH1 0x20 DUP2 DUP4 SUB SUB DUP2 MSTORE SWAP1 PUSH1 0x40 MSTORE DUP1 MLOAD SWAP1 PUSH1 0x20 ADD KECCAK256 PUSH1 0x0 SHR PUSH2 0x848 SWAP2 SWAP1 PUSH2 0x24BF JUMP JUMPDEST PUSH2 0x1932 PUSH32 0x0 DUP6 ADDRESS DUP6 PUSH2 0x1C75 JUMP JUMPDEST PUSH2 0x193C DUP4 DUP3 PUSH2 0x1CF1 JUMP JUMPDEST DUP3 PUSH1 0x1 PUSH1 0x1 PUSH1 0xA0 SHL SUB AND DUP5 PUSH1 0x1 PUSH1 0x1 PUSH1 0xA0 SHL SUB AND PUSH32 0xDCBC1C05240F31FF3AD067EF1EE35CE4997762752E3A095284754544F4C709D7 DUP5 DUP5 PUSH1 0x40 MLOAD PUSH2 0x17D9 SWAP3 SWAP2 SWAP1 SWAP2 DUP3 MSTORE PUSH1 0x20 DUP3 ADD MSTORE PUSH1 0x40 ADD SWAP1 JUMP JUMPDEST DUP3 PUSH1 0x1 PUSH1 0x1 PUSH1 0xA0 SHL SUB AND DUP6 PUSH1 0x1 PUSH1 0x1 PUSH1 0xA0 SHL SUB AND EQ PUSH2 0x19AE JUMPI PUSH2 0x19AE DUP4 DUP7 DUP4 PUSH2 0x11CE JUMP JUMPDEST PUSH2 0x19B8 DUP4 DUP3 PUSH2 0x1D40 JUMP JUMPDEST PUSH2 0x19E3 PUSH32 0x0 DUP6 DUP5 PUSH2 0x1D8F JUMP JUMPDEST DUP3 PUSH1 0x1 PUSH1 0x1 PUSH1 0xA0 SHL SUB AND DUP5 PUSH1 0x1 PUSH1 0x1 PUSH1 0xA0 SHL SUB AND DUP7 PUSH1 0x1 PUSH1 0x1 PUSH1 0xA0 SHL SUB AND PUSH32 0xFBDE797D201C681B91056529119E0B02407C7BB96A4A2C75C01FC9667232C8DB DUP6 DUP6 PUSH1 0x40 MLOAD PUSH2 0x1A3B SWAP3 SWAP2 SWAP1 SWAP2 DUP3 MSTORE PUSH1 0x20 DUP3 ADD MSTORE PUSH1 0x40 ADD SWAP1 JUMP JUMPDEST PUSH1 0x40 MLOAD DUP1 SWAP2 SUB SWAP1 LOG4 POP POP POP POP POP JUMP JUMPDEST PUSH1 0x0 PUSH1 0x2 DUP3 PUSH1 0x3 DUP2 GT ISZERO PUSH2 0x1A60 JUMPI PUSH2 0x1A60 PUSH2 0x24D3 JUMP JUMPDEST PUSH2 0x1A6A SWAP2 SWAP1 PUSH2 0x24E9 JUMP JUMPDEST PUSH1 0xFF AND PUSH1 0x1 EQ SWAP1 POP SWAP2 SWAP1 POP JUMP JUMPDEST PUSH1 0x0 DUP4 DUP4 MUL DUP2 PUSH1 0x0 NOT DUP6 DUP8 MULMOD DUP3 DUP2 LT DUP4 DUP3 SUB SUB SWAP2 POP POP DUP1 PUSH1 0x0 SUB PUSH2 0x1AAE JUMPI DUP4 DUP3 DUP2 PUSH2 0x1AA4 JUMPI PUSH2 0x1AA4 PUSH2 0x248F JUMP JUMPDEST DIV SWAP3 POP POP POP PUSH2 0x9A2 JUMP JUMPDEST DUP1 DUP5 GT PUSH2 0x1AC5 JUMPI PUSH2 0x1AC5 PUSH1 0x3 DUP6 ISZERO MUL PUSH1 0x11 XOR PUSH2 0x1DC0 JUMP JUMPDEST PUSH1 0x0 DUP5 DUP7 DUP9 MULMOD PUSH1 0x0 DUP7 DUP2 SUB DUP8 AND SWAP7 DUP8 SWAP1 DIV SWAP7 PUSH1 0x2 PUSH1 0x3 DUP10 MUL DUP2 XOR DUP1 DUP11 MUL DUP3 SUB MUL DUP1 DUP11 MUL DUP3 SUB MUL DUP1 DUP11 MUL DUP3 SUB MUL DUP1 DUP11 MUL DUP3 SUB MUL DUP1 DUP11 MUL DUP3 SUB MUL DUP1 DUP11 MUL SWAP1 SWAP2 SUB MUL SWAP2 DUP2 SWAP1 SUB DUP2 SWAP1 DIV PUSH1 0x1 ADD DUP7 DUP5 GT SWAP1 SWAP6 SUB SWAP5 SWAP1 SWAP5 MUL SWAP2 SWAP1 SWAP5 SUB SWAP3 SWAP1 SWAP3 DIV SWAP2 SWAP1 SWAP2 OR SWAP2 SWAP1 SWAP2 MUL SWAP2 POP POP SWAP4 SWAP3 POP POP POP JUMP JUMPDEST PUSH1 0x1 PUSH1 0x1 PUSH1 0xA0 SHL SUB DUP4 AND PUSH2 0x1B5D JUMPI DUP1 PUSH1 0x2 PUSH1 0x0 DUP3 DUP3 SLOAD PUSH2 0x1B52 SWAP2 SWAP1 PUSH2 0x2370 JUMP JUMPDEST SWAP1 SWAP2 SSTORE POP PUSH2 0x1BE8 SWAP1 POP JUMP JUMPDEST PUSH1 0x1 PUSH1 0x1 PUSH1 0xA0 SHL SUB DUP4 AND PUSH1 0x0 SWAP1 DUP2 MSTORE PUSH1 0x20 DUP2 SWAP1 MSTORE PUSH1 0x40 SWAP1 KECCAK256 SLOAD DUP2 DUP2 LT ISZERO PUSH2 0x1BC9 JUMPI PUSH1 0x40 MLOAD PUSH32 0xE450D38C00000000000000000000000000000000000000000000000000000000 DUP2 MSTORE PUSH1 0x1 PUSH1 0x1 PUSH1 0xA0 SHL SUB DUP6 AND PUSH1 0x4 DUP3 ADD MSTORE PUSH1 0x24 DUP2 ADD DUP3 SWAP1 MSTORE PUSH1 0x44 DUP2 ADD DUP4 SWAP1 MSTORE PUSH1 0x64 ADD PUSH2 0xC80 JUMP JUMPDEST PUSH1 0x1 PUSH1 0x1 PUSH1 0xA0 SHL SUB DUP5 AND PUSH1 0x0 SWAP1 DUP2 MSTORE PUSH1 0x20 DUP2 SWAP1 MSTORE PUSH1 0x40 SWAP1 KECCAK256 SWAP1 DUP3 SWAP1 SUB SWAP1 SSTORE JUMPDEST PUSH1 0x1 PUSH1 0x1 PUSH1 0xA0 SHL SUB DUP3 AND PUSH2 0x1C04 JUMPI PUSH1 0x2 DUP1 SLOAD DUP3 SWAP1 SUB SWAP1 SSTORE PUSH2 0x1C23 JUMP JUMPDEST PUSH1 0x1 PUSH1 0x1 PUSH1 0xA0 SHL SUB DUP3 AND PUSH1 0x0 SWAP1 DUP2 MSTORE PUSH1 0x20 DUP2 SWAP1 MSTORE PUSH1 0x40 SWAP1 KECCAK256 DUP1 SLOAD DUP3 ADD SWAP1 SSTORE JUMPDEST DUP2 PUSH1 0x1 PUSH1 0x1 PUSH1 0xA0 SHL SUB AND DUP4 PUSH1 0x1 PUSH1 0x1 PUSH1 0xA0 SHL SUB AND PUSH32 0xDDF252AD1BE2C89B69C2B068FC378DAA952BA7F163C4A11628F55A4DF523B3EF DUP4 PUSH1 0x40 MLOAD PUSH2 0x1C68 SWAP2 DUP2 MSTORE PUSH1 0x20 ADD SWAP1 JUMP JUMPDEST PUSH1 0x40 MLOAD DUP1 SWAP2 SUB SWAP1 LOG3 POP POP POP JUMP JUMPDEST PUSH1 0x40 MLOAD PUSH1 0x1 PUSH1 0x1 PUSH1 0xA0 SHL SUB DUP5 DUP2 AND PUSH1 0x24 DUP4 ADD MSTORE DUP4 DUP2 AND PUSH1 0x44 DUP4 ADD MSTORE PUSH1 0x64 DUP3 ADD DUP4 SWAP1 MSTORE PUSH2 0x1260 SWAP2 DUP7 SWAP2 DUP3 AND SWAP1 PUSH4 0x23B872DD SWAP1 PUSH1 0x84 ADD JUMPDEST PUSH1 0x40 MLOAD PUSH1 0x20 DUP2 DUP4 SUB SUB DUP2 MSTORE SWAP1 PUSH1 0x40 MSTORE SWAP2 POP PUSH1 0xE0 SHL PUSH1 0x20 DUP3 ADD DUP1 MLOAD PUSH28 0xFFFFFFFFFFFFFFFFFFFFFFFFFFFFFFFFFFFFFFFFFFFFFFFFFFFFFFFF DUP4 DUP2 DUP4 AND OR DUP4 MSTORE POP POP POP POP PUSH2 0x1DD2 JUMP JUMPDEST PUSH1 0x1 PUSH1 0x1 PUSH1 0xA0 SHL SUB DUP3 AND PUSH2 0x1D34 JUMPI PUSH1 0x40 MLOAD PUSH32 0xEC442F0500000000000000000000000000000000000000000000000000000000 DUP2 MSTORE PUSH1 0x0 PUSH1 0x4 DUP3 ADD MSTORE PUSH1 0x24 ADD PUSH2 0xC80 JUMP JUMPDEST PUSH2 0x1565 PUSH1 0x0 DUP4 DUP4 PUSH2 0x17E7 JUMP JUMPDEST PUSH1 0x1 PUSH1 0x1 PUSH1 0xA0 SHL SUB DUP3 AND PUSH2 0x1D83 JUMPI PUSH1 0x40 MLOAD PUSH32 0x96C6FD1E00000000000000000000000000000000000000000000000000000000 DUP2 MSTORE PUSH1 0x0 PUSH1 0x4 DUP3 ADD MSTORE PUSH1 0x24 ADD PUSH2 0xC80 JUMP JUMPDEST PUSH2 0x1565 DUP3 PUSH1 0x0 DUP4 PUSH2 0x17E7 JUMP JUMPDEST PUSH1 0x40 MLOAD PUSH1 0x1 PUSH1 0x1 PUSH1 0xA0 SHL SUB DUP4 DUP2 AND PUSH1 0x24 DUP4 ADD MSTORE PUSH1 0x44 DUP3 ADD DUP4 SWAP1 MSTORE PUSH2 0x1153 SWAP2 DUP6 SWAP2 DUP3 AND SWAP1 PUSH4 0xA9059CBB SWAP1 PUSH1 0x64 ADD PUSH2 0x1CAA JUMP JUMPDEST PUSH4 0x4E487B71 PUSH1 0x0 MSTORE DUP1 PUSH1 0x20 MSTORE PUSH1 0x24 PUSH1 0x1C REVERT JUMPDEST PUSH1 0x0 DUP1 PUSH1 0x20 PUSH1 0x0 DUP5 MLOAD PUSH1 0x20 DUP7 ADD PUSH1 0x0 DUP9 GAS CALL DUP1 PUSH2 0x1DF5 JUMPI PUSH1 0x40 MLOAD RETURNDATASIZE PUSH1 0x0 DUP3 RETURNDATACOPY RETURNDATASIZE DUP2 REVERT JUMPDEST POP POP PUSH1 0x0 MLOAD RETURNDATASIZE SWAP2 POP DUP2 ISZERO PUSH2 0x1E0D JUMPI DUP1 PUSH1 0x1 EQ ISZERO PUSH2 0x1E1A JUMP JUMPDEST PUSH1 0x1 PUSH1 0x1 PUSH1 0xA0 SHL SUB DUP5 AND EXTCODESIZE ISZERO JUMPDEST ISZERO PUSH2 0x1260 JUMPI PUSH1 0x40 MLOAD PUSH32 0x5274AFE700000000000000000000000000000000000000000000000000000000 DUP2 MSTORE PUSH1 0x1 PUSH1 0x1 PUSH1 0xA0 SHL SUB DUP6 AND PUSH1 0x4 DUP3 ADD MSTORE PUSH1 0x24 ADD PUSH2 0xC80 JUMP JUMPDEST PUSH1 0x0 JUMPDEST DUP4 DUP2 LT ISZERO PUSH2 0x1E77 JUMPI DUP2 DUP2 ADD MLOAD DUP4 DUP3 ADD MSTORE PUSH1 0x20 ADD PUSH2 0x1E5F JUMP JUMPDEST POP POP PUSH1 0x0 SWAP2 ADD MSTORE JUMP JUMPDEST PUSH1 0x0 DUP2 MLOAD DUP1 DUP5 MSTORE PUSH2 0x1E98 DUP2 PUSH1 0x20 DUP7 ADD PUSH1 0x20 DUP7 ADD PUSH2 0x1E5C JUMP JUMPDEST PUSH1 0x1F ADD PUSH1 0x1F NOT AND SWAP3 SWAP1 SWAP3 ADD PUSH1 0x20 ADD SWAP3 SWAP2 POP POP JUMP JUMPDEST PUSH1 0x20 DUP2 MSTORE PUSH1 0x0 PUSH2 0x9A2 PUSH1 0x20 DUP4 ADD DUP5 PUSH2 0x1E80 JUMP JUMPDEST PUSH1 0x0 PUSH1 0x20 DUP3 DUP5 SUB SLT ISZERO PUSH2 0x1ED1 JUMPI PUSH1 0x0 DUP1 REVERT JUMPDEST POP CALLDATALOAD SWAP2 SWAP1 POP JUMP JUMPDEST DUP1 CALLDATALOAD PUSH1 0x1 PUSH1 0x1 PUSH1 0xA0 SHL SUB DUP2 AND DUP2 EQ PUSH2 0x1EEF JUMPI PUSH1 0x0 DUP1 REVERT JUMPDEST SWAP2 SWAP1 POP JUMP JUMPDEST PUSH1 0x0 DUP1 PUSH1 0x40 DUP4 DUP6 SUB SLT ISZERO PUSH2 0x1F07 JUMPI PUSH1 0x0 DUP1 REVERT JUMPDEST PUSH2 0x1F10 DUP4 PUSH2 0x1ED8 JUMP JUMPDEST SWAP5 PUSH1 0x20 SWAP4 SWAP1 SWAP4 ADD CALLDATALOAD SWAP4 POP POP POP JUMP JUMPDEST PUSH1 0x0 PUSH1 0x20 DUP3 DUP5 SUB SLT ISZERO PUSH2 0x1F30 JUMPI PUSH1 0x0 DUP1 REVERT JUMPDEST DUP2 CALLDATALOAD DUP1 ISZERO ISZERO DUP2 EQ PUSH2 0x9A2 JUMPI PUSH1 0x0 DUP1 REVERT JUMPDEST PUSH1 0x0 DUP1 PUSH1 0x0 PUSH1 0x60 DUP5 DUP7 SUB SLT ISZERO PUSH2 0x1F55 JUMPI PUSH1 0x0 DUP1 REVERT JUMPDEST PUSH2 0x1F5E DUP5 PUSH2 0x1ED8 JUMP JUMPDEST SWAP3 POP PUSH2 0x1F6C PUSH1 0x20 DUP6 ADD PUSH2 0x1ED8 JUMP JUMPDEST SWAP3 SWAP6 SWAP3 SWAP5 POP POP POP PUSH1 0x40 SWAP2 SWAP1 SWAP2 ADD CALLDATALOAD SWAP1 JUMP JUMPDEST PUSH4 0x4E487B71 PUSH1 0xE0 SHL PUSH1 0x0 MSTORE PUSH1 0x41 PUSH1 0x4 MSTORE PUSH1 0x24 PUSH1 0x0 REVERT JUMPDEST PUSH1 0x0 DUP3 PUSH1 0x1F DUP4 ADD SLT PUSH2 0x1FA4 JUMPI PUSH1 0x0 DUP1 REVERT JUMPDEST DUP2 CALLDATALOAD PUSH8 0xFFFFFFFFFFFFFFFF DUP2 GT ISZERO PUSH2 0x1FBE JUMPI PUSH2 0x1FBE PUSH2 0x1F7D JUMP JUMPDEST PUSH1 0x40 MLOAD PUSH1 0x1F NOT PUSH1 0x3F PUSH1 0x1F NOT PUSH1 0x1F DUP6 ADD AND ADD AND DUP2 ADD DUP2 DUP2 LT PUSH8 0xFFFFFFFFFFFFFFFF DUP3 GT OR ISZERO PUSH2 0x1FEE JUMPI PUSH2 0x1FEE PUSH2 0x1F7D JUMP JUMPDEST PUSH1 0x40 MSTORE DUP2 DUP2 MSTORE DUP4 DUP3 ADD PUSH1 0x20 ADD DUP6 LT ISZERO PUSH2 0x2006 JUMPI PUSH1 0x0 DUP1 REVERT JUMPDEST DUP2 PUSH1 0x20 DUP6 ADD PUSH1 0x20 DUP4 ADD CALLDATACOPY PUSH1 0x0 SWAP2 DUP2 ADD PUSH1 0x20 ADD SWAP2 SWAP1 SWAP2 MSTORE SWAP4 SWAP3 POP POP POP JUMP JUMPDEST PUSH1 0x0 PUSH1 0x20 DUP3 DUP5 SUB SLT ISZERO PUSH2 0x2035 JUMPI PUSH1 0x0 DUP1 REVERT JUMPDEST DUP2 CALLDATALOAD PUSH8 0xFFFFFFFFFFFFFFFF DUP2 GT ISZERO PUSH2 0x204C JUMPI PUSH1 0x0 DUP1 REVERT JUMPDEST PUSH2 0xCA2 DUP5 DUP3 DUP6 ADD PUSH2 0x1F93 JUMP JUMPDEST PUSH1 0x0 PUSH1 0x20 DUP3 DUP5 SUB SLT ISZERO PUSH2 0x206A JUMPI PUSH1 0x0 DUP1 REVERT JUMPDEST PUSH2 0x9A2 DUP3 PUSH2 0x1ED8 JUMP JUMPDEST PUSH1 0x0 DUP1 PUSH1 0x40 DUP4 DUP6 SUB SLT ISZERO PUSH2 0x2086 JUMPI PUSH1 0x0 DUP1 REVERT JUMPDEST PUSH2 0x208F DUP4 PUSH2 0x1ED8 JUMP JUMPDEST SWAP2 POP PUSH1 0x20 DUP4 ADD CALLDATALOAD PUSH8 0xFFFFFFFFFFFFFFFF DUP2 GT ISZERO PUSH2 0x20AB JUMPI PUSH1 0x0 DUP1 REVERT JUMPDEST PUSH2 0x20B7 DUP6 DUP3 DUP7 ADD PUSH2 0x1F93 JUMP JUMPDEST SWAP2 POP POP SWAP3 POP SWAP3 SWAP1 POP JUMP JUMPDEST PUSH1 0x0 DUP1 PUSH1 0x40 DUP4 DUP6 SUB SLT ISZERO PUSH2 0x20D4 JUMPI PUSH1 0x0 DUP1 REVERT JUMPDEST DUP3 CALLDATALOAD SWAP2 POP PUSH2 0x20E4 PUSH1 0x20 DUP5 ADD PUSH2 0x1ED8 JUMP JUMPDEST SWAP1 POP SWAP3 POP SWAP3 SWAP1 POP JUMP JUMPDEST PUSH1 0x0 DUP1 PUSH1 0x0 PUSH1 0x60 DUP5 DUP7 SUB SLT ISZERO PUSH2 0x2102 JUMPI PUSH1 0x0 DUP1 REVERT JUMPDEST DUP4 CALLDATALOAD SWAP3 POP PUSH2 0x2112 PUSH1 0x20 DUP6 ADD PUSH2 0x1ED8 JUMP JUMPDEST SWAP2 POP PUSH1 0x40 DUP5 ADD CALLDATALOAD PUSH8 0xFFFFFFFFFFFFFFFF DUP2 GT ISZERO PUSH2 0x212E JUMPI PUSH1 0x0 DUP1 REVERT JUMPDEST PUSH2 0x213A DUP7 DUP3 DUP8 ADD PUSH2 0x1F93 JUMP JUMPDEST SWAP2 POP POP SWAP3 POP SWAP3 POP SWAP3 JUMP JUMPDEST PUSH1 0x0 DUP1 PUSH1 0x0 PUSH1 0x60 DUP5 DUP7 SUB SLT ISZERO PUSH2 0x2159 JUMPI PUSH1 0x0 DUP1 REVERT JUMPDEST DUP4 CALLDATALOAD SWAP3 POP PUSH2 0x2169 PUSH1 0x20 DUP6 ADD PUSH2 0x1ED8 JUMP JUMPDEST SWAP2 POP PUSH2 0x2177 PUSH1 0x40 DUP6 ADD PUSH2 0x1ED8 JUMP JUMPDEST SWAP1 POP SWAP3 POP SWAP3 POP SWAP3 JUMP JUMPDEST PUSH1 0x0 DUP1 PUSH1 0x40 DUP4 DUP6 SUB SLT ISZERO PUSH2 0x2193 JUMPI PUSH1 0x0 DUP1 REVERT JUMPDEST PUSH2 0x219C DUP4 PUSH2 0x1ED8 JUMP JUMPDEST SWAP2 POP PUSH2 0x20E4 PUSH1 0x20 DUP5 ADD PUSH2 0x1ED8 JUMP JUMPDEST PUSH1 0x0 PUSH1 0x20 DUP3 DUP5 SUB SLT ISZERO PUSH2 0x21BC JUMPI PUSH1 0x0 DUP1 REVERT JUMPDEST POP MLOAD SWAP2 SWAP1 POP JUMP JUMPDEST PUSH1 0x1 DUP2 DUP2 SHR SWAP1 DUP3 AND DUP1 PUSH2 0x21D7 JUMPI PUSH1 0x7F DUP3 AND SWAP2 POP JUMPDEST PUSH1 0x20 DUP3 LT DUP2 SUB PUSH2 0x21F7 JUMPI PUSH4 0x4E487B71 PUSH1 0xE0 SHL PUSH1 0x0 MSTORE PUSH1 0x22 PUSH1 0x4 MSTORE PUSH1 0x24 PUSH1 0x0 REVERT JUMPDEST POP SWAP2 SWAP1 POP JUMP JUMPDEST PUSH1 0x0 DUP3 MLOAD PUSH2 0x220F DUP2 DUP5 PUSH1 0x20 DUP8 ADD PUSH2 0x1E5C JUMP JUMPDEST SWAP2 SWAP1 SWAP2 ADD SWAP3 SWAP2 POP POP JUMP JUMPDEST PUSH1 0x1F DUP3 GT ISZERO PUSH2 0x1153 JUMPI DUP1 PUSH1 0x0 MSTORE PUSH1 0x20 PUSH1 0x0 KECCAK256 PUSH1 0x1F DUP5 ADD PUSH1 0x5 SHR DUP2 ADD PUSH1 0x20 DUP6 LT ISZERO PUSH2 0x2240 JUMPI POP DUP1 JUMPDEST PUSH1 0x1F DUP5 ADD PUSH1 0x5 SHR DUP3 ADD SWAP2 POP JUMPDEST DUP2 DUP2 LT ISZERO PUSH2 0x1695 JUMPI PUSH1 0x0 DUP2 SSTORE PUSH1 0x1 ADD PUSH2 0x224C JUMP JUMPDEST DUP2 MLOAD PUSH8 0xFFFFFFFFFFFFFFFF DUP2 GT ISZERO PUSH2 0x227A JUMPI PUSH2 0x227A PUSH2 0x1F7D JUMP JUMPDEST PUSH2 0x228E DUP2 PUSH2 0x2288 DUP5 SLOAD PUSH2 0x21C3 JUMP JUMPDEST DUP5 PUSH2 0x2219 JUMP JUMPDEST PUSH1 0x20 PUSH1 0x1F DUP3 GT PUSH1 0x1 DUP2 EQ PUSH2 0x22C2 JUMPI PUSH1 0x0 DUP4 ISZERO PUSH2 0x22AA JUMPI POP DUP5 DUP3 ADD MLOAD JUMPDEST PUSH1 0x0 NOT PUSH1 0x3 DUP6 SWAP1 SHL SHR NOT AND PUSH1 0x1 DUP5 SWAP1 SHL OR DUP5 SSTORE PUSH2 0x1695 JUMP JUMPDEST PUSH1 0x0 DUP5 DUP2 MSTORE PUSH1 0x20 DUP2 KECCAK256 PUSH1 0x1F NOT DUP6 AND SWAP2 JUMPDEST DUP3 DUP2 LT ISZERO PUSH2 0x22F2 JUMPI DUP8 DUP6 ADD MLOAD DUP3 SSTORE PUSH1 0x20 SWAP5 DUP6 ADD SWAP5 PUSH1 0x1 SWAP1 SWAP3 ADD SWAP2 ADD PUSH2 0x22D2 JUMP JUMPDEST POP DUP5 DUP3 LT ISZERO PUSH2 0x2310 JUMPI DUP7 DUP5 ADD MLOAD PUSH1 0x0 NOT PUSH1 0x3 DUP8 SWAP1 SHL PUSH1 0xF8 AND SHR NOT AND DUP2 SSTORE JUMPDEST POP POP POP POP PUSH1 0x1 SWAP1 DUP2 SHL ADD SWAP1 SSTORE POP JUMP JUMPDEST PUSH1 0x1 PUSH1 0x1 PUSH1 0xA0 SHL SUB DUP4 AND DUP2 MSTORE PUSH1 0x40 PUSH1 0x20 DUP3 ADD MSTORE PUSH1 0x0 PUSH2 0xCA2 PUSH1 0x40 DUP4 ADD DUP5 PUSH2 0x1E80 JUMP JUMPDEST PUSH4 0x4E487B71 PUSH1 0xE0 SHL PUSH1 0x0 MSTORE PUSH1 0x11 PUSH1 0x4 MSTORE PUSH1 0x24 PUSH1 0x0 REVERT JUMPDEST PUSH1 0xFF DUP2 DUP2 AND DUP4 DUP3 AND ADD SWAP1 DUP2 GT ISZERO PUSH2 0x848 JUMPI PUSH2 0x848 PUSH2 0x2341 JUMP JUMPDEST DUP1 DUP3 ADD DUP1 DUP3 GT ISZERO PUSH2 0x848 JUMPI PUSH2 0x848 PUSH2 0x2341 JUMP JUMPDEST PUSH1 0x1 DUP2 JUMPDEST PUSH1 0x1 DUP5 GT ISZERO PUSH2 0x23BE JUMPI DUP1 DUP6 DIV DUP2 GT ISZERO PUSH2 0x23A2 JUMPI PUSH2 0x23A2 PUSH2 0x2341 JUMP JUMPDEST PUSH1 0x1 DUP5 AND ISZERO PUSH2 0x23B0 JUMPI SWAP1 DUP2 MUL SWAP1 JUMPDEST PUSH1 0x1 SWAP4 SWAP1 SWAP4 SHR SWAP3 DUP1 MUL PUSH2 0x2387 JUMP JUMPDEST SWAP4 POP SWAP4 SWAP2 POP POP JUMP JUMPDEST PUSH1 0x0 DUP3 PUSH2 0x23D5 JUMPI POP PUSH1 0x1 PUSH2 0x848 JUMP JUMPDEST DUP2 PUSH2 0x23E2 JUMPI POP PUSH1 0x0 PUSH2 0x848 JUMP JUMPDEST DUP2 PUSH1 0x1 DUP2 EQ PUSH2 0x23F8 JUMPI PUSH1 0x2 DUP2 EQ PUSH2 0x2402 JUMPI PUSH2 0x241E JUMP JUMPDEST PUSH1 0x1 SWAP2 POP POP PUSH2 0x848 JUMP JUMPDEST PUSH1 0xFF DUP5 GT ISZERO PUSH2 0x2413 JUMPI PUSH2 0x2413 PUSH2 0x2341 JUMP JUMPDEST POP POP PUSH1 0x1 DUP3 SHL PUSH2 0x848 JUMP JUMPDEST POP PUSH1 0x20 DUP4 LT PUSH2 0x133 DUP4 LT AND PUSH1 0x4E DUP5 LT PUSH1 0xB DUP5 LT AND OR ISZERO PUSH2 0x2441 JUMPI POP DUP2 DUP2 EXP PUSH2 0x848 JUMP JUMPDEST PUSH2 0x244E PUSH1 0x0 NOT DUP5 DUP5 PUSH2 0x2383 JUMP JUMPDEST DUP1 PUSH1 0x0 NOT DIV DUP3 GT ISZERO PUSH2 0x2462 JUMPI PUSH2 0x2462 PUSH2 0x2341 JUMP JUMPDEST MUL SWAP4 SWAP3 POP POP POP JUMP JUMPDEST PUSH1 0x0 PUSH2 0x9A2 PUSH1 0xFF DUP5 AND DUP4 PUSH2 0x23C6 JUMP JUMPDEST PUSH4 0x4E487B71 PUSH1 0xE0 SHL PUSH1 0x0 MSTORE PUSH1 0x32 PUSH1 0x4 MSTORE PUSH1 0x24 PUSH1 0x0 REVERT JUMPDEST PUSH4 0x4E487B71 PUSH1 0xE0 SHL PUSH1 0x0 MSTORE PUSH1 0x12 PUSH1 0x4 MSTORE PUSH1 0x24 PUSH1 0x0 REVERT JUMPDEST PUSH1 0x0 PUSH1 0x0 NOT DUP3 SUB PUSH2 0x24B8 JUMPI PUSH2 0x24B8 PUSH2 0x2341 JUMP JUMPDEST POP PUSH1 0x1 ADD SWAP1 JUMP JUMPDEST PUSH1 0x0 DUP3 PUSH2 0x24CE JUMPI PUSH2 0x24CE PUSH2 0x248F JUMP JUMPDEST POP MOD SWAP1 JUMP JUMPDEST PUSH4 0x4E487B71 PUSH1 0xE0 SHL PUSH1 0x0 MSTORE PUSH1 0x21 PUSH1 0x4 MSTORE PUSH1 0x24 PUSH1 0x0 REVERT JUMPDEST PUSH1 0x0 PUSH1 0xFF DUP4 AND DUP1 PUSH2 0x24FC JUMPI PUSH2 0x24FC PUSH2 0x248F JUMP JUMPDEST DUP1 PUSH1 0xFF DUP5 AND MOD SWAP2 POP POP SWAP3 SWAP2 POP POP JUMP INVALID COINBASE TIMESTAMP NUMBER PREVRANDAO GASLIMIT CHAINID SELFBALANCE BASEFEE BLOBHASH BLOBBASEFEE 0x4B 0x4C 0x4D 0x4E 0x4F POP MLOAD MSTORE MSTORE8 SLOAD SSTORE JUMP JUMPI PC MSIZE GAS ADDRESS BALANCE ORIGIN CALLER CALLVALUE CALLDATALOAD CALLDATASIZE CALLDATACOPY CODESIZE CODECOPY ADDRESS BALANCE ORIGIN CALLER CALLVALUE CALLDATALOAD CALLDATASIZE CALLDATACOPY CODESIZE CODECOPY LOG2 PUSH5 0x6970667358 0x22 SLT KECCAK256 PUSH24 0xC7B1F8F68619269245E2A5D7DD76D730C0AC3106389CB01 GASPRICE DUP3 0xDE DIV 0xA6 0xBB PUSH1 0x64 PUSH20 0x6F6C634300081C00330000000000000000000000 "},"methodIdentifiers":{"allowance(address,address)":"dd62ed3e","approve(address,uint256)":"095ea7b3","asset()":"38d52e0f","balanceOf(address)":"70a08231","convertToAssets(uint256)":"07a2d13a","convertToShares(uint256)":"c6e6f592","createReferralCode()":"2e108d1c","createReferralCodeOwner(address,string)":"45b96500","decimals()":"313ce567","deposit(uint256,address)":"6e553f65","depositWithReferral(uint256,address,string)":"9f68b575","depositsEnabled()":"5392fd1c","maxDeposit(address)":"402d267d","maxMint(address)":"c63d75b6","maxRedeem(address)":"d905777e","maxWithdraw(address)":"ce96cb77","minimumBalanceToGenerateCode()":"9e96e6d2","mint(uint256,address)":"94bf804d","name()":"06fdde03","owner()":"8da5cb5b","ownerToReferralCode(address)":"ddc117ec","previewDeposit(uint256)":"ef8b30f7","previewMint(uint256)":"b3d7f6b9","previewRedeem(uint256)":"4cdad506","previewWithdraw(uint256)":"0a28a477","redeem(uint256,address,address)":"ba087652","referralCodeCreationEnabled()":"63a09663","referralCodeMandatory()":"8edf9647","referralCodeToOwner(string)":"bb33bd6c","renounceOwnership()":"715018a6","setDepositsEnabled(bool)":"9f04586c","setMinimumBalanceToGenerateCode(uint256)":"90907858","setReferralCodeCreationEnabled(bool)":"0f65ba1e","setReferralCodeMandatory(bool)":"94eaf06a","setUseReferralOnlyInDeposits(bool)":"74a5b0e1","setWithdrawalsEnabled(bool)":"0a179327","symbol()":"95d89b41","totalAssets()":"01e1d114","totalSupply()":"18160ddd","transfer(address,uint256)":"a9059cbb","transferFrom(address,address,uint256)":"23b872dd","transferOwnership(address)":"f2fde38b","useReferralCode(string)":"33a8433a","useReferralOnlyInDeposits()":"3cc5634b","withdraw(uint256,address,address)":"b460af94","withdrawalsEnabled()":"d0dbcd24"}}}}}