{
  "_format": "hh-sol-artifact-1",
  "contractName": "AcceleraPreDepositVault",
  "sourceName": "contracts/AcceleraPreDepositVault.sol",
  "abi": [
    {
      "inputs": [
        {
          "internalType": "address",
          "name": "initialOwner_",
          "type": "address"
        },
        {
          "internalType": "contract IERC20",
          "name": "asset_",
          "type": "address"
        },
        {
          "internalType": "string",
          "name": "name_",
          "type": "string"
        },
        {
          "internalType": "string",
          "name": "symbol_",
          "type": "string"
        }
      ],
      "stateMutability": "nonpayable",
      "type": "constructor"
    },
    {
      "inputs": [],
      "name": "AddressAlreadyHasReferralCode",
      "type": "error"
    },
    {
      "inputs": [],
      "name": "DepositsDisabled",
      "type": "error"
    },
    {
      "inputs": [
        {
          "internalType": "address",
          "name": "spender",
          "type": "address"
        },
        {
          "internalType": "uint256",
          "name": "allowance",
          "type": "uint256"
        },
        {
          "internalType": "uint256",
          "name": "needed",
          "type": "uint256"
        }
      ],
      "name": "ERC20InsufficientAllowance",
      "type": "error"
    },
    {
      "inputs": [
        {
          "internalType": "address",
          "name": "sender",
          "type": "address"
        },
        {
          "internalType": "uint256",
          "name": "balance",
          "type": "uint256"
        },
        {
          "internalType": "uint256",
          "name": "needed",
          "type": "uint256"
        }
      ],
      "name": "ERC20InsufficientBalance",
      "type": "error"
    },
    {
      "inputs": [
        {
          "internalType": "address",
          "name": "approver",
          "type": "address"
        }
      ],
      "name": "ERC20InvalidApprover",
      "type": "error"
    },
    {
      "inputs": [
        {
          "internalType": "address",
          "name": "receiver",
          "type": "address"
        }
      ],
      "name": "ERC20InvalidReceiver",
      "type": "error"
    },
    {
      "inputs": [
        {
          "internalType": "address",
          "name": "sender",
          "type": "address"
        }
      ],
      "name": "ERC20InvalidSender",
      "type": "error"
    },
    {
      "inputs": [
        {
          "internalType": "address",
          "name": "spender",
          "type": "address"
        }
      ],
      "name": "ERC20InvalidSpender",
      "type": "error"
    },
    {
      "inputs": [
        {
          "internalType": "address",
          "name": "receiver",
          "type": "address"
        },
        {
          "internalType": "uint256",
          "name": "assets",
          "type": "uint256"
        },
        {
          "internalType": "uint256",
          "name": "max",
          "type": "uint256"
        }
      ],
      "name": "ERC4626ExceededMaxDeposit",
      "type": "error"
    },
    {
      "inputs": [
        {
          "internalType": "address",
          "name": "receiver",
          "type": "address"
        },
        {
          "internalType": "uint256",
          "name": "shares",
          "type": "uint256"
        },
        {
          "internalType": "uint256",
          "name": "max",
          "type": "uint256"
        }
      ],
      "name": "ERC4626ExceededMaxMint",
      "type": "error"
    },
    {
      "inputs": [
        {
          "internalType": "address",
          "name": "owner",
          "type": "address"
        },
        {
          "internalType": "uint256",
          "name": "shares",
          "type": "uint256"
        },
        {
          "internalType": "uint256",
          "name": "max",
          "type": "uint256"
        }
      ],
      "name": "ERC4626ExceededMaxRedeem",
      "type": "error"
    },
    {
      "inputs": [
        {
          "internalType": "address",
          "name": "owner",
          "type": "address"
        },
        {
          "internalType": "uint256",
          "name": "assets",
          "type": "uint256"
        },
        {
          "internalType": "uint256",
          "name": "max",
          "type": "uint256"
        }
      ],
      "name": "ERC4626ExceededMaxWithdraw",
      "type": "error"
    },
    {
      "inputs": [
        {
          "internalType": "address",
          "name": "owner",
          "type": "address"
        }
      ],
      "name": "OwnableInvalidOwner",
      "type": "error"
    },
    {
      "inputs": [
        {
          "internalType": "address",
          "name": "account",
          "type": "address"
        }
      ],
      "name": "OwnableUnauthorizedAccount",
      "type": "error"
    },
    {
      "inputs": [],
      "name": "ReferralCodeAlreadyUsed",
      "type": "error"
    },
    {
      "inputs": [],
      "name": "ReferralCodeCreationDisabled",
      "type": "error"
    },
    {
      "inputs": [],
      "name": "ReferralCodeDoesNotExist",
      "type": "error"
    },
    {
      "inputs": [],
      "name": "ReferralCodeMandatory",
      "type": "error"
    },
    {
      "inputs": [
        {
          "internalType": "address",
          "name": "token",
          "type": "address"
        }
      ],
      "name": "SafeERC20FailedOperation",
      "type": "error"
    },
    {
      "inputs": [],
      "name": "WithdrawalsDisabled",
      "type": "error"
    },
    {
      "anonymous": false,
      "inputs": [
        {
          "indexed": true,
          "internalType": "address",
          "name": "owner",
          "type": "address"
        },
        {
          "indexed": true,
          "internalType": "address",
          "name": "spender",
          "type": "address"
        },
        {
          "indexed": false,
          "internalType": "uint256",
          "name": "value",
          "type": "uint256"
        }
      ],
      "name": "Approval",
      "type": "event"
    },
    {
      "anonymous": false,
      "inputs": [
        {
          "indexed": true,
          "internalType": "address",
          "name": "sender",
          "type": "address"
        },
        {
          "indexed": true,
          "internalType": "address",
          "name": "owner",
          "type": "address"
        },
        {
          "indexed": false,
          "internalType": "uint256",
          "name": "assets",
          "type": "uint256"
        },
        {
          "indexed": false,
          "internalType": "uint256",
          "name": "shares",
          "type": "uint256"
        }
      ],
      "name": "Deposit",
      "type": "event"
    },
    {
      "anonymous": false,
      "inputs": [
        {
          "indexed": false,
          "internalType": "bool",
          "name": "enabled",
          "type": "bool"
        }
      ],
      "name": "DepositsEnabled",
      "type": "event"
    },
    {
      "anonymous": false,
      "inputs": [
        {
          "indexed": true,
          "internalType": "address",
          "name": "previousOwner",
          "type": "address"
        },
        {
          "indexed": true,
          "internalType": "address",
          "name": "newOwner",
          "type": "address"
        }
      ],
      "name": "OwnershipTransferred",
      "type": "event"
    },
    {
      "anonymous": false,
      "inputs": [
        {
          "indexed": false,
          "internalType": "address",
          "name": "user",
          "type": "address"
        },
        {
          "indexed": false,
          "internalType": "string",
          "name": "code",
          "type": "string"
        }
      ],
      "name": "ReferralCodeCreated",
      "type": "event"
    },
    {
      "anonymous": false,
      "inputs": [
        {
          "indexed": false,
          "internalType": "bool",
          "name": "enabled",
          "type": "bool"
        }
      ],
      "name": "ReferralCodeCreationEnabled",
      "type": "event"
    },
    {
      "anonymous": false,
      "inputs": [
        {
          "indexed": false,
          "internalType": "bool",
          "name": "enabled",
          "type": "bool"
        }
      ],
      "name": "ReferralCodeMandatoryEnabled",
      "type": "event"
    },
    {
      "anonymous": false,
      "inputs": [
        {
          "indexed": false,
          "internalType": "address",
          "name": "user",
          "type": "address"
        },
        {
          "indexed": false,
          "internalType": "string",
          "name": "code",
          "type": "string"
        }
      ],
      "name": "ReferralCodeUsed",
      "type": "event"
    },
    {
      "anonymous": false,
      "inputs": [
        {
          "indexed": true,
          "internalType": "address",
          "name": "from",
          "type": "address"
        },
        {
          "indexed": true,
          "internalType": "address",
          "name": "to",
          "type": "address"
        },
        {
          "indexed": false,
          "internalType": "uint256",
          "name": "value",
          "type": "uint256"
        }
      ],
      "name": "Transfer",
      "type": "event"
    },
    {
      "anonymous": false,
      "inputs": [
        {
          "indexed": false,
          "internalType": "bool",
          "name": "enable",
          "type": "bool"
        }
      ],
      "name": "UseReferralOnlyInDepositsEnabled",
      "type": "event"
    },
    {
      "anonymous": false,
      "inputs": [
        {
          "indexed": true,
          "internalType": "address",
          "name": "sender",
          "type": "address"
        },
        {
          "indexed": true,
          "internalType": "address",
          "name": "receiver",
          "type": "address"
        },
        {
          "indexed": true,
          "internalType": "address",
          "name": "owner",
          "type": "address"
        },
        {
          "indexed": false,
          "internalType": "uint256",
          "name": "assets",
          "type": "uint256"
        },
        {
          "indexed": false,
          "internalType": "uint256",
          "name": "shares",
          "type": "uint256"
        }
      ],
      "name": "Withdraw",
      "type": "event"
    },
    {
      "anonymous": false,
      "inputs": [
        {
          "indexed": false,
          "internalType": "bool",
          "name": "enabled",
          "type": "bool"
        }
      ],
      "name": "WithdrawalsEnabled",
      "type": "event"
    },
    {
      "inputs": [
        {
          "internalType": "address",
          "name": "owner",
          "type": "address"
        },
        {
          "internalType": "address",
          "name": "spender",
          "type": "address"
        }
      ],
      "name": "allowance",
      "outputs": [
        {
          "internalType": "uint256",
          "name": "",
          "type": "uint256"
        }
      ],
      "stateMutability": "view",
      "type": "function"
    },
    {
      "inputs": [
        {
          "internalType": "address",
          "name": "spender",
          "type": "address"
        },
        {
          "internalType": "uint256",
          "name": "value",
          "type": "uint256"
        }
      ],
      "name": "approve",
      "outputs": [
        {
          "internalType": "bool",
          "name": "",
          "type": "bool"
        }
      ],
      "stateMutability": "nonpayable",
      "type": "function"
    },
    {
      "inputs": [],
      "name": "asset",
      "outputs": [
        {
          "internalType": "address",
          "name": "",
          "type": "address"
        }
      ],
      "stateMutability": "view",
      "type": "function"
    },
    {
      "inputs": [
        {
          "internalType": "address",
          "name": "account",
          "type": "address"
        }
      ],
      "name": "balanceOf",
      "outputs": [
        {
          "internalType": "uint256",
          "name": "",
          "type": "uint256"
        }
      ],
      "stateMutability": "view",
      "type": "function"
    },
    {
      "inputs": [
        {
          "internalType": "uint256",
          "name": "shares",
          "type": "uint256"
        }
      ],
      "name": "convertToAssets",
      "outputs": [
        {
          "internalType": "uint256",
          "name": "",
          "type": "uint256"
        }
      ],
      "stateMutability": "view",
      "type": "function"
    },
    {
      "inputs": [
        {
          "internalType": "uint256",
          "name": "assets",
          "type": "uint256"
        }
      ],
      "name": "convertToShares",
      "outputs": [
        {
          "internalType": "uint256",
          "name": "",
          "type": "uint256"
        }
      ],
      "stateMutability": "view",
      "type": "function"
    },
    {
      "inputs": [],
      "name": "createReferralCode",
      "outputs": [],
      "stateMutability": "nonpayable",
      "type": "function"
    },
    {
      "inputs": [
        {
          "internalType": "address",
          "name": "user_",
          "type": "address"
        },
        {
          "internalType": "string",
          "name": "code_",
          "type": "string"
        }
      ],
      "name": "createReferralCodeOwner",
      "outputs": [],
      "stateMutability": "nonpayable",
      "type": "function"
    },
    {
      "inputs": [],
      "name": "decimals",
      "outputs": [
        {
          "internalType": "uint8",
          "name": "",
          "type": "uint8"
        }
      ],
      "stateMutability": "view",
      "type": "function"
    },
    {
      "inputs": [
        {
          "internalType": "uint256",
          "name": "assets",
          "type": "uint256"
        },
        {
          "internalType": "address",
          "name": "receiver",
          "type": "address"
        }
      ],
      "name": "deposit",
      "outputs": [
        {
          "internalType": "uint256",
          "name": "",
          "type": "uint256"
        }
      ],
      "stateMutability": "nonpayable",
      "type": "function"
    },
    {
      "inputs": [
        {
          "internalType": "uint256",
          "name": "assets",
          "type": "uint256"
        },
        {
          "internalType": "address",
          "name": "receiver",
          "type": "address"
        },
        {
          "internalType": "string",
          "name": "code_",
          "type": "string"
        }
      ],
      "name": "depositWithReferral",
      "outputs": [
        {
          "internalType": "uint256",
          "name": "",
          "type": "uint256"
        }
      ],
      "stateMutability": "nonpayable",
      "type": "function"
    },
    {
      "inputs": [],
      "name": "depositsEnabled",
      "outputs": [
        {
          "internalType": "bool",
          "name": "",
          "type": "bool"
        }
      ],
      "stateMutability": "view",
      "type": "function"
    },
    {
      "inputs": [
        {
          "internalType": "address",
          "name": "",
          "type": "address"
        }
      ],
      "name": "maxDeposit",
      "outputs": [
        {
          "internalType": "uint256",
          "name": "",
          "type": "uint256"
        }
      ],
      "stateMutability": "view",
      "type": "function"
    },
    {
      "inputs": [
        {
          "internalType": "address",
          "name": "",
          "type": "address"
        }
      ],
      "name": "maxMint",
      "outputs": [
        {
          "internalType": "uint256",
          "name": "",
          "type": "uint256"
        }
      ],
      "stateMutability": "view",
      "type": "function"
    },
    {
      "inputs": [
        {
          "internalType": "address",
          "name": "owner",
          "type": "address"
        }
      ],
      "name": "maxRedeem",
      "outputs": [
        {
          "internalType": "uint256",
          "name": "",
          "type": "uint256"
        }
      ],
      "stateMutability": "view",
      "type": "function"
    },
    {
      "inputs": [
        {
          "internalType": "address",
          "name": "owner",
          "type": "address"
        }
      ],
      "name": "maxWithdraw",
      "outputs": [
        {
          "internalType": "uint256",
          "name": "",
          "type": "uint256"
        }
      ],
      "stateMutability": "view",
      "type": "function"
    },
    {
      "inputs": [
        {
          "internalType": "uint256",
          "name": "shares",
          "type": "uint256"
        },
        {
          "internalType": "address",
          "name": "receiver",
          "type": "address"
        }
      ],
      "name": "mint",
      "outputs": [
        {
          "internalType": "uint256",
          "name": "",
          "type": "uint256"
        }
      ],
      "stateMutability": "nonpayable",
      "type": "function"
    },
    {
      "inputs": [],
      "name": "name",
      "outputs": [
        {
          "internalType": "string",
          "name": "",
          "type": "string"
        }
      ],
      "stateMutability": "view",
      "type": "function"
    },
    {
      "inputs": [],
      "name": "owner",
      "outputs": [
        {
          "internalType": "address",
          "name": "",
          "type": "address"
        }
      ],
      "stateMutability": "view",
      "type": "function"
    },
    {
      "inputs": [
        {
          "internalType": "address",
          "name": "",
          "type": "address"
        }
      ],
      "name": "ownerToReferralCode",
      "outputs": [
        {
          "internalType": "string",
          "name": "",
          "type": "string"
        }
      ],
      "stateMutability": "view",
      "type": "function"
    },
    {
      "inputs": [
        {
          "internalType": "uint256",
          "name": "assets",
          "type": "uint256"
        }
      ],
      "name": "previewDeposit",
      "outputs": [
        {
          "internalType": "uint256",
          "name": "",
          "type": "uint256"
        }
      ],
      "stateMutability": "view",
      "type": "function"
    },
    {
      "inputs": [
        {
          "internalType": "uint256",
          "name": "shares",
          "type": "uint256"
        }
      ],
      "name": "previewMint",
      "outputs": [
        {
          "internalType": "uint256",
          "name": "",
          "type": "uint256"
        }
      ],
      "stateMutability": "view",
      "type": "function"
    },
    {
      "inputs": [
        {
          "internalType": "uint256",
          "name": "shares",
          "type": "uint256"
        }
      ],
      "name": "previewRedeem",
      "outputs": [
        {
          "internalType": "uint256",
          "name": "",
          "type": "uint256"
        }
      ],
      "stateMutability": "view",
      "type": "function"
    },
    {
      "inputs": [
        {
          "internalType": "uint256",
          "name": "assets",
          "type": "uint256"
        }
      ],
      "name": "previewWithdraw",
      "outputs": [
        {
          "internalType": "uint256",
          "name": "",
          "type": "uint256"
        }
      ],
      "stateMutability": "view",
      "type": "function"
    },
    {
      "inputs": [
        {
          "internalType": "uint256",
          "name": "shares",
          "type": "uint256"
        },
        {
          "internalType": "address",
          "name": "receiver",
          "type": "address"
        },
        {
          "internalType": "address",
          "name": "owner",
          "type": "address"
        }
      ],
      "name": "redeem",
      "outputs": [
        {
          "internalType": "uint256",
          "name": "",
          "type": "uint256"
        }
      ],
      "stateMutability": "nonpayable",
      "type": "function"
    },
    {
      "inputs": [],
      "name": "referralCodeCreationEnabled",
      "outputs": [
        {
          "internalType": "bool",
          "name": "",
          "type": "bool"
        }
      ],
      "stateMutability": "view",
      "type": "function"
    },
    {
      "inputs": [],
      "name": "referralCodeMandatory",
      "outputs": [
        {
          "internalType": "bool",
          "name": "",
          "type": "bool"
        }
      ],
      "stateMutability": "view",
      "type": "function"
    },
    {
      "inputs": [
        {
          "internalType": "string",
          "name": "",
          "type": "string"
        }
      ],
      "name": "referralCodeToOwner",
      "outputs": [
        {
          "internalType": "address",
          "name": "",
          "type": "address"
        }
      ],
      "stateMutability": "view",
      "type": "function"
    },
    {
      "inputs": [],
      "name": "renounceOwnership",
      "outputs": [],
      "stateMutability": "nonpayable",
      "type": "function"
    },
    {
      "inputs": [
        {
          "internalType": "bool",
          "name": "depositsEnabled_",
          "type": "bool"
        }
      ],
      "name": "setDepositsEnabled",
      "outputs": [],
      "stateMutability": "nonpayable",
      "type": "function"
    },
    {
      "inputs": [
        {
          "internalType": "bool",
          "name": "referralCodeCreationEnabled_",
          "type": "bool"
        }
      ],
      "name": "setReferralCodeCreationEnabled",
      "outputs": [],
      "stateMutability": "nonpayable",
      "type": "function"
    },
    {
      "inputs": [
        {
          "internalType": "bool",
          "name": "referralCodeMandatory_",
          "type": "bool"
        }
      ],
      "name": "setReferralCodeMandatory",
      "outputs": [],
      "stateMutability": "nonpayable",
      "type": "function"
    },
    {
      "inputs": [
        {
          "internalType": "bool",
          "name": "useReferralOnlyInDeposits_",
          "type": "bool"
        }
      ],
      "name": "setUseReferralOnlyInDeposits",
      "outputs": [],
      "stateMutability": "nonpayable",
      "type": "function"
    },
    {
      "inputs": [
        {
          "internalType": "bool",
          "name": "withdrawalsEnabled_",
          "type": "bool"
        }
      ],
      "name": "setWithdrawalsEnabled",
      "outputs": [],
      "stateMutability": "nonpayable",
      "type": "function"
    },
    {
      "inputs": [],
      "name": "symbol",
      "outputs": [
        {
          "internalType": "string",
          "name": "",
          "type": "string"
        }
      ],
      "stateMutability": "view",
      "type": "function"
    },
    {
      "inputs": [],
      "name": "totalAssets",
      "outputs": [
        {
          "internalType": "uint256",
          "name": "",
          "type": "uint256"
        }
      ],
      "stateMutability": "view",
      "type": "function"
    },
    {
      "inputs": [],
      "name": "totalSupply",
      "outputs": [
        {
          "internalType": "uint256",
          "name": "",
          "type": "uint256"
        }
      ],
      "stateMutability": "view",
      "type": "function"
    },
    {
      "inputs": [
        {
          "internalType": "address",
          "name": "to",
          "type": "address"
        },
        {
          "internalType": "uint256",
          "name": "value",
          "type": "uint256"
        }
      ],
      "name": "transfer",
      "outputs": [
        {
          "internalType": "bool",
          "name": "",
          "type": "bool"
        }
      ],
      "stateMutability": "nonpayable",
      "type": "function"
    },
    {
      "inputs": [
        {
          "internalType": "address",
          "name": "from",
          "type": "address"
        },
        {
          "internalType": "address",
          "name": "to",
          "type": "address"
        },
        {
          "internalType": "uint256",
          "name": "value",
          "type": "uint256"
        }
      ],
      "name": "transferFrom",
      "outputs": [
        {
          "internalType": "bool",
          "name": "",
          "type": "bool"
        }
      ],
      "stateMutability": "nonpayable",
      "type": "function"
    },
    {
      "inputs": [
        {
          "internalType": "address",
          "name": "newOwner",
          "type": "address"
        }
      ],
      "name": "transferOwnership",
      "outputs": [],
      "stateMutability": "nonpayable",
      "type": "function"
    },
    {
      "inputs": [
        {
          "internalType": "string",
          "name": "code_",
          "type": "string"
        }
      ],
      "name": "useReferralCode",
      "outputs": [],
      "stateMutability": "nonpayable",
      "type": "function"
    },
    {
      "inputs": [],
      "name": "useReferralOnlyInDeposits",
      "outputs": [
        {
          "internalType": "bool",
          "name": "",
          "type": "bool"
        }
      ],
      "stateMutability": "view",
      "type": "function"
    },
    {
      "inputs": [
        {
          "internalType": "uint256",
          "name": "assets",
          "type": "uint256"
        },
        {
          "internalType": "address",
          "name": "receiver",
          "type": "address"
        },
        {
          "internalType": "address",
          "name": "owner",
          "type": "address"
        }
      ],
      "name": "withdraw",
      "outputs": [
        {
          "internalType": "uint256",
          "name": "",
          "type": "uint256"
        }
      ],
      "stateMutability": "nonpayable",
      "type": "function"
    },
    {
      "inputs": [],
      "name": "withdrawalsEnabled",
      "outputs": [
        {
          "internalType": "bool",
          "name": "",
          "type": "bool"
        }
      ],
      "stateMutability": "view",
      "type": "function"
    }
  ],
  "bytecode": "0x60c060405234801561001057600080fd5b5060405161297938038061297983398101604081905261002f916102e1565b83838383600361003f83826103fa565b50600461004c82826103fa565b505050600080610061836100d860201b60201c565b9150915081610071576012610073565b805b60ff1660a05250506001600160a01b0390811660805281166100af57604051631e4fbdf760e01b81526000600482015260240160405180910390fd5b6100b8816101b4565b50506005805461ffff60a01b191661010160a01b179055506104ed915050565b60408051600481526024810182526020810180516001600160e01b031663313ce56760e01b17905290516000918291829182916001600160a01b0387169161011f916104b8565b600060405180830381855afa9150503d806000811461015a576040519150601f19603f3d011682016040523d82523d6000602084013e61015f565b606091505b509150915081801561017357506020815110155b156101a75760008180602001905181019061018e91906104d4565b905060ff81116101a5576001969095509350505050565b505b5060009485945092505050565b600580546001600160a01b038381166001600160a01b0319831681179093556040519116919082907f8be0079c531659141344cd1fd0a4f28419497f9722a3daafe3b4186f6b6457e090600090a35050565b6001600160a01b038116811461021b57600080fd5b50565b634e487b7160e01b600052604160045260246000fd5b60005b8381101561024f578181015183820152602001610237565b50506000910152565b600082601f83011261026957600080fd5b81516001600160401b038111156102825761028261021e565b604051601f8201601f19908116603f011681016001600160401b03811182821017156102b0576102b061021e565b6040528181528382016020018510156102c857600080fd5b6102d9826020830160208701610234565b949350505050565b600080600080608085870312156102f757600080fd5b845161030281610206565b602086015190945061031381610206565b60408601519093506001600160401b0381111561032f57600080fd5b61033b87828801610258565b606087015190935090506001600160401b0381111561035957600080fd5b61036587828801610258565b91505092959194509250565b600181811c9082168061038557607f821691505b6020821081036103a557634e487b7160e01b600052602260045260246000fd5b50919050565b601f8211156103f557806000526020600020601f840160051c810160208510156103d25750805b601f840160051c820191505b818110156103f257600081556001016103de565b50505b505050565b81516001600160401b038111156104135761041361021e565b610427816104218454610371565b846103ab565b6020601f82116001811461045b57600083156104435750848201515b600019600385901b1c1916600184901b1784556103f2565b600084815260208120601f198516915b8281101561048b578785015182556020948501946001909201910161046b565b50848210156104a95786840151600019600387901b60f8161c191681555b50505050600190811b01905550565b600082516104ca818460208701610234565b9190910192915050565b6000602082840312156104e657600080fd5b5051919050565b60805160a0516124526105276000396000610b550152600081816103ec015281816106ff015281816117ee01526118a001526124526000f3fe608060405234801561001057600080fd5b50600436106102f45760003560e01c806374a5b0e111610191578063ba087652116100e3578063d0dbcd2411610097578063ddc117ec11610071578063ddc117ec146106a8578063ef8b30f714610610578063f2fde38b146106bb57600080fd5b8063d0dbcd2414610636578063d905777e1461065c578063dd62ed3e1461066f57600080fd5b8063c63d75b6116100c8578063c63d75b614610438578063c6e6f59214610610578063ce96cb771461062357600080fd5b8063ba087652146105c9578063bb33bd6c146105dc57600080fd5b806395d89b4111610145578063a9059cbb1161011f578063a9059cbb14610590578063b3d7f6b9146105a3578063b460af94146105b657600080fd5b806395d89b41146105625780639f04586c1461056a5780639f68b5751461057d57600080fd5b80638edf9647116101765780638edf96471461051457806394bf804d1461053c57806394eaf06a1461054f57600080fd5b806374a5b0e1146104f05780638da5cb5b1461050357600080fd5b806333a8433a1161024a5780634cdad506116101fe5780636e553f65116101d85780636e553f65146104ac57806370a08231146104bf578063715018a6146104e857600080fd5b80634cdad506146103295780635392fd1c1461046057806363a096631461048557600080fd5b80633cc5634b1161022f5780633cc5634b14610424578063402d267d1461043857806345b965001461044d57600080fd5b806333a8433a146103d757806338d52e0f146103ea57600080fd5b80630a28a477116102ac57806323b872dd1161028657806323b872dd146103a25780632e108d1c146103b5578063313ce567146103bd57600080fd5b80630a28a477146103745780630f65ba1e1461038757806318160ddd1461039a57600080fd5b806307a2d13a116102dd57806307a2d13a14610329578063095ea7b31461033c5780630a1793271461035f57600080fd5b806301e1d114146102f957806306fdde0314610314575b600080fd5b6103016106ce565b6040519081526020015b60405180910390f35b61031c610777565b60405161030b9190611d8f565b610301610337366004611da2565b610809565b61034f61034a366004611dd7565b61081c565b604051901515815260200161030b565b61037261036d366004611e01565b610834565b005b610301610382366004611da2565b6108c1565b610372610395366004611e01565b6108ce565b600254610301565b61034f6103b0366004611e23565b610951565b610372610977565b6103c5610b4d565b60405160ff909116815260200161030b565b6103726103e5366004611f06565b610b79565b7f00000000000000000000000000000000000000000000000000000000000000005b6040516001600160a01b03909116815260200161030b565b60055461034f90600160c01b900460ff1681565b610301610446366004611f3b565b5060001990565b61037261045b366004611f56565b610bca565b60055461034f9074010000000000000000000000000000000000000000900460ff1681565b60055461034f90760100000000000000000000000000000000000000000000900460ff1681565b6103016104ba366004611fa4565b610c00565b6103016104cd366004611f3b565b6001600160a01b031660009081526020819052604090205490565b610372610c34565b6103726104fe366004611e01565b610c48565b6005546001600160a01b031661040c565b60055461034f9077010000000000000000000000000000000000000000000000900460ff1681565b61030161054a366004611fa4565b610cb8565b61037261055d366004611e01565b610cd6565b61031c610d5a565b610372610578366004611e01565b610d69565b61030161058b366004611fd0565b610dea565b61034f61059e366004611dd7565b610e0b565b6103016105b1366004611da2565b610e19565b6103016105c4366004612027565b610e26565b6103016105d7366004612027565b610ea1565b61040c6105ea366004611f06565b80516020818301810180516007825292820191909301209152546001600160a01b031681565b61030161061e366004611da2565b610f1c565b610301610631366004611f3b565b610f29565b60055461034f907501000000000000000000000000000000000000000000900460ff1681565b61030161066a366004611f3b565b610f4d565b61030161067d366004612063565b6001600160a01b03918216600090815260016020908152604080832093909416825291909152205490565b61031c6106b6366004611f3b565b610f6b565b6103726106c9366004611f3b565b611005565b6040517f70a082310000000000000000000000000000000000000000000000000000000081523060048201526000907f00000000000000000000000000000000000000000000000000000000000000006001600160a01b0316906370a0823190602401602060405180830381865afa15801561074e573d6000803e3d6000fd5b505050506040513d601f19601f82011682018060405250810190610772919061208d565b905090565b606060038054610786906120a6565b80601f01602080910402602001604051908101604052809291908181526020018280546107b2906120a6565b80156107ff5780601f106107d4576101008083540402835291602001916107ff565b820191906000526020600020905b8154815290600101906020018083116107e257829003601f168201915b5050505050905090565b6000610816826000611059565b92915050565b60003361082a818585611093565b5060019392505050565b61083c6110a5565b600580548215157501000000000000000000000000000000000000000000027fffffffffffffffffffff00ffffffffffffffffffffffffffffffffffffffffff9091161790556040517f45e7e6146471a396eb58b618e88efd46f5c95bd1815b282ed75c5220a559ab10906108b690831515815260200190565b60405180910390a150565b60006108168260016110eb565b6108d66110a5565b60058054821515760100000000000000000000000000000000000000000000027fffffffffffffffffff00ffffffffffffffffffffffffffffffffffffffffffff9091161790556040517f39d1e046657e0b945c1a67c1a65d784065b825ee87b8d5186c4b2de8dece1732906108b690831515815260200190565b60003361095f85828561111b565b61096a8585856111b3565b60019150505b9392505050565b600554760100000000000000000000000000000000000000000000900460ff166109cd576040517fd96a9b5d00000000000000000000000000000000000000000000000000000000815260040160405180910390fd5b3360006109da6006611244565b905060006001600160a01b03166007826040516109f791906120e0565b908152604051908190036020019020546001600160a01b031614610a47576040517fe3ba090400000000000000000000000000000000000000000000000000000000815260040160405180910390fd5b6001600160a01b03821660009081526008602052604090208054610a6a906120a6565b159050610aa3576040517f61b8b41d00000000000000000000000000000000000000000000000000000000815260040160405180910390fd5b81600782604051610ab491906120e0565b908152604080516020928190038301902080547fffffffffffffffffffffffff0000000000000000000000000000000000000000166001600160a01b039485161790559184166000908152600890915220610b0f8282612143565b507fbbba1cab2093e26ee6b388fefb2109576871f9236f9c1f22779dad4b82093b7b8282604051610b41929190612202565b60405180910390a15050565b6000610772817f000000000000000000000000000000000000000000000000000000000000000061223a565b600554600160c01b900460ff1615610bbd576040517fd96a9b5d00000000000000000000000000000000000000000000000000000000815260040160405180910390fd5b610bc73382611356565b50565b610bd26110a5565b8051600003610be5576109da6006611244565b60006001600160a01b03166007826040516109f791906120e0565b6000600019610c13565b60405180910390fd5b6000610c1e85610f1c565b9050610c2c3385878461144c565b949350505050565b610c3c6110a5565b610c4660006114ac565b565b610c506110a5565b60058054821515600160c01b027fffffffffffffff00ffffffffffffffffffffffffffffffffffffffffffffffff9091161790556040517f266a8da3664fe5a757627c032b4b18eec9246787872eaf6e98fda792d9df5791906108b690831515815260200190565b60006000196000610cc885610e19565b9050610c2c3385838861144c565b610cde6110a5565b6005805482151577010000000000000000000000000000000000000000000000027fffffffffffffffff00ffffffffffffffffffffffffffffffffffffffffffffff9091161790556040517f02b87843702214172db05525009563411bd7a39a34f5a9bd7060558862b8b1a0906108b690831515815260200190565b606060048054610786906120a6565b610d716110a5565b6005805482151574010000000000000000000000000000000000000000027fffffffffffffffffffffff00ffffffffffffffffffffffffffffffffffffffff9091161790556040517f7b014ed3854e7f5cb0218d58b3c6ae7d53a68bb0af2f67bfb029ea42c38a7e85906108b690831515815260200190565b6000610df63383611356565b6000610e028585610c00565b95945050505050565b60003361082a8185856111b3565b6000610816826001611059565b600080610e3283610f29565b905080851115610e87576040517ffe9cceec0000000000000000000000000000000000000000000000000000000081526001600160a01b03841660048201526024810186905260448101829052606401610c0a565b6000610e92866108c1565b9050610e023386868985611516565b600080610ead83610f4d565b905080851115610f02576040517fb94abeec0000000000000000000000000000000000000000000000000000000081526001600160a01b03841660048201526024810186905260448101829052606401610c0a565b6000610f0d86610809565b9050610e02338686848a611516565b60006108168260006110eb565b6001600160a01b038116600090815260208190526040812054610816906000611059565b6001600160a01b038116600090815260208190526040812054610816565b60086020526000908152604090208054610f84906120a6565b80601f0160208091040260200160405190810160405280929190818152602001828054610fb0906120a6565b8015610ffd5780601f10610fd257610100808354040283529160200191610ffd565b820191906000526020600020905b815481529060010190602001808311610fe057829003601f168201915b505050505081565b61100d6110a5565b6001600160a01b038116611050576040517f1e4fbdf700000000000000000000000000000000000000000000000000000000815260006004820152602401610c0a565b610bc7816114ac565b60006109706110666106ce565b611071906001612253565b61107d6000600a61234d565b60025461108a9190612253565b8591908561157f565b6110a083838360016115c3565b505050565b6005546001600160a01b03163314610c46576040517f118cdaa7000000000000000000000000000000000000000000000000000000008152336004820152602401610c0a565b60006109706110fb82600a61234d565b6002546111089190612253565b6111106106ce565b61108a906001612253565b6001600160a01b038381166000908152600160209081526040808320938616835292905220546000198110156111ad578181101561119e576040517ffb8f41b20000000000000000000000000000000000000000000000000000000081526001600160a01b03841660048201526024810182905260448101839052606401610c0a565b6111ad848484840360006115c3565b50505050565b6001600160a01b0383166111f6576040517f96c6fd1e00000000000000000000000000000000000000000000000000000000815260006004820152602401610c0a565b6001600160a01b038216611239576040517fec442f0500000000000000000000000000000000000000000000000000000000815260006004820152602401610c0a565b6110a08383836116ca565b606060008267ffffffffffffffff81111561126157611261611e60565b6040519080825280601f01601f19166020018201604052801561128b576020820181803683370190505b5060408051602e80825260608201909252919250600091906020820181803683370190505090506040518060600160405280602e81526020016123ef602e9139905060005b8481101561134d5760006112e4602e61175b565b90508281815181106112f8576112f861235c565b602001015160f81c60f81b8483815181106113155761131561235c565b60200101907effffffffffffffffffffffffffffffffffffffffffffffffffffffffffffff1916908160001a905350506001016112d0565b50909392505050565b805115611448576001600160a01b03821660009081526009602052604090208054611380906120a6565b90506000036114485760006001600160a01b03166007826040516113a491906120e0565b908152604051908190036020019020546001600160a01b031614611416576001600160a01b03821660009081526009602052604090206113e48282612143565b507fb3d2df42f150b9969069bbcb6cfe047d4255ba353ac2949608e81cea5790aa1a8282604051610b41929190612202565b6040517f8214902100000000000000000000000000000000000000000000000000000000815260040160405180910390fd5b5050565b60055474010000000000000000000000000000000000000000900460ff166114a0576040517f717a164800000000000000000000000000000000000000000000000000000000815260040160405180910390fd5b6111ad848484846117e9565b600580546001600160a01b038381167fffffffffffffffffffffffff0000000000000000000000000000000000000000831681179093556040519116919082907f8be0079c531659141344cd1fd0a4f28419497f9722a3daafe3b4186f6b6457e090600090a35050565b6005547501000000000000000000000000000000000000000000900460ff1661156b576040517f46ee9e3500000000000000000000000000000000000000000000000000000000815260040160405180910390fd5b611578858585858561186d565b5050505050565b60006115ae61158d8361192d565b80156115a95750600084806115a4576115a4612372565b868809115b151590565b6115b986868661195a565b610e029190612253565b6001600160a01b038416611606576040517fe602df0500000000000000000000000000000000000000000000000000000000815260006004820152602401610c0a565b6001600160a01b038316611649576040517f94280d6200000000000000000000000000000000000000000000000000000000815260006004820152602401610c0a565b6001600160a01b03808516600090815260016020908152604080832093871683529290522082905580156111ad57826001600160a01b0316846001600160a01b03167f8c5be1e5ebec7d5bd14f71427d1e84f3dd0314c0f7b2291e5b200ac8c7c3b925846040516116bc91815260200190565b60405180910390a350505050565b60055477010000000000000000000000000000000000000000000000900460ff16801561171957506001600160a01b03821660009081526009602052604090208054611715906120a6565b1590505b15611750576040517f9c591a2800000000000000000000000000000000000000000000000000000000815260040160405180910390fd5b6110a0838383611a15565b600680546000918261176c83612388565b9190505550814244336006546040516020016117c69493929190938452602084019290925260601b7fffffffffffffffffffffffffffffffffffffffff000000000000000000000000166040830152605482015260740190565b6040516020818303038152906040528051906020012060001c61081691906123a2565b6118157f0000000000000000000000000000000000000000000000000000000000000000853085611b58565b61181f8382611bd4565b826001600160a01b0316846001600160a01b03167fdcbc1c05240f31ff3ad067ef1ee35ce4997762752e3a095284754544f4c709d784846040516116bc929190918252602082015260400190565b826001600160a01b0316856001600160a01b0316146118915761189183868361111b565b61189b8382611c23565b6118c67f00000000000000000000000000000000000000000000000000000000000000008584611c72565b826001600160a01b0316846001600160a01b0316866001600160a01b03167ffbde797d201c681b91056529119e0b02407c7bb96a4a2c75c01fc9667232c8db858560405161191e929190918252602082015260400190565b60405180910390a45050505050565b60006002826003811115611943576119436123b6565b61194d91906123cc565b60ff166001149050919050565b60008383028160001985870982811083820303915050806000036119915783828161198757611987612372565b0492505050610970565b8084116119a8576119a86003851502601118611ca3565b6000848688096000868103871696879004966002600389028118808a02820302808a02820302808a02820302808a02820302808a02820302808a02909103029181900381900460010186841190950394909402919094039290920491909117919091029150509392505050565b6001600160a01b038316611a40578060026000828254611a359190612253565b90915550611acb9050565b6001600160a01b03831660009081526020819052604090205481811015611aac576040517fe450d38c0000000000000000000000000000000000000000000000000000000081526001600160a01b03851660048201526024810182905260448101839052606401610c0a565b6001600160a01b03841660009081526020819052604090209082900390555b6001600160a01b038216611ae757600280548290039055611b06565b6001600160a01b03821660009081526020819052604090208054820190555b816001600160a01b0316836001600160a01b03167fddf252ad1be2c89b69c2b068fc378daa952ba7f163c4a11628f55a4df523b3ef83604051611b4b91815260200190565b60405180910390a3505050565b6040516001600160a01b0384811660248301528381166044830152606482018390526111ad9186918216906323b872dd906084015b604051602081830303815290604052915060e01b6020820180517bffffffffffffffffffffffffffffffffffffffffffffffffffffffff8381831617835250505050611cb5565b6001600160a01b038216611c17576040517fec442f0500000000000000000000000000000000000000000000000000000000815260006004820152602401610c0a565b611448600083836116ca565b6001600160a01b038216611c66576040517f96c6fd1e00000000000000000000000000000000000000000000000000000000815260006004820152602401610c0a565b611448826000836116ca565b6040516001600160a01b038381166024830152604482018390526110a091859182169063a9059cbb90606401611b8d565b634e487b71600052806020526024601cfd5b600080602060008451602086016000885af180611cd8576040513d6000823e3d81fd5b50506000513d91508115611cf0578060011415611cfd565b6001600160a01b0384163b155b156111ad576040517f5274afe70000000000000000000000000000000000000000000000000000000081526001600160a01b0385166004820152602401610c0a565b60005b83811015611d5a578181015183820152602001611d42565b50506000910152565b60008151808452611d7b816020860160208601611d3f565b601f01601f19169290920160200192915050565b6020815260006109706020830184611d63565b600060208284031215611db457600080fd5b5035919050565b80356001600160a01b0381168114611dd257600080fd5b919050565b60008060408385031215611dea57600080fd5b611df383611dbb565b946020939093013593505050565b600060208284031215611e1357600080fd5b8135801515811461097057600080fd5b600080600060608486031215611e3857600080fd5b611e4184611dbb565b9250611e4f60208501611dbb565b929592945050506040919091013590565b634e487b7160e01b600052604160045260246000fd5b600082601f830112611e8757600080fd5b813567ffffffffffffffff811115611ea157611ea1611e60565b604051601f19603f601f19601f8501160116810181811067ffffffffffffffff82111715611ed157611ed1611e60565b604052818152838201602001851015611ee957600080fd5b816020850160208301376000918101602001919091529392505050565b600060208284031215611f1857600080fd5b813567ffffffffffffffff811115611f2f57600080fd5b610c2c84828501611e76565b600060208284031215611f4d57600080fd5b61097082611dbb565b60008060408385031215611f6957600080fd5b611f7283611dbb565b9150602083013567ffffffffffffffff811115611f8e57600080fd5b611f9a85828601611e76565b9150509250929050565b60008060408385031215611fb757600080fd5b82359150611fc760208401611dbb565b90509250929050565b600080600060608486031215611fe557600080fd5b83359250611ff560208501611dbb565b9150604084013567ffffffffffffffff81111561201157600080fd5b61201d86828701611e76565b9150509250925092565b60008060006060848603121561203c57600080fd5b8335925061204c60208501611dbb565b915061205a60408501611dbb565b90509250925092565b6000806040838503121561207657600080fd5b61207f83611dbb565b9150611fc760208401611dbb565b60006020828403121561209f57600080fd5b5051919050565b600181811c908216806120ba57607f821691505b6020821081036120da57634e487b7160e01b600052602260045260246000fd5b50919050565b600082516120f2818460208701611d3f565b9190910192915050565b601f8211156110a057806000526020600020601f840160051c810160208510156121235750805b601f840160051c820191505b81811015611578576000815560010161212f565b815167ffffffffffffffff81111561215d5761215d611e60565b6121718161216b84546120a6565b846120fc565b6020601f8211600181146121a5576000831561218d5750848201515b600019600385901b1c1916600184901b178455611578565b600084815260208120601f198516915b828110156121d557878501518255602094850194600190920191016121b5565b50848210156121f35786840151600019600387901b60f8161c191681555b50505050600190811b01905550565b6001600160a01b0383168152604060208201526000610c2c6040830184611d63565b634e487b7160e01b600052601160045260246000fd5b60ff818116838216019081111561081657610816612224565b8082018082111561081657610816612224565b6001815b60018411156122a15780850481111561228557612285612224565b600184161561229357908102905b60019390931c92800261226a565b935093915050565b6000826122b857506001610816565b816122c557506000610816565b81600181146122db57600281146122e557612301565b6001915050610816565b60ff8411156122f6576122f6612224565b50506001821b610816565b5060208310610133831016604e8410600b8410161715612324575081810a610816565b6123316000198484612266565b806000190482111561234557612345612224565b029392505050565b600061097060ff8416836122a9565b634e487b7160e01b600052603260045260246000fd5b634e487b7160e01b600052601260045260246000fd5b6000600019820361239b5761239b612224565b5060010190565b6000826123b1576123b1612372565b500690565b634e487b7160e01b600052602160045260246000fd5b600060ff8316806123df576123df612372565b8060ff8416069150509291505056fe4142434445464748494a4b4c4d4e4f505152535455565758595a3031323334353637383930313233343536373839a26469706673582212202e38aee8a2a5e8c9bb2ed71125a89013bb6dc3f28ad03c0ff21d6a1e7fac470464736f6c634300081c0033",
  "linkReferences": {},
  "deployedLinkReferences": {}
}