{
  "_format": "hh-sol-artifact-1",
  "contractName": "AcceleraPreDepositVault",
  "sourceName": "contracts/AcceleraPreDepositVault.sol",
  "abi": [
    {
      "inputs": [
        {
          "internalType": "address",
          "name": "initialOwner_",
          "type": "address"
        },
        {
          "internalType": "contract IERC20",
          "name": "asset_",
          "type": "address"
        },
        {
          "internalType": "string",
          "name": "name_",
          "type": "string"
        },
        {
          "internalType": "string",
          "name": "symbol_",
          "type": "string"
        }
      ],
      "stateMutability": "nonpayable",
      "type": "constructor"
    },
    {
      "inputs": [],
      "name": "AddressAlreadyHasReferralCode",
      "type": "error"
    },
    {
      "inputs": [],
      "name": "CantReferYourself",
      "type": "error"
    },
    {
      "inputs": [],
      "name": "DepositsDisabled",
      "type": "error"
    },
    {
      "inputs": [
        {
          "internalType": "address",
          "name": "spender",
          "type": "address"
        },
        {
          "internalType": "uint256",
          "name": "allowance",
          "type": "uint256"
        },
        {
          "internalType": "uint256",
          "name": "needed",
          "type": "uint256"
        }
      ],
      "name": "ERC20InsufficientAllowance",
      "type": "error"
    },
    {
      "inputs": [
        {
          "internalType": "address",
          "name": "sender",
          "type": "address"
        },
        {
          "internalType": "uint256",
          "name": "balance",
          "type": "uint256"
        },
        {
          "internalType": "uint256",
          "name": "needed",
          "type": "uint256"
        }
      ],
      "name": "ERC20InsufficientBalance",
      "type": "error"
    },
    {
      "inputs": [
        {
          "internalType": "address",
          "name": "approver",
          "type": "address"
        }
      ],
      "name": "ERC20InvalidApprover",
      "type": "error"
    },
    {
      "inputs": [
        {
          "internalType": "address",
          "name": "receiver",
          "type": "address"
        }
      ],
      "name": "ERC20InvalidReceiver",
      "type": "error"
    },
    {
      "inputs": [
        {
          "internalType": "address",
          "name": "sender",
          "type": "address"
        }
      ],
      "name": "ERC20InvalidSender",
      "type": "error"
    },
    {
      "inputs": [
        {
          "internalType": "address",
          "name": "spender",
          "type": "address"
        }
      ],
      "name": "ERC20InvalidSpender",
      "type": "error"
    },
    {
      "inputs": [
        {
          "internalType": "address",
          "name": "receiver",
          "type": "address"
        },
        {
          "internalType": "uint256",
          "name": "assets",
          "type": "uint256"
        },
        {
          "internalType": "uint256",
          "name": "max",
          "type": "uint256"
        }
      ],
      "name": "ERC4626ExceededMaxDeposit",
      "type": "error"
    },
    {
      "inputs": [
        {
          "internalType": "address",
          "name": "receiver",
          "type": "address"
        },
        {
          "internalType": "uint256",
          "name": "shares",
          "type": "uint256"
        },
        {
          "internalType": "uint256",
          "name": "max",
          "type": "uint256"
        }
      ],
      "name": "ERC4626ExceededMaxMint",
      "type": "error"
    },
    {
      "inputs": [
        {
          "internalType": "address",
          "name": "owner",
          "type": "address"
        },
        {
          "internalType": "uint256",
          "name": "shares",
          "type": "uint256"
        },
        {
          "internalType": "uint256",
          "name": "max",
          "type": "uint256"
        }
      ],
      "name": "ERC4626ExceededMaxRedeem",
      "type": "error"
    },
    {
      "inputs": [
        {
          "internalType": "address",
          "name": "owner",
          "type": "address"
        },
        {
          "internalType": "uint256",
          "name": "assets",
          "type": "uint256"
        },
        {
          "internalType": "uint256",
          "name": "max",
          "type": "uint256"
        }
      ],
      "name": "ERC4626ExceededMaxWithdraw",
      "type": "error"
    },
    {
      "inputs": [],
      "name": "NotEnoughXUSDEToGenerateCode",
      "type": "error"
    },
    {
      "inputs": [
        {
          "internalType": "address",
          "name": "owner",
          "type": "address"
        }
      ],
      "name": "OwnableInvalidOwner",
      "type": "error"
    },
    {
      "inputs": [
        {
          "internalType": "address",
          "name": "account",
          "type": "address"
        }
      ],
      "name": "OwnableUnauthorizedAccount",
      "type": "error"
    },
    {
      "inputs": [],
      "name": "ReferralCodeAlreadyUsed",
      "type": "error"
    },
    {
      "inputs": [],
      "name": "ReferralCodeCreationDisabled",
      "type": "error"
    },
    {
      "inputs": [],
      "name": "ReferralCodeDoesNotExist",
      "type": "error"
    },
    {
      "inputs": [],
      "name": "ReferralCodeMandatory",
      "type": "error"
    },
    {
      "inputs": [
        {
          "internalType": "address",
          "name": "token",
          "type": "address"
        }
      ],
      "name": "SafeERC20FailedOperation",
      "type": "error"
    },
    {
      "inputs": [],
      "name": "WithdrawalsDisabled",
      "type": "error"
    },
    {
      "anonymous": false,
      "inputs": [
        {
          "indexed": true,
          "internalType": "address",
          "name": "owner",
          "type": "address"
        },
        {
          "indexed": true,
          "internalType": "address",
          "name": "spender",
          "type": "address"
        },
        {
          "indexed": false,
          "internalType": "uint256",
          "name": "value",
          "type": "uint256"
        }
      ],
      "name": "Approval",
      "type": "event"
    },
    {
      "anonymous": false,
      "inputs": [
        {
          "indexed": true,
          "internalType": "address",
          "name": "sender",
          "type": "address"
        },
        {
          "indexed": true,
          "internalType": "address",
          "name": "owner",
          "type": "address"
        },
        {
          "indexed": false,
          "internalType": "uint256",
          "name": "assets",
          "type": "uint256"
        },
        {
          "indexed": false,
          "internalType": "uint256",
          "name": "shares",
          "type": "uint256"
        }
      ],
      "name": "Deposit",
      "type": "event"
    },
    {
      "anonymous": false,
      "inputs": [
        {
          "indexed": false,
          "internalType": "bool",
          "name": "enabled",
          "type": "bool"
        }
      ],
      "name": "DepositsEnabled",
      "type": "event"
    },
    {
      "anonymous": false,
      "inputs": [
        {
          "indexed": true,
          "internalType": "address",
          "name": "previousOwner",
          "type": "address"
        },
        {
          "indexed": true,
          "internalType": "address",
          "name": "newOwner",
          "type": "address"
        }
      ],
      "name": "OwnershipTransferred",
      "type": "event"
    },
    {
      "anonymous": false,
      "inputs": [
        {
          "indexed": false,
          "internalType": "address",
          "name": "user",
          "type": "address"
        },
        {
          "indexed": false,
          "internalType": "string",
          "name": "code",
          "type": "string"
        }
      ],
      "name": "ReferralCodeCreated",
      "type": "event"
    },
    {
      "anonymous": false,
      "inputs": [
        {
          "indexed": false,
          "internalType": "bool",
          "name": "enabled",
          "type": "bool"
        }
      ],
      "name": "ReferralCodeCreationEnabled",
      "type": "event"
    },
    {
      "anonymous": false,
      "inputs": [
        {
          "indexed": false,
          "internalType": "bool",
          "name": "enabled",
          "type": "bool"
        }
      ],
      "name": "ReferralCodeMandatoryEnabled",
      "type": "event"
    },
    {
      "anonymous": false,
      "inputs": [
        {
          "indexed": false,
          "internalType": "address",
          "name": "user",
          "type": "address"
        },
        {
          "indexed": false,
          "internalType": "string",
          "name": "code",
          "type": "string"
        }
      ],
      "name": "ReferralCodeUsed",
      "type": "event"
    },
    {
      "anonymous": false,
      "inputs": [
        {
          "indexed": false,
          "internalType": "uint256",
          "name": "minimum",
          "type": "uint256"
        }
      ],
      "name": "SetMinimumBalanceToGenerateCode",
      "type": "event"
    },
    {
      "anonymous": false,
      "inputs": [
        {
          "indexed": true,
          "internalType": "address",
          "name": "from",
          "type": "address"
        },
        {
          "indexed": true,
          "internalType": "address",
          "name": "to",
          "type": "address"
        },
        {
          "indexed": false,
          "internalType": "uint256",
          "name": "value",
          "type": "uint256"
        }
      ],
      "name": "Transfer",
      "type": "event"
    },
    {
      "anonymous": false,
      "inputs": [
        {
          "indexed": false,
          "internalType": "bool",
          "name": "enable",
          "type": "bool"
        }
      ],
      "name": "UseReferralOnlyInDepositsEnabled",
      "type": "event"
    },
    {
      "anonymous": false,
      "inputs": [
        {
          "indexed": true,
          "internalType": "address",
          "name": "sender",
          "type": "address"
        },
        {
          "indexed": true,
          "internalType": "address",
          "name": "receiver",
          "type": "address"
        },
        {
          "indexed": true,
          "internalType": "address",
          "name": "owner",
          "type": "address"
        },
        {
          "indexed": false,
          "internalType": "uint256",
          "name": "assets",
          "type": "uint256"
        },
        {
          "indexed": false,
          "internalType": "uint256",
          "name": "shares",
          "type": "uint256"
        }
      ],
      "name": "Withdraw",
      "type": "event"
    },
    {
      "anonymous": false,
      "inputs": [
        {
          "indexed": false,
          "internalType": "bool",
          "name": "enabled",
          "type": "bool"
        }
      ],
      "name": "WithdrawalsEnabled",
      "type": "event"
    },
    {
      "inputs": [
        {
          "internalType": "address",
          "name": "owner",
          "type": "address"
        },
        {
          "internalType": "address",
          "name": "spender",
          "type": "address"
        }
      ],
      "name": "allowance",
      "outputs": [
        {
          "internalType": "uint256",
          "name": "",
          "type": "uint256"
        }
      ],
      "stateMutability": "view",
      "type": "function"
    },
    {
      "inputs": [
        {
          "internalType": "address",
          "name": "spender",
          "type": "address"
        },
        {
          "internalType": "uint256",
          "name": "value",
          "type": "uint256"
        }
      ],
      "name": "approve",
      "outputs": [
        {
          "internalType": "bool",
          "name": "",
          "type": "bool"
        }
      ],
      "stateMutability": "nonpayable",
      "type": "function"
    },
    {
      "inputs": [],
      "name": "asset",
      "outputs": [
        {
          "internalType": "address",
          "name": "",
          "type": "address"
        }
      ],
      "stateMutability": "view",
      "type": "function"
    },
    {
      "inputs": [
        {
          "internalType": "address",
          "name": "account",
          "type": "address"
        }
      ],
      "name": "balanceOf",
      "outputs": [
        {
          "internalType": "uint256",
          "name": "",
          "type": "uint256"
        }
      ],
      "stateMutability": "view",
      "type": "function"
    },
    {
      "inputs": [
        {
          "internalType": "uint256",
          "name": "shares",
          "type": "uint256"
        }
      ],
      "name": "convertToAssets",
      "outputs": [
        {
          "internalType": "uint256",
          "name": "",
          "type": "uint256"
        }
      ],
      "stateMutability": "view",
      "type": "function"
    },
    {
      "inputs": [
        {
          "internalType": "uint256",
          "name": "assets",
          "type": "uint256"
        }
      ],
      "name": "convertToShares",
      "outputs": [
        {
          "internalType": "uint256",
          "name": "",
          "type": "uint256"
        }
      ],
      "stateMutability": "view",
      "type": "function"
    },
    {
      "inputs": [],
      "name": "createReferralCode",
      "outputs": [],
      "stateMutability": "nonpayable",
      "type": "function"
    },
    {
      "inputs": [
        {
          "internalType": "address",
          "name": "user_",
          "type": "address"
        },
        {
          "internalType": "string",
          "name": "code_",
          "type": "string"
        }
      ],
      "name": "createReferralCodeOwner",
      "outputs": [],
      "stateMutability": "nonpayable",
      "type": "function"
    },
    {
      "inputs": [],
      "name": "decimals",
      "outputs": [
        {
          "internalType": "uint8",
          "name": "",
          "type": "uint8"
        }
      ],
      "stateMutability": "view",
      "type": "function"
    },
    {
      "inputs": [
        {
          "internalType": "uint256",
          "name": "assets",
          "type": "uint256"
        },
        {
          "internalType": "address",
          "name": "receiver",
          "type": "address"
        }
      ],
      "name": "deposit",
      "outputs": [
        {
          "internalType": "uint256",
          "name": "",
          "type": "uint256"
        }
      ],
      "stateMutability": "nonpayable",
      "type": "function"
    },
    {
      "inputs": [
        {
          "internalType": "uint256",
          "name": "assets",
          "type": "uint256"
        },
        {
          "internalType": "address",
          "name": "receiver",
          "type": "address"
        },
        {
          "internalType": "string",
          "name": "code_",
          "type": "string"
        }
      ],
      "name": "depositWithReferral",
      "outputs": [
        {
          "internalType": "uint256",
          "name": "",
          "type": "uint256"
        }
      ],
      "stateMutability": "nonpayable",
      "type": "function"
    },
    {
      "inputs": [],
      "name": "depositsEnabled",
      "outputs": [
        {
          "internalType": "bool",
          "name": "",
          "type": "bool"
        }
      ],
      "stateMutability": "view",
      "type": "function"
    },
    {
      "inputs": [
        {
          "internalType": "address",
          "name": "",
          "type": "address"
        }
      ],
      "name": "maxDeposit",
      "outputs": [
        {
          "internalType": "uint256",
          "name": "",
          "type": "uint256"
        }
      ],
      "stateMutability": "view",
      "type": "function"
    },
    {
      "inputs": [
        {
          "internalType": "address",
          "name": "",
          "type": "address"
        }
      ],
      "name": "maxMint",
      "outputs": [
        {
          "internalType": "uint256",
          "name": "",
          "type": "uint256"
        }
      ],
      "stateMutability": "view",
      "type": "function"
    },
    {
      "inputs": [
        {
          "internalType": "address",
          "name": "owner",
          "type": "address"
        }
      ],
      "name": "maxRedeem",
      "outputs": [
        {
          "internalType": "uint256",
          "name": "",
          "type": "uint256"
        }
      ],
      "stateMutability": "view",
      "type": "function"
    },
    {
      "inputs": [
        {
          "internalType": "address",
          "name": "owner",
          "type": "address"
        }
      ],
      "name": "maxWithdraw",
      "outputs": [
        {
          "internalType": "uint256",
          "name": "",
          "type": "uint256"
        }
      ],
      "stateMutability": "view",
      "type": "function"
    },
    {
      "inputs": [],
      "name": "minimumBalanceToGenerateCode",
      "outputs": [
        {
          "internalType": "uint256",
          "name": "",
          "type": "uint256"
        }
      ],
      "stateMutability": "view",
      "type": "function"
    },
    {
      "inputs": [
        {
          "internalType": "uint256",
          "name": "shares",
          "type": "uint256"
        },
        {
          "internalType": "address",
          "name": "receiver",
          "type": "address"
        }
      ],
      "name": "mint",
      "outputs": [
        {
          "internalType": "uint256",
          "name": "",
          "type": "uint256"
        }
      ],
      "stateMutability": "nonpayable",
      "type": "function"
    },
    {
      "inputs": [],
      "name": "name",
      "outputs": [
        {
          "internalType": "string",
          "name": "",
          "type": "string"
        }
      ],
      "stateMutability": "view",
      "type": "function"
    },
    {
      "inputs": [],
      "name": "owner",
      "outputs": [
        {
          "internalType": "address",
          "name": "",
          "type": "address"
        }
      ],
      "stateMutability": "view",
      "type": "function"
    },
    {
      "inputs": [
        {
          "internalType": "address",
          "name": "",
          "type": "address"
        }
      ],
      "name": "ownerToReferralCode",
      "outputs": [
        {
          "internalType": "string",
          "name": "",
          "type": "string"
        }
      ],
      "stateMutability": "view",
      "type": "function"
    },
    {
      "inputs": [
        {
          "internalType": "uint256",
          "name": "assets",
          "type": "uint256"
        }
      ],
      "name": "previewDeposit",
      "outputs": [
        {
          "internalType": "uint256",
          "name": "",
          "type": "uint256"
        }
      ],
      "stateMutability": "view",
      "type": "function"
    },
    {
      "inputs": [
        {
          "internalType": "uint256",
          "name": "shares",
          "type": "uint256"
        }
      ],
      "name": "previewMint",
      "outputs": [
        {
          "internalType": "uint256",
          "name": "",
          "type": "uint256"
        }
      ],
      "stateMutability": "view",
      "type": "function"
    },
    {
      "inputs": [
        {
          "internalType": "uint256",
          "name": "shares",
          "type": "uint256"
        }
      ],
      "name": "previewRedeem",
      "outputs": [
        {
          "internalType": "uint256",
          "name": "",
          "type": "uint256"
        }
      ],
      "stateMutability": "view",
      "type": "function"
    },
    {
      "inputs": [
        {
          "internalType": "uint256",
          "name": "assets",
          "type": "uint256"
        }
      ],
      "name": "previewWithdraw",
      "outputs": [
        {
          "internalType": "uint256",
          "name": "",
          "type": "uint256"
        }
      ],
      "stateMutability": "view",
      "type": "function"
    },
    {
      "inputs": [
        {
          "internalType": "uint256",
          "name": "shares",
          "type": "uint256"
        },
        {
          "internalType": "address",
          "name": "receiver",
          "type": "address"
        },
        {
          "internalType": "address",
          "name": "owner",
          "type": "address"
        }
      ],
      "name": "redeem",
      "outputs": [
        {
          "internalType": "uint256",
          "name": "",
          "type": "uint256"
        }
      ],
      "stateMutability": "nonpayable",
      "type": "function"
    },
    {
      "inputs": [],
      "name": "referralCodeCreationEnabled",
      "outputs": [
        {
          "internalType": "bool",
          "name": "",
          "type": "bool"
        }
      ],
      "stateMutability": "view",
      "type": "function"
    },
    {
      "inputs": [],
      "name": "referralCodeMandatory",
      "outputs": [
        {
          "internalType": "bool",
          "name": "",
          "type": "bool"
        }
      ],
      "stateMutability": "view",
      "type": "function"
    },
    {
      "inputs": [
        {
          "internalType": "string",
          "name": "",
          "type": "string"
        }
      ],
      "name": "referralCodeToOwner",
      "outputs": [
        {
          "internalType": "address",
          "name": "",
          "type": "address"
        }
      ],
      "stateMutability": "view",
      "type": "function"
    },
    {
      "inputs": [],
      "name": "renounceOwnership",
      "outputs": [],
      "stateMutability": "nonpayable",
      "type": "function"
    },
    {
      "inputs": [
        {
          "internalType": "bool",
          "name": "depositsEnabled_",
          "type": "bool"
        }
      ],
      "name": "setDepositsEnabled",
      "outputs": [],
      "stateMutability": "nonpayable",
      "type": "function"
    },
    {
      "inputs": [
        {
          "internalType": "uint256",
          "name": "minimumBalanceToGenerateCode_",
          "type": "uint256"
        }
      ],
      "name": "setMinimumBalanceToGenerateCode",
      "outputs": [],
      "stateMutability": "nonpayable",
      "type": "function"
    },
    {
      "inputs": [
        {
          "internalType": "bool",
          "name": "referralCodeCreationEnabled_",
          "type": "bool"
        }
      ],
      "name": "setReferralCodeCreationEnabled",
      "outputs": [],
      "stateMutability": "nonpayable",
      "type": "function"
    },
    {
      "inputs": [
        {
          "internalType": "bool",
          "name": "referralCodeMandatory_",
          "type": "bool"
        }
      ],
      "name": "setReferralCodeMandatory",
      "outputs": [],
      "stateMutability": "nonpayable",
      "type": "function"
    },
    {
      "inputs": [
        {
          "internalType": "bool",
          "name": "useReferralOnlyInDeposits_",
          "type": "bool"
        }
      ],
      "name": "setUseReferralOnlyInDeposits",
      "outputs": [],
      "stateMutability": "nonpayable",
      "type": "function"
    },
    {
      "inputs": [
        {
          "internalType": "bool",
          "name": "withdrawalsEnabled_",
          "type": "bool"
        }
      ],
      "name": "setWithdrawalsEnabled",
      "outputs": [],
      "stateMutability": "nonpayable",
      "type": "function"
    },
    {
      "inputs": [],
      "name": "symbol",
      "outputs": [
        {
          "internalType": "string",
          "name": "",
          "type": "string"
        }
      ],
      "stateMutability": "view",
      "type": "function"
    },
    {
      "inputs": [],
      "name": "totalAssets",
      "outputs": [
        {
          "internalType": "uint256",
          "name": "",
          "type": "uint256"
        }
      ],
      "stateMutability": "view",
      "type": "function"
    },
    {
      "inputs": [],
      "name": "totalSupply",
      "outputs": [
        {
          "internalType": "uint256",
          "name": "",
          "type": "uint256"
        }
      ],
      "stateMutability": "view",
      "type": "function"
    },
    {
      "inputs": [
        {
          "internalType": "address",
          "name": "to",
          "type": "address"
        },
        {
          "internalType": "uint256",
          "name": "value",
          "type": "uint256"
        }
      ],
      "name": "transfer",
      "outputs": [
        {
          "internalType": "bool",
          "name": "",
          "type": "bool"
        }
      ],
      "stateMutability": "nonpayable",
      "type": "function"
    },
    {
      "inputs": [
        {
          "internalType": "address",
          "name": "from",
          "type": "address"
        },
        {
          "internalType": "address",
          "name": "to",
          "type": "address"
        },
        {
          "internalType": "uint256",
          "name": "value",
          "type": "uint256"
        }
      ],
      "name": "transferFrom",
      "outputs": [
        {
          "internalType": "bool",
          "name": "",
          "type": "bool"
        }
      ],
      "stateMutability": "nonpayable",
      "type": "function"
    },
    {
      "inputs": [
        {
          "internalType": "address",
          "name": "newOwner",
          "type": "address"
        }
      ],
      "name": "transferOwnership",
      "outputs": [],
      "stateMutability": "nonpayable",
      "type": "function"
    },
    {
      "inputs": [
        {
          "internalType": "string",
          "name": "code_",
          "type": "string"
        }
      ],
      "name": "useReferralCode",
      "outputs": [],
      "stateMutability": "nonpayable",
      "type": "function"
    },
    {
      "inputs": [],
      "name": "useReferralOnlyInDeposits",
      "outputs": [
        {
          "internalType": "bool",
          "name": "",
          "type": "bool"
        }
      ],
      "stateMutability": "view",
      "type": "function"
    },
    {
      "inputs": [
        {
          "internalType": "uint256",
          "name": "assets",
          "type": "uint256"
        },
        {
          "internalType": "address",
          "name": "receiver",
          "type": "address"
        },
        {
          "internalType": "address",
          "name": "owner",
          "type": "address"
        }
      ],
      "name": "withdraw",
      "outputs": [
        {
          "internalType": "uint256",
          "name": "",
          "type": "uint256"
        }
      ],
      "stateMutability": "nonpayable",
      "type": "function"
    },
    {
      "inputs": [],
      "name": "withdrawalsEnabled",
      "outputs": [
        {
          "internalType": "bool",
          "name": "",
          "type": "bool"
        }
      ],
      "stateMutability": "view",
      "type": "function"
    }
  ],
  "bytecode": "0x60c060405234801561001057600080fd5b50604051612a9c380380612a9c83398101604081905261002f916102e7565b83838383600361003f8382610400565b50600461004c8282610400565b505050600080610061836100de60201b60201c565b9150915081610071576012610073565b805b60ff1660a05250506001600160a01b0390811660805281166100af57604051631e4fbdf760e01b81526000600482015260240160405180910390fd5b6100b8816101ba565b50506005805464ff00ffffff60a01b191664010001010160a01b179055506104f3915050565b60408051600481526024810182526020810180516001600160e01b031663313ce56760e01b17905290516000918291829182916001600160a01b03871691610125916104be565b600060405180830381855afa9150503d8060008114610160576040519150601f19603f3d011682016040523d82523d6000602084013e610165565b606091505b509150915081801561017957506020815110155b156101ad5760008180602001905181019061019491906104da565b905060ff81116101ab576001969095509350505050565b505b5060009485945092505050565b600580546001600160a01b038381166001600160a01b0319831681179093556040519116919082907f8be0079c531659141344cd1fd0a4f28419497f9722a3daafe3b4186f6b6457e090600090a35050565b6001600160a01b038116811461022157600080fd5b50565b634e487b7160e01b600052604160045260246000fd5b60005b8381101561025557818101518382015260200161023d565b50506000910152565b600082601f83011261026f57600080fd5b81516001600160401b0381111561028857610288610224565b604051601f8201601f19908116603f011681016001600160401b03811182821017156102b6576102b6610224565b6040528181528382016020018510156102ce57600080fd5b6102df82602083016020870161023a565b949350505050565b600080600080608085870312156102fd57600080fd5b84516103088161020c565b60208601519094506103198161020c565b60408601519093506001600160401b0381111561033557600080fd5b6103418782880161025e565b606087015190935090506001600160401b0381111561035f57600080fd5b61036b8782880161025e565b91505092959194509250565b600181811c9082168061038b57607f821691505b6020821081036103ab57634e487b7160e01b600052602260045260246000fd5b50919050565b601f8211156103fb57806000526020600020601f840160051c810160208510156103d85750805b601f840160051c820191505b818110156103f857600081556001016103e4565b50505b505050565b81516001600160401b0381111561041957610419610224565b61042d816104278454610377565b846103b1565b6020601f82116001811461046157600083156104495750848201515b600019600385901b1c1916600184901b1784556103f8565b600084815260208120601f198516915b828110156104915787850151825560209485019460019092019101610471565b50848210156104af5786840151600019600387901b60f8161c191681555b50505050600190811b01905550565b600082516104d081846020870161023a565b9190910192915050565b6000602082840312156104ec57600080fd5b5051919050565b60805160a05161256f61052d6000396000610bcb015260008181610402015281816107310152818161190b01526119bd015261256f6000f3fe608060405234801561001057600080fd5b506004361061030a5760003560e01c80638da5cb5b1161019c578063b460af94116100ee578063d0dbcd2411610097578063ddc117ec11610071578063ddc117ec146106da578063ef8b30f714610642578063f2fde38b146106ed57600080fd5b8063d0dbcd2414610668578063d905777e1461068e578063dd62ed3e146106a157600080fd5b8063c63d75b6116100c8578063c63d75b61461044e578063c6e6f59214610642578063ce96cb771461065557600080fd5b8063b460af94146105e8578063ba087652146105fb578063bb33bd6c1461060e57600080fd5b806395d89b41116101505780639f68b5751161012a5780639f68b575146105af578063a9059cbb146105c2578063b3d7f6b9146105d557600080fd5b806395d89b411461058b5780639e96e6d2146105935780639f04586c1461059c57600080fd5b80639090785811610181578063909078581461055257806394bf804d1461056557806394eaf06a1461057857600080fd5b80638da5cb5b146105195780638edf96471461052a57600080fd5b806333a8433a116102605780635392fd1c1161020957806370a08231116101e357806370a08231146104d5578063715018a6146104fe57806374a5b0e11461050657600080fd5b80635392fd1c1461047657806363a096631461049b5780636e553f65146104c257600080fd5b8063402d267d1161023a578063402d267d1461044e57806345b96500146104635780634cdad5061461033f57600080fd5b806333a8433a146103ed57806338d52e0f146104005780633cc5634b1461043a57600080fd5b80630a28a477116102c257806323b872dd1161029c57806323b872dd146103b85780632e108d1c146103cb578063313ce567146103d357600080fd5b80630a28a4771461038a5780630f65ba1e1461039d57806318160ddd146103b057600080fd5b806307a2d13a116102f357806307a2d13a1461033f578063095ea7b3146103525780630a1793271461037557600080fd5b806301e1d1141461030f57806306fdde031461032a575b600080fd5b610317610700565b6040519081526020015b60405180910390f35b6103326107a9565b6040516103219190611eac565b61031761034d366004611ebf565b61083b565b610365610360366004611ef4565b61084e565b6040519015158152602001610321565b610388610383366004611f1e565b610866565b005b610317610398366004611ebf565b6108f3565b6103886103ab366004611f1e565b610900565b600254610317565b6103656103c6366004611f40565b610983565b6103886109a9565b6103db610bc3565b60405160ff9091168152602001610321565b6103886103fb366004612023565b610bef565b7f00000000000000000000000000000000000000000000000000000000000000005b6040516001600160a01b039091168152602001610321565b60055461036590600160c01b900460ff1681565b61031761045c366004612058565b5060001990565b610388610471366004612073565b610c40565b6005546103659074010000000000000000000000000000000000000000900460ff1681565b60055461036590760100000000000000000000000000000000000000000000900460ff1681565b6103176104d03660046120c1565b610c76565b6103176104e3366004612058565b6001600160a01b031660009081526020819052604090205490565b610388610caa565b610388610514366004611f1e565b610cbe565b6005546001600160a01b0316610422565b6005546103659077010000000000000000000000000000000000000000000000900460ff1681565b610388610560366004611ebf565b610d2e565b6103176105733660046120c1565b610d6b565b610388610586366004611f1e565b610d89565b610332610e0d565b61031760065481565b6103886105aa366004611f1e565b610e1c565b6103176105bd3660046120ed565b610e9d565b6103656105d0366004611ef4565b610ebe565b6103176105e3366004611ebf565b610ecc565b6103176105f6366004612144565b610ed9565b610317610609366004612144565b610f54565b61042261061c366004612023565b80516020818301810180516008825292820191909301209152546001600160a01b031681565b610317610650366004611ebf565b610fcf565b610317610663366004612058565b610fdc565b600554610365907501000000000000000000000000000000000000000000900460ff1681565b61031761069c366004612058565b611000565b6103176106af366004612180565b6001600160a01b03918216600090815260016020908152604080832093909416825291909152205490565b6103326106e8366004612058565b61101e565b6103886106fb366004612058565b6110b8565b6040517f70a082310000000000000000000000000000000000000000000000000000000081523060048201526000907f00000000000000000000000000000000000000000000000000000000000000006001600160a01b0316906370a0823190602401602060405180830381865afa158015610780573d6000803e3d6000fd5b505050506040513d601f19601f820116820180604052508101906107a491906121aa565b905090565b6060600380546107b8906121c3565b80601f01602080910402602001604051908101604052809291908181526020018280546107e4906121c3565b80156108315780601f1061080657610100808354040283529160200191610831565b820191906000526020600020905b81548152906001019060200180831161081457829003601f168201915b5050505050905090565b600061084882600061110c565b92915050565b60003361085c818585611146565b5060019392505050565b61086e611158565b600580548215157501000000000000000000000000000000000000000000027fffffffffffffffffffff00ffffffffffffffffffffffffffffffffffffffffff9091161790556040517f45e7e6146471a396eb58b618e88efd46f5c95bd1815b282ed75c5220a559ab10906108e890831515815260200190565b60405180910390a150565b600061084882600161119e565b610908611158565b60058054821515760100000000000000000000000000000000000000000000027fffffffffffffffffff00ffffffffffffffffffffffffffffffffffffffffffff9091161790556040517f39d1e046657e0b945c1a67c1a65d784065b825ee87b8d5186c4b2de8dece1732906108e890831515815260200190565b6000336109918582856111ce565b61099c858585611266565b60019150505b9392505050565b600554760100000000000000000000000000000000000000000000900460ff166109ff576040517fd96a9b5d00000000000000000000000000000000000000000000000000000000815260040160405180910390fd5b600654610a0b336104e3565b1015610a43576040517f988c15d800000000000000000000000000000000000000000000000000000000815260040160405180910390fd5b336000610a5060066112f7565b905060006001600160a01b0316600882604051610a6d91906121fd565b908152604051908190036020019020546001600160a01b031614610abd576040517fe3ba090400000000000000000000000000000000000000000000000000000000815260040160405180910390fd5b6001600160a01b03821660009081526009602052604090208054610ae0906121c3565b159050610b19576040517f61b8b41d00000000000000000000000000000000000000000000000000000000815260040160405180910390fd5b81600882604051610b2a91906121fd565b908152604080516020928190038301902080547fffffffffffffffffffffffff0000000000000000000000000000000000000000166001600160a01b039485161790559184166000908152600990915220610b858282612260565b507fbbba1cab2093e26ee6b388fefb2109576871f9236f9c1f22779dad4b82093b7b8282604051610bb792919061231f565b60405180910390a15050565b60006107a4817f0000000000000000000000000000000000000000000000000000000000000000612357565b600554600160c01b900460ff1615610c33576040517fd96a9b5d00000000000000000000000000000000000000000000000000000000815260040160405180910390fd5b610c3d3382611409565b50565b610c48611158565b8051600003610c5b57610a5060066112f7565b60006001600160a01b0316600882604051610a6d91906121fd565b6000600019610c89565b60405180910390fd5b6000610c9485610fcf565b9050610ca233858784611569565b949350505050565b610cb2611158565b610cbc60006115c9565b565b610cc6611158565b60058054821515600160c01b027fffffffffffffff00ffffffffffffffffffffffffffffffffffffffffffffffff9091161790556040517f266a8da3664fe5a757627c032b4b18eec9246787872eaf6e98fda792d9df5791906108e890831515815260200190565b610d36611158565b60068190556040518181527fff564c1beece133c0c8035cf64ecd45cc945e0761d70dd34b96a7cfd13282360906020016108e8565b60006000196000610d7b85610ecc565b9050610ca233858388611569565b610d91611158565b6005805482151577010000000000000000000000000000000000000000000000027fffffffffffffffff00ffffffffffffffffffffffffffffffffffffffffffffff9091161790556040517f02b87843702214172db05525009563411bd7a39a34f5a9bd7060558862b8b1a0906108e890831515815260200190565b6060600480546107b8906121c3565b610e24611158565b6005805482151574010000000000000000000000000000000000000000027fffffffffffffffffffffff00ffffffffffffffffffffffffffffffffffffffff9091161790556040517f7b014ed3854e7f5cb0218d58b3c6ae7d53a68bb0af2f67bfb029ea42c38a7e85906108e890831515815260200190565b6000610ea93383611409565b6000610eb58585610c76565b95945050505050565b60003361085c818585611266565b600061084882600161110c565b600080610ee583610fdc565b905080851115610f3a576040517ffe9cceec0000000000000000000000000000000000000000000000000000000081526001600160a01b03841660048201526024810186905260448101829052606401610c80565b6000610f45866108f3565b9050610eb53386868985611633565b600080610f6083611000565b905080851115610fb5576040517fb94abeec0000000000000000000000000000000000000000000000000000000081526001600160a01b03841660048201526024810186905260448101829052606401610c80565b6000610fc08661083b565b9050610eb5338686848a611633565b600061084882600061119e565b6001600160a01b03811660009081526020819052604081205461084890600061110c565b6001600160a01b038116600090815260208190526040812054610848565b60096020526000908152604090208054611037906121c3565b80601f0160208091040260200160405190810160405280929190818152602001828054611063906121c3565b80156110b05780601f10611085576101008083540402835291602001916110b0565b820191906000526020600020905b81548152906001019060200180831161109357829003601f168201915b505050505081565b6110c0611158565b6001600160a01b038116611103576040517f1e4fbdf700000000000000000000000000000000000000000000000000000000815260006004820152602401610c80565b610c3d816115c9565b60006109a2611119610700565b611124906001612370565b6111306000600a61246a565b60025461113d9190612370565b8591908561169c565b61115383838360016116e0565b505050565b6005546001600160a01b03163314610cbc576040517f118cdaa7000000000000000000000000000000000000000000000000000000008152336004820152602401610c80565b60006109a26111ae82600a61246a565b6002546111bb9190612370565b6111c3610700565b61113d906001612370565b6001600160a01b038381166000908152600160209081526040808320938616835292905220546000198110156112605781811015611251576040517ffb8f41b20000000000000000000000000000000000000000000000000000000081526001600160a01b03841660048201526024810182905260448101839052606401610c80565b611260848484840360006116e0565b50505050565b6001600160a01b0383166112a9576040517f96c6fd1e00000000000000000000000000000000000000000000000000000000815260006004820152602401610c80565b6001600160a01b0382166112ec576040517fec442f0500000000000000000000000000000000000000000000000000000000815260006004820152602401610c80565b6111538383836117e7565b606060008267ffffffffffffffff81111561131457611314611f7d565b6040519080825280601f01601f19166020018201604052801561133e576020820181803683370190505b5060408051602e80825260608201909252919250600091906020820181803683370190505090506040518060600160405280602e815260200161250c602e9139905060005b84811015611400576000611397602e611878565b90508281815181106113ab576113ab612479565b602001015160f81c60f81b8483815181106113c8576113c8612479565b60200101907effffffffffffffffffffffffffffffffffffffffffffffffffffffffffffff1916908160001a90535050600101611383565b50909392505050565b805115611565576001600160a01b0382166000908152600a602052604090208054611433906121c3565b90506000036115655760006001600160a01b031660088260405161145791906121fd565b908152604051908190036020019020546001600160a01b03161461153357816001600160a01b031660088260405161148f91906121fd565b908152604051908190036020019020546001600160a01b0316036114df576040517fe59f799b00000000000000000000000000000000000000000000000000000000815260040160405180910390fd5b6001600160a01b0382166000908152600a602052604090206115018282612260565b507fb3d2df42f150b9969069bbcb6cfe047d4255ba353ac2949608e81cea5790aa1a8282604051610bb792919061231f565b6040517f8214902100000000000000000000000000000000000000000000000000000000815260040160405180910390fd5b5050565b60055474010000000000000000000000000000000000000000900460ff166115bd576040517f717a164800000000000000000000000000000000000000000000000000000000815260040160405180910390fd5b61126084848484611906565b600580546001600160a01b038381167fffffffffffffffffffffffff0000000000000000000000000000000000000000831681179093556040519116919082907f8be0079c531659141344cd1fd0a4f28419497f9722a3daafe3b4186f6b6457e090600090a35050565b6005547501000000000000000000000000000000000000000000900460ff16611688576040517f46ee9e3500000000000000000000000000000000000000000000000000000000815260040160405180910390fd5b611695858585858561198a565b5050505050565b60006116cb6116aa83611a4a565b80156116c65750600084806116c1576116c161248f565b868809115b151590565b6116d6868686611a77565b610eb59190612370565b6001600160a01b038416611723576040517fe602df0500000000000000000000000000000000000000000000000000000000815260006004820152602401610c80565b6001600160a01b038316611766576040517f94280d6200000000000000000000000000000000000000000000000000000000815260006004820152602401610c80565b6001600160a01b038085166000908152600160209081526040808320938716835292905220829055801561126057826001600160a01b0316846001600160a01b03167f8c5be1e5ebec7d5bd14f71427d1e84f3dd0314c0f7b2291e5b200ac8c7c3b925846040516117d991815260200190565b60405180910390a350505050565b60055477010000000000000000000000000000000000000000000000900460ff16801561183657506001600160a01b0382166000908152600a602052604090208054611832906121c3565b1590505b1561186d576040517f9c591a2800000000000000000000000000000000000000000000000000000000815260040160405180910390fd5b611153838383611b32565b6007805460009182611889836124a5565b9190505550814244336007546040516020016118e39493929190938452602084019290925260601b7fffffffffffffffffffffffffffffffffffffffff000000000000000000000000166040830152605482015260740190565b6040516020818303038152906040528051906020012060001c61084891906124bf565b6119327f0000000000000000000000000000000000000000000000000000000000000000853085611c75565b61193c8382611cf1565b826001600160a01b0316846001600160a01b03167fdcbc1c05240f31ff3ad067ef1ee35ce4997762752e3a095284754544f4c709d784846040516117d9929190918252602082015260400190565b826001600160a01b0316856001600160a01b0316146119ae576119ae8386836111ce565b6119b88382611d40565b6119e37f00000000000000000000000000000000000000000000000000000000000000008584611d8f565b826001600160a01b0316846001600160a01b0316866001600160a01b03167ffbde797d201c681b91056529119e0b02407c7bb96a4a2c75c01fc9667232c8db8585604051611a3b929190918252602082015260400190565b60405180910390a45050505050565b60006002826003811115611a6057611a606124d3565b611a6a91906124e9565b60ff166001149050919050565b6000838302816000198587098281108382030391505080600003611aae57838281611aa457611aa461248f565b04925050506109a2565b808411611ac557611ac56003851502601118611dc0565b6000848688096000868103871696879004966002600389028118808a02820302808a02820302808a02820302808a02820302808a02820302808a02909103029181900381900460010186841190950394909402919094039290920491909117919091029150509392505050565b6001600160a01b038316611b5d578060026000828254611b529190612370565b90915550611be89050565b6001600160a01b03831660009081526020819052604090205481811015611bc9576040517fe450d38c0000000000000000000000000000000000000000000000000000000081526001600160a01b03851660048201526024810182905260448101839052606401610c80565b6001600160a01b03841660009081526020819052604090209082900390555b6001600160a01b038216611c0457600280548290039055611c23565b6001600160a01b03821660009081526020819052604090208054820190555b816001600160a01b0316836001600160a01b03167fddf252ad1be2c89b69c2b068fc378daa952ba7f163c4a11628f55a4df523b3ef83604051611c6891815260200190565b60405180910390a3505050565b6040516001600160a01b0384811660248301528381166044830152606482018390526112609186918216906323b872dd906084015b604051602081830303815290604052915060e01b6020820180517bffffffffffffffffffffffffffffffffffffffffffffffffffffffff8381831617835250505050611dd2565b6001600160a01b038216611d34576040517fec442f0500000000000000000000000000000000000000000000000000000000815260006004820152602401610c80565b611565600083836117e7565b6001600160a01b038216611d83576040517f96c6fd1e00000000000000000000000000000000000000000000000000000000815260006004820152602401610c80565b611565826000836117e7565b6040516001600160a01b0383811660248301526044820183905261115391859182169063a9059cbb90606401611caa565b634e487b71600052806020526024601cfd5b600080602060008451602086016000885af180611df5576040513d6000823e3d81fd5b50506000513d91508115611e0d578060011415611e1a565b6001600160a01b0384163b155b15611260576040517f5274afe70000000000000000000000000000000000000000000000000000000081526001600160a01b0385166004820152602401610c80565b60005b83811015611e77578181015183820152602001611e5f565b50506000910152565b60008151808452611e98816020860160208601611e5c565b601f01601f19169290920160200192915050565b6020815260006109a26020830184611e80565b600060208284031215611ed157600080fd5b5035919050565b80356001600160a01b0381168114611eef57600080fd5b919050565b60008060408385031215611f0757600080fd5b611f1083611ed8565b946020939093013593505050565b600060208284031215611f3057600080fd5b813580151581146109a257600080fd5b600080600060608486031215611f5557600080fd5b611f5e84611ed8565b9250611f6c60208501611ed8565b929592945050506040919091013590565b634e487b7160e01b600052604160045260246000fd5b600082601f830112611fa457600080fd5b813567ffffffffffffffff811115611fbe57611fbe611f7d565b604051601f19603f601f19601f8501160116810181811067ffffffffffffffff82111715611fee57611fee611f7d565b60405281815283820160200185101561200657600080fd5b816020850160208301376000918101602001919091529392505050565b60006020828403121561203557600080fd5b813567ffffffffffffffff81111561204c57600080fd5b610ca284828501611f93565b60006020828403121561206a57600080fd5b6109a282611ed8565b6000806040838503121561208657600080fd5b61208f83611ed8565b9150602083013567ffffffffffffffff8111156120ab57600080fd5b6120b785828601611f93565b9150509250929050565b600080604083850312156120d457600080fd5b823591506120e460208401611ed8565b90509250929050565b60008060006060848603121561210257600080fd5b8335925061211260208501611ed8565b9150604084013567ffffffffffffffff81111561212e57600080fd5b61213a86828701611f93565b9150509250925092565b60008060006060848603121561215957600080fd5b8335925061216960208501611ed8565b915061217760408501611ed8565b90509250925092565b6000806040838503121561219357600080fd5b61219c83611ed8565b91506120e460208401611ed8565b6000602082840312156121bc57600080fd5b5051919050565b600181811c908216806121d757607f821691505b6020821081036121f757634e487b7160e01b600052602260045260246000fd5b50919050565b6000825161220f818460208701611e5c565b9190910192915050565b601f82111561115357806000526020600020601f840160051c810160208510156122405750805b601f840160051c820191505b81811015611695576000815560010161224c565b815167ffffffffffffffff81111561227a5761227a611f7d565b61228e8161228884546121c3565b84612219565b6020601f8211600181146122c257600083156122aa5750848201515b600019600385901b1c1916600184901b178455611695565b600084815260208120601f198516915b828110156122f257878501518255602094850194600190920191016122d2565b50848210156123105786840151600019600387901b60f8161c191681555b50505050600190811b01905550565b6001600160a01b0383168152604060208201526000610ca26040830184611e80565b634e487b7160e01b600052601160045260246000fd5b60ff818116838216019081111561084857610848612341565b8082018082111561084857610848612341565b6001815b60018411156123be578085048111156123a2576123a2612341565b60018416156123b057908102905b60019390931c928002612387565b935093915050565b6000826123d557506001610848565b816123e257506000610848565b81600181146123f857600281146124025761241e565b6001915050610848565b60ff84111561241357612413612341565b50506001821b610848565b5060208310610133831016604e8410600b8410161715612441575081810a610848565b61244e6000198484612383565b806000190482111561246257612462612341565b029392505050565b60006109a260ff8416836123c6565b634e487b7160e01b600052603260045260246000fd5b634e487b7160e01b600052601260045260246000fd5b600060001982036124b8576124b8612341565b5060010190565b6000826124ce576124ce61248f565b500690565b634e487b7160e01b600052602160045260246000fd5b600060ff8316806124fc576124fc61248f565b8060ff8416069150509291505056fe4142434445464748494a4b4c4d4e4f505152535455565758595a3031323334353637383930313233343536373839a2646970667358221220770c7b1f8f68619269245e2a5d7dd76d730c0ac3106389cb013a82de04a6bb6064736f6c634300081c0033",
  "linkReferences": {},
  "deployedLinkReferences": {}
}