{
  "_format": "hh-sol-artifact-1",
  "contractName": "AcceleraPreDepositVault",
  "sourceName": "contracts/AcceleraPreDepositVault.sol",
  "abi": [
    {
      "inputs": [
        {
          "internalType": "address",
          "name": "initialOwner_",
          "type": "address"
        },
        {
          "internalType": "contract IERC20",
          "name": "asset_",
          "type": "address"
        },
        {
          "internalType": "string",
          "name": "name_",
          "type": "string"
        },
        {
          "internalType": "string",
          "name": "symbol_",
          "type": "string"
        }
      ],
      "stateMutability": "nonpayable",
      "type": "constructor"
    },
    {
      "inputs": [],
      "name": "AddressAlreadyHasReferralCode",
      "type": "error"
    },
    {
      "inputs": [],
      "name": "DepositsDisabled",
      "type": "error"
    },
    {
      "inputs": [
        {
          "internalType": "address",
          "name": "spender",
          "type": "address"
        },
        {
          "internalType": "uint256",
          "name": "allowance",
          "type": "uint256"
        },
        {
          "internalType": "uint256",
          "name": "needed",
          "type": "uint256"
        }
      ],
      "name": "ERC20InsufficientAllowance",
      "type": "error"
    },
    {
      "inputs": [
        {
          "internalType": "address",
          "name": "sender",
          "type": "address"
        },
        {
          "internalType": "uint256",
          "name": "balance",
          "type": "uint256"
        },
        {
          "internalType": "uint256",
          "name": "needed",
          "type": "uint256"
        }
      ],
      "name": "ERC20InsufficientBalance",
      "type": "error"
    },
    {
      "inputs": [
        {
          "internalType": "address",
          "name": "approver",
          "type": "address"
        }
      ],
      "name": "ERC20InvalidApprover",
      "type": "error"
    },
    {
      "inputs": [
        {
          "internalType": "address",
          "name": "receiver",
          "type": "address"
        }
      ],
      "name": "ERC20InvalidReceiver",
      "type": "error"
    },
    {
      "inputs": [
        {
          "internalType": "address",
          "name": "sender",
          "type": "address"
        }
      ],
      "name": "ERC20InvalidSender",
      "type": "error"
    },
    {
      "inputs": [
        {
          "internalType": "address",
          "name": "spender",
          "type": "address"
        }
      ],
      "name": "ERC20InvalidSpender",
      "type": "error"
    },
    {
      "inputs": [
        {
          "internalType": "address",
          "name": "receiver",
          "type": "address"
        },
        {
          "internalType": "uint256",
          "name": "assets",
          "type": "uint256"
        },
        {
          "internalType": "uint256",
          "name": "max",
          "type": "uint256"
        }
      ],
      "name": "ERC4626ExceededMaxDeposit",
      "type": "error"
    },
    {
      "inputs": [
        {
          "internalType": "address",
          "name": "receiver",
          "type": "address"
        },
        {
          "internalType": "uint256",
          "name": "shares",
          "type": "uint256"
        },
        {
          "internalType": "uint256",
          "name": "max",
          "type": "uint256"
        }
      ],
      "name": "ERC4626ExceededMaxMint",
      "type": "error"
    },
    {
      "inputs": [
        {
          "internalType": "address",
          "name": "owner",
          "type": "address"
        },
        {
          "internalType": "uint256",
          "name": "shares",
          "type": "uint256"
        },
        {
          "internalType": "uint256",
          "name": "max",
          "type": "uint256"
        }
      ],
      "name": "ERC4626ExceededMaxRedeem",
      "type": "error"
    },
    {
      "inputs": [
        {
          "internalType": "address",
          "name": "owner",
          "type": "address"
        },
        {
          "internalType": "uint256",
          "name": "assets",
          "type": "uint256"
        },
        {
          "internalType": "uint256",
          "name": "max",
          "type": "uint256"
        }
      ],
      "name": "ERC4626ExceededMaxWithdraw",
      "type": "error"
    },
    {
      "inputs": [],
      "name": "NotEnoughXUSDEToGenerateCode",
      "type": "error"
    },
    {
      "inputs": [
        {
          "internalType": "address",
          "name": "owner",
          "type": "address"
        }
      ],
      "name": "OwnableInvalidOwner",
      "type": "error"
    },
    {
      "inputs": [
        {
          "internalType": "address",
          "name": "account",
          "type": "address"
        }
      ],
      "name": "OwnableUnauthorizedAccount",
      "type": "error"
    },
    {
      "inputs": [],
      "name": "ReferralCodeAlreadyUsed",
      "type": "error"
    },
    {
      "inputs": [],
      "name": "ReferralCodeCreationDisabled",
      "type": "error"
    },
    {
      "inputs": [],
      "name": "ReferralCodeDoesNotExist",
      "type": "error"
    },
    {
      "inputs": [],
      "name": "ReferralCodeMandatory",
      "type": "error"
    },
    {
      "inputs": [
        {
          "internalType": "address",
          "name": "token",
          "type": "address"
        }
      ],
      "name": "SafeERC20FailedOperation",
      "type": "error"
    },
    {
      "inputs": [],
      "name": "WithdrawalsDisabled",
      "type": "error"
    },
    {
      "anonymous": false,
      "inputs": [
        {
          "indexed": true,
          "internalType": "address",
          "name": "owner",
          "type": "address"
        },
        {
          "indexed": true,
          "internalType": "address",
          "name": "spender",
          "type": "address"
        },
        {
          "indexed": false,
          "internalType": "uint256",
          "name": "value",
          "type": "uint256"
        }
      ],
      "name": "Approval",
      "type": "event"
    },
    {
      "anonymous": false,
      "inputs": [
        {
          "indexed": true,
          "internalType": "address",
          "name": "sender",
          "type": "address"
        },
        {
          "indexed": true,
          "internalType": "address",
          "name": "owner",
          "type": "address"
        },
        {
          "indexed": false,
          "internalType": "uint256",
          "name": "assets",
          "type": "uint256"
        },
        {
          "indexed": false,
          "internalType": "uint256",
          "name": "shares",
          "type": "uint256"
        }
      ],
      "name": "Deposit",
      "type": "event"
    },
    {
      "anonymous": false,
      "inputs": [
        {
          "indexed": false,
          "internalType": "bool",
          "name": "enabled",
          "type": "bool"
        }
      ],
      "name": "DepositsEnabled",
      "type": "event"
    },
    {
      "anonymous": false,
      "inputs": [
        {
          "indexed": true,
          "internalType": "address",
          "name": "previousOwner",
          "type": "address"
        },
        {
          "indexed": true,
          "internalType": "address",
          "name": "newOwner",
          "type": "address"
        }
      ],
      "name": "OwnershipTransferred",
      "type": "event"
    },
    {
      "anonymous": false,
      "inputs": [
        {
          "indexed": false,
          "internalType": "address",
          "name": "user",
          "type": "address"
        },
        {
          "indexed": false,
          "internalType": "string",
          "name": "code",
          "type": "string"
        }
      ],
      "name": "ReferralCodeCreated",
      "type": "event"
    },
    {
      "anonymous": false,
      "inputs": [
        {
          "indexed": false,
          "internalType": "bool",
          "name": "enabled",
          "type": "bool"
        }
      ],
      "name": "ReferralCodeCreationEnabled",
      "type": "event"
    },
    {
      "anonymous": false,
      "inputs": [
        {
          "indexed": false,
          "internalType": "bool",
          "name": "enabled",
          "type": "bool"
        }
      ],
      "name": "ReferralCodeMandatoryEnabled",
      "type": "event"
    },
    {
      "anonymous": false,
      "inputs": [
        {
          "indexed": false,
          "internalType": "address",
          "name": "user",
          "type": "address"
        },
        {
          "indexed": false,
          "internalType": "string",
          "name": "code",
          "type": "string"
        }
      ],
      "name": "ReferralCodeUsed",
      "type": "event"
    },
    {
      "anonymous": false,
      "inputs": [
        {
          "indexed": true,
          "internalType": "address",
          "name": "from",
          "type": "address"
        },
        {
          "indexed": true,
          "internalType": "address",
          "name": "to",
          "type": "address"
        },
        {
          "indexed": false,
          "internalType": "uint256",
          "name": "value",
          "type": "uint256"
        }
      ],
      "name": "Transfer",
      "type": "event"
    },
    {
      "anonymous": false,
      "inputs": [
        {
          "indexed": false,
          "internalType": "bool",
          "name": "enable",
          "type": "bool"
        }
      ],
      "name": "UseReferralOnlyInDepositsEnabled",
      "type": "event"
    },
    {
      "anonymous": false,
      "inputs": [
        {
          "indexed": true,
          "internalType": "address",
          "name": "sender",
          "type": "address"
        },
        {
          "indexed": true,
          "internalType": "address",
          "name": "receiver",
          "type": "address"
        },
        {
          "indexed": true,
          "internalType": "address",
          "name": "owner",
          "type": "address"
        },
        {
          "indexed": false,
          "internalType": "uint256",
          "name": "assets",
          "type": "uint256"
        },
        {
          "indexed": false,
          "internalType": "uint256",
          "name": "shares",
          "type": "uint256"
        }
      ],
      "name": "Withdraw",
      "type": "event"
    },
    {
      "anonymous": false,
      "inputs": [
        {
          "indexed": false,
          "internalType": "bool",
          "name": "enabled",
          "type": "bool"
        }
      ],
      "name": "WithdrawalsEnabled",
      "type": "event"
    },
    {
      "inputs": [
        {
          "internalType": "address",
          "name": "owner",
          "type": "address"
        },
        {
          "internalType": "address",
          "name": "spender",
          "type": "address"
        }
      ],
      "name": "allowance",
      "outputs": [
        {
          "internalType": "uint256",
          "name": "",
          "type": "uint256"
        }
      ],
      "stateMutability": "view",
      "type": "function"
    },
    {
      "inputs": [
        {
          "internalType": "address",
          "name": "spender",
          "type": "address"
        },
        {
          "internalType": "uint256",
          "name": "value",
          "type": "uint256"
        }
      ],
      "name": "approve",
      "outputs": [
        {
          "internalType": "bool",
          "name": "",
          "type": "bool"
        }
      ],
      "stateMutability": "nonpayable",
      "type": "function"
    },
    {
      "inputs": [],
      "name": "asset",
      "outputs": [
        {
          "internalType": "address",
          "name": "",
          "type": "address"
        }
      ],
      "stateMutability": "view",
      "type": "function"
    },
    {
      "inputs": [
        {
          "internalType": "address",
          "name": "account",
          "type": "address"
        }
      ],
      "name": "balanceOf",
      "outputs": [
        {
          "internalType": "uint256",
          "name": "",
          "type": "uint256"
        }
      ],
      "stateMutability": "view",
      "type": "function"
    },
    {
      "inputs": [
        {
          "internalType": "uint256",
          "name": "shares",
          "type": "uint256"
        }
      ],
      "name": "convertToAssets",
      "outputs": [
        {
          "internalType": "uint256",
          "name": "",
          "type": "uint256"
        }
      ],
      "stateMutability": "view",
      "type": "function"
    },
    {
      "inputs": [
        {
          "internalType": "uint256",
          "name": "assets",
          "type": "uint256"
        }
      ],
      "name": "convertToShares",
      "outputs": [
        {
          "internalType": "uint256",
          "name": "",
          "type": "uint256"
        }
      ],
      "stateMutability": "view",
      "type": "function"
    },
    {
      "inputs": [],
      "name": "createReferralCode",
      "outputs": [],
      "stateMutability": "nonpayable",
      "type": "function"
    },
    {
      "inputs": [
        {
          "internalType": "address",
          "name": "user_",
          "type": "address"
        },
        {
          "internalType": "string",
          "name": "code_",
          "type": "string"
        }
      ],
      "name": "createReferralCodeOwner",
      "outputs": [],
      "stateMutability": "nonpayable",
      "type": "function"
    },
    {
      "inputs": [],
      "name": "decimals",
      "outputs": [
        {
          "internalType": "uint8",
          "name": "",
          "type": "uint8"
        }
      ],
      "stateMutability": "view",
      "type": "function"
    },
    {
      "inputs": [
        {
          "internalType": "uint256",
          "name": "assets",
          "type": "uint256"
        },
        {
          "internalType": "address",
          "name": "receiver",
          "type": "address"
        }
      ],
      "name": "deposit",
      "outputs": [
        {
          "internalType": "uint256",
          "name": "",
          "type": "uint256"
        }
      ],
      "stateMutability": "nonpayable",
      "type": "function"
    },
    {
      "inputs": [
        {
          "internalType": "uint256",
          "name": "assets",
          "type": "uint256"
        },
        {
          "internalType": "address",
          "name": "receiver",
          "type": "address"
        },
        {
          "internalType": "string",
          "name": "code_",
          "type": "string"
        }
      ],
      "name": "depositWithReferral",
      "outputs": [
        {
          "internalType": "uint256",
          "name": "",
          "type": "uint256"
        }
      ],
      "stateMutability": "nonpayable",
      "type": "function"
    },
    {
      "inputs": [],
      "name": "depositsEnabled",
      "outputs": [
        {
          "internalType": "bool",
          "name": "",
          "type": "bool"
        }
      ],
      "stateMutability": "view",
      "type": "function"
    },
    {
      "inputs": [
        {
          "internalType": "address",
          "name": "",
          "type": "address"
        }
      ],
      "name": "maxDeposit",
      "outputs": [
        {
          "internalType": "uint256",
          "name": "",
          "type": "uint256"
        }
      ],
      "stateMutability": "view",
      "type": "function"
    },
    {
      "inputs": [
        {
          "internalType": "address",
          "name": "",
          "type": "address"
        }
      ],
      "name": "maxMint",
      "outputs": [
        {
          "internalType": "uint256",
          "name": "",
          "type": "uint256"
        }
      ],
      "stateMutability": "view",
      "type": "function"
    },
    {
      "inputs": [
        {
          "internalType": "address",
          "name": "owner",
          "type": "address"
        }
      ],
      "name": "maxRedeem",
      "outputs": [
        {
          "internalType": "uint256",
          "name": "",
          "type": "uint256"
        }
      ],
      "stateMutability": "view",
      "type": "function"
    },
    {
      "inputs": [
        {
          "internalType": "address",
          "name": "owner",
          "type": "address"
        }
      ],
      "name": "maxWithdraw",
      "outputs": [
        {
          "internalType": "uint256",
          "name": "",
          "type": "uint256"
        }
      ],
      "stateMutability": "view",
      "type": "function"
    },
    {
      "inputs": [],
      "name": "minimumAmountToGenerateCode",
      "outputs": [
        {
          "internalType": "uint256",
          "name": "",
          "type": "uint256"
        }
      ],
      "stateMutability": "view",
      "type": "function"
    },
    {
      "inputs": [
        {
          "internalType": "uint256",
          "name": "shares",
          "type": "uint256"
        },
        {
          "internalType": "address",
          "name": "receiver",
          "type": "address"
        }
      ],
      "name": "mint",
      "outputs": [
        {
          "internalType": "uint256",
          "name": "",
          "type": "uint256"
        }
      ],
      "stateMutability": "nonpayable",
      "type": "function"
    },
    {
      "inputs": [],
      "name": "name",
      "outputs": [
        {
          "internalType": "string",
          "name": "",
          "type": "string"
        }
      ],
      "stateMutability": "view",
      "type": "function"
    },
    {
      "inputs": [],
      "name": "owner",
      "outputs": [
        {
          "internalType": "address",
          "name": "",
          "type": "address"
        }
      ],
      "stateMutability": "view",
      "type": "function"
    },
    {
      "inputs": [
        {
          "internalType": "address",
          "name": "",
          "type": "address"
        }
      ],
      "name": "ownerToReferralCode",
      "outputs": [
        {
          "internalType": "string",
          "name": "",
          "type": "string"
        }
      ],
      "stateMutability": "view",
      "type": "function"
    },
    {
      "inputs": [
        {
          "internalType": "uint256",
          "name": "assets",
          "type": "uint256"
        }
      ],
      "name": "previewDeposit",
      "outputs": [
        {
          "internalType": "uint256",
          "name": "",
          "type": "uint256"
        }
      ],
      "stateMutability": "view",
      "type": "function"
    },
    {
      "inputs": [
        {
          "internalType": "uint256",
          "name": "shares",
          "type": "uint256"
        }
      ],
      "name": "previewMint",
      "outputs": [
        {
          "internalType": "uint256",
          "name": "",
          "type": "uint256"
        }
      ],
      "stateMutability": "view",
      "type": "function"
    },
    {
      "inputs": [
        {
          "internalType": "uint256",
          "name": "shares",
          "type": "uint256"
        }
      ],
      "name": "previewRedeem",
      "outputs": [
        {
          "internalType": "uint256",
          "name": "",
          "type": "uint256"
        }
      ],
      "stateMutability": "view",
      "type": "function"
    },
    {
      "inputs": [
        {
          "internalType": "uint256",
          "name": "assets",
          "type": "uint256"
        }
      ],
      "name": "previewWithdraw",
      "outputs": [
        {
          "internalType": "uint256",
          "name": "",
          "type": "uint256"
        }
      ],
      "stateMutability": "view",
      "type": "function"
    },
    {
      "inputs": [
        {
          "internalType": "uint256",
          "name": "shares",
          "type": "uint256"
        },
        {
          "internalType": "address",
          "name": "receiver",
          "type": "address"
        },
        {
          "internalType": "address",
          "name": "owner",
          "type": "address"
        }
      ],
      "name": "redeem",
      "outputs": [
        {
          "internalType": "uint256",
          "name": "",
          "type": "uint256"
        }
      ],
      "stateMutability": "nonpayable",
      "type": "function"
    },
    {
      "inputs": [],
      "name": "referralCodeCreationEnabled",
      "outputs": [
        {
          "internalType": "bool",
          "name": "",
          "type": "bool"
        }
      ],
      "stateMutability": "view",
      "type": "function"
    },
    {
      "inputs": [],
      "name": "referralCodeMandatory",
      "outputs": [
        {
          "internalType": "bool",
          "name": "",
          "type": "bool"
        }
      ],
      "stateMutability": "view",
      "type": "function"
    },
    {
      "inputs": [
        {
          "internalType": "string",
          "name": "",
          "type": "string"
        }
      ],
      "name": "referralCodeToOwner",
      "outputs": [
        {
          "internalType": "address",
          "name": "",
          "type": "address"
        }
      ],
      "stateMutability": "view",
      "type": "function"
    },
    {
      "inputs": [],
      "name": "renounceOwnership",
      "outputs": [],
      "stateMutability": "nonpayable",
      "type": "function"
    },
    {
      "inputs": [
        {
          "internalType": "bool",
          "name": "depositsEnabled_",
          "type": "bool"
        }
      ],
      "name": "setDepositsEnabled",
      "outputs": [],
      "stateMutability": "nonpayable",
      "type": "function"
    },
    {
      "inputs": [
        {
          "internalType": "bool",
          "name": "referralCodeCreationEnabled_",
          "type": "bool"
        }
      ],
      "name": "setReferralCodeCreationEnabled",
      "outputs": [],
      "stateMutability": "nonpayable",
      "type": "function"
    },
    {
      "inputs": [
        {
          "internalType": "bool",
          "name": "referralCodeMandatory_",
          "type": "bool"
        }
      ],
      "name": "setReferralCodeMandatory",
      "outputs": [],
      "stateMutability": "nonpayable",
      "type": "function"
    },
    {
      "inputs": [
        {
          "internalType": "bool",
          "name": "useReferralOnlyInDeposits_",
          "type": "bool"
        }
      ],
      "name": "setUseReferralOnlyInDeposits",
      "outputs": [],
      "stateMutability": "nonpayable",
      "type": "function"
    },
    {
      "inputs": [
        {
          "internalType": "bool",
          "name": "withdrawalsEnabled_",
          "type": "bool"
        }
      ],
      "name": "setWithdrawalsEnabled",
      "outputs": [],
      "stateMutability": "nonpayable",
      "type": "function"
    },
    {
      "inputs": [],
      "name": "symbol",
      "outputs": [
        {
          "internalType": "string",
          "name": "",
          "type": "string"
        }
      ],
      "stateMutability": "view",
      "type": "function"
    },
    {
      "inputs": [],
      "name": "totalAssets",
      "outputs": [
        {
          "internalType": "uint256",
          "name": "",
          "type": "uint256"
        }
      ],
      "stateMutability": "view",
      "type": "function"
    },
    {
      "inputs": [],
      "name": "totalSupply",
      "outputs": [
        {
          "internalType": "uint256",
          "name": "",
          "type": "uint256"
        }
      ],
      "stateMutability": "view",
      "type": "function"
    },
    {
      "inputs": [
        {
          "internalType": "address",
          "name": "to",
          "type": "address"
        },
        {
          "internalType": "uint256",
          "name": "value",
          "type": "uint256"
        }
      ],
      "name": "transfer",
      "outputs": [
        {
          "internalType": "bool",
          "name": "",
          "type": "bool"
        }
      ],
      "stateMutability": "nonpayable",
      "type": "function"
    },
    {
      "inputs": [
        {
          "internalType": "address",
          "name": "from",
          "type": "address"
        },
        {
          "internalType": "address",
          "name": "to",
          "type": "address"
        },
        {
          "internalType": "uint256",
          "name": "value",
          "type": "uint256"
        }
      ],
      "name": "transferFrom",
      "outputs": [
        {
          "internalType": "bool",
          "name": "",
          "type": "bool"
        }
      ],
      "stateMutability": "nonpayable",
      "type": "function"
    },
    {
      "inputs": [
        {
          "internalType": "address",
          "name": "newOwner",
          "type": "address"
        }
      ],
      "name": "transferOwnership",
      "outputs": [],
      "stateMutability": "nonpayable",
      "type": "function"
    },
    {
      "inputs": [
        {
          "internalType": "string",
          "name": "code_",
          "type": "string"
        }
      ],
      "name": "useReferralCode",
      "outputs": [],
      "stateMutability": "nonpayable",
      "type": "function"
    },
    {
      "inputs": [],
      "name": "useReferralOnlyInDeposits",
      "outputs": [
        {
          "internalType": "bool",
          "name": "",
          "type": "bool"
        }
      ],
      "stateMutability": "view",
      "type": "function"
    },
    {
      "inputs": [
        {
          "internalType": "uint256",
          "name": "assets",
          "type": "uint256"
        },
        {
          "internalType": "address",
          "name": "receiver",
          "type": "address"
        },
        {
          "internalType": "address",
          "name": "owner",
          "type": "address"
        }
      ],
      "name": "withdraw",
      "outputs": [
        {
          "internalType": "uint256",
          "name": "",
          "type": "uint256"
        }
      ],
      "stateMutability": "nonpayable",
      "type": "function"
    },
    {
      "inputs": [],
      "name": "withdrawalsEnabled",
      "outputs": [
        {
          "internalType": "bool",
          "name": "",
          "type": "bool"
        }
      ],
      "stateMutability": "view",
      "type": "function"
    }
  ],
  "bytecode": "0x60c060405234801561001057600080fd5b506040516129d73803806129d783398101604081905261002f916102e7565b83838383600361003f8382610400565b50600461004c8282610400565b505050600080610061836100de60201b60201c565b9150915081610071576012610073565b805b60ff1660a05250506001600160a01b0390811660805281166100af57604051631e4fbdf760e01b81526000600482015260240160405180910390fd5b6100b8816101ba565b50506005805464ff00ffffff60a01b191664010001010160a01b179055506104f3915050565b60408051600481526024810182526020810180516001600160e01b031663313ce56760e01b17905290516000918291829182916001600160a01b03871691610125916104be565b600060405180830381855afa9150503d8060008114610160576040519150601f19603f3d011682016040523d82523d6000602084013e610165565b606091505b509150915081801561017957506020815110155b156101ad5760008180602001905181019061019491906104da565b905060ff81116101ab576001969095509350505050565b505b5060009485945092505050565b600580546001600160a01b038381166001600160a01b0319831681179093556040519116919082907f8be0079c531659141344cd1fd0a4f28419497f9722a3daafe3b4186f6b6457e090600090a35050565b6001600160a01b038116811461022157600080fd5b50565b634e487b7160e01b600052604160045260246000fd5b60005b8381101561025557818101518382015260200161023d565b50506000910152565b600082601f83011261026f57600080fd5b81516001600160401b0381111561028857610288610224565b604051601f8201601f19908116603f011681016001600160401b03811182821017156102b6576102b6610224565b6040528181528382016020018510156102ce57600080fd5b6102df82602083016020870161023a565b949350505050565b600080600080608085870312156102fd57600080fd5b84516103088161020c565b60208601519094506103198161020c565b60408601519093506001600160401b0381111561033557600080fd5b6103418782880161025e565b606087015190935090506001600160401b0381111561035f57600080fd5b61036b8782880161025e565b91505092959194509250565b600181811c9082168061038b57607f821691505b6020821081036103ab57634e487b7160e01b600052602260045260246000fd5b50919050565b601f8211156103fb57806000526020600020601f840160051c810160208510156103d85750805b601f840160051c820191505b818110156103f857600081556001016103e4565b50505b505050565b81516001600160401b0381111561041957610419610224565b61042d816104278454610377565b846103b1565b6020601f82116001811461046157600083156104495750848201515b600019600385901b1c1916600184901b1784556103f8565b600084815260208120601f198516915b828110156104915787850151825560209485019460019092019101610471565b50848210156104af5786840151600019600387901b60f8161c191681555b50505050600190811b01905550565b600082516104d081846020870161023a565b9190910192915050565b6000602082840312156104ec57600080fd5b5051919050565b60805160a0516124aa61052d6000396000610bad015260008181610400015281816107130152818161184601526118f801526124aa6000f3fe608060405234801561001057600080fd5b50600436106102ff5760003560e01c8063715018a61161019c578063b460af94116100ee578063d0dbcd2411610097578063ddc117ec11610071578063ddc117ec146106bc578063ef8b30f714610624578063f2fde38b146106cf57600080fd5b8063d0dbcd241461064a578063d905777e14610670578063dd62ed3e1461068357600080fd5b8063c63d75b6116100c8578063c63d75b61461044c578063c6e6f59214610624578063ce96cb771461063757600080fd5b8063b460af94146105ca578063ba087652146105dd578063bb33bd6c146105f057600080fd5b806394eaf06a116101505780639f68b5751161012a5780639f68b57514610591578063a9059cbb146105a4578063b3d7f6b9146105b757600080fd5b806394eaf06a1461056357806395d89b41146105765780639f04586c1461057e57600080fd5b80638da5cb5b116101815780638da5cb5b146105175780638edf96471461052857806394bf804d1461055057600080fd5b8063715018a6146104fc57806374a5b0e11461050457600080fd5b8063313ce5671161025557806345b965001161020957806363a09663116101e357806363a09663146104995780636e553f65146104c057806370a08231146104d357600080fd5b806345b96500146104615780634cdad5061461033d5780635392fd1c1461047457600080fd5b806338d52e0f1161023a57806338d52e0f146103fe5780633cc5634b14610438578063402d267d1461044c57600080fd5b8063313ce567146103d157806333a8433a146103eb57600080fd5b80630a179327116102b757806318160ddd1161029157806318160ddd146103ae57806323b872dd146103b65780632e108d1c146103c957600080fd5b80630a179327146103735780630a28a477146103885780630f65ba1e1461039b57600080fd5b806306fdde03116102e857806306fdde031461032857806307a2d13a1461033d578063095ea7b31461035057600080fd5b806301e1d1141461030457806303a00df61461031f575b600080fd5b61030c6106e2565b6040519081526020015b60405180910390f35b61030c60065481565b61033061078b565b6040516103169190611de7565b61030c61034b366004611dfa565b61081d565b61036361035e366004611e2f565b610830565b6040519015158152602001610316565b610386610381366004611e59565b610848565b005b61030c610396366004611dfa565b6108d5565b6103866103a9366004611e59565b6108e2565b60025461030c565b6103636103c4366004611e7b565b610965565b61038661098b565b6103d9610ba5565b60405160ff9091168152602001610316565b6103866103f9366004611f5e565b610bd1565b7f00000000000000000000000000000000000000000000000000000000000000005b6040516001600160a01b039091168152602001610316565b60055461036390600160c01b900460ff1681565b61030c61045a366004611f93565b5060001990565b61038661046f366004611fae565b610c22565b6005546103639074010000000000000000000000000000000000000000900460ff1681565b60055461036390760100000000000000000000000000000000000000000000900460ff1681565b61030c6104ce366004611ffc565b610c58565b61030c6104e1366004611f93565b6001600160a01b031660009081526020819052604090205490565b610386610c8c565b610386610512366004611e59565b610ca0565b6005546001600160a01b0316610420565b6005546103639077010000000000000000000000000000000000000000000000900460ff1681565b61030c61055e366004611ffc565b610d10565b610386610571366004611e59565b610d2e565b610330610db2565b61038661058c366004611e59565b610dc1565b61030c61059f366004612028565b610e42565b6103636105b2366004611e2f565b610e63565b61030c6105c5366004611dfa565b610e71565b61030c6105d836600461207f565b610e7e565b61030c6105eb36600461207f565b610ef9565b6104206105fe366004611f5e565b80516020818301810180516008825292820191909301209152546001600160a01b031681565b61030c610632366004611dfa565b610f74565b61030c610645366004611f93565b610f81565b600554610363907501000000000000000000000000000000000000000000900460ff1681565b61030c61067e366004611f93565b610fa5565b61030c6106913660046120bb565b6001600160a01b03918216600090815260016020908152604080832093909416825291909152205490565b6103306106ca366004611f93565b610fc3565b6103866106dd366004611f93565b61105d565b6040517f70a082310000000000000000000000000000000000000000000000000000000081523060048201526000907f00000000000000000000000000000000000000000000000000000000000000006001600160a01b0316906370a0823190602401602060405180830381865afa158015610762573d6000803e3d6000fd5b505050506040513d601f19601f8201168201806040525081019061078691906120e5565b905090565b60606003805461079a906120fe565b80601f01602080910402602001604051908101604052809291908181526020018280546107c6906120fe565b80156108135780601f106107e857610100808354040283529160200191610813565b820191906000526020600020905b8154815290600101906020018083116107f657829003601f168201915b5050505050905090565b600061082a8260006110b1565b92915050565b60003361083e8185856110eb565b5060019392505050565b6108506110fd565b600580548215157501000000000000000000000000000000000000000000027fffffffffffffffffffff00ffffffffffffffffffffffffffffffffffffffffff9091161790556040517f45e7e6146471a396eb58b618e88efd46f5c95bd1815b282ed75c5220a559ab10906108ca90831515815260200190565b60405180910390a150565b600061082a826001611143565b6108ea6110fd565b60058054821515760100000000000000000000000000000000000000000000027fffffffffffffffffff00ffffffffffffffffffffffffffffffffffffffffffff9091161790556040517f39d1e046657e0b945c1a67c1a65d784065b825ee87b8d5186c4b2de8dece1732906108ca90831515815260200190565b600033610973858285611173565b61097e85858561120b565b60019150505b9392505050565b600554760100000000000000000000000000000000000000000000900460ff166109e1576040517fd96a9b5d00000000000000000000000000000000000000000000000000000000815260040160405180910390fd5b6006546109ed336104e1565b1015610a25576040517f988c15d800000000000000000000000000000000000000000000000000000000815260040160405180910390fd5b336000610a32600661129c565b905060006001600160a01b0316600882604051610a4f9190612138565b908152604051908190036020019020546001600160a01b031614610a9f576040517fe3ba090400000000000000000000000000000000000000000000000000000000815260040160405180910390fd5b6001600160a01b03821660009081526009602052604090208054610ac2906120fe565b159050610afb576040517f61b8b41d00000000000000000000000000000000000000000000000000000000815260040160405180910390fd5b81600882604051610b0c9190612138565b908152604080516020928190038301902080547fffffffffffffffffffffffff0000000000000000000000000000000000000000166001600160a01b039485161790559184166000908152600990915220610b67828261219b565b507fbbba1cab2093e26ee6b388fefb2109576871f9236f9c1f22779dad4b82093b7b8282604051610b9992919061225a565b60405180910390a15050565b6000610786817f0000000000000000000000000000000000000000000000000000000000000000612292565b600554600160c01b900460ff1615610c15576040517fd96a9b5d00000000000000000000000000000000000000000000000000000000815260040160405180910390fd5b610c1f33826113ae565b50565b610c2a6110fd565b8051600003610c3d57610a32600661129c565b60006001600160a01b0316600882604051610a4f9190612138565b6000600019610c6b565b60405180910390fd5b6000610c7685610f74565b9050610c84338587846114a4565b949350505050565b610c946110fd565b610c9e6000611504565b565b610ca86110fd565b60058054821515600160c01b027fffffffffffffff00ffffffffffffffffffffffffffffffffffffffffffffffff9091161790556040517f266a8da3664fe5a757627c032b4b18eec9246787872eaf6e98fda792d9df5791906108ca90831515815260200190565b60006000196000610d2085610e71565b9050610c84338583886114a4565b610d366110fd565b6005805482151577010000000000000000000000000000000000000000000000027fffffffffffffffff00ffffffffffffffffffffffffffffffffffffffffffffff9091161790556040517f02b87843702214172db05525009563411bd7a39a34f5a9bd7060558862b8b1a0906108ca90831515815260200190565b60606004805461079a906120fe565b610dc96110fd565b6005805482151574010000000000000000000000000000000000000000027fffffffffffffffffffffff00ffffffffffffffffffffffffffffffffffffffff9091161790556040517f7b014ed3854e7f5cb0218d58b3c6ae7d53a68bb0af2f67bfb029ea42c38a7e85906108ca90831515815260200190565b6000610e4e33836113ae565b6000610e5a8585610c58565b95945050505050565b60003361083e81858561120b565b600061082a8260016110b1565b600080610e8a83610f81565b905080851115610edf576040517ffe9cceec0000000000000000000000000000000000000000000000000000000081526001600160a01b03841660048201526024810186905260448101829052606401610c62565b6000610eea866108d5565b9050610e5a338686898561156e565b600080610f0583610fa5565b905080851115610f5a576040517fb94abeec0000000000000000000000000000000000000000000000000000000081526001600160a01b03841660048201526024810186905260448101829052606401610c62565b6000610f658661081d565b9050610e5a338686848a61156e565b600061082a826000611143565b6001600160a01b03811660009081526020819052604081205461082a9060006110b1565b6001600160a01b03811660009081526020819052604081205461082a565b60096020526000908152604090208054610fdc906120fe565b80601f0160208091040260200160405190810160405280929190818152602001828054611008906120fe565b80156110555780601f1061102a57610100808354040283529160200191611055565b820191906000526020600020905b81548152906001019060200180831161103857829003601f168201915b505050505081565b6110656110fd565b6001600160a01b0381166110a8576040517f1e4fbdf700000000000000000000000000000000000000000000000000000000815260006004820152602401610c62565b610c1f81611504565b60006109846110be6106e2565b6110c99060016122ab565b6110d56000600a6123a5565b6002546110e291906122ab565b859190856115d7565b6110f8838383600161161b565b505050565b6005546001600160a01b03163314610c9e576040517f118cdaa7000000000000000000000000000000000000000000000000000000008152336004820152602401610c62565b600061098461115382600a6123a5565b60025461116091906122ab565b6111686106e2565b6110e29060016122ab565b6001600160a01b0383811660009081526001602090815260408083209386168352929052205460001981101561120557818110156111f6576040517ffb8f41b20000000000000000000000000000000000000000000000000000000081526001600160a01b03841660048201526024810182905260448101839052606401610c62565b6112058484848403600061161b565b50505050565b6001600160a01b03831661124e576040517f96c6fd1e00000000000000000000000000000000000000000000000000000000815260006004820152602401610c62565b6001600160a01b038216611291576040517fec442f0500000000000000000000000000000000000000000000000000000000815260006004820152602401610c62565b6110f8838383611722565b606060008267ffffffffffffffff8111156112b9576112b9611eb8565b6040519080825280601f01601f1916602001820160405280156112e3576020820181803683370190505b5060408051602e80825260608201909252919250600091906020820181803683370190505090506040518060600160405280602e8152602001612447602e9139905060005b848110156113a557600061133c602e6117b3565b9050828181518110611350576113506123b4565b602001015160f81c60f81b84838151811061136d5761136d6123b4565b60200101907effffffffffffffffffffffffffffffffffffffffffffffffffffffffffffff1916908160001a90535050600101611328565b50909392505050565b8051156114a0576001600160a01b0382166000908152600a6020526040902080546113d8906120fe565b90506000036114a05760006001600160a01b03166008826040516113fc9190612138565b908152604051908190036020019020546001600160a01b03161461146e576001600160a01b0382166000908152600a6020526040902061143c828261219b565b507fb3d2df42f150b9969069bbcb6cfe047d4255ba353ac2949608e81cea5790aa1a8282604051610b9992919061225a565b6040517f8214902100000000000000000000000000000000000000000000000000000000815260040160405180910390fd5b5050565b60055474010000000000000000000000000000000000000000900460ff166114f8576040517f717a164800000000000000000000000000000000000000000000000000000000815260040160405180910390fd5b61120584848484611841565b600580546001600160a01b038381167fffffffffffffffffffffffff0000000000000000000000000000000000000000831681179093556040519116919082907f8be0079c531659141344cd1fd0a4f28419497f9722a3daafe3b4186f6b6457e090600090a35050565b6005547501000000000000000000000000000000000000000000900460ff166115c3576040517f46ee9e3500000000000000000000000000000000000000000000000000000000815260040160405180910390fd5b6115d085858585856118c5565b5050505050565b60006116066115e583611985565b80156116015750600084806115fc576115fc6123ca565b868809115b151590565b6116118686866119b2565b610e5a91906122ab565b6001600160a01b03841661165e576040517fe602df0500000000000000000000000000000000000000000000000000000000815260006004820152602401610c62565b6001600160a01b0383166116a1576040517f94280d6200000000000000000000000000000000000000000000000000000000815260006004820152602401610c62565b6001600160a01b038085166000908152600160209081526040808320938716835292905220829055801561120557826001600160a01b0316846001600160a01b03167f8c5be1e5ebec7d5bd14f71427d1e84f3dd0314c0f7b2291e5b200ac8c7c3b9258460405161171491815260200190565b60405180910390a350505050565b60055477010000000000000000000000000000000000000000000000900460ff16801561177157506001600160a01b0382166000908152600a60205260409020805461176d906120fe565b1590505b156117a8576040517f9c591a2800000000000000000000000000000000000000000000000000000000815260040160405180910390fd5b6110f8838383611a6d565b60078054600091826117c4836123e0565b91905055508142443360075460405160200161181e9493929190938452602084019290925260601b7fffffffffffffffffffffffffffffffffffffffff000000000000000000000000166040830152605482015260740190565b6040516020818303038152906040528051906020012060001c61082a91906123fa565b61186d7f0000000000000000000000000000000000000000000000000000000000000000853085611bb0565b6118778382611c2c565b826001600160a01b0316846001600160a01b03167fdcbc1c05240f31ff3ad067ef1ee35ce4997762752e3a095284754544f4c709d78484604051611714929190918252602082015260400190565b826001600160a01b0316856001600160a01b0316146118e9576118e9838683611173565b6118f38382611c7b565b61191e7f00000000000000000000000000000000000000000000000000000000000000008584611cca565b826001600160a01b0316846001600160a01b0316866001600160a01b03167ffbde797d201c681b91056529119e0b02407c7bb96a4a2c75c01fc9667232c8db8585604051611976929190918252602082015260400190565b60405180910390a45050505050565b6000600282600381111561199b5761199b61240e565b6119a59190612424565b60ff166001149050919050565b60008383028160001985870982811083820303915050806000036119e9578382816119df576119df6123ca565b0492505050610984565b808411611a0057611a006003851502601118611cfb565b6000848688096000868103871696879004966002600389028118808a02820302808a02820302808a02820302808a02820302808a02820302808a02909103029181900381900460010186841190950394909402919094039290920491909117919091029150509392505050565b6001600160a01b038316611a98578060026000828254611a8d91906122ab565b90915550611b239050565b6001600160a01b03831660009081526020819052604090205481811015611b04576040517fe450d38c0000000000000000000000000000000000000000000000000000000081526001600160a01b03851660048201526024810182905260448101839052606401610c62565b6001600160a01b03841660009081526020819052604090209082900390555b6001600160a01b038216611b3f57600280548290039055611b5e565b6001600160a01b03821660009081526020819052604090208054820190555b816001600160a01b0316836001600160a01b03167fddf252ad1be2c89b69c2b068fc378daa952ba7f163c4a11628f55a4df523b3ef83604051611ba391815260200190565b60405180910390a3505050565b6040516001600160a01b0384811660248301528381166044830152606482018390526112059186918216906323b872dd906084015b604051602081830303815290604052915060e01b6020820180517bffffffffffffffffffffffffffffffffffffffffffffffffffffffff8381831617835250505050611d0d565b6001600160a01b038216611c6f576040517fec442f0500000000000000000000000000000000000000000000000000000000815260006004820152602401610c62565b6114a060008383611722565b6001600160a01b038216611cbe576040517f96c6fd1e00000000000000000000000000000000000000000000000000000000815260006004820152602401610c62565b6114a082600083611722565b6040516001600160a01b038381166024830152604482018390526110f891859182169063a9059cbb90606401611be5565b634e487b71600052806020526024601cfd5b600080602060008451602086016000885af180611d30576040513d6000823e3d81fd5b50506000513d91508115611d48578060011415611d55565b6001600160a01b0384163b155b15611205576040517f5274afe70000000000000000000000000000000000000000000000000000000081526001600160a01b0385166004820152602401610c62565b60005b83811015611db2578181015183820152602001611d9a565b50506000910152565b60008151808452611dd3816020860160208601611d97565b601f01601f19169290920160200192915050565b6020815260006109846020830184611dbb565b600060208284031215611e0c57600080fd5b5035919050565b80356001600160a01b0381168114611e2a57600080fd5b919050565b60008060408385031215611e4257600080fd5b611e4b83611e13565b946020939093013593505050565b600060208284031215611e6b57600080fd5b8135801515811461098457600080fd5b600080600060608486031215611e9057600080fd5b611e9984611e13565b9250611ea760208501611e13565b929592945050506040919091013590565b634e487b7160e01b600052604160045260246000fd5b600082601f830112611edf57600080fd5b813567ffffffffffffffff811115611ef957611ef9611eb8565b604051601f19603f601f19601f8501160116810181811067ffffffffffffffff82111715611f2957611f29611eb8565b604052818152838201602001851015611f4157600080fd5b816020850160208301376000918101602001919091529392505050565b600060208284031215611f7057600080fd5b813567ffffffffffffffff811115611f8757600080fd5b610c8484828501611ece565b600060208284031215611fa557600080fd5b61098482611e13565b60008060408385031215611fc157600080fd5b611fca83611e13565b9150602083013567ffffffffffffffff811115611fe657600080fd5b611ff285828601611ece565b9150509250929050565b6000806040838503121561200f57600080fd5b8235915061201f60208401611e13565b90509250929050565b60008060006060848603121561203d57600080fd5b8335925061204d60208501611e13565b9150604084013567ffffffffffffffff81111561206957600080fd5b61207586828701611ece565b9150509250925092565b60008060006060848603121561209457600080fd5b833592506120a460208501611e13565b91506120b260408501611e13565b90509250925092565b600080604083850312156120ce57600080fd5b6120d783611e13565b915061201f60208401611e13565b6000602082840312156120f757600080fd5b5051919050565b600181811c9082168061211257607f821691505b60208210810361213257634e487b7160e01b600052602260045260246000fd5b50919050565b6000825161214a818460208701611d97565b9190910192915050565b601f8211156110f857806000526020600020601f840160051c8101602085101561217b5750805b601f840160051c820191505b818110156115d05760008155600101612187565b815167ffffffffffffffff8111156121b5576121b5611eb8565b6121c9816121c384546120fe565b84612154565b6020601f8211600181146121fd57600083156121e55750848201515b600019600385901b1c1916600184901b1784556115d0565b600084815260208120601f198516915b8281101561222d578785015182556020948501946001909201910161220d565b508482101561224b5786840151600019600387901b60f8161c191681555b50505050600190811b01905550565b6001600160a01b0383168152604060208201526000610c846040830184611dbb565b634e487b7160e01b600052601160045260246000fd5b60ff818116838216019081111561082a5761082a61227c565b8082018082111561082a5761082a61227c565b6001815b60018411156122f9578085048111156122dd576122dd61227c565b60018416156122eb57908102905b60019390931c9280026122c2565b935093915050565b6000826123105750600161082a565b8161231d5750600061082a565b8160018114612333576002811461233d57612359565b600191505061082a565b60ff84111561234e5761234e61227c565b50506001821b61082a565b5060208310610133831016604e8410600b841016171561237c575081810a61082a565b61238960001984846122be565b806000190482111561239d5761239d61227c565b029392505050565b600061098460ff841683612301565b634e487b7160e01b600052603260045260246000fd5b634e487b7160e01b600052601260045260246000fd5b600060001982036123f3576123f361227c565b5060010190565b600082612409576124096123ca565b500690565b634e487b7160e01b600052602160045260246000fd5b600060ff831680612437576124376123ca565b8060ff8416069150509291505056fe4142434445464748494a4b4c4d4e4f505152535455565758595a3031323334353637383930313233343536373839a26469706673582212208752cf1c3561dd4a375ef298f1a6771bd9a9d51a6b2ab2911721ed84d5dd413764736f6c634300081c0033",
  "linkReferences": {},
  "deployedLinkReferences": {}
}