{
  "_format": "hh-sol-artifact-1",
  "contractName": "AcceleraPreDepositVault",
  "sourceName": "contracts/AcceleraPreDepositVault.sol",
  "abi": [
    {
      "inputs": [
        {
          "internalType": "address",
          "name": "initialOwner_",
          "type": "address"
        },
        {
          "internalType": "contract IERC20",
          "name": "asset_",
          "type": "address"
        },
        {
          "internalType": "string",
          "name": "name_",
          "type": "string"
        },
        {
          "internalType": "string",
          "name": "symbol_",
          "type": "string"
        }
      ],
      "stateMutability": "nonpayable",
      "type": "constructor"
    },
    {
      "inputs": [],
      "name": "AddressAlreadyHasReferralCode",
      "type": "error"
    },
    {
      "inputs": [],
      "name": "DepositsDisabled",
      "type": "error"
    },
    {
      "inputs": [
        {
          "internalType": "address",
          "name": "spender",
          "type": "address"
        },
        {
          "internalType": "uint256",
          "name": "allowance",
          "type": "uint256"
        },
        {
          "internalType": "uint256",
          "name": "needed",
          "type": "uint256"
        }
      ],
      "name": "ERC20InsufficientAllowance",
      "type": "error"
    },
    {
      "inputs": [
        {
          "internalType": "address",
          "name": "sender",
          "type": "address"
        },
        {
          "internalType": "uint256",
          "name": "balance",
          "type": "uint256"
        },
        {
          "internalType": "uint256",
          "name": "needed",
          "type": "uint256"
        }
      ],
      "name": "ERC20InsufficientBalance",
      "type": "error"
    },
    {
      "inputs": [
        {
          "internalType": "address",
          "name": "approver",
          "type": "address"
        }
      ],
      "name": "ERC20InvalidApprover",
      "type": "error"
    },
    {
      "inputs": [
        {
          "internalType": "address",
          "name": "receiver",
          "type": "address"
        }
      ],
      "name": "ERC20InvalidReceiver",
      "type": "error"
    },
    {
      "inputs": [
        {
          "internalType": "address",
          "name": "sender",
          "type": "address"
        }
      ],
      "name": "ERC20InvalidSender",
      "type": "error"
    },
    {
      "inputs": [
        {
          "internalType": "address",
          "name": "spender",
          "type": "address"
        }
      ],
      "name": "ERC20InvalidSpender",
      "type": "error"
    },
    {
      "inputs": [
        {
          "internalType": "address",
          "name": "receiver",
          "type": "address"
        },
        {
          "internalType": "uint256",
          "name": "assets",
          "type": "uint256"
        },
        {
          "internalType": "uint256",
          "name": "max",
          "type": "uint256"
        }
      ],
      "name": "ERC4626ExceededMaxDeposit",
      "type": "error"
    },
    {
      "inputs": [
        {
          "internalType": "address",
          "name": "receiver",
          "type": "address"
        },
        {
          "internalType": "uint256",
          "name": "shares",
          "type": "uint256"
        },
        {
          "internalType": "uint256",
          "name": "max",
          "type": "uint256"
        }
      ],
      "name": "ERC4626ExceededMaxMint",
      "type": "error"
    },
    {
      "inputs": [
        {
          "internalType": "address",
          "name": "owner",
          "type": "address"
        },
        {
          "internalType": "uint256",
          "name": "shares",
          "type": "uint256"
        },
        {
          "internalType": "uint256",
          "name": "max",
          "type": "uint256"
        }
      ],
      "name": "ERC4626ExceededMaxRedeem",
      "type": "error"
    },
    {
      "inputs": [
        {
          "internalType": "address",
          "name": "owner",
          "type": "address"
        },
        {
          "internalType": "uint256",
          "name": "assets",
          "type": "uint256"
        },
        {
          "internalType": "uint256",
          "name": "max",
          "type": "uint256"
        }
      ],
      "name": "ERC4626ExceededMaxWithdraw",
      "type": "error"
    },
    {
      "inputs": [
        {
          "internalType": "address",
          "name": "owner",
          "type": "address"
        }
      ],
      "name": "OwnableInvalidOwner",
      "type": "error"
    },
    {
      "inputs": [
        {
          "internalType": "address",
          "name": "account",
          "type": "address"
        }
      ],
      "name": "OwnableUnauthorizedAccount",
      "type": "error"
    },
    {
      "inputs": [],
      "name": "ReferralCodeAlreadyUsed",
      "type": "error"
    },
    {
      "inputs": [],
      "name": "ReferralCodeCreationDisabled",
      "type": "error"
    },
    {
      "inputs": [],
      "name": "ReferralCodeDoesNotExist",
      "type": "error"
    },
    {
      "inputs": [],
      "name": "ReferralCodeMandatory",
      "type": "error"
    },
    {
      "inputs": [
        {
          "internalType": "address",
          "name": "token",
          "type": "address"
        }
      ],
      "name": "SafeERC20FailedOperation",
      "type": "error"
    },
    {
      "inputs": [],
      "name": "WithdrawalsDisabled",
      "type": "error"
    },
    {
      "anonymous": false,
      "inputs": [
        {
          "indexed": true,
          "internalType": "address",
          "name": "owner",
          "type": "address"
        },
        {
          "indexed": true,
          "internalType": "address",
          "name": "spender",
          "type": "address"
        },
        {
          "indexed": false,
          "internalType": "uint256",
          "name": "value",
          "type": "uint256"
        }
      ],
      "name": "Approval",
      "type": "event"
    },
    {
      "anonymous": false,
      "inputs": [
        {
          "indexed": true,
          "internalType": "address",
          "name": "sender",
          "type": "address"
        },
        {
          "indexed": true,
          "internalType": "address",
          "name": "owner",
          "type": "address"
        },
        {
          "indexed": false,
          "internalType": "uint256",
          "name": "assets",
          "type": "uint256"
        },
        {
          "indexed": false,
          "internalType": "uint256",
          "name": "shares",
          "type": "uint256"
        }
      ],
      "name": "Deposit",
      "type": "event"
    },
    {
      "anonymous": false,
      "inputs": [
        {
          "indexed": false,
          "internalType": "bool",
          "name": "enabled",
          "type": "bool"
        }
      ],
      "name": "DepositsEnabled",
      "type": "event"
    },
    {
      "anonymous": false,
      "inputs": [
        {
          "indexed": true,
          "internalType": "address",
          "name": "previousOwner",
          "type": "address"
        },
        {
          "indexed": true,
          "internalType": "address",
          "name": "newOwner",
          "type": "address"
        }
      ],
      "name": "OwnershipTransferred",
      "type": "event"
    },
    {
      "anonymous": false,
      "inputs": [
        {
          "indexed": false,
          "internalType": "address",
          "name": "user",
          "type": "address"
        },
        {
          "indexed": false,
          "internalType": "string",
          "name": "code",
          "type": "string"
        }
      ],
      "name": "ReferralCodeCreated",
      "type": "event"
    },
    {
      "anonymous": false,
      "inputs": [
        {
          "indexed": false,
          "internalType": "bool",
          "name": "enabled",
          "type": "bool"
        }
      ],
      "name": "ReferralCodeCreationEnabled",
      "type": "event"
    },
    {
      "anonymous": false,
      "inputs": [
        {
          "indexed": false,
          "internalType": "bool",
          "name": "enabled",
          "type": "bool"
        }
      ],
      "name": "ReferralCodeMandatoryEnabled",
      "type": "event"
    },
    {
      "anonymous": false,
      "inputs": [
        {
          "indexed": false,
          "internalType": "address",
          "name": "user",
          "type": "address"
        },
        {
          "indexed": false,
          "internalType": "string",
          "name": "code",
          "type": "string"
        }
      ],
      "name": "ReferralCodeUsed",
      "type": "event"
    },
    {
      "anonymous": false,
      "inputs": [
        {
          "indexed": true,
          "internalType": "address",
          "name": "from",
          "type": "address"
        },
        {
          "indexed": true,
          "internalType": "address",
          "name": "to",
          "type": "address"
        },
        {
          "indexed": false,
          "internalType": "uint256",
          "name": "value",
          "type": "uint256"
        }
      ],
      "name": "Transfer",
      "type": "event"
    },
    {
      "anonymous": false,
      "inputs": [
        {
          "indexed": true,
          "internalType": "address",
          "name": "sender",
          "type": "address"
        },
        {
          "indexed": true,
          "internalType": "address",
          "name": "receiver",
          "type": "address"
        },
        {
          "indexed": true,
          "internalType": "address",
          "name": "owner",
          "type": "address"
        },
        {
          "indexed": false,
          "internalType": "uint256",
          "name": "assets",
          "type": "uint256"
        },
        {
          "indexed": false,
          "internalType": "uint256",
          "name": "shares",
          "type": "uint256"
        }
      ],
      "name": "Withdraw",
      "type": "event"
    },
    {
      "anonymous": false,
      "inputs": [
        {
          "indexed": false,
          "internalType": "bool",
          "name": "enabled",
          "type": "bool"
        }
      ],
      "name": "WithdrawalsEnabled",
      "type": "event"
    },
    {
      "inputs": [
        {
          "internalType": "address",
          "name": "owner",
          "type": "address"
        },
        {
          "internalType": "address",
          "name": "spender",
          "type": "address"
        }
      ],
      "name": "allowance",
      "outputs": [
        {
          "internalType": "uint256",
          "name": "",
          "type": "uint256"
        }
      ],
      "stateMutability": "view",
      "type": "function"
    },
    {
      "inputs": [
        {
          "internalType": "address",
          "name": "spender",
          "type": "address"
        },
        {
          "internalType": "uint256",
          "name": "value",
          "type": "uint256"
        }
      ],
      "name": "approve",
      "outputs": [
        {
          "internalType": "bool",
          "name": "",
          "type": "bool"
        }
      ],
      "stateMutability": "nonpayable",
      "type": "function"
    },
    {
      "inputs": [],
      "name": "asset",
      "outputs": [
        {
          "internalType": "address",
          "name": "",
          "type": "address"
        }
      ],
      "stateMutability": "view",
      "type": "function"
    },
    {
      "inputs": [
        {
          "internalType": "address",
          "name": "account",
          "type": "address"
        }
      ],
      "name": "balanceOf",
      "outputs": [
        {
          "internalType": "uint256",
          "name": "",
          "type": "uint256"
        }
      ],
      "stateMutability": "view",
      "type": "function"
    },
    {
      "inputs": [
        {
          "internalType": "uint256",
          "name": "shares",
          "type": "uint256"
        }
      ],
      "name": "convertToAssets",
      "outputs": [
        {
          "internalType": "uint256",
          "name": "",
          "type": "uint256"
        }
      ],
      "stateMutability": "view",
      "type": "function"
    },
    {
      "inputs": [
        {
          "internalType": "uint256",
          "name": "assets",
          "type": "uint256"
        }
      ],
      "name": "convertToShares",
      "outputs": [
        {
          "internalType": "uint256",
          "name": "",
          "type": "uint256"
        }
      ],
      "stateMutability": "view",
      "type": "function"
    },
    {
      "inputs": [],
      "name": "createReferralCode",
      "outputs": [],
      "stateMutability": "nonpayable",
      "type": "function"
    },
    {
      "inputs": [
        {
          "internalType": "address",
          "name": "user_",
          "type": "address"
        },
        {
          "internalType": "string",
          "name": "code_",
          "type": "string"
        }
      ],
      "name": "createReferralCodeOwner",
      "outputs": [],
      "stateMutability": "nonpayable",
      "type": "function"
    },
    {
      "inputs": [],
      "name": "decimals",
      "outputs": [
        {
          "internalType": "uint8",
          "name": "",
          "type": "uint8"
        }
      ],
      "stateMutability": "view",
      "type": "function"
    },
    {
      "inputs": [
        {
          "internalType": "uint256",
          "name": "assets",
          "type": "uint256"
        },
        {
          "internalType": "address",
          "name": "receiver",
          "type": "address"
        }
      ],
      "name": "deposit",
      "outputs": [
        {
          "internalType": "uint256",
          "name": "",
          "type": "uint256"
        }
      ],
      "stateMutability": "nonpayable",
      "type": "function"
    },
    {
      "inputs": [
        {
          "internalType": "uint256",
          "name": "assets",
          "type": "uint256"
        },
        {
          "internalType": "address",
          "name": "receiver",
          "type": "address"
        },
        {
          "internalType": "string",
          "name": "code_",
          "type": "string"
        }
      ],
      "name": "depositWithReferral",
      "outputs": [
        {
          "internalType": "uint256",
          "name": "",
          "type": "uint256"
        }
      ],
      "stateMutability": "nonpayable",
      "type": "function"
    },
    {
      "inputs": [],
      "name": "depositsEnabled",
      "outputs": [
        {
          "internalType": "bool",
          "name": "",
          "type": "bool"
        }
      ],
      "stateMutability": "view",
      "type": "function"
    },
    {
      "inputs": [
        {
          "internalType": "address",
          "name": "",
          "type": "address"
        }
      ],
      "name": "maxDeposit",
      "outputs": [
        {
          "internalType": "uint256",
          "name": "",
          "type": "uint256"
        }
      ],
      "stateMutability": "view",
      "type": "function"
    },
    {
      "inputs": [
        {
          "internalType": "address",
          "name": "",
          "type": "address"
        }
      ],
      "name": "maxMint",
      "outputs": [
        {
          "internalType": "uint256",
          "name": "",
          "type": "uint256"
        }
      ],
      "stateMutability": "view",
      "type": "function"
    },
    {
      "inputs": [
        {
          "internalType": "address",
          "name": "owner",
          "type": "address"
        }
      ],
      "name": "maxRedeem",
      "outputs": [
        {
          "internalType": "uint256",
          "name": "",
          "type": "uint256"
        }
      ],
      "stateMutability": "view",
      "type": "function"
    },
    {
      "inputs": [
        {
          "internalType": "address",
          "name": "owner",
          "type": "address"
        }
      ],
      "name": "maxWithdraw",
      "outputs": [
        {
          "internalType": "uint256",
          "name": "",
          "type": "uint256"
        }
      ],
      "stateMutability": "view",
      "type": "function"
    },
    {
      "inputs": [
        {
          "internalType": "uint256",
          "name": "shares",
          "type": "uint256"
        },
        {
          "internalType": "address",
          "name": "receiver",
          "type": "address"
        }
      ],
      "name": "mint",
      "outputs": [
        {
          "internalType": "uint256",
          "name": "",
          "type": "uint256"
        }
      ],
      "stateMutability": "nonpayable",
      "type": "function"
    },
    {
      "inputs": [],
      "name": "name",
      "outputs": [
        {
          "internalType": "string",
          "name": "",
          "type": "string"
        }
      ],
      "stateMutability": "view",
      "type": "function"
    },
    {
      "inputs": [],
      "name": "owner",
      "outputs": [
        {
          "internalType": "address",
          "name": "",
          "type": "address"
        }
      ],
      "stateMutability": "view",
      "type": "function"
    },
    {
      "inputs": [
        {
          "internalType": "address",
          "name": "",
          "type": "address"
        }
      ],
      "name": "ownerToReferralCode",
      "outputs": [
        {
          "internalType": "string",
          "name": "",
          "type": "string"
        }
      ],
      "stateMutability": "view",
      "type": "function"
    },
    {
      "inputs": [
        {
          "internalType": "uint256",
          "name": "assets",
          "type": "uint256"
        }
      ],
      "name": "previewDeposit",
      "outputs": [
        {
          "internalType": "uint256",
          "name": "",
          "type": "uint256"
        }
      ],
      "stateMutability": "view",
      "type": "function"
    },
    {
      "inputs": [
        {
          "internalType": "uint256",
          "name": "shares",
          "type": "uint256"
        }
      ],
      "name": "previewMint",
      "outputs": [
        {
          "internalType": "uint256",
          "name": "",
          "type": "uint256"
        }
      ],
      "stateMutability": "view",
      "type": "function"
    },
    {
      "inputs": [
        {
          "internalType": "uint256",
          "name": "shares",
          "type": "uint256"
        }
      ],
      "name": "previewRedeem",
      "outputs": [
        {
          "internalType": "uint256",
          "name": "",
          "type": "uint256"
        }
      ],
      "stateMutability": "view",
      "type": "function"
    },
    {
      "inputs": [
        {
          "internalType": "uint256",
          "name": "assets",
          "type": "uint256"
        }
      ],
      "name": "previewWithdraw",
      "outputs": [
        {
          "internalType": "uint256",
          "name": "",
          "type": "uint256"
        }
      ],
      "stateMutability": "view",
      "type": "function"
    },
    {
      "inputs": [
        {
          "internalType": "uint256",
          "name": "shares",
          "type": "uint256"
        },
        {
          "internalType": "address",
          "name": "receiver",
          "type": "address"
        },
        {
          "internalType": "address",
          "name": "owner",
          "type": "address"
        }
      ],
      "name": "redeem",
      "outputs": [
        {
          "internalType": "uint256",
          "name": "",
          "type": "uint256"
        }
      ],
      "stateMutability": "nonpayable",
      "type": "function"
    },
    {
      "inputs": [],
      "name": "referralCodeCreationEnabled",
      "outputs": [
        {
          "internalType": "bool",
          "name": "",
          "type": "bool"
        }
      ],
      "stateMutability": "view",
      "type": "function"
    },
    {
      "inputs": [],
      "name": "referralCodeMandatory",
      "outputs": [
        {
          "internalType": "bool",
          "name": "",
          "type": "bool"
        }
      ],
      "stateMutability": "view",
      "type": "function"
    },
    {
      "inputs": [
        {
          "internalType": "string",
          "name": "",
          "type": "string"
        }
      ],
      "name": "referralCodeToOwner",
      "outputs": [
        {
          "internalType": "address",
          "name": "",
          "type": "address"
        }
      ],
      "stateMutability": "view",
      "type": "function"
    },
    {
      "inputs": [],
      "name": "renounceOwnership",
      "outputs": [],
      "stateMutability": "nonpayable",
      "type": "function"
    },
    {
      "inputs": [
        {
          "internalType": "bool",
          "name": "depositsEnabled_",
          "type": "bool"
        }
      ],
      "name": "setDepositsEnabled",
      "outputs": [],
      "stateMutability": "nonpayable",
      "type": "function"
    },
    {
      "inputs": [
        {
          "internalType": "bool",
          "name": "referralCodeCreationEnabled_",
          "type": "bool"
        }
      ],
      "name": "setReferralCodeCreationEnabled",
      "outputs": [],
      "stateMutability": "nonpayable",
      "type": "function"
    },
    {
      "inputs": [
        {
          "internalType": "bool",
          "name": "referralCodeMandatory_",
          "type": "bool"
        }
      ],
      "name": "setReferralCodeMandatory",
      "outputs": [],
      "stateMutability": "nonpayable",
      "type": "function"
    },
    {
      "inputs": [
        {
          "internalType": "bool",
          "name": "withdrawalsEnabled_",
          "type": "bool"
        }
      ],
      "name": "setWithdrawalsEnabled",
      "outputs": [],
      "stateMutability": "nonpayable",
      "type": "function"
    },
    {
      "inputs": [],
      "name": "symbol",
      "outputs": [
        {
          "internalType": "string",
          "name": "",
          "type": "string"
        }
      ],
      "stateMutability": "view",
      "type": "function"
    },
    {
      "inputs": [],
      "name": "totalAssets",
      "outputs": [
        {
          "internalType": "uint256",
          "name": "",
          "type": "uint256"
        }
      ],
      "stateMutability": "view",
      "type": "function"
    },
    {
      "inputs": [],
      "name": "totalSupply",
      "outputs": [
        {
          "internalType": "uint256",
          "name": "",
          "type": "uint256"
        }
      ],
      "stateMutability": "view",
      "type": "function"
    },
    {
      "inputs": [
        {
          "internalType": "address",
          "name": "to",
          "type": "address"
        },
        {
          "internalType": "uint256",
          "name": "value",
          "type": "uint256"
        }
      ],
      "name": "transfer",
      "outputs": [
        {
          "internalType": "bool",
          "name": "",
          "type": "bool"
        }
      ],
      "stateMutability": "nonpayable",
      "type": "function"
    },
    {
      "inputs": [
        {
          "internalType": "address",
          "name": "from",
          "type": "address"
        },
        {
          "internalType": "address",
          "name": "to",
          "type": "address"
        },
        {
          "internalType": "uint256",
          "name": "value",
          "type": "uint256"
        }
      ],
      "name": "transferFrom",
      "outputs": [
        {
          "internalType": "bool",
          "name": "",
          "type": "bool"
        }
      ],
      "stateMutability": "nonpayable",
      "type": "function"
    },
    {
      "inputs": [
        {
          "internalType": "address",
          "name": "newOwner",
          "type": "address"
        }
      ],
      "name": "transferOwnership",
      "outputs": [],
      "stateMutability": "nonpayable",
      "type": "function"
    },
    {
      "inputs": [
        {
          "internalType": "string",
          "name": "code_",
          "type": "string"
        }
      ],
      "name": "useReferralCode",
      "outputs": [],
      "stateMutability": "nonpayable",
      "type": "function"
    },
    {
      "inputs": [
        {
          "internalType": "uint256",
          "name": "assets",
          "type": "uint256"
        },
        {
          "internalType": "address",
          "name": "receiver",
          "type": "address"
        },
        {
          "internalType": "address",
          "name": "owner",
          "type": "address"
        }
      ],
      "name": "withdraw",
      "outputs": [
        {
          "internalType": "uint256",
          "name": "",
          "type": "uint256"
        }
      ],
      "stateMutability": "nonpayable",
      "type": "function"
    },
    {
      "inputs": [],
      "name": "withdrawalsEnabled",
      "outputs": [
        {
          "internalType": "bool",
          "name": "",
          "type": "bool"
        }
      ],
      "stateMutability": "view",
      "type": "function"
    }
  ],
  "bytecode": "0x60c060405234801561001057600080fd5b5060405161288838038061288883398101604081905261002f916102e1565b83838383600361003f83826103fa565b50600461004c82826103fa565b505050600080610061836100d860201b60201c565b9150915081610071576012610073565b805b60ff1660a05250506001600160a01b0390811660805281166100af57604051631e4fbdf760e01b81526000600482015260240160405180910390fd5b6100b8816101b4565b50506005805461ffff60a01b191661010160a01b179055506104ed915050565b60408051600481526024810182526020810180516001600160e01b031663313ce56760e01b17905290516000918291829182916001600160a01b0387169161011f916104b8565b600060405180830381855afa9150503d806000811461015a576040519150601f19603f3d011682016040523d82523d6000602084013e61015f565b606091505b509150915081801561017357506020815110155b156101a75760008180602001905181019061018e91906104d4565b905060ff81116101a5576001969095509350505050565b505b5060009485945092505050565b600580546001600160a01b038381166001600160a01b0319831681179093556040519116919082907f8be0079c531659141344cd1fd0a4f28419497f9722a3daafe3b4186f6b6457e090600090a35050565b6001600160a01b038116811461021b57600080fd5b50565b634e487b7160e01b600052604160045260246000fd5b60005b8381101561024f578181015183820152602001610237565b50506000910152565b600082601f83011261026957600080fd5b81516001600160401b038111156102825761028261021e565b604051601f8201601f19908116603f011681016001600160401b03811182821017156102b0576102b061021e565b6040528181528382016020018510156102c857600080fd5b6102d9826020830160208701610234565b949350505050565b600080600080608085870312156102f757600080fd5b845161030281610206565b602086015190945061031381610206565b60408601519093506001600160401b0381111561032f57600080fd5b61033b87828801610258565b606087015190935090506001600160401b0381111561035957600080fd5b61036587828801610258565b91505092959194509250565b600181811c9082168061038557607f821691505b6020821081036103a557634e487b7160e01b600052602260045260246000fd5b50919050565b601f8211156103f557806000526020600020601f840160051c810160208510156103d25750805b601f840160051c820191505b818110156103f257600081556001016103de565b50505b505050565b81516001600160401b038111156104135761041361021e565b610427816104218454610371565b846103ab565b6020601f82116001811461045b57600083156104435750848201515b600019600385901b1c1916600184901b1784556103f2565b600084815260208120601f198516915b8281101561048b578785015182556020948501946001909201910161046b565b50848210156104a95786840151600019600387901b60f8161c191681555b50505050600190811b01905550565b600082516104ca818460208701610234565b9190910192915050565b6000602082840312156104e657600080fd5b5051919050565b60805160a0516123616105276000396000610b180152600081816103d6015281816106c2015281816116fd01526117af01526123616000f3fe608060405234801561001057600080fd5b50600436106102de5760003560e01c80638da5cb5b11610186578063ba087652116100e3578063d0dbcd2411610097578063ddc117ec11610071578063ddc117ec1461066b578063ef8b30f7146105d3578063f2fde38b1461067e57600080fd5b8063d0dbcd24146105f9578063d905777e1461061f578063dd62ed3e1461063257600080fd5b8063c63d75b6116100c8578063c63d75b61461040e578063c6e6f592146105d3578063ce96cb77146105e657600080fd5b8063ba0876521461058c578063bb33bd6c1461059f57600080fd5b80639f04586c1161013a578063a9059cbb1161011f578063a9059cbb14610553578063b3d7f6b914610566578063b460af941461057957600080fd5b80639f04586c1461052d5780639f68b5751461054057600080fd5b806394bf804d1161016b57806394bf804d146104ff57806394eaf06a1461051257806395d89b411461052557600080fd5b80638da5cb5b146104c65780638edf9647146104d757600080fd5b8063313ce5671161023f5780634cdad506116101f35780636e553f65116101cd5780636e553f651461048257806370a0823114610495578063715018a6146104be57600080fd5b80634cdad506146103135780635392fd1c1461043657806363a096631461045b57600080fd5b806338d52e0f1161022457806338d52e0f146103d4578063402d267d1461040e57806345b965001461042357600080fd5b8063313ce567146103a757806333a8433a146103c157600080fd5b80630a28a4771161029657806318160ddd1161027b57806318160ddd1461038457806323b872dd1461038c5780632e108d1c1461039f57600080fd5b80630a28a4771461035e5780630f65ba1e1461037157600080fd5b806307a2d13a116102c757806307a2d13a14610313578063095ea7b3146103265780630a1793271461034957600080fd5b806301e1d114146102e357806306fdde03146102fe575b600080fd5b6102eb610691565b6040519081526020015b60405180910390f35b61030661073a565b6040516102f59190611c9e565b6102eb610321366004611cb1565b6107cc565b610339610334366004611ce6565b6107df565b60405190151581526020016102f5565b61035c610357366004611d10565b6107f7565b005b6102eb61036c366004611cb1565b610884565b61035c61037f366004611d10565b610891565b6002546102eb565b61033961039a366004611d32565b610914565b61035c61093a565b6103af610b10565b60405160ff90911681526020016102f5565b61035c6103cf366004611e15565b610b3c565b7f00000000000000000000000000000000000000000000000000000000000000005b6040516001600160a01b0390911681526020016102f5565b6102eb61041c366004611e4a565b5060001990565b61035c610431366004611e65565b610b49565b6005546103399074010000000000000000000000000000000000000000900460ff1681565b60055461033990760100000000000000000000000000000000000000000000900460ff1681565b6102eb610490366004611eb3565b610b7f565b6102eb6104a3366004611e4a565b6001600160a01b031660009081526020819052604090205490565b61035c610bb3565b6005546001600160a01b03166103f6565b6005546103399077010000000000000000000000000000000000000000000000900460ff1681565b6102eb61050d366004611eb3565b610bc7565b61035c610520366004611d10565b610be5565b610306610c69565b61035c61053b366004611d10565b610c78565b6102eb61054e366004611edf565b610cf9565b610339610561366004611ce6565b610d1a565b6102eb610574366004611cb1565b610d28565b6102eb610587366004611f36565b610d35565b6102eb61059a366004611f36565b610db0565b6103f66105ad366004611e15565b80516020818301810180516007825292820191909301209152546001600160a01b031681565b6102eb6105e1366004611cb1565b610e2b565b6102eb6105f4366004611e4a565b610e38565b600554610339907501000000000000000000000000000000000000000000900460ff1681565b6102eb61062d366004611e4a565b610e5c565b6102eb610640366004611f72565b6001600160a01b03918216600090815260016020908152604080832093909416825291909152205490565b610306610679366004611e4a565b610e7a565b61035c61068c366004611e4a565b610f14565b6040517f70a082310000000000000000000000000000000000000000000000000000000081523060048201526000907f00000000000000000000000000000000000000000000000000000000000000006001600160a01b0316906370a0823190602401602060405180830381865afa158015610711573d6000803e3d6000fd5b505050506040513d601f19601f820116820180604052508101906107359190611f9c565b905090565b60606003805461074990611fb5565b80601f016020809104026020016040519081016040528092919081815260200182805461077590611fb5565b80156107c25780601f10610797576101008083540402835291602001916107c2565b820191906000526020600020905b8154815290600101906020018083116107a557829003601f168201915b5050505050905090565b60006107d9826000610f68565b92915050565b6000336107ed818585610fa2565b5060019392505050565b6107ff610fb4565b600580548215157501000000000000000000000000000000000000000000027fffffffffffffffffffff00ffffffffffffffffffffffffffffffffffffffffff9091161790556040517f45e7e6146471a396eb58b618e88efd46f5c95bd1815b282ed75c5220a559ab109061087990831515815260200190565b60405180910390a150565b60006107d9826001610ffa565b610899610fb4565b60058054821515760100000000000000000000000000000000000000000000027fffffffffffffffffff00ffffffffffffffffffffffffffffffffffffffffffff9091161790556040517f39d1e046657e0b945c1a67c1a65d784065b825ee87b8d5186c4b2de8dece17329061087990831515815260200190565b60003361092285828561102a565b61092d8585856110c2565b60019150505b9392505050565b600554760100000000000000000000000000000000000000000000900460ff16610990576040517fd96a9b5d00000000000000000000000000000000000000000000000000000000815260040160405180910390fd5b33600061099d6006611153565b905060006001600160a01b03166007826040516109ba9190611fef565b908152604051908190036020019020546001600160a01b031614610a0a576040517fe3ba090400000000000000000000000000000000000000000000000000000000815260040160405180910390fd5b6001600160a01b03821660009081526008602052604090208054610a2d90611fb5565b159050610a66576040517f61b8b41d00000000000000000000000000000000000000000000000000000000815260040160405180910390fd5b81600782604051610a779190611fef565b908152604080516020928190038301902080547fffffffffffffffffffffffff0000000000000000000000000000000000000000166001600160a01b039485161790559184166000908152600890915220610ad28282612052565b507fbbba1cab2093e26ee6b388fefb2109576871f9236f9c1f22779dad4b82093b7b8282604051610b04929190612111565b60405180910390a15050565b6000610735817f0000000000000000000000000000000000000000000000000000000000000000612149565b610b463382611265565b50565b610b51610fb4565b8051600003610b645761099d6006611153565b60006001600160a01b03166007826040516109ba9190611fef565b6000600019610b92565b60405180910390fd5b6000610b9d85610e2b565b9050610bab3385878461135b565b949350505050565b610bbb610fb4565b610bc560006113bb565b565b60006000196000610bd785610d28565b9050610bab3385838861135b565b610bed610fb4565b6005805482151577010000000000000000000000000000000000000000000000027fffffffffffffffff00ffffffffffffffffffffffffffffffffffffffffffffff9091161790556040517f02b87843702214172db05525009563411bd7a39a34f5a9bd7060558862b8b1a09061087990831515815260200190565b60606004805461074990611fb5565b610c80610fb4565b6005805482151574010000000000000000000000000000000000000000027fffffffffffffffffffffff00ffffffffffffffffffffffffffffffffffffffff9091161790556040517f7b014ed3854e7f5cb0218d58b3c6ae7d53a68bb0af2f67bfb029ea42c38a7e859061087990831515815260200190565b6000610d053383611265565b6000610d118585610b7f565b95945050505050565b6000336107ed8185856110c2565b60006107d9826001610f68565b600080610d4183610e38565b905080851115610d96576040517ffe9cceec0000000000000000000000000000000000000000000000000000000081526001600160a01b03841660048201526024810186905260448101829052606401610b89565b6000610da186610884565b9050610d113386868985611425565b600080610dbc83610e5c565b905080851115610e11576040517fb94abeec0000000000000000000000000000000000000000000000000000000081526001600160a01b03841660048201526024810186905260448101829052606401610b89565b6000610e1c866107cc565b9050610d11338686848a611425565b60006107d9826000610ffa565b6001600160a01b0381166000908152602081905260408120546107d9906000610f68565b6001600160a01b0381166000908152602081905260408120546107d9565b60086020526000908152604090208054610e9390611fb5565b80601f0160208091040260200160405190810160405280929190818152602001828054610ebf90611fb5565b8015610f0c5780601f10610ee157610100808354040283529160200191610f0c565b820191906000526020600020905b815481529060010190602001808311610eef57829003601f168201915b505050505081565b610f1c610fb4565b6001600160a01b038116610f5f576040517f1e4fbdf700000000000000000000000000000000000000000000000000000000815260006004820152602401610b89565b610b46816113bb565b6000610933610f75610691565b610f80906001612162565b610f8c6000600a61225c565b600254610f999190612162565b8591908561148e565b610faf83838360016114d2565b505050565b6005546001600160a01b03163314610bc5576040517f118cdaa7000000000000000000000000000000000000000000000000000000008152336004820152602401610b89565b600061093361100a82600a61225c565b6002546110179190612162565b61101f610691565b610f99906001612162565b6001600160a01b038381166000908152600160209081526040808320938616835292905220546000198110156110bc57818110156110ad576040517ffb8f41b20000000000000000000000000000000000000000000000000000000081526001600160a01b03841660048201526024810182905260448101839052606401610b89565b6110bc848484840360006114d2565b50505050565b6001600160a01b038316611105576040517f96c6fd1e00000000000000000000000000000000000000000000000000000000815260006004820152602401610b89565b6001600160a01b038216611148576040517fec442f0500000000000000000000000000000000000000000000000000000000815260006004820152602401610b89565b610faf8383836115d9565b606060008267ffffffffffffffff81111561117057611170611d6f565b6040519080825280601f01601f19166020018201604052801561119a576020820181803683370190505b5060408051602e80825260608201909252919250600091906020820181803683370190505090506040518060600160405280602e81526020016122fe602e9139905060005b8481101561125c5760006111f3602e61166a565b90508281815181106112075761120761226b565b602001015160f81c60f81b8483815181106112245761122461226b565b60200101907effffffffffffffffffffffffffffffffffffffffffffffffffffffffffffff1916908160001a905350506001016111df565b50909392505050565b805115611357576001600160a01b0382166000908152600960205260409020805461128f90611fb5565b90506000036113575760006001600160a01b03166007826040516112b39190611fef565b908152604051908190036020019020546001600160a01b031614611325576001600160a01b03821660009081526009602052604090206112f38282612052565b507fb3d2df42f150b9969069bbcb6cfe047d4255ba353ac2949608e81cea5790aa1a8282604051610b04929190612111565b6040517f8214902100000000000000000000000000000000000000000000000000000000815260040160405180910390fd5b5050565b60055474010000000000000000000000000000000000000000900460ff166113af576040517f717a164800000000000000000000000000000000000000000000000000000000815260040160405180910390fd5b6110bc848484846116f8565b600580546001600160a01b038381167fffffffffffffffffffffffff0000000000000000000000000000000000000000831681179093556040519116919082907f8be0079c531659141344cd1fd0a4f28419497f9722a3daafe3b4186f6b6457e090600090a35050565b6005547501000000000000000000000000000000000000000000900460ff1661147a576040517f46ee9e3500000000000000000000000000000000000000000000000000000000815260040160405180910390fd5b611487858585858561177c565b5050505050565b60006114bd61149c8361183c565b80156114b85750600084806114b3576114b3612281565b868809115b151590565b6114c8868686611869565b610d119190612162565b6001600160a01b038416611515576040517fe602df0500000000000000000000000000000000000000000000000000000000815260006004820152602401610b89565b6001600160a01b038316611558576040517f94280d6200000000000000000000000000000000000000000000000000000000815260006004820152602401610b89565b6001600160a01b03808516600090815260016020908152604080832093871683529290522082905580156110bc57826001600160a01b0316846001600160a01b03167f8c5be1e5ebec7d5bd14f71427d1e84f3dd0314c0f7b2291e5b200ac8c7c3b925846040516115cb91815260200190565b60405180910390a350505050565b60055477010000000000000000000000000000000000000000000000900460ff16801561162857506001600160a01b0382166000908152600960205260409020805461162490611fb5565b1590505b1561165f576040517f9c591a2800000000000000000000000000000000000000000000000000000000815260040160405180910390fd5b610faf838383611924565b600680546000918261167b83612297565b9190505550814244336006546040516020016116d59493929190938452602084019290925260601b7fffffffffffffffffffffffffffffffffffffffff000000000000000000000000166040830152605482015260740190565b6040516020818303038152906040528051906020012060001c6107d991906122b1565b6117247f0000000000000000000000000000000000000000000000000000000000000000853085611a67565b61172e8382611ae3565b826001600160a01b0316846001600160a01b03167fdcbc1c05240f31ff3ad067ef1ee35ce4997762752e3a095284754544f4c709d784846040516115cb929190918252602082015260400190565b826001600160a01b0316856001600160a01b0316146117a0576117a083868361102a565b6117aa8382611b32565b6117d57f00000000000000000000000000000000000000000000000000000000000000008584611b81565b826001600160a01b0316846001600160a01b0316866001600160a01b03167ffbde797d201c681b91056529119e0b02407c7bb96a4a2c75c01fc9667232c8db858560405161182d929190918252602082015260400190565b60405180910390a45050505050565b60006002826003811115611852576118526122c5565b61185c91906122db565b60ff166001149050919050565b60008383028160001985870982811083820303915050806000036118a05783828161189657611896612281565b0492505050610933565b8084116118b7576118b76003851502601118611bb2565b6000848688096000868103871696879004966002600389028118808a02820302808a02820302808a02820302808a02820302808a02820302808a02909103029181900381900460010186841190950394909402919094039290920491909117919091029150509392505050565b6001600160a01b03831661194f5780600260008282546119449190612162565b909155506119da9050565b6001600160a01b038316600090815260208190526040902054818110156119bb576040517fe450d38c0000000000000000000000000000000000000000000000000000000081526001600160a01b03851660048201526024810182905260448101839052606401610b89565b6001600160a01b03841660009081526020819052604090209082900390555b6001600160a01b0382166119f657600280548290039055611a15565b6001600160a01b03821660009081526020819052604090208054820190555b816001600160a01b0316836001600160a01b03167fddf252ad1be2c89b69c2b068fc378daa952ba7f163c4a11628f55a4df523b3ef83604051611a5a91815260200190565b60405180910390a3505050565b6040516001600160a01b0384811660248301528381166044830152606482018390526110bc9186918216906323b872dd906084015b604051602081830303815290604052915060e01b6020820180517bffffffffffffffffffffffffffffffffffffffffffffffffffffffff8381831617835250505050611bc4565b6001600160a01b038216611b26576040517fec442f0500000000000000000000000000000000000000000000000000000000815260006004820152602401610b89565b611357600083836115d9565b6001600160a01b038216611b75576040517f96c6fd1e00000000000000000000000000000000000000000000000000000000815260006004820152602401610b89565b611357826000836115d9565b6040516001600160a01b03838116602483015260448201839052610faf91859182169063a9059cbb90606401611a9c565b634e487b71600052806020526024601cfd5b600080602060008451602086016000885af180611be7576040513d6000823e3d81fd5b50506000513d91508115611bff578060011415611c0c565b6001600160a01b0384163b155b156110bc576040517f5274afe70000000000000000000000000000000000000000000000000000000081526001600160a01b0385166004820152602401610b89565b60005b83811015611c69578181015183820152602001611c51565b50506000910152565b60008151808452611c8a816020860160208601611c4e565b601f01601f19169290920160200192915050565b6020815260006109336020830184611c72565b600060208284031215611cc357600080fd5b5035919050565b80356001600160a01b0381168114611ce157600080fd5b919050565b60008060408385031215611cf957600080fd5b611d0283611cca565b946020939093013593505050565b600060208284031215611d2257600080fd5b8135801515811461093357600080fd5b600080600060608486031215611d4757600080fd5b611d5084611cca565b9250611d5e60208501611cca565b929592945050506040919091013590565b634e487b7160e01b600052604160045260246000fd5b600082601f830112611d9657600080fd5b813567ffffffffffffffff811115611db057611db0611d6f565b604051601f19603f601f19601f8501160116810181811067ffffffffffffffff82111715611de057611de0611d6f565b604052818152838201602001851015611df857600080fd5b816020850160208301376000918101602001919091529392505050565b600060208284031215611e2757600080fd5b813567ffffffffffffffff811115611e3e57600080fd5b610bab84828501611d85565b600060208284031215611e5c57600080fd5b61093382611cca565b60008060408385031215611e7857600080fd5b611e8183611cca565b9150602083013567ffffffffffffffff811115611e9d57600080fd5b611ea985828601611d85565b9150509250929050565b60008060408385031215611ec657600080fd5b82359150611ed660208401611cca565b90509250929050565b600080600060608486031215611ef457600080fd5b83359250611f0460208501611cca565b9150604084013567ffffffffffffffff811115611f2057600080fd5b611f2c86828701611d85565b9150509250925092565b600080600060608486031215611f4b57600080fd5b83359250611f5b60208501611cca565b9150611f6960408501611cca565b90509250925092565b60008060408385031215611f8557600080fd5b611f8e83611cca565b9150611ed660208401611cca565b600060208284031215611fae57600080fd5b5051919050565b600181811c90821680611fc957607f821691505b602082108103611fe957634e487b7160e01b600052602260045260246000fd5b50919050565b60008251612001818460208701611c4e565b9190910192915050565b601f821115610faf57806000526020600020601f840160051c810160208510156120325750805b601f840160051c820191505b81811015611487576000815560010161203e565b815167ffffffffffffffff81111561206c5761206c611d6f565b6120808161207a8454611fb5565b8461200b565b6020601f8211600181146120b4576000831561209c5750848201515b600019600385901b1c1916600184901b178455611487565b600084815260208120601f198516915b828110156120e457878501518255602094850194600190920191016120c4565b50848210156121025786840151600019600387901b60f8161c191681555b50505050600190811b01905550565b6001600160a01b0383168152604060208201526000610bab6040830184611c72565b634e487b7160e01b600052601160045260246000fd5b60ff81811683821601908111156107d9576107d9612133565b808201808211156107d9576107d9612133565b6001815b60018411156121b05780850481111561219457612194612133565b60018416156121a257908102905b60019390931c928002612179565b935093915050565b6000826121c7575060016107d9565b816121d4575060006107d9565b81600181146121ea57600281146121f457612210565b60019150506107d9565b60ff84111561220557612205612133565b50506001821b6107d9565b5060208310610133831016604e8410600b8410161715612233575081810a6107d9565b6122406000198484612175565b806000190482111561225457612254612133565b029392505050565b600061093360ff8416836121b8565b634e487b7160e01b600052603260045260246000fd5b634e487b7160e01b600052601260045260246000fd5b600060001982036122aa576122aa612133565b5060010190565b6000826122c0576122c0612281565b500690565b634e487b7160e01b600052602160045260246000fd5b600060ff8316806122ee576122ee612281565b8060ff8416069150509291505056fe4142434445464748494a4b4c4d4e4f505152535455565758595a3031323334353637383930313233343536373839a2646970667358221220800946817783c2d3be1652c069823f577b0716b03d750273ef55491108a4174364736f6c634300081c0033",
  "linkReferences": {},
  "deployedLinkReferences": {}
}