{
  "_format": "hh-sol-artifact-1",
  "contractName": "AcceleraPreDepositVault",
  "sourceName": "contracts/AcceleraPreDepositVault.sol",
  "abi": [
    {
      "inputs": [
        {
          "internalType": "address",
          "name": "initialOwner_",
          "type": "address"
        },
        {
          "internalType": "contract IERC20",
          "name": "asset_",
          "type": "address"
        },
        {
          "internalType": "string",
          "name": "name_",
          "type": "string"
        },
        {
          "internalType": "string",
          "name": "symbol_",
          "type": "string"
        }
      ],
      "stateMutability": "nonpayable",
      "type": "constructor"
    },
    {
      "inputs": [],
      "name": "AddressAlreadyHasReferralCode",
      "type": "error"
    },
    {
      "inputs": [],
      "name": "DepositsDisabled",
      "type": "error"
    },
    {
      "inputs": [
        {
          "internalType": "address",
          "name": "spender",
          "type": "address"
        },
        {
          "internalType": "uint256",
          "name": "allowance",
          "type": "uint256"
        },
        {
          "internalType": "uint256",
          "name": "needed",
          "type": "uint256"
        }
      ],
      "name": "ERC20InsufficientAllowance",
      "type": "error"
    },
    {
      "inputs": [
        {
          "internalType": "address",
          "name": "sender",
          "type": "address"
        },
        {
          "internalType": "uint256",
          "name": "balance",
          "type": "uint256"
        },
        {
          "internalType": "uint256",
          "name": "needed",
          "type": "uint256"
        }
      ],
      "name": "ERC20InsufficientBalance",
      "type": "error"
    },
    {
      "inputs": [
        {
          "internalType": "address",
          "name": "approver",
          "type": "address"
        }
      ],
      "name": "ERC20InvalidApprover",
      "type": "error"
    },
    {
      "inputs": [
        {
          "internalType": "address",
          "name": "receiver",
          "type": "address"
        }
      ],
      "name": "ERC20InvalidReceiver",
      "type": "error"
    },
    {
      "inputs": [
        {
          "internalType": "address",
          "name": "sender",
          "type": "address"
        }
      ],
      "name": "ERC20InvalidSender",
      "type": "error"
    },
    {
      "inputs": [
        {
          "internalType": "address",
          "name": "spender",
          "type": "address"
        }
      ],
      "name": "ERC20InvalidSpender",
      "type": "error"
    },
    {
      "inputs": [
        {
          "internalType": "address",
          "name": "receiver",
          "type": "address"
        },
        {
          "internalType": "uint256",
          "name": "assets",
          "type": "uint256"
        },
        {
          "internalType": "uint256",
          "name": "max",
          "type": "uint256"
        }
      ],
      "name": "ERC4626ExceededMaxDeposit",
      "type": "error"
    },
    {
      "inputs": [
        {
          "internalType": "address",
          "name": "receiver",
          "type": "address"
        },
        {
          "internalType": "uint256",
          "name": "shares",
          "type": "uint256"
        },
        {
          "internalType": "uint256",
          "name": "max",
          "type": "uint256"
        }
      ],
      "name": "ERC4626ExceededMaxMint",
      "type": "error"
    },
    {
      "inputs": [
        {
          "internalType": "address",
          "name": "owner",
          "type": "address"
        },
        {
          "internalType": "uint256",
          "name": "shares",
          "type": "uint256"
        },
        {
          "internalType": "uint256",
          "name": "max",
          "type": "uint256"
        }
      ],
      "name": "ERC4626ExceededMaxRedeem",
      "type": "error"
    },
    {
      "inputs": [
        {
          "internalType": "address",
          "name": "owner",
          "type": "address"
        },
        {
          "internalType": "uint256",
          "name": "assets",
          "type": "uint256"
        },
        {
          "internalType": "uint256",
          "name": "max",
          "type": "uint256"
        }
      ],
      "name": "ERC4626ExceededMaxWithdraw",
      "type": "error"
    },
    {
      "inputs": [
        {
          "internalType": "address",
          "name": "owner",
          "type": "address"
        }
      ],
      "name": "OwnableInvalidOwner",
      "type": "error"
    },
    {
      "inputs": [
        {
          "internalType": "address",
          "name": "account",
          "type": "address"
        }
      ],
      "name": "OwnableUnauthorizedAccount",
      "type": "error"
    },
    {
      "inputs": [],
      "name": "ReferralCodeAlreadyUsed",
      "type": "error"
    },
    {
      "inputs": [],
      "name": "ReferralCodeCreationDisabled",
      "type": "error"
    },
    {
      "inputs": [],
      "name": "ReferralCodeDoesNotExist",
      "type": "error"
    },
    {
      "inputs": [],
      "name": "ReferralCodeMandatory",
      "type": "error"
    },
    {
      "inputs": [
        {
          "internalType": "address",
          "name": "token",
          "type": "address"
        }
      ],
      "name": "SafeERC20FailedOperation",
      "type": "error"
    },
    {
      "inputs": [],
      "name": "WithdrawalsDisabled",
      "type": "error"
    },
    {
      "anonymous": false,
      "inputs": [
        {
          "indexed": true,
          "internalType": "address",
          "name": "owner",
          "type": "address"
        },
        {
          "indexed": true,
          "internalType": "address",
          "name": "spender",
          "type": "address"
        },
        {
          "indexed": false,
          "internalType": "uint256",
          "name": "value",
          "type": "uint256"
        }
      ],
      "name": "Approval",
      "type": "event"
    },
    {
      "anonymous": false,
      "inputs": [
        {
          "indexed": true,
          "internalType": "address",
          "name": "sender",
          "type": "address"
        },
        {
          "indexed": true,
          "internalType": "address",
          "name": "owner",
          "type": "address"
        },
        {
          "indexed": false,
          "internalType": "uint256",
          "name": "assets",
          "type": "uint256"
        },
        {
          "indexed": false,
          "internalType": "uint256",
          "name": "shares",
          "type": "uint256"
        }
      ],
      "name": "Deposit",
      "type": "event"
    },
    {
      "anonymous": false,
      "inputs": [
        {
          "indexed": false,
          "internalType": "bool",
          "name": "enabled",
          "type": "bool"
        }
      ],
      "name": "DepositsEnabled",
      "type": "event"
    },
    {
      "anonymous": false,
      "inputs": [
        {
          "indexed": true,
          "internalType": "address",
          "name": "previousOwner",
          "type": "address"
        },
        {
          "indexed": true,
          "internalType": "address",
          "name": "newOwner",
          "type": "address"
        }
      ],
      "name": "OwnershipTransferred",
      "type": "event"
    },
    {
      "anonymous": false,
      "inputs": [
        {
          "indexed": false,
          "internalType": "address",
          "name": "user",
          "type": "address"
        },
        {
          "indexed": false,
          "internalType": "string",
          "name": "code",
          "type": "string"
        }
      ],
      "name": "ReferralCodeCreated",
      "type": "event"
    },
    {
      "anonymous": false,
      "inputs": [
        {
          "indexed": false,
          "internalType": "bool",
          "name": "enabled",
          "type": "bool"
        }
      ],
      "name": "ReferralCodeCreationEnabled",
      "type": "event"
    },
    {
      "anonymous": false,
      "inputs": [
        {
          "indexed": false,
          "internalType": "bool",
          "name": "enabled",
          "type": "bool"
        }
      ],
      "name": "ReferralCodeMandatoryEnabled",
      "type": "event"
    },
    {
      "anonymous": false,
      "inputs": [
        {
          "indexed": false,
          "internalType": "address",
          "name": "user",
          "type": "address"
        },
        {
          "indexed": false,
          "internalType": "string",
          "name": "code",
          "type": "string"
        }
      ],
      "name": "ReferralCodeUsed",
      "type": "event"
    },
    {
      "anonymous": false,
      "inputs": [
        {
          "indexed": true,
          "internalType": "address",
          "name": "from",
          "type": "address"
        },
        {
          "indexed": true,
          "internalType": "address",
          "name": "to",
          "type": "address"
        },
        {
          "indexed": false,
          "internalType": "uint256",
          "name": "value",
          "type": "uint256"
        }
      ],
      "name": "Transfer",
      "type": "event"
    },
    {
      "anonymous": false,
      "inputs": [
        {
          "indexed": true,
          "internalType": "address",
          "name": "sender",
          "type": "address"
        },
        {
          "indexed": true,
          "internalType": "address",
          "name": "receiver",
          "type": "address"
        },
        {
          "indexed": true,
          "internalType": "address",
          "name": "owner",
          "type": "address"
        },
        {
          "indexed": false,
          "internalType": "uint256",
          "name": "assets",
          "type": "uint256"
        },
        {
          "indexed": false,
          "internalType": "uint256",
          "name": "shares",
          "type": "uint256"
        }
      ],
      "name": "Withdraw",
      "type": "event"
    },
    {
      "anonymous": false,
      "inputs": [
        {
          "indexed": false,
          "internalType": "bool",
          "name": "enabled",
          "type": "bool"
        }
      ],
      "name": "WithdrawalsEnabled",
      "type": "event"
    },
    {
      "inputs": [
        {
          "internalType": "address",
          "name": "owner",
          "type": "address"
        },
        {
          "internalType": "address",
          "name": "spender",
          "type": "address"
        }
      ],
      "name": "allowance",
      "outputs": [
        {
          "internalType": "uint256",
          "name": "",
          "type": "uint256"
        }
      ],
      "stateMutability": "view",
      "type": "function"
    },
    {
      "inputs": [
        {
          "internalType": "address",
          "name": "spender",
          "type": "address"
        },
        {
          "internalType": "uint256",
          "name": "value",
          "type": "uint256"
        }
      ],
      "name": "approve",
      "outputs": [
        {
          "internalType": "bool",
          "name": "",
          "type": "bool"
        }
      ],
      "stateMutability": "nonpayable",
      "type": "function"
    },
    {
      "inputs": [],
      "name": "asset",
      "outputs": [
        {
          "internalType": "address",
          "name": "",
          "type": "address"
        }
      ],
      "stateMutability": "view",
      "type": "function"
    },
    {
      "inputs": [
        {
          "internalType": "address",
          "name": "account",
          "type": "address"
        }
      ],
      "name": "balanceOf",
      "outputs": [
        {
          "internalType": "uint256",
          "name": "",
          "type": "uint256"
        }
      ],
      "stateMutability": "view",
      "type": "function"
    },
    {
      "inputs": [
        {
          "internalType": "uint256",
          "name": "shares",
          "type": "uint256"
        }
      ],
      "name": "convertToAssets",
      "outputs": [
        {
          "internalType": "uint256",
          "name": "",
          "type": "uint256"
        }
      ],
      "stateMutability": "view",
      "type": "function"
    },
    {
      "inputs": [
        {
          "internalType": "uint256",
          "name": "assets",
          "type": "uint256"
        }
      ],
      "name": "convertToShares",
      "outputs": [
        {
          "internalType": "uint256",
          "name": "",
          "type": "uint256"
        }
      ],
      "stateMutability": "view",
      "type": "function"
    },
    {
      "inputs": [],
      "name": "createReferralCode",
      "outputs": [],
      "stateMutability": "nonpayable",
      "type": "function"
    },
    {
      "inputs": [
        {
          "internalType": "address",
          "name": "user_",
          "type": "address"
        },
        {
          "internalType": "string",
          "name": "code_",
          "type": "string"
        }
      ],
      "name": "createReferralCodeOwner",
      "outputs": [],
      "stateMutability": "nonpayable",
      "type": "function"
    },
    {
      "inputs": [],
      "name": "decimals",
      "outputs": [
        {
          "internalType": "uint8",
          "name": "",
          "type": "uint8"
        }
      ],
      "stateMutability": "view",
      "type": "function"
    },
    {
      "inputs": [
        {
          "internalType": "uint256",
          "name": "assets",
          "type": "uint256"
        },
        {
          "internalType": "address",
          "name": "receiver",
          "type": "address"
        }
      ],
      "name": "deposit",
      "outputs": [
        {
          "internalType": "uint256",
          "name": "",
          "type": "uint256"
        }
      ],
      "stateMutability": "nonpayable",
      "type": "function"
    },
    {
      "inputs": [
        {
          "internalType": "uint256",
          "name": "assets",
          "type": "uint256"
        },
        {
          "internalType": "address",
          "name": "receiver",
          "type": "address"
        },
        {
          "internalType": "string",
          "name": "code_",
          "type": "string"
        }
      ],
      "name": "depositWithReferral",
      "outputs": [
        {
          "internalType": "uint256",
          "name": "",
          "type": "uint256"
        }
      ],
      "stateMutability": "nonpayable",
      "type": "function"
    },
    {
      "inputs": [],
      "name": "depositsEnabled",
      "outputs": [
        {
          "internalType": "bool",
          "name": "",
          "type": "bool"
        }
      ],
      "stateMutability": "view",
      "type": "function"
    },
    {
      "inputs": [
        {
          "internalType": "address",
          "name": "",
          "type": "address"
        }
      ],
      "name": "maxDeposit",
      "outputs": [
        {
          "internalType": "uint256",
          "name": "",
          "type": "uint256"
        }
      ],
      "stateMutability": "view",
      "type": "function"
    },
    {
      "inputs": [
        {
          "internalType": "address",
          "name": "",
          "type": "address"
        }
      ],
      "name": "maxMint",
      "outputs": [
        {
          "internalType": "uint256",
          "name": "",
          "type": "uint256"
        }
      ],
      "stateMutability": "view",
      "type": "function"
    },
    {
      "inputs": [
        {
          "internalType": "address",
          "name": "owner",
          "type": "address"
        }
      ],
      "name": "maxRedeem",
      "outputs": [
        {
          "internalType": "uint256",
          "name": "",
          "type": "uint256"
        }
      ],
      "stateMutability": "view",
      "type": "function"
    },
    {
      "inputs": [
        {
          "internalType": "address",
          "name": "owner",
          "type": "address"
        }
      ],
      "name": "maxWithdraw",
      "outputs": [
        {
          "internalType": "uint256",
          "name": "",
          "type": "uint256"
        }
      ],
      "stateMutability": "view",
      "type": "function"
    },
    {
      "inputs": [
        {
          "internalType": "uint256",
          "name": "shares",
          "type": "uint256"
        },
        {
          "internalType": "address",
          "name": "receiver",
          "type": "address"
        }
      ],
      "name": "mint",
      "outputs": [
        {
          "internalType": "uint256",
          "name": "",
          "type": "uint256"
        }
      ],
      "stateMutability": "nonpayable",
      "type": "function"
    },
    {
      "inputs": [],
      "name": "name",
      "outputs": [
        {
          "internalType": "string",
          "name": "",
          "type": "string"
        }
      ],
      "stateMutability": "view",
      "type": "function"
    },
    {
      "inputs": [],
      "name": "owner",
      "outputs": [
        {
          "internalType": "address",
          "name": "",
          "type": "address"
        }
      ],
      "stateMutability": "view",
      "type": "function"
    },
    {
      "inputs": [
        {
          "internalType": "address",
          "name": "",
          "type": "address"
        }
      ],
      "name": "ownerToReferralCode",
      "outputs": [
        {
          "internalType": "string",
          "name": "",
          "type": "string"
        }
      ],
      "stateMutability": "view",
      "type": "function"
    },
    {
      "inputs": [
        {
          "internalType": "uint256",
          "name": "assets",
          "type": "uint256"
        }
      ],
      "name": "previewDeposit",
      "outputs": [
        {
          "internalType": "uint256",
          "name": "",
          "type": "uint256"
        }
      ],
      "stateMutability": "view",
      "type": "function"
    },
    {
      "inputs": [
        {
          "internalType": "uint256",
          "name": "shares",
          "type": "uint256"
        }
      ],
      "name": "previewMint",
      "outputs": [
        {
          "internalType": "uint256",
          "name": "",
          "type": "uint256"
        }
      ],
      "stateMutability": "view",
      "type": "function"
    },
    {
      "inputs": [
        {
          "internalType": "uint256",
          "name": "shares",
          "type": "uint256"
        }
      ],
      "name": "previewRedeem",
      "outputs": [
        {
          "internalType": "uint256",
          "name": "",
          "type": "uint256"
        }
      ],
      "stateMutability": "view",
      "type": "function"
    },
    {
      "inputs": [
        {
          "internalType": "uint256",
          "name": "assets",
          "type": "uint256"
        }
      ],
      "name": "previewWithdraw",
      "outputs": [
        {
          "internalType": "uint256",
          "name": "",
          "type": "uint256"
        }
      ],
      "stateMutability": "view",
      "type": "function"
    },
    {
      "inputs": [
        {
          "internalType": "uint256",
          "name": "shares",
          "type": "uint256"
        },
        {
          "internalType": "address",
          "name": "receiver",
          "type": "address"
        },
        {
          "internalType": "address",
          "name": "owner",
          "type": "address"
        }
      ],
      "name": "redeem",
      "outputs": [
        {
          "internalType": "uint256",
          "name": "",
          "type": "uint256"
        }
      ],
      "stateMutability": "nonpayable",
      "type": "function"
    },
    {
      "inputs": [],
      "name": "referralCodeCreationEnabled",
      "outputs": [
        {
          "internalType": "bool",
          "name": "",
          "type": "bool"
        }
      ],
      "stateMutability": "view",
      "type": "function"
    },
    {
      "inputs": [],
      "name": "referralCodeMandatory",
      "outputs": [
        {
          "internalType": "bool",
          "name": "",
          "type": "bool"
        }
      ],
      "stateMutability": "view",
      "type": "function"
    },
    {
      "inputs": [
        {
          "internalType": "string",
          "name": "",
          "type": "string"
        }
      ],
      "name": "referralCodeToOwner",
      "outputs": [
        {
          "internalType": "address",
          "name": "",
          "type": "address"
        }
      ],
      "stateMutability": "view",
      "type": "function"
    },
    {
      "inputs": [],
      "name": "renounceOwnership",
      "outputs": [],
      "stateMutability": "nonpayable",
      "type": "function"
    },
    {
      "inputs": [
        {
          "internalType": "bool",
          "name": "depositsEnabled_",
          "type": "bool"
        }
      ],
      "name": "setDepositsEnabled",
      "outputs": [],
      "stateMutability": "nonpayable",
      "type": "function"
    },
    {
      "inputs": [
        {
          "internalType": "bool",
          "name": "referralCodeCreationEnabled_",
          "type": "bool"
        }
      ],
      "name": "setReferralCodeCreationEnabled",
      "outputs": [],
      "stateMutability": "nonpayable",
      "type": "function"
    },
    {
      "inputs": [
        {
          "internalType": "bool",
          "name": "referralCodeMandatory_",
          "type": "bool"
        }
      ],
      "name": "setReferralCodeMandatory",
      "outputs": [],
      "stateMutability": "nonpayable",
      "type": "function"
    },
    {
      "inputs": [
        {
          "internalType": "bool",
          "name": "withdrawalsEnabled_",
          "type": "bool"
        }
      ],
      "name": "setWithdrawalsEnabled",
      "outputs": [],
      "stateMutability": "nonpayable",
      "type": "function"
    },
    {
      "inputs": [],
      "name": "symbol",
      "outputs": [
        {
          "internalType": "string",
          "name": "",
          "type": "string"
        }
      ],
      "stateMutability": "view",
      "type": "function"
    },
    {
      "inputs": [],
      "name": "totalAssets",
      "outputs": [
        {
          "internalType": "uint256",
          "name": "",
          "type": "uint256"
        }
      ],
      "stateMutability": "view",
      "type": "function"
    },
    {
      "inputs": [],
      "name": "totalSupply",
      "outputs": [
        {
          "internalType": "uint256",
          "name": "",
          "type": "uint256"
        }
      ],
      "stateMutability": "view",
      "type": "function"
    },
    {
      "inputs": [
        {
          "internalType": "address",
          "name": "to",
          "type": "address"
        },
        {
          "internalType": "uint256",
          "name": "value",
          "type": "uint256"
        }
      ],
      "name": "transfer",
      "outputs": [
        {
          "internalType": "bool",
          "name": "",
          "type": "bool"
        }
      ],
      "stateMutability": "nonpayable",
      "type": "function"
    },
    {
      "inputs": [
        {
          "internalType": "address",
          "name": "from",
          "type": "address"
        },
        {
          "internalType": "address",
          "name": "to",
          "type": "address"
        },
        {
          "internalType": "uint256",
          "name": "value",
          "type": "uint256"
        }
      ],
      "name": "transferFrom",
      "outputs": [
        {
          "internalType": "bool",
          "name": "",
          "type": "bool"
        }
      ],
      "stateMutability": "nonpayable",
      "type": "function"
    },
    {
      "inputs": [
        {
          "internalType": "address",
          "name": "newOwner",
          "type": "address"
        }
      ],
      "name": "transferOwnership",
      "outputs": [],
      "stateMutability": "nonpayable",
      "type": "function"
    },
    {
      "inputs": [
        {
          "internalType": "uint256",
          "name": "assets",
          "type": "uint256"
        },
        {
          "internalType": "address",
          "name": "receiver",
          "type": "address"
        },
        {
          "internalType": "address",
          "name": "owner",
          "type": "address"
        }
      ],
      "name": "withdraw",
      "outputs": [
        {
          "internalType": "uint256",
          "name": "",
          "type": "uint256"
        }
      ],
      "stateMutability": "nonpayable",
      "type": "function"
    },
    {
      "inputs": [],
      "name": "withdrawalsEnabled",
      "outputs": [
        {
          "internalType": "bool",
          "name": "",
          "type": "bool"
        }
      ],
      "stateMutability": "view",
      "type": "function"
    }
  ],
  "bytecode": "0x60c060405234801561001057600080fd5b5060405161288038038061288083398101604081905261002f916102cb565b83838383600361003f83826103e4565b50600461004c82826103e4565b505050600080610061836100c260201b60201c565b9150915081610071576012610073565b805b60ff1660a05250506001600160a01b0390811660805281166100af57604051631e4fbdf760e01b81526000600482015260240160405180910390fd5b6100b88161019e565b50505050506104d7565b60408051600481526024810182526020810180516001600160e01b031663313ce56760e01b17905290516000918291829182916001600160a01b03871691610109916104a2565b600060405180830381855afa9150503d8060008114610144576040519150601f19603f3d011682016040523d82523d6000602084013e610149565b606091505b509150915081801561015d57506020815110155b156101915760008180602001905181019061017891906104be565b905060ff811161018f576001969095509350505050565b505b5060009485945092505050565b600580546001600160a01b038381166001600160a01b0319831681179093556040519116919082907f8be0079c531659141344cd1fd0a4f28419497f9722a3daafe3b4186f6b6457e090600090a35050565b6001600160a01b038116811461020557600080fd5b50565b634e487b7160e01b600052604160045260246000fd5b60005b83811015610239578181015183820152602001610221565b50506000910152565b600082601f83011261025357600080fd5b81516001600160401b0381111561026c5761026c610208565b604051601f8201601f19908116603f011681016001600160401b038111828210171561029a5761029a610208565b6040528181528382016020018510156102b257600080fd5b6102c382602083016020870161021e565b949350505050565b600080600080608085870312156102e157600080fd5b84516102ec816101f0565b60208601519094506102fd816101f0565b60408601519093506001600160401b0381111561031957600080fd5b61032587828801610242565b606087015190935090506001600160401b0381111561034357600080fd5b61034f87828801610242565b91505092959194509250565b600181811c9082168061036f57607f821691505b60208210810361038f57634e487b7160e01b600052602260045260246000fd5b50919050565b601f8211156103df57806000526020600020601f840160051c810160208510156103bc5750805b601f840160051c820191505b818110156103dc57600081556001016103c8565b50505b505050565b81516001600160401b038111156103fd576103fd610208565b6104118161040b845461035b565b84610395565b6020601f821160018114610445576000831561042d5750848201515b600019600385901b1c1916600184901b1784556103dc565b600084815260208120601f198516915b828110156104755787850151825560209485019460019092019101610455565b50848210156104935786840151600019600387901b60f8161c191681555b50505050600190811b01905550565b600082516104b481846020870161021e565b9190910192915050565b6000602082840312156104d057600080fd5b5051919050565b60805160a05161236f6105116000396000610ae60152600081816103b8015281816106900152818161170b01526117bd015261236f6000f3fe608060405234801561001057600080fd5b50600436106102d35760003560e01c80638da5cb5b11610186578063ba087652116100e3578063d0dbcd2411610097578063ddc117ec11610071578063ddc117ec14610639578063ef8b30f7146105a1578063f2fde38b1461064c57600080fd5b8063d0dbcd24146105c7578063d905777e146105ed578063dd62ed3e1461060057600080fd5b8063c63d75b6116100c8578063c63d75b6146103f0578063c6e6f592146105a1578063ce96cb77146105b457600080fd5b8063ba0876521461055a578063bb33bd6c1461056d57600080fd5b80639f04586c1161013a578063a9059cbb1161011f578063a9059cbb14610521578063b3d7f6b914610534578063b460af941461054757600080fd5b80639f04586c146104fb5780639f68b5751461050e57600080fd5b806394bf804d1161016b57806394bf804d146104cd57806394eaf06a146104e057806395d89b41146104f357600080fd5b80638da5cb5b146104a85780638edf9647146104b957600080fd5b8063313ce567116102345780635392fd1c116101e85780636e553f65116101cd5780636e553f651461046457806370a0823114610477578063715018a6146104a057600080fd5b80635392fd1c1461041857806363a096631461043d57600080fd5b8063402d267d11610219578063402d267d146103f057806345b96500146104055780634cdad5061461030857600080fd5b8063313ce5671461039c57806338d52e0f146103b657600080fd5b80630a28a4771161028b57806318160ddd1161027057806318160ddd1461037957806323b872dd146103815780632e108d1c1461039457600080fd5b80630a28a477146103535780630f65ba1e1461036657600080fd5b806307a2d13a116102bc57806307a2d13a14610308578063095ea7b31461031b5780630a1793271461033e57600080fd5b806301e1d114146102d857806306fdde03146102f3575b600080fd5b6102e061065f565b6040519081526020015b60405180910390f35b6102fb610708565b6040516102ea9190611cac565b6102e0610316366004611cbf565b61079a565b61032e610329366004611cf4565b6107ad565b60405190151581526020016102ea565b61035161034c366004611d1e565b6107c5565b005b6102e0610361366004611cbf565b610852565b610351610374366004611d1e565b61085f565b6002546102e0565b61032e61038f366004611d40565b6108e2565b610351610908565b6103a4610ade565b60405160ff90911681526020016102ea565b7f00000000000000000000000000000000000000000000000000000000000000005b6040516001600160a01b0390911681526020016102ea565b6102e06103fe366004611d7d565b5060001990565b610351610413366004611e3e565b610b0a565b60055461032e9074010000000000000000000000000000000000000000900460ff1681565b60055461032e90760100000000000000000000000000000000000000000000900460ff1681565b6102e0610472366004611e8c565b610b40565b6102e0610485366004611d7d565b6001600160a01b031660009081526020819052604090205490565b610351610b74565b6005546001600160a01b03166103d8565b60055461032e90600160b81b900460ff1681565b6102e06104db366004611e8c565b610b88565b6103516104ee366004611d1e565b610ba6565b6102fb610c16565b610351610509366004611d1e565b610c25565b6102e061051c366004611eb8565b610ca6565b61032e61052f366004611cf4565b610cc7565b6102e0610542366004611cbf565b610cd5565b6102e0610555366004611f0f565b610ce2565b6102e0610568366004611f0f565b610d5d565b6103d861057b366004611f4b565b80516020818301810180516007825292820191909301209152546001600160a01b031681565b6102e06105af366004611cbf565b610dd8565b6102e06105c2366004611d7d565b610de5565b60055461032e907501000000000000000000000000000000000000000000900460ff1681565b6102e06105fb366004611d7d565b610e09565b6102e061060e366004611f80565b6001600160a01b03918216600090815260016020908152604080832093909416825291909152205490565b6102fb610647366004611d7d565b610e27565b61035161065a366004611d7d565b610ec1565b6040517f70a082310000000000000000000000000000000000000000000000000000000081523060048201526000907f00000000000000000000000000000000000000000000000000000000000000006001600160a01b0316906370a0823190602401602060405180830381865afa1580156106df573d6000803e3d6000fd5b505050506040513d601f19601f820116820180604052508101906107039190611faa565b905090565b60606003805461071790611fc3565b80601f016020809104026020016040519081016040528092919081815260200182805461074390611fc3565b80156107905780601f1061076557610100808354040283529160200191610790565b820191906000526020600020905b81548152906001019060200180831161077357829003601f168201915b5050505050905090565b60006107a7826000610f18565b92915050565b6000336107bb818585610f52565b5060019392505050565b6107cd610f64565b600580548215157501000000000000000000000000000000000000000000027fffffffffffffffffffff00ffffffffffffffffffffffffffffffffffffffffff9091161790556040517f45e7e6146471a396eb58b618e88efd46f5c95bd1815b282ed75c5220a559ab109061084790831515815260200190565b60405180910390a150565b60006107a7826001610faa565b610867610f64565b60058054821515760100000000000000000000000000000000000000000000027fffffffffffffffffff00ffffffffffffffffffffffffffffffffffffffffffff9091161790556040517f39d1e046657e0b945c1a67c1a65d784065b825ee87b8d5186c4b2de8dece17329061084790831515815260200190565b6000336108f0858285610fda565b6108fb858585611072565b60019150505b9392505050565b600554760100000000000000000000000000000000000000000000900460ff1661095e576040517fd96a9b5d00000000000000000000000000000000000000000000000000000000815260040160405180910390fd5b33600061096b6006611103565b905060006001600160a01b03166007826040516109889190611ffd565b908152604051908190036020019020546001600160a01b0316146109d8576040517fe3ba090400000000000000000000000000000000000000000000000000000000815260040160405180910390fd5b6001600160a01b038216600090815260086020526040902080546109fb90611fc3565b159050610a34576040517f61b8b41d00000000000000000000000000000000000000000000000000000000815260040160405180910390fd5b81600782604051610a459190611ffd565b908152604080516020928190038301902080547fffffffffffffffffffffffff0000000000000000000000000000000000000000166001600160a01b039485161790559184166000908152600890915220610aa08282612060565b507fbbba1cab2093e26ee6b388fefb2109576871f9236f9c1f22779dad4b82093b7b8282604051610ad292919061211f565b60405180910390a15050565b6000610703817f0000000000000000000000000000000000000000000000000000000000000000612157565b610b12610f64565b8051600003610b255761096b6006611103565b60006001600160a01b03166007826040516109889190611ffd565b6000600019610b53565b60405180910390fd5b6000610b5e85610dd8565b9050610b6c33858784611215565b949350505050565b610b7c610f64565b610b8660006112e7565b565b60006000196000610b9885610cd5565b9050610b6c33858388611215565b610bae610f64565b60058054821515600160b81b027fffffffffffffffff00ffffffffffffffffffffffffffffffffffffffffffffff9091161790556040517f02b87843702214172db05525009563411bd7a39a34f5a9bd7060558862b8b1a09061084790831515815260200190565b60606004805461071790611fc3565b610c2d610f64565b6005805482151574010000000000000000000000000000000000000000027fffffffffffffffffffffff00ffffffffffffffffffffffffffffffffffffffff9091161790556040517f7b014ed3854e7f5cb0218d58b3c6ae7d53a68bb0af2f67bfb029ea42c38a7e859061084790831515815260200190565b6000610cb28383611351565b6000610cbe8585610b40565b95945050505050565b6000336107bb818585611072565b60006107a7826001610f18565b600080610cee83610de5565b905080851115610d43576040517ffe9cceec0000000000000000000000000000000000000000000000000000000081526001600160a01b03841660048201526024810186905260448101829052606401610b4a565b6000610d4e86610852565b9050610cbe3386868985611447565b600080610d6983610e09565b905080851115610dbe576040517fb94abeec0000000000000000000000000000000000000000000000000000000081526001600160a01b03841660048201526024810186905260448101829052606401610b4a565b6000610dc98661079a565b9050610cbe338686848a611447565b60006107a7826000610faa565b6001600160a01b0381166000908152602081905260408120546107a7906000610f18565b6001600160a01b0381166000908152602081905260408120546107a7565b60086020526000908152604090208054610e4090611fc3565b80601f0160208091040260200160405190810160405280929190818152602001828054610e6c90611fc3565b8015610eb95780601f10610e8e57610100808354040283529160200191610eb9565b820191906000526020600020905b815481529060010190602001808311610e9c57829003601f168201915b505050505081565b610ec9610f64565b6001600160a01b038116610f0c576040517f1e4fbdf700000000000000000000000000000000000000000000000000000000815260006004820152602401610b4a565b610f15816112e7565b50565b6000610901610f2561065f565b610f30906001612170565b610f3c6000600a61226a565b600254610f499190612170565b859190856114b0565b610f5f83838360016114f4565b505050565b6005546001600160a01b03163314610b86576040517f118cdaa7000000000000000000000000000000000000000000000000000000008152336004820152602401610b4a565b6000610901610fba82600a61226a565b600254610fc79190612170565b610fcf61065f565b610f49906001612170565b6001600160a01b0383811660009081526001602090815260408083209386168352929052205460001981101561106c578181101561105d576040517ffb8f41b20000000000000000000000000000000000000000000000000000000081526001600160a01b03841660048201526024810182905260448101839052606401610b4a565b61106c848484840360006114f4565b50505050565b6001600160a01b0383166110b5576040517f96c6fd1e00000000000000000000000000000000000000000000000000000000815260006004820152602401610b4a565b6001600160a01b0382166110f8576040517fec442f0500000000000000000000000000000000000000000000000000000000815260006004820152602401610b4a565b610f5f8383836115fb565b606060008267ffffffffffffffff81111561112057611120611d98565b6040519080825280601f01601f19166020018201604052801561114a576020820181803683370190505b5060408051602e80825260608201909252919250600091906020820181803683370190505090506040518060600160405280602e815260200161230c602e9139905060005b8481101561120c5760006111a3602e611678565b90508281815181106111b7576111b7612279565b602001015160f81c60f81b8483815181106111d4576111d4612279565b60200101907effffffffffffffffffffffffffffffffffffffffffffffffffffffffffffff1916908160001a9053505060010161118f565b50909392505050565b60055474010000000000000000000000000000000000000000900460ff16611269576040517f717a164800000000000000000000000000000000000000000000000000000000815260040160405180910390fd5b600554600160b81b900460ff1680156112a457506001600160a01b038316600090815260096020526040902080546112a090611fc3565b1590505b156112db576040517f9c591a2800000000000000000000000000000000000000000000000000000000815260040160405180910390fd5b61106c84848484611706565b600580546001600160a01b038381167fffffffffffffffffffffffff0000000000000000000000000000000000000000831681179093556040519116919082907f8be0079c531659141344cd1fd0a4f28419497f9722a3daafe3b4186f6b6457e090600090a35050565b805115611443576001600160a01b0382166000908152600960205260409020805461137b90611fc3565b90506000036114435760006001600160a01b031660078260405161139f9190611ffd565b908152604051908190036020019020546001600160a01b031614611411576001600160a01b03821660009081526009602052604090206113df8282612060565b507fb3d2df42f150b9969069bbcb6cfe047d4255ba353ac2949608e81cea5790aa1a8282604051610ad292919061211f565b6040517f8214902100000000000000000000000000000000000000000000000000000000815260040160405180910390fd5b5050565b6005547501000000000000000000000000000000000000000000900460ff1661149c576040517f46ee9e3500000000000000000000000000000000000000000000000000000000815260040160405180910390fd5b6114a9858585858561178a565b5050505050565b60006114df6114be8361184a565b80156114da5750600084806114d5576114d561228f565b868809115b151590565b6114ea868686611877565b610cbe9190612170565b6001600160a01b038416611537576040517fe602df0500000000000000000000000000000000000000000000000000000000815260006004820152602401610b4a565b6001600160a01b03831661157a576040517f94280d6200000000000000000000000000000000000000000000000000000000815260006004820152602401610b4a565b6001600160a01b038085166000908152600160209081526040808320938716835292905220829055801561106c57826001600160a01b0316846001600160a01b03167f8c5be1e5ebec7d5bd14f71427d1e84f3dd0314c0f7b2291e5b200ac8c7c3b925846040516115ed91815260200190565b60405180910390a350505050565b600554600160b81b900460ff16801561163657506001600160a01b0382166000908152600960205260409020805461163290611fc3565b1590505b1561166d576040517f9c591a2800000000000000000000000000000000000000000000000000000000815260040160405180910390fd5b610f5f838383611932565b6006805460009182611689836122a5565b9190505550814244336006546040516020016116e39493929190938452602084019290925260601b7fffffffffffffffffffffffffffffffffffffffff000000000000000000000000166040830152605482015260740190565b6040516020818303038152906040528051906020012060001c6107a791906122bf565b6117327f0000000000000000000000000000000000000000000000000000000000000000853085611a75565b61173c8382611af1565b826001600160a01b0316846001600160a01b03167fdcbc1c05240f31ff3ad067ef1ee35ce4997762752e3a095284754544f4c709d784846040516115ed929190918252602082015260400190565b826001600160a01b0316856001600160a01b0316146117ae576117ae838683610fda565b6117b88382611b40565b6117e37f00000000000000000000000000000000000000000000000000000000000000008584611b8f565b826001600160a01b0316846001600160a01b0316866001600160a01b03167ffbde797d201c681b91056529119e0b02407c7bb96a4a2c75c01fc9667232c8db858560405161183b929190918252602082015260400190565b60405180910390a45050505050565b60006002826003811115611860576118606122d3565b61186a91906122e9565b60ff166001149050919050565b60008383028160001985870982811083820303915050806000036118ae578382816118a4576118a461228f565b0492505050610901565b8084116118c5576118c56003851502601118611bc0565b6000848688096000868103871696879004966002600389028118808a02820302808a02820302808a02820302808a02820302808a02820302808a02909103029181900381900460010186841190950394909402919094039290920491909117919091029150509392505050565b6001600160a01b03831661195d5780600260008282546119529190612170565b909155506119e89050565b6001600160a01b038316600090815260208190526040902054818110156119c9576040517fe450d38c0000000000000000000000000000000000000000000000000000000081526001600160a01b03851660048201526024810182905260448101839052606401610b4a565b6001600160a01b03841660009081526020819052604090209082900390555b6001600160a01b038216611a0457600280548290039055611a23565b6001600160a01b03821660009081526020819052604090208054820190555b816001600160a01b0316836001600160a01b03167fddf252ad1be2c89b69c2b068fc378daa952ba7f163c4a11628f55a4df523b3ef83604051611a6891815260200190565b60405180910390a3505050565b6040516001600160a01b03848116602483015283811660448301526064820183905261106c9186918216906323b872dd906084015b604051602081830303815290604052915060e01b6020820180517bffffffffffffffffffffffffffffffffffffffffffffffffffffffff8381831617835250505050611bd2565b6001600160a01b038216611b34576040517fec442f0500000000000000000000000000000000000000000000000000000000815260006004820152602401610b4a565b611443600083836115fb565b6001600160a01b038216611b83576040517f96c6fd1e00000000000000000000000000000000000000000000000000000000815260006004820152602401610b4a565b611443826000836115fb565b6040516001600160a01b03838116602483015260448201839052610f5f91859182169063a9059cbb90606401611aaa565b634e487b71600052806020526024601cfd5b600080602060008451602086016000885af180611bf5576040513d6000823e3d81fd5b50506000513d91508115611c0d578060011415611c1a565b6001600160a01b0384163b155b1561106c576040517f5274afe70000000000000000000000000000000000000000000000000000000081526001600160a01b0385166004820152602401610b4a565b60005b83811015611c77578181015183820152602001611c5f565b50506000910152565b60008151808452611c98816020860160208601611c5c565b601f01601f19169290920160200192915050565b6020815260006109016020830184611c80565b600060208284031215611cd157600080fd5b5035919050565b80356001600160a01b0381168114611cef57600080fd5b919050565b60008060408385031215611d0757600080fd5b611d1083611cd8565b946020939093013593505050565b600060208284031215611d3057600080fd5b8135801515811461090157600080fd5b600080600060608486031215611d5557600080fd5b611d5e84611cd8565b9250611d6c60208501611cd8565b929592945050506040919091013590565b600060208284031215611d8f57600080fd5b61090182611cd8565b634e487b7160e01b600052604160045260246000fd5b600082601f830112611dbf57600080fd5b813567ffffffffffffffff811115611dd957611dd9611d98565b604051601f19603f601f19601f8501160116810181811067ffffffffffffffff82111715611e0957611e09611d98565b604052818152838201602001851015611e2157600080fd5b816020850160208301376000918101602001919091529392505050565b60008060408385031215611e5157600080fd5b611e5a83611cd8565b9150602083013567ffffffffffffffff811115611e7657600080fd5b611e8285828601611dae565b9150509250929050565b60008060408385031215611e9f57600080fd5b82359150611eaf60208401611cd8565b90509250929050565b600080600060608486031215611ecd57600080fd5b83359250611edd60208501611cd8565b9150604084013567ffffffffffffffff811115611ef957600080fd5b611f0586828701611dae565b9150509250925092565b600080600060608486031215611f2457600080fd5b83359250611f3460208501611cd8565b9150611f4260408501611cd8565b90509250925092565b600060208284031215611f5d57600080fd5b813567ffffffffffffffff811115611f7457600080fd5b610b6c84828501611dae565b60008060408385031215611f9357600080fd5b611f9c83611cd8565b9150611eaf60208401611cd8565b600060208284031215611fbc57600080fd5b5051919050565b600181811c90821680611fd757607f821691505b602082108103611ff757634e487b7160e01b600052602260045260246000fd5b50919050565b6000825161200f818460208701611c5c565b9190910192915050565b601f821115610f5f57806000526020600020601f840160051c810160208510156120405750805b601f840160051c820191505b818110156114a9576000815560010161204c565b815167ffffffffffffffff81111561207a5761207a611d98565b61208e816120888454611fc3565b84612019565b6020601f8211600181146120c257600083156120aa5750848201515b600019600385901b1c1916600184901b1784556114a9565b600084815260208120601f198516915b828110156120f257878501518255602094850194600190920191016120d2565b50848210156121105786840151600019600387901b60f8161c191681555b50505050600190811b01905550565b6001600160a01b0383168152604060208201526000610b6c6040830184611c80565b634e487b7160e01b600052601160045260246000fd5b60ff81811683821601908111156107a7576107a7612141565b808201808211156107a7576107a7612141565b6001815b60018411156121be578085048111156121a2576121a2612141565b60018416156121b057908102905b60019390931c928002612187565b935093915050565b6000826121d5575060016107a7565b816121e2575060006107a7565b81600181146121f857600281146122025761221e565b60019150506107a7565b60ff84111561221357612213612141565b50506001821b6107a7565b5060208310610133831016604e8410600b8410161715612241575081810a6107a7565b61224e6000198484612183565b806000190482111561226257612262612141565b029392505050565b600061090160ff8416836121c6565b634e487b7160e01b600052603260045260246000fd5b634e487b7160e01b600052601260045260246000fd5b600060001982036122b8576122b8612141565b5060010190565b6000826122ce576122ce61228f565b500690565b634e487b7160e01b600052602160045260246000fd5b600060ff8316806122fc576122fc61228f565b8060ff8416069150509291505056fe4142434445464748494a4b4c4d4e4f505152535455565758595a3031323334353637383930313233343536373839a2646970667358221220e05f7b9b264f21bb0217011fd13b07daa152e55c5e5630fdb1b1a0e2ba57373064736f6c634300081c0033",
  "linkReferences": {},
  "deployedLinkReferences": {}
}