{
  "_format": "hh-sol-artifact-1",
  "contractName": "AcceleraPreDepositVault",
  "sourceName": "contracts/AcceleraPreDepositVault.sol",
  "abi": [
    {
      "inputs": [
        {
          "internalType": "address",
          "name": "initialOwner_",
          "type": "address"
        },
        {
          "internalType": "contract IERC20",
          "name": "asset_",
          "type": "address"
        },
        {
          "internalType": "string",
          "name": "name_",
          "type": "string"
        },
        {
          "internalType": "string",
          "name": "symbol_",
          "type": "string"
        }
      ],
      "stateMutability": "nonpayable",
      "type": "constructor"
    },
    {
      "inputs": [],
      "name": "AddressAlreadyHasReferralCode",
      "type": "error"
    },
    {
      "inputs": [],
      "name": "CantReferYourself",
      "type": "error"
    },
    {
      "inputs": [],
      "name": "DepositsDisabled",
      "type": "error"
    },
    {
      "inputs": [
        {
          "internalType": "address",
          "name": "spender",
          "type": "address"
        },
        {
          "internalType": "uint256",
          "name": "allowance",
          "type": "uint256"
        },
        {
          "internalType": "uint256",
          "name": "needed",
          "type": "uint256"
        }
      ],
      "name": "ERC20InsufficientAllowance",
      "type": "error"
    },
    {
      "inputs": [
        {
          "internalType": "address",
          "name": "sender",
          "type": "address"
        },
        {
          "internalType": "uint256",
          "name": "balance",
          "type": "uint256"
        },
        {
          "internalType": "uint256",
          "name": "needed",
          "type": "uint256"
        }
      ],
      "name": "ERC20InsufficientBalance",
      "type": "error"
    },
    {
      "inputs": [
        {
          "internalType": "address",
          "name": "approver",
          "type": "address"
        }
      ],
      "name": "ERC20InvalidApprover",
      "type": "error"
    },
    {
      "inputs": [
        {
          "internalType": "address",
          "name": "receiver",
          "type": "address"
        }
      ],
      "name": "ERC20InvalidReceiver",
      "type": "error"
    },
    {
      "inputs": [
        {
          "internalType": "address",
          "name": "sender",
          "type": "address"
        }
      ],
      "name": "ERC20InvalidSender",
      "type": "error"
    },
    {
      "inputs": [
        {
          "internalType": "address",
          "name": "spender",
          "type": "address"
        }
      ],
      "name": "ERC20InvalidSpender",
      "type": "error"
    },
    {
      "inputs": [
        {
          "internalType": "address",
          "name": "receiver",
          "type": "address"
        },
        {
          "internalType": "uint256",
          "name": "assets",
          "type": "uint256"
        },
        {
          "internalType": "uint256",
          "name": "max",
          "type": "uint256"
        }
      ],
      "name": "ERC4626ExceededMaxDeposit",
      "type": "error"
    },
    {
      "inputs": [
        {
          "internalType": "address",
          "name": "receiver",
          "type": "address"
        },
        {
          "internalType": "uint256",
          "name": "shares",
          "type": "uint256"
        },
        {
          "internalType": "uint256",
          "name": "max",
          "type": "uint256"
        }
      ],
      "name": "ERC4626ExceededMaxMint",
      "type": "error"
    },
    {
      "inputs": [
        {
          "internalType": "address",
          "name": "owner",
          "type": "address"
        },
        {
          "internalType": "uint256",
          "name": "shares",
          "type": "uint256"
        },
        {
          "internalType": "uint256",
          "name": "max",
          "type": "uint256"
        }
      ],
      "name": "ERC4626ExceededMaxRedeem",
      "type": "error"
    },
    {
      "inputs": [
        {
          "internalType": "address",
          "name": "owner",
          "type": "address"
        },
        {
          "internalType": "uint256",
          "name": "assets",
          "type": "uint256"
        },
        {
          "internalType": "uint256",
          "name": "max",
          "type": "uint256"
        }
      ],
      "name": "ERC4626ExceededMaxWithdraw",
      "type": "error"
    },
    {
      "inputs": [],
      "name": "NotEnoughXUSDEToGenerateCode",
      "type": "error"
    },
    {
      "inputs": [
        {
          "internalType": "address",
          "name": "owner",
          "type": "address"
        }
      ],
      "name": "OwnableInvalidOwner",
      "type": "error"
    },
    {
      "inputs": [
        {
          "internalType": "address",
          "name": "account",
          "type": "address"
        }
      ],
      "name": "OwnableUnauthorizedAccount",
      "type": "error"
    },
    {
      "inputs": [],
      "name": "ReferralCodeAlreadyUsed",
      "type": "error"
    },
    {
      "inputs": [],
      "name": "ReferralCodeCreationDisabled",
      "type": "error"
    },
    {
      "inputs": [],
      "name": "ReferralCodeDoesNotExist",
      "type": "error"
    },
    {
      "inputs": [],
      "name": "ReferralCodeMandatory",
      "type": "error"
    },
    {
      "inputs": [
        {
          "internalType": "address",
          "name": "token",
          "type": "address"
        }
      ],
      "name": "SafeERC20FailedOperation",
      "type": "error"
    },
    {
      "inputs": [],
      "name": "WithdrawalsDisabled",
      "type": "error"
    },
    {
      "anonymous": false,
      "inputs": [
        {
          "indexed": true,
          "internalType": "address",
          "name": "owner",
          "type": "address"
        },
        {
          "indexed": true,
          "internalType": "address",
          "name": "spender",
          "type": "address"
        },
        {
          "indexed": false,
          "internalType": "uint256",
          "name": "value",
          "type": "uint256"
        }
      ],
      "name": "Approval",
      "type": "event"
    },
    {
      "anonymous": false,
      "inputs": [
        {
          "indexed": true,
          "internalType": "address",
          "name": "sender",
          "type": "address"
        },
        {
          "indexed": true,
          "internalType": "address",
          "name": "owner",
          "type": "address"
        },
        {
          "indexed": false,
          "internalType": "uint256",
          "name": "assets",
          "type": "uint256"
        },
        {
          "indexed": false,
          "internalType": "uint256",
          "name": "shares",
          "type": "uint256"
        }
      ],
      "name": "Deposit",
      "type": "event"
    },
    {
      "anonymous": false,
      "inputs": [
        {
          "indexed": false,
          "internalType": "bool",
          "name": "enabled",
          "type": "bool"
        }
      ],
      "name": "DepositsEnabled",
      "type": "event"
    },
    {
      "anonymous": false,
      "inputs": [
        {
          "indexed": true,
          "internalType": "address",
          "name": "previousOwner",
          "type": "address"
        },
        {
          "indexed": true,
          "internalType": "address",
          "name": "newOwner",
          "type": "address"
        }
      ],
      "name": "OwnershipTransferred",
      "type": "event"
    },
    {
      "anonymous": false,
      "inputs": [
        {
          "indexed": false,
          "internalType": "address",
          "name": "user",
          "type": "address"
        },
        {
          "indexed": false,
          "internalType": "string",
          "name": "code",
          "type": "string"
        }
      ],
      "name": "ReferralCodeCreated",
      "type": "event"
    },
    {
      "anonymous": false,
      "inputs": [
        {
          "indexed": false,
          "internalType": "bool",
          "name": "enabled",
          "type": "bool"
        }
      ],
      "name": "ReferralCodeCreationEnabled",
      "type": "event"
    },
    {
      "anonymous": false,
      "inputs": [
        {
          "indexed": false,
          "internalType": "bool",
          "name": "enabled",
          "type": "bool"
        }
      ],
      "name": "ReferralCodeMandatoryEnabled",
      "type": "event"
    },
    {
      "anonymous": false,
      "inputs": [
        {
          "indexed": false,
          "internalType": "address",
          "name": "user",
          "type": "address"
        },
        {
          "indexed": false,
          "internalType": "string",
          "name": "code",
          "type": "string"
        }
      ],
      "name": "ReferralCodeUsed",
      "type": "event"
    },
    {
      "anonymous": false,
      "inputs": [
        {
          "indexed": false,
          "internalType": "address",
          "name": "user",
          "type": "address"
        },
        {
          "indexed": false,
          "internalType": "string",
          "name": "code",
          "type": "string"
        },
        {
          "indexed": false,
          "internalType": "bool",
          "name": "isVip",
          "type": "bool"
        }
      ],
      "name": "ReferralCodeVIP",
      "type": "event"
    },
    {
      "anonymous": false,
      "inputs": [
        {
          "indexed": false,
          "internalType": "uint256",
          "name": "minimum",
          "type": "uint256"
        }
      ],
      "name": "SetMinimumBalanceToGenerateCode",
      "type": "event"
    },
    {
      "anonymous": false,
      "inputs": [
        {
          "indexed": true,
          "internalType": "address",
          "name": "from",
          "type": "address"
        },
        {
          "indexed": true,
          "internalType": "address",
          "name": "to",
          "type": "address"
        },
        {
          "indexed": false,
          "internalType": "uint256",
          "name": "value",
          "type": "uint256"
        }
      ],
      "name": "Transfer",
      "type": "event"
    },
    {
      "anonymous": false,
      "inputs": [
        {
          "indexed": false,
          "internalType": "bool",
          "name": "enable",
          "type": "bool"
        }
      ],
      "name": "UseReferralOnlyInDepositsEnabled",
      "type": "event"
    },
    {
      "anonymous": false,
      "inputs": [
        {
          "indexed": true,
          "internalType": "address",
          "name": "sender",
          "type": "address"
        },
        {
          "indexed": true,
          "internalType": "address",
          "name": "receiver",
          "type": "address"
        },
        {
          "indexed": true,
          "internalType": "address",
          "name": "owner",
          "type": "address"
        },
        {
          "indexed": false,
          "internalType": "uint256",
          "name": "assets",
          "type": "uint256"
        },
        {
          "indexed": false,
          "internalType": "uint256",
          "name": "shares",
          "type": "uint256"
        }
      ],
      "name": "Withdraw",
      "type": "event"
    },
    {
      "anonymous": false,
      "inputs": [
        {
          "indexed": false,
          "internalType": "bool",
          "name": "enabled",
          "type": "bool"
        }
      ],
      "name": "WithdrawalsEnabled",
      "type": "event"
    },
    {
      "inputs": [
        {
          "internalType": "address",
          "name": "owner",
          "type": "address"
        },
        {
          "internalType": "address",
          "name": "spender",
          "type": "address"
        }
      ],
      "name": "allowance",
      "outputs": [
        {
          "internalType": "uint256",
          "name": "",
          "type": "uint256"
        }
      ],
      "stateMutability": "view",
      "type": "function"
    },
    {
      "inputs": [
        {
          "internalType": "address",
          "name": "spender",
          "type": "address"
        },
        {
          "internalType": "uint256",
          "name": "value",
          "type": "uint256"
        }
      ],
      "name": "approve",
      "outputs": [
        {
          "internalType": "bool",
          "name": "",
          "type": "bool"
        }
      ],
      "stateMutability": "nonpayable",
      "type": "function"
    },
    {
      "inputs": [],
      "name": "asset",
      "outputs": [
        {
          "internalType": "address",
          "name": "",
          "type": "address"
        }
      ],
      "stateMutability": "view",
      "type": "function"
    },
    {
      "inputs": [
        {
          "internalType": "address",
          "name": "account",
          "type": "address"
        }
      ],
      "name": "balanceOf",
      "outputs": [
        {
          "internalType": "uint256",
          "name": "",
          "type": "uint256"
        }
      ],
      "stateMutability": "view",
      "type": "function"
    },
    {
      "inputs": [
        {
          "internalType": "uint256",
          "name": "shares",
          "type": "uint256"
        }
      ],
      "name": "convertToAssets",
      "outputs": [
        {
          "internalType": "uint256",
          "name": "",
          "type": "uint256"
        }
      ],
      "stateMutability": "view",
      "type": "function"
    },
    {
      "inputs": [
        {
          "internalType": "uint256",
          "name": "assets",
          "type": "uint256"
        }
      ],
      "name": "convertToShares",
      "outputs": [
        {
          "internalType": "uint256",
          "name": "",
          "type": "uint256"
        }
      ],
      "stateMutability": "view",
      "type": "function"
    },
    {
      "inputs": [],
      "name": "createReferralCode",
      "outputs": [],
      "stateMutability": "nonpayable",
      "type": "function"
    },
    {
      "inputs": [
        {
          "internalType": "address",
          "name": "user_",
          "type": "address"
        },
        {
          "internalType": "string",
          "name": "code_",
          "type": "string"
        }
      ],
      "name": "createReferralCodeOwner",
      "outputs": [],
      "stateMutability": "nonpayable",
      "type": "function"
    },
    {
      "inputs": [],
      "name": "decimals",
      "outputs": [
        {
          "internalType": "uint8",
          "name": "",
          "type": "uint8"
        }
      ],
      "stateMutability": "view",
      "type": "function"
    },
    {
      "inputs": [
        {
          "internalType": "uint256",
          "name": "assets",
          "type": "uint256"
        },
        {
          "internalType": "address",
          "name": "receiver",
          "type": "address"
        }
      ],
      "name": "deposit",
      "outputs": [
        {
          "internalType": "uint256",
          "name": "",
          "type": "uint256"
        }
      ],
      "stateMutability": "nonpayable",
      "type": "function"
    },
    {
      "inputs": [
        {
          "internalType": "uint256",
          "name": "assets",
          "type": "uint256"
        },
        {
          "internalType": "address",
          "name": "receiver",
          "type": "address"
        },
        {
          "internalType": "string",
          "name": "code_",
          "type": "string"
        }
      ],
      "name": "depositWithReferral",
      "outputs": [
        {
          "internalType": "uint256",
          "name": "",
          "type": "uint256"
        }
      ],
      "stateMutability": "nonpayable",
      "type": "function"
    },
    {
      "inputs": [],
      "name": "depositsEnabled",
      "outputs": [
        {
          "internalType": "bool",
          "name": "",
          "type": "bool"
        }
      ],
      "stateMutability": "view",
      "type": "function"
    },
    {
      "inputs": [
        {
          "internalType": "address",
          "name": "",
          "type": "address"
        }
      ],
      "name": "maxDeposit",
      "outputs": [
        {
          "internalType": "uint256",
          "name": "",
          "type": "uint256"
        }
      ],
      "stateMutability": "view",
      "type": "function"
    },
    {
      "inputs": [
        {
          "internalType": "address",
          "name": "",
          "type": "address"
        }
      ],
      "name": "maxMint",
      "outputs": [
        {
          "internalType": "uint256",
          "name": "",
          "type": "uint256"
        }
      ],
      "stateMutability": "view",
      "type": "function"
    },
    {
      "inputs": [
        {
          "internalType": "address",
          "name": "owner",
          "type": "address"
        }
      ],
      "name": "maxRedeem",
      "outputs": [
        {
          "internalType": "uint256",
          "name": "",
          "type": "uint256"
        }
      ],
      "stateMutability": "view",
      "type": "function"
    },
    {
      "inputs": [
        {
          "internalType": "address",
          "name": "owner",
          "type": "address"
        }
      ],
      "name": "maxWithdraw",
      "outputs": [
        {
          "internalType": "uint256",
          "name": "",
          "type": "uint256"
        }
      ],
      "stateMutability": "view",
      "type": "function"
    },
    {
      "inputs": [],
      "name": "minimumBalanceToGenerateCode",
      "outputs": [
        {
          "internalType": "uint256",
          "name": "",
          "type": "uint256"
        }
      ],
      "stateMutability": "view",
      "type": "function"
    },
    {
      "inputs": [
        {
          "internalType": "uint256",
          "name": "shares",
          "type": "uint256"
        },
        {
          "internalType": "address",
          "name": "receiver",
          "type": "address"
        }
      ],
      "name": "mint",
      "outputs": [
        {
          "internalType": "uint256",
          "name": "",
          "type": "uint256"
        }
      ],
      "stateMutability": "nonpayable",
      "type": "function"
    },
    {
      "inputs": [],
      "name": "name",
      "outputs": [
        {
          "internalType": "string",
          "name": "",
          "type": "string"
        }
      ],
      "stateMutability": "view",
      "type": "function"
    },
    {
      "inputs": [],
      "name": "owner",
      "outputs": [
        {
          "internalType": "address",
          "name": "",
          "type": "address"
        }
      ],
      "stateMutability": "view",
      "type": "function"
    },
    {
      "inputs": [
        {
          "internalType": "address",
          "name": "",
          "type": "address"
        }
      ],
      "name": "ownerToReferralCode",
      "outputs": [
        {
          "internalType": "string",
          "name": "",
          "type": "string"
        }
      ],
      "stateMutability": "view",
      "type": "function"
    },
    {
      "inputs": [
        {
          "internalType": "uint256",
          "name": "assets",
          "type": "uint256"
        }
      ],
      "name": "previewDeposit",
      "outputs": [
        {
          "internalType": "uint256",
          "name": "",
          "type": "uint256"
        }
      ],
      "stateMutability": "view",
      "type": "function"
    },
    {
      "inputs": [
        {
          "internalType": "uint256",
          "name": "shares",
          "type": "uint256"
        }
      ],
      "name": "previewMint",
      "outputs": [
        {
          "internalType": "uint256",
          "name": "",
          "type": "uint256"
        }
      ],
      "stateMutability": "view",
      "type": "function"
    },
    {
      "inputs": [
        {
          "internalType": "uint256",
          "name": "shares",
          "type": "uint256"
        }
      ],
      "name": "previewRedeem",
      "outputs": [
        {
          "internalType": "uint256",
          "name": "",
          "type": "uint256"
        }
      ],
      "stateMutability": "view",
      "type": "function"
    },
    {
      "inputs": [
        {
          "internalType": "uint256",
          "name": "assets",
          "type": "uint256"
        }
      ],
      "name": "previewWithdraw",
      "outputs": [
        {
          "internalType": "uint256",
          "name": "",
          "type": "uint256"
        }
      ],
      "stateMutability": "view",
      "type": "function"
    },
    {
      "inputs": [
        {
          "internalType": "uint256",
          "name": "shares",
          "type": "uint256"
        },
        {
          "internalType": "address",
          "name": "receiver",
          "type": "address"
        },
        {
          "internalType": "address",
          "name": "owner",
          "type": "address"
        }
      ],
      "name": "redeem",
      "outputs": [
        {
          "internalType": "uint256",
          "name": "",
          "type": "uint256"
        }
      ],
      "stateMutability": "nonpayable",
      "type": "function"
    },
    {
      "inputs": [],
      "name": "referralCodeCreationEnabled",
      "outputs": [
        {
          "internalType": "bool",
          "name": "",
          "type": "bool"
        }
      ],
      "stateMutability": "view",
      "type": "function"
    },
    {
      "inputs": [],
      "name": "referralCodeMandatory",
      "outputs": [
        {
          "internalType": "bool",
          "name": "",
          "type": "bool"
        }
      ],
      "stateMutability": "view",
      "type": "function"
    },
    {
      "inputs": [
        {
          "internalType": "string",
          "name": "",
          "type": "string"
        }
      ],
      "name": "referralCodeToOwner",
      "outputs": [
        {
          "internalType": "address",
          "name": "",
          "type": "address"
        }
      ],
      "stateMutability": "view",
      "type": "function"
    },
    {
      "inputs": [],
      "name": "renounceOwnership",
      "outputs": [],
      "stateMutability": "nonpayable",
      "type": "function"
    },
    {
      "inputs": [
        {
          "internalType": "bool",
          "name": "depositsEnabled_",
          "type": "bool"
        }
      ],
      "name": "setDepositsEnabled",
      "outputs": [],
      "stateMutability": "nonpayable",
      "type": "function"
    },
    {
      "inputs": [
        {
          "internalType": "uint256",
          "name": "minimumBalanceToGenerateCode_",
          "type": "uint256"
        }
      ],
      "name": "setMinimumBalanceToGenerateCode",
      "outputs": [],
      "stateMutability": "nonpayable",
      "type": "function"
    },
    {
      "inputs": [
        {
          "internalType": "bool",
          "name": "referralCodeCreationEnabled_",
          "type": "bool"
        }
      ],
      "name": "setReferralCodeCreationEnabled",
      "outputs": [],
      "stateMutability": "nonpayable",
      "type": "function"
    },
    {
      "inputs": [
        {
          "internalType": "bool",
          "name": "referralCodeMandatory_",
          "type": "bool"
        }
      ],
      "name": "setReferralCodeMandatory",
      "outputs": [],
      "stateMutability": "nonpayable",
      "type": "function"
    },
    {
      "inputs": [
        {
          "internalType": "bool",
          "name": "useReferralOnlyInDeposits_",
          "type": "bool"
        }
      ],
      "name": "setUseReferralOnlyInDeposits",
      "outputs": [],
      "stateMutability": "nonpayable",
      "type": "function"
    },
    {
      "inputs": [
        {
          "internalType": "string",
          "name": "code_",
          "type": "string"
        },
        {
          "internalType": "bool",
          "name": "isVip_",
          "type": "bool"
        }
      ],
      "name": "setVipReferral",
      "outputs": [],
      "stateMutability": "nonpayable",
      "type": "function"
    },
    {
      "inputs": [
        {
          "internalType": "bool",
          "name": "withdrawalsEnabled_",
          "type": "bool"
        }
      ],
      "name": "setWithdrawalsEnabled",
      "outputs": [],
      "stateMutability": "nonpayable",
      "type": "function"
    },
    {
      "inputs": [],
      "name": "symbol",
      "outputs": [
        {
          "internalType": "string",
          "name": "",
          "type": "string"
        }
      ],
      "stateMutability": "view",
      "type": "function"
    },
    {
      "inputs": [],
      "name": "totalAssets",
      "outputs": [
        {
          "internalType": "uint256",
          "name": "",
          "type": "uint256"
        }
      ],
      "stateMutability": "view",
      "type": "function"
    },
    {
      "inputs": [],
      "name": "totalSupply",
      "outputs": [
        {
          "internalType": "uint256",
          "name": "",
          "type": "uint256"
        }
      ],
      "stateMutability": "view",
      "type": "function"
    },
    {
      "inputs": [
        {
          "internalType": "address",
          "name": "to",
          "type": "address"
        },
        {
          "internalType": "uint256",
          "name": "value",
          "type": "uint256"
        }
      ],
      "name": "transfer",
      "outputs": [
        {
          "internalType": "bool",
          "name": "",
          "type": "bool"
        }
      ],
      "stateMutability": "nonpayable",
      "type": "function"
    },
    {
      "inputs": [
        {
          "internalType": "address",
          "name": "from",
          "type": "address"
        },
        {
          "internalType": "address",
          "name": "to",
          "type": "address"
        },
        {
          "internalType": "uint256",
          "name": "value",
          "type": "uint256"
        }
      ],
      "name": "transferFrom",
      "outputs": [
        {
          "internalType": "bool",
          "name": "",
          "type": "bool"
        }
      ],
      "stateMutability": "nonpayable",
      "type": "function"
    },
    {
      "inputs": [
        {
          "internalType": "address",
          "name": "newOwner",
          "type": "address"
        }
      ],
      "name": "transferOwnership",
      "outputs": [],
      "stateMutability": "nonpayable",
      "type": "function"
    },
    {
      "inputs": [
        {
          "internalType": "string",
          "name": "code_",
          "type": "string"
        }
      ],
      "name": "useReferralCode",
      "outputs": [],
      "stateMutability": "nonpayable",
      "type": "function"
    },
    {
      "inputs": [],
      "name": "useReferralOnlyInDeposits",
      "outputs": [
        {
          "internalType": "bool",
          "name": "",
          "type": "bool"
        }
      ],
      "stateMutability": "view",
      "type": "function"
    },
    {
      "inputs": [
        {
          "internalType": "uint256",
          "name": "assets",
          "type": "uint256"
        },
        {
          "internalType": "address",
          "name": "receiver",
          "type": "address"
        },
        {
          "internalType": "address",
          "name": "owner",
          "type": "address"
        }
      ],
      "name": "withdraw",
      "outputs": [
        {
          "internalType": "uint256",
          "name": "",
          "type": "uint256"
        }
      ],
      "stateMutability": "nonpayable",
      "type": "function"
    },
    {
      "inputs": [],
      "name": "withdrawalsEnabled",
      "outputs": [
        {
          "internalType": "bool",
          "name": "",
          "type": "bool"
        }
      ],
      "stateMutability": "view",
      "type": "function"
    }
  ],
  "bytecode": "0x60c060405234801561001057600080fd5b50604051612bbb380380612bbb83398101604081905261002f916102f3565b83838383600361003f838261040c565b50600461004c828261040c565b505050600080610061836100ea60201b60201c565b9150915081610071576012610073565b805b60ff1660a05250506001600160a01b0390811660805281166100af57604051631e4fbdf760e01b81526000600482015260240160405180910390fd5b6100b8816101c6565b50506005805464ffffffffff60a01b191664010001010160a01b1790555050683635c9adc5dea00000600655506104ff565b60408051600481526024810182526020810180516001600160e01b031663313ce56760e01b17905290516000918291829182916001600160a01b03871691610131916104ca565b600060405180830381855afa9150503d806000811461016c576040519150601f19603f3d011682016040523d82523d6000602084013e610171565b606091505b509150915081801561018557506020815110155b156101b9576000818060200190518101906101a091906104e6565b905060ff81116101b7576001969095509350505050565b505b5060009485945092505050565b600580546001600160a01b038381166001600160a01b0319831681179093556040519116919082907f8be0079c531659141344cd1fd0a4f28419497f9722a3daafe3b4186f6b6457e090600090a35050565b6001600160a01b038116811461022d57600080fd5b50565b634e487b7160e01b600052604160045260246000fd5b60005b83811015610261578181015183820152602001610249565b50506000910152565b600082601f83011261027b57600080fd5b81516001600160401b0381111561029457610294610230565b604051601f8201601f19908116603f011681016001600160401b03811182821017156102c2576102c2610230565b6040528181528382016020018510156102da57600080fd5b6102eb826020830160208701610246565b949350505050565b6000806000806080858703121561030957600080fd5b845161031481610218565b602086015190945061032581610218565b60408601519093506001600160401b0381111561034157600080fd5b61034d8782880161026a565b606087015190935090506001600160401b0381111561036b57600080fd5b6103778782880161026a565b91505092959194509250565b600181811c9082168061039757607f821691505b6020821081036103b757634e487b7160e01b600052602260045260246000fd5b50919050565b601f82111561040757806000526020600020601f840160051c810160208510156103e45750805b601f840160051c820191505b8181101561040457600081556001016103f0565b50505b505050565b81516001600160401b0381111561042557610425610230565b610439816104338454610383565b846103bd565b6020601f82116001811461046d57600083156104555750848201515b600019600385901b1c1916600184901b178455610404565b600084815260208120601f198516915b8281101561049d578785015182556020948501946001909201910161047d565b50848210156104bb5786840151600019600387901b60f8161c191681555b50505050600190811b01905550565b600082516104dc818460208701610246565b9190910192915050565b6000602082840312156104f857600080fd5b5051919050565b60805160a0516126826105396000396000610be901526000818161040d0152818161074f0152818161199c0152611a4e01526126826000f3fe608060405234801561001057600080fd5b50600436106103155760003560e01c80638da5cb5b116101a7578063ba087652116100ee578063d905777e11610097578063e61aec6711610071578063e61aec67146106f8578063ef8b30f71461064d578063f2fde38b1461070b57600080fd5b8063d905777e14610699578063dd62ed3e146106ac578063ddc117ec146106e557600080fd5b8063c6e6f592116100c8578063c6e6f5921461064d578063ce96cb7714610660578063d0dbcd241461067357600080fd5b8063ba08765214610606578063bb33bd6c14610619578063c63d75b61461045957600080fd5b80639e96e6d211610150578063a9059cbb1161012a578063a9059cbb146105cd578063b3d7f6b9146105e0578063b460af94146105f357600080fd5b80639e96e6d21461059e5780639f04586c146105a75780639f68b575146105ba57600080fd5b806394bf804d1161018157806394bf804d1461057057806394eaf06a1461058357806395d89b411461059657600080fd5b80638da5cb5b146105245780638edf964714610535578063909078581461055d57600080fd5b806333a8433a1161026b5780635392fd1c1161021457806370a08231116101ee57806370a08231146104e0578063715018a61461050957806374a5b0e11461051157600080fd5b80635392fd1c1461048157806363a09663146104a65780636e553f65146104cd57600080fd5b8063402d267d11610245578063402d267d1461045957806345b965001461046e5780634cdad5061461034a57600080fd5b806333a8433a146103f857806338d52e0f1461040b5780633cc5634b1461044557600080fd5b80630a28a477116102cd57806323b872dd116102a757806323b872dd146103c35780632e108d1c146103d6578063313ce567146103de57600080fd5b80630a28a477146103955780630f65ba1e146103a857806318160ddd146103bb57600080fd5b806307a2d13a116102fe57806307a2d13a1461034a578063095ea7b31461035d5780630a1793271461038057600080fd5b806301e1d1141461031a57806306fdde0314610335575b600080fd5b61032261071e565b6040519081526020015b60405180910390f35b61033d6107c7565b60405161032c9190611f3d565b610322610358366004611f50565b610859565b61037061036b366004611f85565b61086c565b604051901515815260200161032c565b61039361038e366004611fbf565b610884565b005b6103226103a3366004611f50565b610911565b6103936103b6366004611fbf565b61091e565b600254610322565b6103706103d1366004611fda565b6109a1565b6103936109c7565b6103e6610be1565b60405160ff909116815260200161032c565b6103936104063660046120bd565b610c0d565b7f00000000000000000000000000000000000000000000000000000000000000005b6040516001600160a01b03909116815260200161032c565b60055461037090600160c01b900460ff1681565b6103226104673660046120f2565b5060001990565b61039361047c36600461210d565b610c5e565b6005546103709074010000000000000000000000000000000000000000900460ff1681565b60055461037090760100000000000000000000000000000000000000000000900460ff1681565b6103226104db36600461215b565b610c94565b6103226104ee3660046120f2565b6001600160a01b031660009081526020819052604090205490565b610393610cc8565b61039361051f366004611fbf565b610cdc565b6005546001600160a01b031661042d565b6005546103709077010000000000000000000000000000000000000000000000900460ff1681565b61039361056b366004611f50565b610d4c565b61032261057e36600461215b565b610d89565b610393610591366004611fbf565b610da7565b61033d610e2b565b61032260065481565b6103936105b5366004611fbf565b610e3a565b6103226105c8366004612187565b610ebb565b6103706105db366004611f85565b610edc565b6103226105ee366004611f50565b610eea565b6103226106013660046121de565b610ef7565b6103226106143660046121de565b610f72565b61042d6106273660046120bd565b80516020818301810180516008825292820191909301209152546001600160a01b031681565b61032261065b366004611f50565b610fed565b61032261066e3660046120f2565b610ffa565b600554610370907501000000000000000000000000000000000000000000900460ff1681565b6103226106a73660046120f2565b61101e565b6103226106ba36600461221a565b6001600160a01b03918216600090815260016020908152604080832093909416825291909152205490565b61033d6106f33660046120f2565b61103c565b610393610706366004612244565b6110d6565b6103936107193660046120f2565b611149565b6040517f70a082310000000000000000000000000000000000000000000000000000000081523060048201526000907f00000000000000000000000000000000000000000000000000000000000000006001600160a01b0316906370a0823190602401602060405180830381865afa15801561079e573d6000803e3d6000fd5b505050506040513d601f19601f820116820180604052508101906107c29190612289565b905090565b6060600380546107d6906122a2565b80601f0160208091040260200160405190810160405280929190818152602001828054610802906122a2565b801561084f5780601f106108245761010080835404028352916020019161084f565b820191906000526020600020905b81548152906001019060200180831161083257829003601f168201915b5050505050905090565b600061086682600061119d565b92915050565b60003361087a8185856111d7565b5060019392505050565b61088c6111e9565b600580548215157501000000000000000000000000000000000000000000027fffffffffffffffffffff00ffffffffffffffffffffffffffffffffffffffffff9091161790556040517f45e7e6146471a396eb58b618e88efd46f5c95bd1815b282ed75c5220a559ab109061090690831515815260200190565b60405180910390a150565b600061086682600161122f565b6109266111e9565b60058054821515760100000000000000000000000000000000000000000000027fffffffffffffffffff00ffffffffffffffffffffffffffffffffffffffffffff9091161790556040517f39d1e046657e0b945c1a67c1a65d784065b825ee87b8d5186c4b2de8dece17329061090690831515815260200190565b6000336109af85828561125f565b6109ba8585856112f7565b60019150505b9392505050565b600554760100000000000000000000000000000000000000000000900460ff16610a1d576040517fd96a9b5d00000000000000000000000000000000000000000000000000000000815260040160405180910390fd5b600654610a29336104ee565b1015610a61576040517f988c15d800000000000000000000000000000000000000000000000000000000815260040160405180910390fd5b336000610a6e6006611388565b905060006001600160a01b0316600882604051610a8b91906122dc565b908152604051908190036020019020546001600160a01b031614610adb576040517fe3ba090400000000000000000000000000000000000000000000000000000000815260040160405180910390fd5b6001600160a01b03821660009081526009602052604090208054610afe906122a2565b159050610b37576040517f61b8b41d00000000000000000000000000000000000000000000000000000000815260040160405180910390fd5b81600882604051610b4891906122dc565b908152604080516020928190038301902080547fffffffffffffffffffffffff0000000000000000000000000000000000000000166001600160a01b039485161790559184166000908152600990915220610ba3828261233f565b507fbbba1cab2093e26ee6b388fefb2109576871f9236f9c1f22779dad4b82093b7b8282604051610bd59291906123fe565b60405180910390a15050565b60006107c2817f0000000000000000000000000000000000000000000000000000000000000000612436565b600554600160c01b900460ff1615610c51576040517fd96a9b5d00000000000000000000000000000000000000000000000000000000815260040160405180910390fd5b610c5b338261149a565b50565b610c666111e9565b8051600003610c7957610a6e6006611388565b60006001600160a01b0316600882604051610a8b91906122dc565b6000600019610ca7565b60405180910390fd5b6000610cb285610fed565b9050610cc0338587846115fa565b949350505050565b610cd06111e9565b610cda600061165a565b565b610ce46111e9565b60058054821515600160c01b027fffffffffffffff00ffffffffffffffffffffffffffffffffffffffffffffffff9091161790556040517f266a8da3664fe5a757627c032b4b18eec9246787872eaf6e98fda792d9df57919061090690831515815260200190565b610d546111e9565b60068190556040518181527fff564c1beece133c0c8035cf64ecd45cc945e0761d70dd34b96a7cfd1328236090602001610906565b60006000196000610d9985610eea565b9050610cc0338583886115fa565b610daf6111e9565b6005805482151577010000000000000000000000000000000000000000000000027fffffffffffffffff00ffffffffffffffffffffffffffffffffffffffffffffff9091161790556040517f02b87843702214172db05525009563411bd7a39a34f5a9bd7060558862b8b1a09061090690831515815260200190565b6060600480546107d6906122a2565b610e426111e9565b6005805482151574010000000000000000000000000000000000000000027fffffffffffffffffffffff00ffffffffffffffffffffffffffffffffffffffff9091161790556040517f7b014ed3854e7f5cb0218d58b3c6ae7d53a68bb0af2f67bfb029ea42c38a7e859061090690831515815260200190565b6000610ec7338361149a565b6000610ed38585610c94565b95945050505050565b60003361087a8185856112f7565b600061086682600161119d565b600080610f0383610ffa565b905080851115610f58576040517ffe9cceec0000000000000000000000000000000000000000000000000000000081526001600160a01b03841660048201526024810186905260448101829052606401610c9e565b6000610f6386610911565b9050610ed333868689856116c4565b600080610f7e8361101e565b905080851115610fd3576040517fb94abeec0000000000000000000000000000000000000000000000000000000081526001600160a01b03841660048201526024810186905260448101829052606401610c9e565b6000610fde86610859565b9050610ed3338686848a6116c4565b600061086682600061122f565b6001600160a01b03811660009081526020819052604081205461086690600061119d565b6001600160a01b038116600090815260208190526040812054610866565b60096020526000908152604090208054611055906122a2565b80601f0160208091040260200160405190810160405280929190818152602001828054611081906122a2565b80156110ce5780601f106110a3576101008083540402835291602001916110ce565b820191906000526020600020905b8154815290600101906020018083116110b157829003601f168201915b505050505081565b6110de6111e9565b60006008836040516110f091906122dc565b908152604051908190036020018120546001600160a01b031691507fa6d307161ae78a18be8a750227ce44005bdb8d8f5aff3ec32ba3b780ab8161459061113c9083908690869061244f565b60405180910390a1505050565b6111516111e9565b6001600160a01b038116611194576040517f1e4fbdf700000000000000000000000000000000000000000000000000000000815260006004820152602401610c9e565b610c5b8161165a565b60006109c06111aa61071e565b6111b5906001612483565b6111c16000600a61257d565b6002546111ce9190612483565b8591908561172d565b6111e48383836001611771565b505050565b6005546001600160a01b03163314610cda576040517f118cdaa7000000000000000000000000000000000000000000000000000000008152336004820152602401610c9e565b60006109c061123f82600a61257d565b60025461124c9190612483565b61125461071e565b6111ce906001612483565b6001600160a01b038381166000908152600160209081526040808320938616835292905220546000198110156112f157818110156112e2576040517ffb8f41b20000000000000000000000000000000000000000000000000000000081526001600160a01b03841660048201526024810182905260448101839052606401610c9e565b6112f184848484036000611771565b50505050565b6001600160a01b03831661133a576040517f96c6fd1e00000000000000000000000000000000000000000000000000000000815260006004820152602401610c9e565b6001600160a01b03821661137d576040517fec442f0500000000000000000000000000000000000000000000000000000000815260006004820152602401610c9e565b6111e4838383611878565b606060008267ffffffffffffffff8111156113a5576113a5612017565b6040519080825280601f01601f1916602001820160405280156113cf576020820181803683370190505b5060408051602e80825260608201909252919250600091906020820181803683370190505090506040518060600160405280602e815260200161261f602e9139905060005b84811015611491576000611428602e611909565b905082818151811061143c5761143c61258c565b602001015160f81c60f81b8483815181106114595761145961258c565b60200101907effffffffffffffffffffffffffffffffffffffffffffffffffffffffffffff1916908160001a90535050600101611414565b50909392505050565b8051156115f6576001600160a01b0382166000908152600a6020526040902080546114c4906122a2565b90506000036115f65760006001600160a01b03166008826040516114e891906122dc565b908152604051908190036020019020546001600160a01b0316146115c457816001600160a01b031660088260405161152091906122dc565b908152604051908190036020019020546001600160a01b031603611570576040517fe59f799b00000000000000000000000000000000000000000000000000000000815260040160405180910390fd5b6001600160a01b0382166000908152600a60205260409020611592828261233f565b507fb3d2df42f150b9969069bbcb6cfe047d4255ba353ac2949608e81cea5790aa1a8282604051610bd59291906123fe565b6040517f8214902100000000000000000000000000000000000000000000000000000000815260040160405180910390fd5b5050565b60055474010000000000000000000000000000000000000000900460ff1661164e576040517f717a164800000000000000000000000000000000000000000000000000000000815260040160405180910390fd5b6112f184848484611997565b600580546001600160a01b038381167fffffffffffffffffffffffff0000000000000000000000000000000000000000831681179093556040519116919082907f8be0079c531659141344cd1fd0a4f28419497f9722a3daafe3b4186f6b6457e090600090a35050565b6005547501000000000000000000000000000000000000000000900460ff16611719576040517f46ee9e3500000000000000000000000000000000000000000000000000000000815260040160405180910390fd5b6117268585858585611a1b565b5050505050565b600061175c61173b83611adb565b8015611757575060008480611752576117526125a2565b868809115b151590565b611767868686611b08565b610ed39190612483565b6001600160a01b0384166117b4576040517fe602df0500000000000000000000000000000000000000000000000000000000815260006004820152602401610c9e565b6001600160a01b0383166117f7576040517f94280d6200000000000000000000000000000000000000000000000000000000815260006004820152602401610c9e565b6001600160a01b03808516600090815260016020908152604080832093871683529290522082905580156112f157826001600160a01b0316846001600160a01b03167f8c5be1e5ebec7d5bd14f71427d1e84f3dd0314c0f7b2291e5b200ac8c7c3b9258460405161186a91815260200190565b60405180910390a350505050565b60055477010000000000000000000000000000000000000000000000900460ff1680156118c757506001600160a01b0382166000908152600a6020526040902080546118c3906122a2565b1590505b156118fe576040517f9c591a2800000000000000000000000000000000000000000000000000000000815260040160405180910390fd5b6111e4838383611bc3565b600780546000918261191a836125b8565b9190505550814244336007546040516020016119749493929190938452602084019290925260601b7fffffffffffffffffffffffffffffffffffffffff000000000000000000000000166040830152605482015260740190565b6040516020818303038152906040528051906020012060001c61086691906125d2565b6119c37f0000000000000000000000000000000000000000000000000000000000000000853085611d06565b6119cd8382611d82565b826001600160a01b0316846001600160a01b03167fdcbc1c05240f31ff3ad067ef1ee35ce4997762752e3a095284754544f4c709d7848460405161186a929190918252602082015260400190565b826001600160a01b0316856001600160a01b031614611a3f57611a3f83868361125f565b611a498382611dd1565b611a747f00000000000000000000000000000000000000000000000000000000000000008584611e20565b826001600160a01b0316846001600160a01b0316866001600160a01b03167ffbde797d201c681b91056529119e0b02407c7bb96a4a2c75c01fc9667232c8db8585604051611acc929190918252602082015260400190565b60405180910390a45050505050565b60006002826003811115611af157611af16125e6565b611afb91906125fc565b60ff166001149050919050565b6000838302816000198587098281108382030391505080600003611b3f57838281611b3557611b356125a2565b04925050506109c0565b808411611b5657611b566003851502601118611e51565b6000848688096000868103871696879004966002600389028118808a02820302808a02820302808a02820302808a02820302808a02820302808a02909103029181900381900460010186841190950394909402919094039290920491909117919091029150509392505050565b6001600160a01b038316611bee578060026000828254611be39190612483565b90915550611c799050565b6001600160a01b03831660009081526020819052604090205481811015611c5a576040517fe450d38c0000000000000000000000000000000000000000000000000000000081526001600160a01b03851660048201526024810182905260448101839052606401610c9e565b6001600160a01b03841660009081526020819052604090209082900390555b6001600160a01b038216611c9557600280548290039055611cb4565b6001600160a01b03821660009081526020819052604090208054820190555b816001600160a01b0316836001600160a01b03167fddf252ad1be2c89b69c2b068fc378daa952ba7f163c4a11628f55a4df523b3ef83604051611cf991815260200190565b60405180910390a3505050565b6040516001600160a01b0384811660248301528381166044830152606482018390526112f19186918216906323b872dd906084015b604051602081830303815290604052915060e01b6020820180517bffffffffffffffffffffffffffffffffffffffffffffffffffffffff8381831617835250505050611e63565b6001600160a01b038216611dc5576040517fec442f0500000000000000000000000000000000000000000000000000000000815260006004820152602401610c9e565b6115f660008383611878565b6001600160a01b038216611e14576040517f96c6fd1e00000000000000000000000000000000000000000000000000000000815260006004820152602401610c9e565b6115f682600083611878565b6040516001600160a01b038381166024830152604482018390526111e491859182169063a9059cbb90606401611d3b565b634e487b71600052806020526024601cfd5b600080602060008451602086016000885af180611e86576040513d6000823e3d81fd5b50506000513d91508115611e9e578060011415611eab565b6001600160a01b0384163b155b156112f1576040517f5274afe70000000000000000000000000000000000000000000000000000000081526001600160a01b0385166004820152602401610c9e565b60005b83811015611f08578181015183820152602001611ef0565b50506000910152565b60008151808452611f29816020860160208601611eed565b601f01601f19169290920160200192915050565b6020815260006109c06020830184611f11565b600060208284031215611f6257600080fd5b5035919050565b80356001600160a01b0381168114611f8057600080fd5b919050565b60008060408385031215611f9857600080fd5b611fa183611f69565b946020939093013593505050565b80358015158114611f8057600080fd5b600060208284031215611fd157600080fd5b6109c082611faf565b600080600060608486031215611fef57600080fd5b611ff884611f69565b925061200660208501611f69565b929592945050506040919091013590565b634e487b7160e01b600052604160045260246000fd5b600082601f83011261203e57600080fd5b813567ffffffffffffffff81111561205857612058612017565b604051601f19603f601f19601f8501160116810181811067ffffffffffffffff8211171561208857612088612017565b6040528181528382016020018510156120a057600080fd5b816020850160208301376000918101602001919091529392505050565b6000602082840312156120cf57600080fd5b813567ffffffffffffffff8111156120e657600080fd5b610cc08482850161202d565b60006020828403121561210457600080fd5b6109c082611f69565b6000806040838503121561212057600080fd5b61212983611f69565b9150602083013567ffffffffffffffff81111561214557600080fd5b6121518582860161202d565b9150509250929050565b6000806040838503121561216e57600080fd5b8235915061217e60208401611f69565b90509250929050565b60008060006060848603121561219c57600080fd5b833592506121ac60208501611f69565b9150604084013567ffffffffffffffff8111156121c857600080fd5b6121d48682870161202d565b9150509250925092565b6000806000606084860312156121f357600080fd5b8335925061220360208501611f69565b915061221160408501611f69565b90509250925092565b6000806040838503121561222d57600080fd5b61223683611f69565b915061217e60208401611f69565b6000806040838503121561225757600080fd5b823567ffffffffffffffff81111561226e57600080fd5b61227a8582860161202d565b92505061217e60208401611faf565b60006020828403121561229b57600080fd5b5051919050565b600181811c908216806122b657607f821691505b6020821081036122d657634e487b7160e01b600052602260045260246000fd5b50919050565b600082516122ee818460208701611eed565b9190910192915050565b601f8211156111e457806000526020600020601f840160051c8101602085101561231f5750805b601f840160051c820191505b81811015611726576000815560010161232b565b815167ffffffffffffffff81111561235957612359612017565b61236d8161236784546122a2565b846122f8565b6020601f8211600181146123a157600083156123895750848201515b600019600385901b1c1916600184901b178455611726565b600084815260208120601f198516915b828110156123d157878501518255602094850194600190920191016123b1565b50848210156123ef5786840151600019600387901b60f8161c191681555b50505050600190811b01905550565b6001600160a01b0383168152604060208201526000610cc06040830184611f11565b634e487b7160e01b600052601160045260246000fd5b60ff818116838216019081111561086657610866612420565b6001600160a01b03841681526060602082015260006124716060830185611f11565b90508215156040830152949350505050565b8082018082111561086657610866612420565b6001815b60018411156124d1578085048111156124b5576124b5612420565b60018416156124c357908102905b60019390931c92800261249a565b935093915050565b6000826124e857506001610866565b816124f557506000610866565b816001811461250b576002811461251557612531565b6001915050610866565b60ff84111561252657612526612420565b50506001821b610866565b5060208310610133831016604e8410600b8410161715612554575081810a610866565b6125616000198484612496565b806000190482111561257557612575612420565b029392505050565b60006109c060ff8416836124d9565b634e487b7160e01b600052603260045260246000fd5b634e487b7160e01b600052601260045260246000fd5b600060001982036125cb576125cb612420565b5060010190565b6000826125e1576125e16125a2565b500690565b634e487b7160e01b600052602160045260246000fd5b600060ff83168061260f5761260f6125a2565b8060ff8416069150509291505056fe4142434445464748494a4b4c4d4e4f505152535455565758595a3031323334353637383930313233343536373839a2646970667358221220733402de30de019a1a1e439332311a2ac9b24bd2a5afc75ec842a38f67aace2d64736f6c634300081c0033",
  "linkReferences": {},
  "deployedLinkReferences": {}
}